{
  "contractName": "FamepayBounty",
  "abi": [
    {
      "inputs": [
        {
          "internalType": "address payable",
          "name": "_business",
          "type": "address"
        },
        {
          "internalType": "uint256",
          "name": "_startDate",
          "type": "uint256"
        },
        {
          "internalType": "uint256",
          "name": "_deadline",
          "type": "uint256"
        },
        {
          "internalType": "uint256",
          "name": "_simplePostDuration",
          "type": "uint256"
        },
        {
          "internalType": "uint256",
          "name": "_maxJackpotReward",
          "type": "uint256"
        },
        {
          "internalType": "uint256",
          "name": "_jackpotTargetAmount",
          "type": "uint256"
        },
        {
          "internalType": "uint256",
          "name": "_bountyId",
          "type": "uint256"
        },
        {
          "internalType": "uint256",
          "name": "_maxWinners",
          "type": "uint256"
        },
        {
          "internalType": "contract AccessControl",
          "name": "_accessControl",
          "type": "address"
        },
        {
          "internalType": "bytes4",
          "name": "_objective",
          "type": "bytes4"
        },
        {
          "internalType": "bytes32",
          "name": "_bountyType",
          "type": "bytes32"
        }
      ],
      "stateMutability": "payable",
      "type": "constructor"
    },
    {
      "anonymous": false,
      "inputs": [
        {
          "indexed": false,
          "internalType": "uint256",
          "name": "_refundableAmount",
          "type": "uint256"
        },
        {
          "indexed": false,
          "internalType": "uint256",
          "name": "_bountyId",
          "type": "uint256"
        }
      ],
      "name": "CampaignEnding",
      "type": "event"
    },
    {
      "anonymous": false,
      "inputs": [
        {
          "indexed": true,
          "internalType": "address",
          "name": "_influencer",
          "type": "address"
        },
        {
          "indexed": false,
          "internalType": "uint256",
          "name": "_bountyId",
          "type": "uint256"
        }
      ],
      "name": "InfluencerBlacklisted",
      "type": "event"
    },
    {
      "anonymous": false,
      "inputs": [
        {
          "indexed": true,
          "internalType": "address",
          "name": "_influencer",
          "type": "address"
        },
        {
          "indexed": false,
          "internalType": "uint256",
          "name": "_bountyId",
          "type": "uint256"
        }
      ],
      "name": "InfluencerRemoved",
      "type": "event"
    },
    {
      "anonymous": false,
      "inputs": [
        {
          "indexed": false,
          "internalType": "uint256",
          "name": "_amount",
          "type": "uint256"
        },
        {
          "indexed": true,
          "internalType": "address",
          "name": "_influencer",
          "type": "address"
        },
        {
          "indexed": false,
          "internalType": "uint256",
          "name": "_bountyId",
          "type": "uint256"
        }
      ],
      "name": "JackpotInfluencerPayment",
      "type": "event"
    },
    {
      "anonymous": false,
      "inputs": [
        {
          "indexed": false,
          "internalType": "bool",
          "name": "_targetReached",
          "type": "bool"
        },
        {
          "indexed": true,
          "internalType": "address",
          "name": "_winningInfluencer",
          "type": "address"
        },
        {
          "indexed": false,
          "internalType": "uint256",
          "name": "_bountyId",
          "type": "uint256"
        }
      ],
      "name": "JackpotTargetReached",
      "type": "event"
    },
    {
      "anonymous": false,
      "inputs": [
        {
          "indexed": true,
          "internalType": "address",
          "name": "_newInfluencer",
          "type": "address"
        },
        {
          "indexed": false,
          "internalType": "uint256",
          "name": "_bountyId",
          "type": "uint256"
        }
      ],
      "name": "NewInfluencerAdded",
      "type": "event"
    },
    {
      "anonymous": false,
      "inputs": [
        {
          "indexed": false,
          "internalType": "address",
          "name": "account",
          "type": "address"
        }
      ],
      "name": "Paused",
      "type": "event"
    },
    {
      "anonymous": false,
      "inputs": [
        {
          "indexed": false,
          "internalType": "address",
          "name": "account",
          "type": "address"
        }
      ],
      "name": "Unpaused",
      "type": "event"
    },
    {
      "stateMutability": "payable",
      "type": "fallback"
    },
    {
      "inputs": [],
      "name": "ADMIN_ROLE",
      "outputs": [
        {
          "internalType": "bytes32",
          "name": "",
          "type": "bytes32"
        }
      ],
      "stateMutability": "view",
      "type": "function"
    },
    {
      "inputs": [
        {
          "internalType": "address",
          "name": "",
          "type": "address"
        }
      ],
      "name": "blacklistedInfluencers",
      "outputs": [
        {
          "internalType": "address",
          "name": "",
          "type": "address"
        }
      ],
      "stateMutability": "view",
      "type": "function"
    },
    {
      "inputs": [],
      "name": "bountyType",
      "outputs": [
        {
          "internalType": "enum FamepayBounty.BountyType",
          "name": "",
          "type": "uint8"
        }
      ],
      "stateMutability": "view",
      "type": "function"
    },
    {
      "inputs": [],
      "name": "business",
      "outputs": [
        {
          "internalType": "address payable",
          "name": "",
          "type": "address"
        }
      ],
      "stateMutability": "view",
      "type": "function"
    },
    {
      "inputs": [],
      "name": "campaignId",
      "outputs": [
        {
          "internalType": "uint256",
          "name": "",
          "type": "uint256"
        }
      ],
      "stateMutability": "view",
      "type": "function"
    },
    {
      "inputs": [],
      "name": "campaignIsUnderProtest",
      "outputs": [
        {
          "internalType": "bool",
          "name": "",
          "type": "bool"
        }
      ],
      "stateMutability": "view",
      "type": "function"
    },
    {
      "inputs": [],
      "name": "confirmedPaymentAmount",
      "outputs": [
        {
          "internalType": "uint256",
          "name": "",
          "type": "uint256"
        }
      ],
      "stateMutability": "view",
      "type": "function"
    },
    {
      "inputs": [],
      "name": "deadline",
      "outputs": [
        {
          "internalType": "uint256",
          "name": "",
          "type": "uint256"
        }
      ],
      "stateMutability": "view",
      "type": "function"
    },
    {
      "inputs": [],
      "name": "fixedPotReward",
      "outputs": [
        {
          "internalType": "uint256",
          "name": "",
          "type": "uint256"
        }
      ],
      "stateMutability": "view",
      "type": "function"
    },
    {
      "inputs": [
        {
          "internalType": "address",
          "name": "",
          "type": "address"
        }
      ],
      "name": "influencers",
      "outputs": [
        {
          "internalType": "address payable",
          "name": "influencer",
          "type": "address"
        },
        {
          "internalType": "bool",
          "name": "paidOut",
          "type": "bool"
        },
        {
          "internalType": "bool",
          "name": "isWinner",
          "type": "bool"
        },
        {
          "internalType": "bool",
          "name": "isUnderProtest",
          "type": "bool"
        },
        {
          "internalType": "uint256",
          "name": "gracePayout",
          "type": "uint256"
        }
      ],
      "stateMutability": "view",
      "type": "function"
    },
    {
      "inputs": [
        {
          "internalType": "uint256",
          "name": "",
          "type": "uint256"
        }
      ],
      "name": "influencersUnderProtest",
      "outputs": [
        {
          "internalType": "address",
          "name": "",
          "type": "address"
        }
      ],
      "stateMutability": "view",
      "type": "function"
    },
    {
      "inputs": [],
      "name": "jackpotTargetAmount",
      "outputs": [
        {
          "internalType": "uint256",
          "name": "",
          "type": "uint256"
        }
      ],
      "stateMutability": "view",
      "type": "function"
    },
    {
      "inputs": [],
      "name": "maxJackpotReward",
      "outputs": [
        {
          "internalType": "uint256",
          "name": "",
          "type": "uint256"
        }
      ],
      "stateMutability": "view",
      "type": "function"
    },
    {
      "inputs": [],
      "name": "maxWinners",
      "outputs": [
        {
          "internalType": "uint256",
          "name": "",
          "type": "uint256"
        }
      ],
      "stateMutability": "view",
      "type": "function"
    },
    {
      "inputs": [],
      "name": "objective",
      "outputs": [
        {
          "internalType": "bytes4",
          "name": "",
          "type": "bytes4"
        }
      ],
      "stateMutability": "view",
      "type": "function"
    },
    {
      "inputs": [],
      "name": "paused",
      "outputs": [
        {
          "internalType": "bool",
          "name": "",
          "type": "bool"
        }
      ],
      "stateMutability": "view",
      "type": "function"
    },
    {
      "inputs": [],
      "name": "simplePostDuration",
      "outputs": [
        {
          "internalType": "uint256",
          "name": "",
          "type": "uint256"
        }
      ],
      "stateMutability": "view",
      "type": "function"
    },
    {
      "inputs": [],
      "name": "startDate",
      "outputs": [
        {
          "internalType": "uint256",
          "name": "",
          "type": "uint256"
        }
      ],
      "stateMutability": "view",
      "type": "function"
    },
    {
      "inputs": [],
      "name": "totalBountyPot",
      "outputs": [
        {
          "internalType": "uint256",
          "name": "",
          "type": "uint256"
        }
      ],
      "stateMutability": "view",
      "type": "function"
    },
    {
      "inputs": [],
      "name": "totalWinners",
      "outputs": [
        {
          "internalType": "uint256",
          "name": "",
          "type": "uint256"
        }
      ],
      "stateMutability": "view",
      "type": "function"
    },
    {
      "inputs": [],
      "name": "winningInfluencer",
      "outputs": [
        {
          "internalType": "address",
          "name": "",
          "type": "address"
        }
      ],
      "stateMutability": "view",
      "type": "function"
    },
    {
      "inputs": [
        {
          "internalType": "uint256",
          "name": "",
          "type": "uint256"
        }
      ],
      "name": "winningInfluencers",
      "outputs": [
        {
          "internalType": "address payable",
          "name": "",
          "type": "address"
        }
      ],
      "stateMutability": "view",
      "type": "function"
    },
    {
      "inputs": [],
      "name": "addressBalance",
      "outputs": [
        {
          "internalType": "uint256",
          "name": "",
          "type": "uint256"
        }
      ],
      "stateMutability": "view",
      "type": "function"
    },
    {
      "inputs": [],
      "name": "addInfluencer",
      "outputs": [],
      "stateMutability": "nonpayable",
      "type": "function"
    },
    {
      "inputs": [
        {
          "internalType": "address",
          "name": "_influencer",
          "type": "address"
        }
      ],
      "name": "removeInfluencer",
      "outputs": [],
      "stateMutability": "nonpayable",
      "type": "function"
    },
    {
      "inputs": [
        {
          "internalType": "uint256",
          "name": "_postStat",
          "type": "uint256"
        },
        {
          "internalType": "bool",
          "name": "_postPosted",
          "type": "bool"
        },
        {
          "internalType": "uint256",
          "name": "_postTimestamp",
          "type": "uint256"
        }
      ],
      "name": "checkCampaignObjectiveReached",
      "outputs": [],
      "stateMutability": "nonpayable",
      "type": "function"
    },
    {
      "inputs": [],
      "name": "getWinnersLength",
      "outputs": [
        {
          "internalType": "uint256",
          "name": "",
          "type": "uint256"
        }
      ],
      "stateMutability": "view",
      "type": "function"
    },
    {
      "inputs": [],
      "name": "payInfluencer",
      "outputs": [],
      "stateMutability": "nonpayable",
      "type": "function"
    },
    {
      "inputs": [
        {
          "internalType": "address",
          "name": "_influencer",
          "type": "address"
        }
      ],
      "name": "protestWinningInfluencer",
      "outputs": [],
      "stateMutability": "nonpayable",
      "type": "function"
    },
    {
      "inputs": [
        {
          "internalType": "address",
          "name": "_influencer",
          "type": "address"
        }
      ],
      "name": "resolveProtest",
      "outputs": [],
      "stateMutability": "nonpayable",
      "type": "function"
    },
    {
      "inputs": [
        {
          "internalType": "address",
          "name": "_influencer",
          "type": "address"
        }
      ],
      "name": "blacklistInfluencer",
      "outputs": [],
      "stateMutability": "nonpayable",
      "type": "function"
    },
    {
      "inputs": [],
      "name": "getTimestamp",
      "outputs": [
        {
          "internalType": "uint256",
          "name": "",
          "type": "uint256"
        }
      ],
      "stateMutability": "view",
      "type": "function"
    },
    {
      "inputs": [],
      "name": "campaignEnded",
      "outputs": [],
      "stateMutability": "nonpayable",
      "type": "function"
    },
    {
      "inputs": [],
      "name": "pause",
      "outputs": [],
      "stateMutability": "nonpayable",
      "type": "function"
    },
    {
      "inputs": [],
      "name": "unpause",
      "outputs": [],
      "stateMutability": "nonpayable",
      "type": "function"
    }
  ],
  "bytecode": "0x608060408190526012805460ff60a01b19169055620024a63881900390819083398101604081905262000032916200017e565b60016000819055506000600160006101000a81548160ff0219169083151502179055508a600260006101000a8154816001600160a01b0302191690836001600160a01b031602179055508960068190555088600781905550876008819055508660048190555085600a8190555083600d81905550826001806101000a8154816001600160a01b0302191690836001600160a01b031602179055508460098190555081600c60006101000a81548163ffffffff021916908360e01c021790555060006a1d985c9a58589b19541bdd60aa1b9050600067199a5e1959141bdd60c21b9050818314156200012b576001805460ff60a81b191690555b808314156200014d576001805460ff60a81b1916600160a81b17905560058990555b50504760035550620002309950505050505050505050565b6001600160a01b03811681146200017b57600080fd5b50565b60008060008060008060008060008060006101608c8e031215620001a157600080fd5b8b51620001ae8162000165565b809b505060208c0151995060408c0151985060608c0151975060808c0151965060a08c0151955060c08c0151945060e08c015193506101008c0151620001f48162000165565b6101208d01519093506001600160e01b0319811681146200021457600080fd5b809250506101408c015190509295989b509295989b9093969950565b61226680620002406000396000f3fe6080604052600436106102345760003560e01c806372a998ea11610138578063bcc941b6116100b0578063d24e794b1161007f578063e74dc11c11610064578063e74dc11c14610746578063f318e55714610766578063f4de5e1a1461077957610234565b8063d24e794b14610711578063dba27bae1461072657610234565b8063bcc941b6146106af578063c32d4b7b146106c5578063c8ec9cf1146106db578063cde8e5d3146106fb57610234565b80639ebd699311610107578063b3000d35116100ec578063b3000d3514610656578063b3ca1f3b1461066c578063bc8711fd1461069a57610234565b80639ebd699314610600578063a58d20f41461063657610234565b806372a998ea1461058c57806375b238fc146105a15780638456cb59146105d55780638ed5b0fc146105ea57610234565b806338ed2712116101cb578063405088a71161019a57806367d30aa21161017f57806367d30aa21461052b57806368ad436f1461054b578063698eb8491461056c57610234565b8063405088a7146104f15780635c975abb1461050757610234565b806338ed27121461046f5780633bc47fbe146104a75780633e079f3f146104bc5780633f4ba83a146104dc57610234565b806329dcb0cf1161020757806329dcb0cf146104175780632de001c71461042d5780632fe289b3146104435780633869cbfa1461045957610234565b80630b97bc86146102f857806314f1586a14610321578063188ec3561461036c57806329473a531461037f575b6002546001600160a01b031633146102a45760405162461bcd60e51b815260206004820152602860248201527f4f6e6c792074686520627573696e6573732063616e2063616c6c207468697320604482015267333ab731ba34b7b760c11b60648201526084015b60405180910390fd5b6007544210156102f65760405162461bcd60e51b815260206004820152601960248201527f646561646c696e65206d75737420686176652070617373656400000000000000604482015260640161029b565b005b34801561030457600080fd5b5061030e60065481565b6040519081526020015b60405180910390f35b34801561032d57600080fd5b50600c5461033b9060e01b81565b6040517fffffffff000000000000000000000000000000000000000000000000000000009091168152602001610318565b34801561037857600080fd5b504261030e565b34801561038b57600080fd5b506103df61039a3660046120fe565b600f60205260009081526040902080546001909101546001600160a01b0382169160ff600160a01b8204811692600160a81b8304821692600160b01b90049091169085565b604080516001600160a01b0390961686529315156020860152911515928401929092529015156060830152608082015260a001610318565b34801561042357600080fd5b5061030e60075481565b34801561043957600080fd5b5061030e60055481565b34801561044f57600080fd5b5061030e600a5481565b34801561046557600080fd5b5061030e60085481565b34801561047b57600080fd5b5061048f61048a36600461212e565b610799565b6040516001600160a01b039091168152602001610318565b3480156104b357600080fd5b506102f66107c3565b3480156104c857600080fd5b506102f66104d73660046120fe565b6109db565b3480156104e857600080fd5b506102f6610c24565b3480156104fd57600080fd5b5061030e600b5481565b34801561051357600080fd5b5060015460ff165b6040519015158152602001610318565b34801561053757600080fd5b506102f6610546366004612155565b610d1a565b34801561055757600080fd5b5060125461051b90600160a01b900460ff1681565b34801561057857600080fd5b506102f66105873660046120fe565b61129f565b34801561059857600080fd5b506102f66115de565b3480156105ad57600080fd5b5061030e7fdf8b4c520ffe197c5343c6f5aec59570151ef9a492f2c624fd45ddde6135ec4281565b3480156105e157600080fd5b506102f66119e4565b3480156105f657600080fd5b5061030e60095481565b34801561060c57600080fd5b5061048f61061b3660046120fe565b6010602052600090815260409020546001600160a01b031681565b34801561064257600080fd5b5061048f61065136600461212e565b611ad8565b34801561066257600080fd5b5061030e60045481565b34801561067857600080fd5b5060015461068d90600160a81b900460ff1681565b60405161031891906121a3565b3480156106a657600080fd5b5060115461030e565b3480156106bb57600080fd5b5061030e600e5481565b3480156106d157600080fd5b5061030e60035481565b3480156106e757600080fd5b5060125461048f906001600160a01b031681565b34801561070757600080fd5b5061030e600d5481565b34801561071d57600080fd5b506102f6611ae8565b34801561073257600080fd5b506102f66107413660046120fe565b611d51565b34801561075257600080fd5b5060025461048f906001600160a01b031681565b34801561077257600080fd5b504761030e565b34801561078557600080fd5b506102f66107943660046120fe565b611e8f565b601181815481106107a957600080fd5b6000918252602090912001546001600160a01b0316905081565b6002546001600160a01b0316331461082e5760405162461bcd60e51b815260206004820152602860248201527f4f6e6c792074686520627573696e6573732063616e2063616c6c207468697320604482015267333ab731ba34b7b760c11b606482015260840161029b565b6007544210156108805760405162461bcd60e51b815260206004820152601960248201527f646561646c696e65206d75737420686176652070617373656400000000000000604482015260640161029b565b601254600160a01b900460ff16156109005760405162461bcd60e51b815260206004820152603a60248201527f63616d706169676e456e64656428293a2063616e6e6f7420656e642063616d7060448201527f6169676e207468617420697320756e6465722070726f74657374000000000000606482015260840161029b565b601154620159509015610990578060075461091b91906121cb565b4210156109905760405162461bcd60e51b815260206004820152602d60248201527f63616d706169676e456e64656428293a20677261636520636173686f7574207060448201527f6572696f64206f6e676f696e6700000000000000000000000000000000000000606482015260840161029b565b6009546040805147815260208101929092527f706cd8a8437103c208468aa802ad1abee5e1c662b77f9506a80137f5677062ef910160405180910390a16002546001600160a01b0316ff5b6002546001600160a01b0316331480610a855750600154604051632474521560e21b81527fdf8b4c520ffe197c5343c6f5aec59570151ef9a492f2c624fd45ddde6135ec4260048201523360248201526101009091046001600160a01b0316906391d1485490604401602060405180830381865afa158015610a61573d6000803e3d6000fd5b505050506040513d601f19601f82011682018060405250810190610a8591906121f1565b610ad15760405162461bcd60e51b815260206004820181905260248201527f43616c6c6572206d75737420626520627573696e657373206f722061646d696e604482015260640161029b565b601254600160a01b900460ff16610b505760405162461bcd60e51b815260206004820152603c60248201527f7265736f6c766550726f7465737428293a2063616e6e6f742063616e63656c2060448201527f70726f74657374206966206e6f7420756e6465722070726f7465737400000000606482015260840161029b565b6001600160a01b0381166000908152600f6020526040902054600160b01b900460ff16610be55760405162461bcd60e51b815260206004820152603f60248201527f70726f7465737457696e6e696e67496e666c75656e63657228293a20696e666c60448201527f75656e63657220697320616c726561647920756e6465722070726f7465737400606482015260840161029b565b6001600160a01b0381166000908152600f60205260409020805460ff60b01b1916905560135460011115610c21576012805460ff60a01b191690555b50565b600154604051632474521560e21b81527fdf8b4c520ffe197c5343c6f5aec59570151ef9a492f2c624fd45ddde6135ec4260048201523360248201526101009091046001600160a01b0316906391d1485490604401602060405180830381865afa158015610c96573d6000803e3d6000fd5b505050506040513d601f19601f82011682018060405250810190610cba91906121f1565b610d105760405162461bcd60e51b815260206004820152602160248201527f4f6e6c792061646d696e2063616e2063616c6c20746869732066756e6374696f6044820152603760f91b606482015260840161029b565b610d18611fdc565b565b60026000541415610d6d5760405162461bcd60e51b815260206004820152601f60248201527f5265656e7472616e637947756172643a207265656e7472616e742063616c6c00604482015260640161029b565b6002600055600754421015610dc45760405162461bcd60e51b815260206004820152601960248201527f646561646c696e65206d75737420686176652070617373656400000000000000604482015260640161029b565b336000818152600f60205260409020546001600160a01b031614610e505760405162461bcd60e51b815260206004820152603e60248201527f636865636b43616d706169676e4f626a6563746976655265616368656428293a60448201527f204d757374206265207265676973746572656420696e666c75656e6365720000606482015260840161029b565b81610ec35760405162461bcd60e51b815260206004820152603660248201527f636865636b43616d706169676e4f626a6563746976655265616368656428293a60448201527f20706f737420776173206e6f74206f627461696e656400000000000000000000606482015260840161029b565b600754811115610f615760405162461bcd60e51b815260206004820152604160248201527f636865636b43616d706169676e4f626a6563746976655265616368656428293a60448201527f20706f7374206d757374206265206265666f72652074686520646561646c696e60648201527f6500000000000000000000000000000000000000000000000000000000000000608482015260a40161029b565b600654811015610fff5760405162461bcd60e51b815260206004820152604660248201527f636865636b43616d706169676e4f626a6563746976655265616368656428293a60448201527f20706f7374206d7573742062652061667465722063616d706169676e2073746160648201527f7274446174650000000000000000000000000000000000000000000000000000608482015260a40161029b565b600a5483101561109d5760405162461bcd60e51b815260206004820152604160248201527f636865636b43616d706169676e4f626a6563746976655265616368656428293a60448201527f206a61636b706f7420746172676574206d75737420626520736174697366696560648201527f6400000000000000000000000000000000000000000000000000000000000000608482015260a40161029b565b336000908152600f6020526040902054600160a81b900460ff161561112a5760405162461bcd60e51b815260206004820152603a60248201527f636865636b43616d706169676e4f626a6563746976655265616368656428293a60448201527f2077696e6e657220616c72656164792072656769737465726564000000000000606482015260840161029b565b6011805460018101825560008290527f31ecc21a745e3968a04e9570e4425bc18fa8019c68028196b546d1669c200c6801805473ffffffffffffffffffffffffffffffffffffffff19163317905554600d5410156111f05760405162461bcd60e51b815260206004820152603960248201527f636865636b43616d706169676e4f626a6563746976655265616368656428293a60448201527f20746f6f206d616e792077696e6e65727320636c61696d656400000000000000606482015260840161029b565b336000908152600f6020526040902080547fffffffffffffffffffff00ffffffffffffffffffffffffffffffffffffffffff16600160a81b179055601154600e556007546112409061a8c06121cb565b336000818152600f602090815260409182902060019081019490945560095482519485529084015290917ff53e257c223e8caac4a9e2ff9462273790ed63ca8704f6483cecfa11f084f6ed910160405180910390a25050600160005550565b600154604051632474521560e21b81527fdf8b4c520ffe197c5343c6f5aec59570151ef9a492f2c624fd45ddde6135ec4260048201523360248201526101009091046001600160a01b0316906391d1485490604401602060405180830381865afa158015611311573d6000803e3d6000fd5b505050506040513d601f19601f8201168201806040525081019061133591906121f1565b61138b5760405162461bcd60e51b815260206004820152602160248201527f4f6e6c792061646d696e2063616e2063616c6c20746869732066756e6374696f6044820152603760f91b606482015260840161029b565b6001600160a01b0381811660009081526010602052604090205416156114195760405162461bcd60e51b815260206004820152603560248201527f626c61636b6c697374496e666c75656e63657228293a20696e666c75656e636560448201527f7220616c726561647920626c61636b6c69737465640000000000000000000000606482015260840161029b565b6001600160a01b0381166000908152600f6020526040902054600160b01b900460ff166114ae5760405162461bcd60e51b815260206004820152603360248201527f626c61636b6c697374496e666c75656e63657228293a20696e666c75656e636560448201527f72206e6f7420756e6465722070726f7465737400000000000000000000000000606482015260840161029b565b6040805160a0810182526000808252602080830182815283850183815260608501848152608086018581526001600160a01b03898116808852600f8752898820985189549651955194511515600160b01b0260ff60b01b19951515600160a81b029590951661ffff60a81b19961515600160a01b0274ffffffffffffffffffffffffffffffffffffffffff199098169190931617959095179390931692909217178555516001948501556010909152929020805473ffffffffffffffffffffffffffffffffffffffff19169092179091556013541015611596576012805460ff60a01b191690555b806001600160a01b03167faaab3b3610b85801738dabadc712a87adb9ad971d1f7ba61f88ca16a5248572c6009546040516115d391815260200190565b60405180910390a250565b600260005414156116315760405162461bcd60e51b815260206004820152601f60248201527f5265656e7472616e637947756172643a207265656e7472616e742063616c6c00604482015260640161029b565b60026000908155338152600f6020526040902054600160a81b900460ff166116c15760405162461bcd60e51b815260206004820152603060248201527f4f6e6c7920612077696e6e696e6720696e666c75656e6365722063616e20636160448201527f6c6c20746869732066756e6374696f6e00000000000000000000000000000000606482015260840161029b565b6007544210156117135760405162461bcd60e51b815260206004820152601960248201527f646561646c696e65206d75737420686176652070617373656400000000000000604482015260640161029b565b336000908152600f6020526040902054600160a01b900460ff16156117a05760405162461bcd60e51b815260206004820152602c60248201527f706179496e666c75656e63657228293a20696e666c75656e63657220616c726560448201527f6164792070616964206f75740000000000000000000000000000000000000000606482015260840161029b565b336000908152600f6020526040902054600160b01b900460ff161561182d5760405162461bcd60e51b815260206004820152603a60248201527f706179496e666c75656e63657228293a2063616e6e6f7420636f6d706c65746560448201527f207061796f7574207768656e20756e6465722070726f74657374000000000000606482015260840161029b565b336000908152600f60205260409020600101544210156118db5760405162461bcd60e51b815260206004820152604560248201527f706179496e666c75656e63657228293a20696e666c75656e6365722063616e6e60448201527f6f74206265207061696420756e74696c20677261636520706572696f6420697360648201527f206f766572000000000000000000000000000000000000000000000000000000608482015260a40161029b565b60008060018054600160a81b900460ff16908111156118fc576118fc61218d565b1461190957600554611919565b600e54600354611919919061220e565b9050600454811180156119495750600060018054600160a81b900460ff16908111156119475761194761218d565b145b1561195357506004545b604051339082156108fc029083906000818181858888f19350505050158015611980573d6000803e3d6000fd5b50336000818152600f6020908152604091829020805460ff60a01b1916600160a01b1790556009548251858152918201527fd15faf65c0a691a42f8e8f948188d9c2451e2c1c3874754a37adf2aa87c82b79910160405180910390a2506001600055565b600154604051632474521560e21b81527fdf8b4c520ffe197c5343c6f5aec59570151ef9a492f2c624fd45ddde6135ec4260048201523360248201526101009091046001600160a01b0316906391d1485490604401602060405180830381865afa158015611a56573d6000803e3d6000fd5b505050506040513d601f19601f82011682018060405250810190611a7a91906121f1565b611ad05760405162461bcd60e51b815260206004820152602160248201527f4f6e6c792061646d696e2063616e2063616c6c20746869732066756e6374696f6044820152603760f91b606482015260840161029b565b610d18612078565b601381815481106107a957600080fd5b6002546001600160a01b0316331415611b695760405162461bcd60e51b815260206004820152603160248201527f616464496e666c75656e63657228293a20627573696e6573732063616e6e6f7460448201527f20626520616e20696e666c75656e636572000000000000000000000000000000606482015260840161029b565b426007541015611be05760405162461bcd60e51b8152602060048201526024808201527f616464496e666c75656e63657228293a20646561646c696e652068617320706160448201527f7373656400000000000000000000000000000000000000000000000000000000606482015260840161029b565b336000908152600f60205260409020546001600160a01b031615611c6c5760405162461bcd60e51b815260206004820152602960248201527f616464496e666c75656e63657228293a20696e666c75656e63657220616c726560448201527f6164792061646465640000000000000000000000000000000000000000000000606482015260840161029b565b6040805160a08101825233808252600060208084018281528486018381526060860184815260808701858152868652600f855294889020965187549351925191511515600160b01b0260ff60b01b19921515600160a81b029290921661ffff60a81b19931515600160a01b0274ffffffffffffffffffffffffffffffffffffffffff199095166001600160a01b039092169190911793909317919091169190911717845590516001909301929092556009549251928352917f40ab0e6e7182aa56f53f1f862caa2a8dbe16129da5ff2b07de199027a3698950910160405180910390a2565b6002546001600160a01b03163314611dbc5760405162461bcd60e51b815260206004820152602860248201527f4f6e6c792074686520627573696e6573732063616e2063616c6c207468697320604482015267333ab731ba34b7b760c11b606482015260840161029b565b6001600160a01b0381166000908152600f6020526040902054600160b01b900460ff1615611e525760405162461bcd60e51b815260206004820152603f60248201527f70726f7465737457696e6e696e67496e666c75656e63657228293a20696e666c60448201527f75656e63657220697320616c726561647920756e6465722070726f7465737400606482015260840161029b565b6001600160a01b03166000908152600f60205260409020805460ff60b01b1916600160b01b1790556012805460ff60a01b1916600160a01b179055565b6002546001600160a01b03163314611efa5760405162461bcd60e51b815260206004820152602860248201527f4f6e6c792074686520627573696e6573732063616e2063616c6c207468697320604482015267333ab731ba34b7b760c11b606482015260840161029b565b6040805160a0810182526000808252602080830182815283850183815260608501848152608086018581526001600160a01b03898116808852600f875296899020975188549551945193511515600160b01b0260ff60b01b19941515600160a81b029490941661ffff60a81b19951515600160a01b0274ffffffffffffffffffffffffffffffffffffffffff199097169190921617949094179290921692909217919091178455516001909301929092556009549251928352917f480997962b91e32a7eac7cd64b1637ac7e3ef692ebedfd70f04cdfb75f3b1a7d91016115d3565b60015460ff1661202e5760405162461bcd60e51b815260206004820152601460248201527f5061757361626c653a206e6f7420706175736564000000000000000000000000604482015260640161029b565b6001805460ff191690557f5db9ee0a495bf2e6ff9c91a7834c1ba4fdd244a5e8aa4e537bd38aeae4b073aa335b6040516001600160a01b03909116815260200160405180910390a1565b60015460ff16156120cb5760405162461bcd60e51b815260206004820152601060248201527f5061757361626c653a2070617573656400000000000000000000000000000000604482015260640161029b565b6001805460ff1916811790557f62e78cea01bee320cd4e420270b5ea74000d11b0c9f74754ebdbfc544b05a2583361205b565b60006020828403121561211057600080fd5b81356001600160a01b038116811461212757600080fd5b9392505050565b60006020828403121561214057600080fd5b5035919050565b8015158114610c2157600080fd5b60008060006060848603121561216a57600080fd5b83359250602084013561217c81612147565b929592945050506040919091013590565b634e487b7160e01b600052602160045260246000fd5b60208101600283106121c557634e487b7160e01b600052602160045260246000fd5b91905290565b600082198211156121ec57634e487b7160e01b600052601160045260246000fd5b500190565b60006020828403121561220357600080fd5b815161212781612147565b60008261222b57634e487b7160e01b600052601260045260246000fd5b50049056fea2646970667358221220e24dcdda316ef8d81be53819fcbc9516fd11c56e02753b1140da51cec239e9df64736f6c634300080b0033",
  "immutableReferences": {},
  "source": "// SPDX-License-Identifier: PRIVATE\n\n// extract logic into private functions and call those with public functions\n//eth alarm clock\n//x dai\n//chainlink\n// super fluid for incremental payments\n\npragma solidity ^0.8.4;\n\nimport '@openzeppelin/contracts/security/ReentrancyGuard.sol';\nimport '@openzeppelin/contracts/security/Pausable.sol';\nimport '@openzeppelin/contracts/access/AccessControl.sol';\n\ncontract FamepayBounty is ReentrancyGuard, Pausable {\n    /* ENUM */\n    enum BountyType {\n        variablePot,\n        fixedPot\n    }\n\n    /* STORAGE */\n\n    //roles\n    AccessControl accessControl;\n    bytes32 public constant ADMIN_ROLE = keccak256('ADMIN');\n\n    struct Influencer {\n        address payable influencer;\n        bool paidOut;\n        bool isWinner;\n        bool isUnderProtest;\n        uint256 gracePayout;\n    }\n\n    BountyType public bountyType;\n\n    address payable public business;\n\n    uint256 public totalBountyPot;\n    uint256 public maxJackpotReward;\n    uint256 public fixedPotReward;\n\n    uint256 public startDate;\n    uint256 public deadline;\n    uint256 public simplePostDuration;\n\n    uint256 public campaignId;\n\n    //objective target\n    uint256 public jackpotTargetAmount;\n\n    uint256 public confirmedPaymentAmount;\n\n    bytes4 public objective;\n\n    uint256 public maxWinners; //max amount who can win\n    uint256 public totalWinners; //number of winners that won\n\n    //all participating influencers\n    mapping(address => Influencer) public influencers;\n\n    //all removed influencers\n    mapping(address => address) public blacklistedInfluencers;\n\n    //used for paying out all winners when campaign ends\n    address payable[] public winningInfluencers;\n    address public winningInfluencer;\n\n    bool public campaignIsUnderProtest = false;\n    address[] public influencersUnderProtest;\n    /////////* EVENTS *///////\n\n    /* Influencer Actions*/\n    event NewInfluencerAdded(address indexed _newInfluencer, uint256 _bountyId);\n    event InfluencerRemoved(address indexed _influencer, uint256 _bountyId);\n    event InfluencerBlacklisted(address indexed _influencer, uint256 _bountyId);\n\n    /*Target Status*/\n    event JackpotTargetReached(bool _targetReached, address indexed _winningInfluencer, uint256 _bountyId);\n\n    /*Payment Actions */\n    event JackpotInfluencerPayment(uint256 _amount, address indexed _influencer, uint256 _bountyId);\n    // event JackpotInfluencerPaymentAll(uint256 _amount, address payable[] _influencers, uint256 _bountyId);\n\n    /*Campaign Ended Actions */\n    event CampaignEnding(uint256 _refundableAmount, uint256 _bountyId);\n\n    /////////* MODIFIERS*///////\n\n    modifier onlyBusiness() {\n        require(business == msg.sender, 'Only the business can call this function');\n        _;\n    }\n\n    modifier businessOrWinningInfluencer() {\n        if (msg.sender == influencers[msg.sender].influencer) {\n            require(influencers[msg.sender].isWinner, 'Only a winning influencer can call this function');\n        } else {\n            require(business == msg.sender, 'Only the business or influencer can call this function');\n        }\n        _;\n    }\n\n    modifier onlyWinningInfluencer() {\n        // if (msg.sender == influencers[msg.sender].influencer) {\n        require(influencers[msg.sender].isWinner, 'Only a winning influencer can call this function');\n        // }\n        _;\n    }\n\n    modifier onlyAdmin() {\n        require(accessControl.hasRole(ADMIN_ROLE, msg.sender), 'Only admin can call this function');\n        _;\n    }\n\n    modifier adminOrBusiness() {\n        require(msg.sender == business || accessControl.hasRole(ADMIN_ROLE, msg.sender), 'Caller must be business or admin');\n        _;\n    }\n\n    modifier campaignOver() {\n        require(block.timestamp >= deadline, 'deadline must have passed');\n        _;\n    }\n\n    /////////* CONSTRUCTOR *///////\n    constructor(\n        address payable _business,\n        uint256 _startDate,\n        uint256 _deadline,\n        uint256 _simplePostDuration,\n        uint256 _maxJackpotReward,\n        uint256 _jackpotTargetAmount, //payout per winner\n        // uint256 _fixedPotReward, //payout per influencer\n        uint256 _bountyId,\n        uint256 _maxWinners,\n        AccessControl _accessControl,\n        bytes4 _objective,\n        bytes32 _bountyType\n    ) payable {\n        business = _business;\n        startDate = _startDate;\n        deadline = _deadline;\n        simplePostDuration = _simplePostDuration;\n        maxJackpotReward = _maxJackpotReward;\n        jackpotTargetAmount = _jackpotTargetAmount;\n        maxWinners = _maxWinners;\n        accessControl = _accessControl;\n        campaignId = _bountyId;\n        objective = _objective;\n\n        bytes32 variablePot = 'variablePot';\n        bytes32 fixedPot = 'fixedPot';\n\n        if (_bountyType == variablePot) {\n            bountyType = BountyType.variablePot;\n        }\n        if (_bountyType == fixedPot) {\n            bountyType = BountyType.fixedPot;\n            fixedPotReward = _maxJackpotReward;\n        }\n        totalBountyPot = address(this).balance;\n    }\n\n    /////////* FUNCTIONS *///////\n\n    /**\n     * @dev check amount deposited in campaign\n     */\n    function addressBalance() external view returns (uint256) {\n        return address(this).balance;\n    }\n\n    /**\n     * @dev used for adding new influencer for bounty program\n     */\n    function addInfluencer() external {\n        require(msg.sender != business, 'addInfluencer(): business cannot be an influencer');\n        require(deadline >= block.timestamp, 'addInfluencer(): deadline has passed');\n        require(influencers[msg.sender].influencer == address(0), 'addInfluencer(): influencer already added');\n        influencers[msg.sender] = Influencer(payable(msg.sender), false, false, false, 0);\n        emit NewInfluencerAdded(msg.sender, campaignId);\n    }\n\n    /**\n     * @dev remove influencer from campaign\n     * @param _influencer influencer to be moreved\n     */\n    function removeInfluencer(address _influencer) external onlyBusiness {\n        influencers[_influencer] = Influencer(payable(address(0)), false, false, false, 0);\n        emit InfluencerRemoved(_influencer, campaignId);\n    }\n\n    /**\n     * @dev check if objective was achieved\n     * @param _postStat post stat for incremental payment\n     * @param _postPosted check if post is posted and valid\n     * @param _postTimestamp post date\n     */\n    //TODO investigate forwarding gas cost away from influencer\n    function checkCampaignObjectiveReached(\n        uint256 _postStat,\n        bool _postPosted,\n        uint256 _postTimestamp\n    ) external nonReentrant campaignOver {\n        require(\n            msg.sender == influencers[msg.sender].influencer,\n            'checkCampaignObjectiveReached(): Must be registered influencer'\n        );\n        require(_postPosted, 'checkCampaignObjectiveReached(): post was not obtained');\n        require(_postTimestamp <= deadline, 'checkCampaignObjectiveReached(): post must be before the deadline');\n        require(_postTimestamp >= startDate, 'checkCampaignObjectiveReached(): post must be after campaign startDate');\n        require(_postStat >= jackpotTargetAmount, 'checkCampaignObjectiveReached(): jackpot target must be satisfied');\n        require(!influencers[msg.sender].isWinner, 'checkCampaignObjectiveReached(): winner already registered');\n        winningInfluencers.push(payable(msg.sender));\n        require(maxWinners >= winningInfluencers.length, 'checkCampaignObjectiveReached(): too many winners claimed');\n        influencers[msg.sender].isWinner = true;\n        totalWinners = winningInfluencers.length;\n\n        influencers[msg.sender].gracePayout = deadline + 43200;\n        emit JackpotTargetReached(true, msg.sender, campaignId);\n    }\n\n    function getWinnersLength() external view returns (uint256) {\n        return winningInfluencers.length;\n    }\n\n    /**\n     * @dev pay the influencer\n     */\n    function payInfluencer() public nonReentrant onlyWinningInfluencer campaignOver {\n        require(!influencers[msg.sender].paidOut, 'payInfluencer(): influencer already paid out');\n        require(!influencers[msg.sender].isUnderProtest, 'payInfluencer(): cannot complete payout when under protest');\n        require(\n            influencers[msg.sender].gracePayout <= block.timestamp,\n            'payInfluencer(): influencer cannot be paid until grace period is over'\n        );\n        uint256 paymentPerInfluencerPot = bountyType == BountyType.variablePot ? totalBountyPot / totalWinners : fixedPotReward;\n        //limit to max jackpot\n        if (paymentPerInfluencerPot > maxJackpotReward && bountyType == BountyType.variablePot) {\n            paymentPerInfluencerPot = maxJackpotReward;\n        }\n\n        payable(msg.sender).transfer(paymentPerInfluencerPot);\n        influencers[msg.sender].paidOut = true;\n        emit JackpotInfluencerPayment(paymentPerInfluencerPot, msg.sender, campaignId);\n\n        //remove influencer that claims $\n        /*\n        for (uint256 i = 0; i < winningInfluencers.length - 1; i++) {\n            winningInfluencers[i] = winningInfluencers[i + 1];\n        }\n        winningInfluencers.pop();\n        campaign ending payout\n        if (msg.sender == business) {\n            for (uint256 i = 0; i < winningInfluencers.length; i++) {\n                winningInfluencers[i].transfer(paymentPerInfluencerPot);\n                influencers[winningInfluencers[i]].paidOut = true;\n            }\n            emit JackpotInfluencerPaymentAll(paymentPerInfluencerPot, winningInfluencers, campaignId);\n        }\n        */\n    }\n\n    /**\n     * @dev protest a contentious campaign\n     * @param _influencer influencer business is protesting\n     */\n    function protestWinningInfluencer(address _influencer) external onlyBusiness {\n        require(!influencers[_influencer].isUnderProtest, 'protestWinningInfluencer(): influencer is already under protest');\n        influencers[_influencer].isUnderProtest = true;\n        campaignIsUnderProtest = true;\n    }\n\n    /**\n     * @dev end campaign protest (in favour of influencer)\n     * @param _influencer influencer business is protesting\n     */\n    function resolveProtest(address _influencer) external adminOrBusiness {\n        require(campaignIsUnderProtest, 'resolveProtest(): cannot cancel protest if not under protest');\n        require(influencers[_influencer].isUnderProtest, 'protestWinningInfluencer(): influencer is already under protest');\n        influencers[_influencer].isUnderProtest = false;\n        if (influencersUnderProtest.length < 1) campaignIsUnderProtest = false;\n    }\n\n    /**\n     * @dev blacklist malicious influencer\n     * @param _influencer influencer to be removed\n     */\n    function blacklistInfluencer(address _influencer) external onlyAdmin {\n        require(blacklistedInfluencers[_influencer] == address(0), 'blacklistInfluencer(): influencer already blacklisted');\n        require(influencers[_influencer].isUnderProtest, 'blacklistInfluencer(): influencer not under protest');\n        influencers[_influencer] = Influencer(payable(address(0)), false, false, false, 0);\n        blacklistedInfluencers[_influencer] = _influencer;\n        if (influencersUnderProtest.length < 1) campaignIsUnderProtest = false;\n        emit InfluencerBlacklisted(_influencer, campaignId);\n    }\n\n    function getTimestamp() external view returns (uint256) {\n        return block.timestamp;\n    }\n\n    /**\n     * @dev complete campaign and potentially refund business\n     */\n    function campaignEnded() public onlyBusiness campaignOver {\n        require(!campaignIsUnderProtest, 'campaignEnded(): cannot end campaign that is under protest');\n        uint256 graceCashoutPeriod = 88400;\n        //added extra require statement for clearer revert message\n        if (winningInfluencers.length > 0) {\n            require(block.timestamp >= deadline + graceCashoutPeriod, 'campaignEnded(): grace cashout period ongoing');\n        }\n        emit CampaignEnding(address(this).balance, campaignId);\n        selfdestruct(business);\n    }\n\n    function pause() external onlyAdmin {\n        super._pause();\n    }\n\n    function unpause() external onlyAdmin {\n        super._unpause();\n    }\n\n    fallback() external payable onlyBusiness campaignOver {}\n}\n",
  "sourcePath": "/Users/benweinberg/Desktop/Work/FamePay/FamePayContract/contracts/Bounty/FamepayBounty.sol",
  "compiler": {
    "name": "solc",
    "version": "0.8.11+commit.d7f03943.Emscripten.clang"
  },
  "schemaVersion": "3.4.3",
  "updatedAt": "2022-01-30T22:42:46.767Z",
  "devdoc": {
    "kind": "dev",
    "methods": {
      "addInfluencer()": {
        "details": "used for adding new influencer for bounty program"
      },
      "addressBalance()": {
        "details": "check amount deposited in campaign"
      },
      "blacklistInfluencer(address)": {
        "details": "blacklist malicious influencer",
        "params": {
          "_influencer": "influencer to be removed"
        }
      },
      "campaignEnded()": {
        "details": "complete campaign and potentially refund business"
      },
      "checkCampaignObjectiveReached(uint256,bool,uint256)": {
        "details": "check if objective was achieved",
        "params": {
          "_postPosted": "check if post is posted and valid",
          "_postStat": "post stat for incremental payment",
          "_postTimestamp": "post date"
        }
      },
      "paused()": {
        "details": "Returns true if the contract is paused, and false otherwise."
      },
      "payInfluencer()": {
        "details": "pay the influencer"
      },
      "protestWinningInfluencer(address)": {
        "details": "protest a contentious campaign",
        "params": {
          "_influencer": "influencer business is protesting"
        }
      },
      "removeInfluencer(address)": {
        "details": "remove influencer from campaign",
        "params": {
          "_influencer": "influencer to be moreved"
        }
      },
      "resolveProtest(address)": {
        "details": "end campaign protest (in favour of influencer)",
        "params": {
          "_influencer": "influencer business is protesting"
        }
      }
    },
    "version": 1
  },
  "userdoc": {
    "kind": "user",
    "methods": {},
    "version": 1
  }
}