{
  "contractName": "Famepay",
  "abi": [
    {
      "inputs": [
        {
          "internalType": "address payable",
          "name": "_influencer",
          "type": "address"
        },
        {
          "internalType": "address payable",
          "name": "_business",
          "type": "address"
        },
        {
          "internalType": "uint256",
          "name": "_campaignId",
          "type": "uint256"
        },
        {
          "internalType": "uint256",
          "name": "_startDate",
          "type": "uint256"
        },
        {
          "internalType": "uint256",
          "name": "_deadline",
          "type": "uint256"
        },
        {
          "internalType": "uint256",
          "name": "_jackpotPayment",
          "type": "uint256"
        },
        {
          "internalType": "uint256",
          "name": "_incrementalPayment",
          "type": "uint256"
        },
        {
          "internalType": "uint256",
          "name": "_jackpotTargetAmount",
          "type": "uint256"
        },
        {
          "internalType": "uint256",
          "name": "_incrementalTargetAmount",
          "type": "uint256"
        },
        {
          "internalType": "string",
          "name": "_objective",
          "type": "string"
        }
      ],
      "stateMutability": "payable",
      "type": "constructor"
    },
    {
      "anonymous": false,
      "inputs": [
        {
          "indexed": true,
          "internalType": "address",
          "name": "_influencer",
          "type": "address"
        },
        {
          "indexed": false,
          "internalType": "uint256",
          "name": "_amount",
          "type": "uint256"
        },
        {
          "indexed": false,
          "internalType": "uint256",
          "name": "_campaignId",
          "type": "uint256"
        }
      ],
      "name": "AgreedAmountPayment",
      "type": "event"
    },
    {
      "anonymous": false,
      "inputs": [
        {
          "indexed": true,
          "internalType": "address",
          "name": "_business",
          "type": "address"
        },
        {
          "indexed": false,
          "internalType": "uint256",
          "name": "_amount",
          "type": "uint256"
        },
        {
          "indexed": false,
          "internalType": "uint256",
          "name": "_campaignId",
          "type": "uint256"
        }
      ],
      "name": "BusinessDeposited",
      "type": "event"
    },
    {
      "anonymous": false,
      "inputs": [
        {
          "indexed": true,
          "internalType": "address",
          "name": "_business",
          "type": "address"
        },
        {
          "indexed": false,
          "internalType": "uint256",
          "name": "_amount",
          "type": "uint256"
        },
        {
          "indexed": false,
          "internalType": "uint256",
          "name": "_campaignId",
          "type": "uint256"
        }
      ],
      "name": "BusinessRefunded",
      "type": "event"
    },
    {
      "anonymous": false,
      "inputs": [
        {
          "indexed": false,
          "internalType": "uint256",
          "name": "_refundableAmount",
          "type": "uint256"
        },
        {
          "indexed": false,
          "internalType": "bool",
          "name": "_objectiveReached",
          "type": "bool"
        },
        {
          "indexed": false,
          "internalType": "uint256",
          "name": "_campaignId",
          "type": "uint256"
        }
      ],
      "name": "CampaignEnding",
      "type": "event"
    },
    {
      "anonymous": false,
      "inputs": [
        {
          "indexed": true,
          "internalType": "address",
          "name": "_influencer",
          "type": "address"
        },
        {
          "indexed": false,
          "internalType": "bool",
          "name": "_objectiveReached",
          "type": "bool"
        },
        {
          "indexed": false,
          "internalType": "uint256",
          "name": "_campaignId",
          "type": "uint256"
        }
      ],
      "name": "CampaignTerminationIncrementPayment",
      "type": "event"
    },
    {
      "anonymous": false,
      "inputs": [
        {
          "indexed": true,
          "internalType": "address",
          "name": "_influencer",
          "type": "address"
        },
        {
          "indexed": false,
          "internalType": "bool",
          "name": "_objectiveReached",
          "type": "bool"
        },
        {
          "indexed": false,
          "internalType": "uint256",
          "name": "_campaignId",
          "type": "uint256"
        }
      ],
      "name": "CampaignTerminationJackpotPayment",
      "type": "event"
    },
    {
      "anonymous": false,
      "inputs": [
        {
          "indexed": false,
          "internalType": "uint256",
          "name": "_newDeadline",
          "type": "uint256"
        },
        {
          "indexed": false,
          "internalType": "uint256",
          "name": "_campaignId",
          "type": "uint256"
        }
      ],
      "name": "ExtendDeadline",
      "type": "event"
    },
    {
      "anonymous": false,
      "inputs": [
        {
          "indexed": false,
          "internalType": "uint256",
          "name": "_amount",
          "type": "uint256"
        },
        {
          "indexed": false,
          "internalType": "uint256",
          "name": "_amountOfIncrementalPayments",
          "type": "uint256"
        },
        {
          "indexed": false,
          "internalType": "uint256",
          "name": "_campaignId",
          "type": "uint256"
        }
      ],
      "name": "IncrementInfluencerPayment",
      "type": "event"
    },
    {
      "anonymous": false,
      "inputs": [
        {
          "indexed": false,
          "internalType": "uint256",
          "name": "_amount",
          "type": "uint256"
        },
        {
          "indexed": false,
          "internalType": "uint256",
          "name": "_campaignId",
          "type": "uint256"
        }
      ],
      "name": "InvalidWithdrawal",
      "type": "event"
    },
    {
      "anonymous": false,
      "inputs": [
        {
          "indexed": false,
          "internalType": "uint256",
          "name": "_amount",
          "type": "uint256"
        },
        {
          "indexed": false,
          "internalType": "uint256",
          "name": "_campaignId",
          "type": "uint256"
        }
      ],
      "name": "JackpotInfluencerPayment",
      "type": "event"
    },
    {
      "inputs": [],
      "name": "business",
      "outputs": [
        {
          "internalType": "address payable",
          "name": "",
          "type": "address"
        }
      ],
      "stateMutability": "view",
      "type": "function"
    },
    {
      "inputs": [],
      "name": "businessConfirmed",
      "outputs": [
        {
          "internalType": "bool",
          "name": "",
          "type": "bool"
        }
      ],
      "stateMutability": "view",
      "type": "function"
    },
    {
      "inputs": [],
      "name": "deadline",
      "outputs": [
        {
          "internalType": "uint256",
          "name": "",
          "type": "uint256"
        }
      ],
      "stateMutability": "view",
      "type": "function"
    },
    {
      "inputs": [
        {
          "internalType": "address",
          "name": "",
          "type": "address"
        }
      ],
      "name": "depositedFor",
      "outputs": [
        {
          "internalType": "uint256",
          "name": "",
          "type": "uint256"
        }
      ],
      "stateMutability": "view",
      "type": "function"
    },
    {
      "inputs": [],
      "name": "incrementalPayment",
      "outputs": [
        {
          "internalType": "uint256",
          "name": "",
          "type": "uint256"
        }
      ],
      "stateMutability": "view",
      "type": "function"
    },
    {
      "inputs": [],
      "name": "incrementalTargetAmount",
      "outputs": [
        {
          "internalType": "uint256",
          "name": "",
          "type": "uint256"
        }
      ],
      "stateMutability": "view",
      "type": "function"
    },
    {
      "inputs": [],
      "name": "incrementalTargetReached",
      "outputs": [
        {
          "internalType": "bool",
          "name": "",
          "type": "bool"
        }
      ],
      "stateMutability": "view",
      "type": "function"
    },
    {
      "inputs": [],
      "name": "influencer",
      "outputs": [
        {
          "internalType": "address payable",
          "name": "",
          "type": "address"
        }
      ],
      "stateMutability": "view",
      "type": "function"
    },
    {
      "inputs": [],
      "name": "influencerConfirmed",
      "outputs": [
        {
          "internalType": "bool",
          "name": "",
          "type": "bool"
        }
      ],
      "stateMutability": "view",
      "type": "function"
    },
    {
      "inputs": [],
      "name": "jackpotPayment",
      "outputs": [
        {
          "internalType": "uint256",
          "name": "",
          "type": "uint256"
        }
      ],
      "stateMutability": "view",
      "type": "function"
    },
    {
      "inputs": [],
      "name": "jackpotTargetAmount",
      "outputs": [
        {
          "internalType": "uint256",
          "name": "",
          "type": "uint256"
        }
      ],
      "stateMutability": "view",
      "type": "function"
    },
    {
      "inputs": [],
      "name": "jackpotTargetReached",
      "outputs": [
        {
          "internalType": "bool",
          "name": "",
          "type": "bool"
        }
      ],
      "stateMutability": "view",
      "type": "function"
    },
    {
      "inputs": [],
      "name": "objective",
      "outputs": [
        {
          "internalType": "string",
          "name": "",
          "type": "string"
        }
      ],
      "stateMutability": "view",
      "type": "function"
    },
    {
      "inputs": [
        {
          "internalType": "uint256",
          "name": "",
          "type": "uint256"
        }
      ],
      "name": "outstandingIncrementalPayments",
      "outputs": [
        {
          "internalType": "uint256",
          "name": "",
          "type": "uint256"
        }
      ],
      "stateMutability": "view",
      "type": "function"
    },
    {
      "inputs": [],
      "name": "startDate",
      "outputs": [
        {
          "internalType": "uint256",
          "name": "",
          "type": "uint256"
        }
      ],
      "stateMutability": "view",
      "type": "function"
    },
    {
      "inputs": [],
      "name": "getTimestamp",
      "outputs": [
        {
          "internalType": "uint256",
          "name": "",
          "type": "uint256"
        }
      ],
      "stateMutability": "view",
      "type": "function"
    },
    {
      "inputs": [],
      "name": "depositPayment",
      "outputs": [],
      "stateMutability": "payable",
      "type": "function"
    },
    {
      "inputs": [],
      "name": "depositedForInfluencerBalance",
      "outputs": [
        {
          "internalType": "uint256",
          "name": "",
          "type": "uint256"
        }
      ],
      "stateMutability": "view",
      "type": "function"
    },
    {
      "inputs": [],
      "name": "addressBalance",
      "outputs": [
        {
          "internalType": "uint256",
          "name": "",
          "type": "uint256"
        }
      ],
      "stateMutability": "view",
      "type": "function"
    },
    {
      "inputs": [],
      "name": "outstandingPayments",
      "outputs": [
        {
          "internalType": "uint256",
          "name": "",
          "type": "uint256"
        }
      ],
      "stateMutability": "view",
      "type": "function"
    },
    {
      "inputs": [
        {
          "internalType": "bool",
          "name": "_confirmedBusiness",
          "type": "bool"
        },
        {
          "internalType": "bool",
          "name": "_confirmedInfluencer",
          "type": "bool"
        }
      ],
      "name": "confirmBusinessInfluencer",
      "outputs": [],
      "stateMutability": "nonpayable",
      "type": "function"
    },
    {
      "inputs": [
        {
          "internalType": "bool",
          "name": "_jackpotTargetReached",
          "type": "bool"
        },
        {
          "internalType": "bool",
          "name": "_incrementalTargetReached",
          "type": "bool"
        }
      ],
      "name": "paymentTargetReached",
      "outputs": [],
      "stateMutability": "nonpayable",
      "type": "function"
    },
    {
      "inputs": [
        {
          "internalType": "bool",
          "name": "_businessConfirmed",
          "type": "bool"
        },
        {
          "internalType": "bool",
          "name": "_influencerConfirmed",
          "type": "bool"
        },
        {
          "internalType": "uint256",
          "name": "_confirmedPaymentAmount",
          "type": "uint256"
        }
      ],
      "name": "payInfluencer",
      "outputs": [],
      "stateMutability": "payable",
      "type": "function"
    },
    {
      "inputs": [
        {
          "internalType": "bool",
          "name": "_businessConfirmed",
          "type": "bool"
        },
        {
          "internalType": "bool",
          "name": "_influencerConfirmed",
          "type": "bool"
        }
      ],
      "name": "confirmRefund",
      "outputs": [],
      "stateMutability": "nonpayable",
      "type": "function"
    },
    {
      "inputs": [
        {
          "internalType": "uint256",
          "name": "_newDeadline",
          "type": "uint256"
        }
      ],
      "name": "extendDeadline",
      "outputs": [],
      "stateMutability": "nonpayable",
      "type": "function"
    },
    {
      "inputs": [
        {
          "internalType": "uint256",
          "name": "_agreedAmount",
          "type": "uint256"
        }
      ],
      "name": "campaignEnded",
      "outputs": [],
      "stateMutability": "payable",
      "type": "function"
    }
  ],
  "bytecode": "0x60806040819052600a805463ffff000019169055620012cd3881900390819083398181016040526101408110156200003657600080fd5b815160208301516040808501516060860151608087015160a088015160c089015160e08a01516101008b01516101208c01805198519a9c999b979a9699959894979396929591949293820192846401000000008211156200009657600080fd5b908301906020820185811115620000ac57600080fd5b8251640100000000811182820188101715620000c757600080fd5b82525081516020918201929091019080838360005b83811015620000f6578181015183820152602001620000dc565b50505050905090810190601f168015620001245780820380516001836020036101000a031916815260200191505b5060405250506001600081905580546001600160a01b03808e166001600160a01b03199283161790925560028054928d169290911691909117905550600788905560058790556006869055600485905560038490556009839055600882905580516200019890600b906020840190620001ca565b50506001546001600160a01b03166000908152600c602052604090208054470190555062000266975050505050505050565b828054600181600116156101000203166002900490600052602060002090601f016020900481019282601f106200020d57805160ff19168380011785556200023d565b828001600101855582156200023d579182015b828111156200023d57825182559160200191906001019062000220565b506200024b9291506200024f565b5090565b5b808211156200024b576000815560010162000250565b61105780620002766000396000f3fe6080604052600436106101a15760003560e01c8063a87588e7116100e1578063df2d88ca1161008a578063e74dc11c11610064578063e74dc11c146104c6578063f318e557146104db578063f41662ed146104f0578063fac3fd5914610468576101a1565b8063df2d88ca14610468578063e36686321461049c578063e53abae9146104b1576101a1565b8063b801ed85116100bb578063b801ed8514610411578063da85a11f14610426578063dc5b13311461043b576101a1565b8063a87588e7146103af578063aa5e2153146103e0578063ac35e160146103e8576101a1565b80632fe289b31161014e578063612abb1011610128578063612abb10146103165780637005a8651461032b5780638d0449d61461035f578063a4b870c41461037c576101a1565b80632fe289b3146102c05780633621905f146102d5578063389b7533146102ea576101a1565b8063188ec3561161017f578063188ec356146102815780631d8d1f661461029657806329dcb0cf146102ab576101a1565b806304963369146101a65780630b97bc86146101e257806314f1586a146101f7575b600080fd5b3480156101b257600080fd5b506101d0600480360360208110156101c957600080fd5b5035610505565b60408051918252519081900360200190f35b3480156101ee57600080fd5b506101d0610523565b34801561020357600080fd5b5061020c610529565b6040805160208082528351818301528351919283929083019185019080838360005b8381101561024657818101518382015260200161022e565b50505050905090810190601f1680156102735780820380516001836020036101000a031916815260200191505b509250505060405180910390f35b34801561028d57600080fd5b506101d06105b7565b3480156102a257600080fd5b506101d06105bb565b3480156102b757600080fd5b506101d06105d9565b3480156102cc57600080fd5b506101d06105df565b3480156102e157600080fd5b506101d06105e5565b3480156102f657600080fd5b506103146004803603602081101561030d57600080fd5b50356105eb565b005b34801561032257600080fd5b506101d061063f565b34801561033757600080fd5b506103146004803603604081101561034e57600080fd5b508035151590602001351515610645565b6103146004803603602081101561037557600080fd5b503561078b565b34801561038857600080fd5b506101d06004803603602081101561039f57600080fd5b50356001600160a01b03166108f5565b3480156103bb57600080fd5b506103c4610907565b604080516001600160a01b039092168252519081900360200190f35b610314610916565b3480156103f457600080fd5b506103fd610a0f565b604080519115158252519081900360200190f35b34801561041d57600080fd5b506103fd610a1d565b34801561043257600080fd5b506101d0610a2d565b6103146004803603606081101561045157600080fd5b508035151590602081013515159060400135610a33565b34801561047457600080fd5b506103146004803603604081101561048b57600080fd5b508035151590602001351515610e7a565b3480156104a857600080fd5b506101d0610eaa565b3480156104bd57600080fd5b506103fd610eb0565b3480156104d257600080fd5b506103c4610ebf565b3480156104e757600080fd5b506101d0610ece565b3480156104fc57600080fd5b506103fd610ed2565b600d818154811061051257fe5b600091825260209091200154905081565b60055481565b600b805460408051602060026001851615610100026000190190941693909304601f810184900484028201840190925281815292918301828280156105af5780601f10610584576101008083540402835291602001916105af565b820191906000526020600020905b81548152906001019060200180831161059257829003601f168201915b505050505081565b4290565b6001546001600160a01b03166000908152600c602052604090205490565b60065481565b60095481565b60035481565b80600654106105f957600080fd5b600681905560075460408051838152602081019290925280517f53363e7eeef177f60d15e790e42c0cc492e5bee81887ced1390b5c2553ad2a2a9281900390910190a150565b60085481565b600a805460ff1916831515179055808015610720575060405160200180807f73696d706c65506f737400000000000000000000000000000000000000000000815250600a01905060405160208183030381529060405280519060200120600b60405160200180828054600181600116156101000203166002900480156107025780601f106106e0576101008083540402835291820191610702565b820191906000526020600020905b8154815290600101906020018083116106ee575b50509150506040516020818303038152906040528051906020012014155b1561077357600a805461ff00191661010083151502179055600354600d80546001810182556000919091527fd7b6990105719101dabeb77144f2a3385c8033acd3af97e9423a695e81ad1eb50155610787565b600a805461ff001916610100831515021790555b5050565b600a5460ff161561080957600a546107b69060ff620100008204811691630100000090041683610a33565b6002546007546040805160018152602081019290925280516001600160a01b03909316927fcfe51a56170170210c6b5def6488eabb132da271f908c143e485c0ae70edec6f9281900390910190a2610888565b600a54610100900460ff161561088857600a546108399060ff620100008204811691630100000090041683610a33565b6002546007546040805160008152602081019290925280516001600160a01b03909316927f8d2937ab1456e52d5e52590e71857fe5899a3f1998d2098e812935ca22c062179281900390910190a25b6001546001600160a01b03166000908152600c602090815260408083205460075482519182529281019390935282810191909152517fdbda569e7119cd172891e7c63899a4838e4e8670b1175345bf293cd3f31347489181900360600190a16002546001600160a01b0316ff5b600c6020526000908152604090205481565b6001546001600160a01b031681565b426006541161096c576040805162461bcd60e51b815260206004820181905260248201527f5468652063616d706169676e20646561646c696e652068617320706173736564604482015290519081900360640190fd5b600034116109ab5760405162461bcd60e51b8152600401808060200182810382526028815260200180610ffa6028913960400191505060405180910390fd5b6001546001600160a01b03166000908152600c6020908152604091829020805434908101909155600754835191825291810191909152815133927fb75c5efb8f695c77c10eab316b5f4b02cb281e500c8a4e5474d1c3e19d582002928290030190a2565b600a54610100900460ff1681565b600a546301000000900460ff1681565b600d5490565b600a5460ff1680610a4b5750600a54610100900460ff165b80610a5b5750828015610a5b5750815b610a965760405162461bcd60e51b8152600401808060200182810382526023815260200180610f786023913960400191505060405180910390fd5b426006541015610aed576040805162461bcd60e51b815260206004820152601b60248201527f7468652063616d706169676e20706572696f64206973206f7665720000000000604482015290519081900360640190fd5b600a5460ff1615610bc7576004546001546001600160a01b03166000908152600c60205260409020541015610b2157600080fd5b60048054600180546001600160a01b039081166000908152600c602052604080822080549590950390945591549354925193169282156108fc029291818181858888f19350505050158015610b7a573d6000803e3d6000fd5b50600a805460ff1916905560045460075460408051928352602083019190915280517f314b8d1c1fcf6a0803dd4c073d3a198302a249e6e1e0a6ce20a289f6f61c80e89281900390910190a15b600a54610100900460ff1615610db7576003546001546001600160a01b03166000908152600c60205260409020541015610c325760405162461bcd60e51b815260040180806020018281038252603e815260200180610f9b603e913960400191505060405180910390fd5b600d54600111610d0a57600354600d54600091610c4f9190610edb565b600180546001600160a01b039081166000908152600c6020526040808220805486900390559254925193945091169183156108fc0291849190818181858888f19350505050158015610ca5573d6000803e3d6000fd5b50610cb2600d6000610f3d565b600a805461ff0019169055600d5460075460408051848152602081019390935282810191909152517f4e096a163f990a9051b37b380a1fdc57da1ed67943857ddeb496a302fea7a7c09181900360600190a150610db7565b60038054600180546001600160a01b039081166000908152600c602052604080822080549590950390945591549354925193169282156108fc029291818181858888f19350505050158015610d63573d6000803e3d6000fd5b50600a805461ff0019169055600354600d5460075460408051938452602084019290925282820152517f4e096a163f990a9051b37b380a1fdc57da1ed67943857ddeb496a302fea7a7c09181900360600190a15b828015610dc15750815b15610e75576001546001600160a01b03166000908152600c60205260409020548110610dec57600080fd5b6001546040516001600160a01b039091169082156108fc029083906000818181858888f19350505050158015610e26573d6000803e3d6000fd5b5060015460075460408051848152602081019290925280516001600160a01b03909316927f9267f0dfa25dfb1e1a3676fdbc79fd9c57356e61c7da6a6865a492a68934e33f9281900390910190a25b505050565b600a805491151563010000000263ff00000019931515620100000262ff0000199093169290921792909216179055565b60045481565b600a5462010000900460ff1681565b6002546001600160a01b031681565b4790565b600a5460ff1681565b600082610eea57506000610f37565b82820282848281610ef757fe5b0414610f345760405162461bcd60e51b8152600401808060200182810382526021815260200180610fd96021913960400191505060405180910390fd5b90505b92915050565b5080546000825590600052602060002090810190610f5b9190610f5e565b50565b5b80821115610f735760008155600101610f5f565b509056fe636f6e646974696f6e7320666f72207061796d656e742077657265206e6f74206d657474686520617474656d70746564207061796f7574206973206d6f7265207468616e20697320646573706f6974656420696e207468652063616d706169676e536166654d6174683a206d756c7469706c69636174696f6e206f766572666c6f77596f75206d757374206465706f736974206d6f6e657920696e746f2074686520636f6e7472616374a2646970667358221220920e7b990e47bdec6555252057cc4cf6f2a33adebc9390e3f03eda6cab93dfd464736f6c634300060c0033",
  "immutableReferences": {},
  "source": "// extract logic into private functions and call those with public functions\n//eth alarm clock\n//x dai\n//chainlink\n// super fluid for incremental payments\n// \n\npragma solidity >=0.4.22 <0.8.0;\n\nimport '@openzeppelin/contracts/math/SafeMath.sol';\nimport \"@openzeppelin/contracts/utils/ReentrancyGuard.sol\";\n\n\n\ncontract Famepay is ReentrancyGuard {\n    using SafeMath for uint256;\n    \n    address payable public influencer;\n    address payable public business;\n    address constant  platform = 0xD77F59412898F48353570f196aaa23B42DE6E16D;  //payable?<--\n\n    uint256 public incrementalPayment;\n    uint256 public jackpotPayment;\n    \n    uint256 public startDate;\n    uint256 public deadline;\n\n    \n    uint256 private campaignId;\n    \n    uint256 public incrementalTargetAmount;\n    uint256 public jackpotTargetAmount;\n    // uint256 public potentialPayoutAmount;\n    \n    bool public jackpotTargetReached;\n    bool public incrementalTargetReached;\n    \n    bool public businessConfirmed = false;\n    bool public influencerConfirmed = false;\n    \n\n    string public objective;\n    \n    \n    mapping(address => uint256) public depositedFor;\n    uint256[] public outstandingIncrementalPayments;\n    \n    \n    event BusinessDeposited(address indexed _business, uint256  _amount, uint256  _campaignId);\n    event BusinessRefunded(address indexed _business, uint256  _amount, uint256 _campaignId);\n    \n    event IncrementInfluencerPayment(uint256 _amount,  uint256 _amountOfIncrementalPayments, uint256 _campaignId);\n    event JackpotInfluencerPayment(uint256 _amount, uint256 _campaignId);\n    event AgreedAmountPayment(address indexed _influencer, uint256 _amount, uint256 _campaignId);\n    \n\n    event InvalidWithdrawal(uint256 _amount, uint256 _campaignId);\n    \n    event CampaignTerminationIncrementPayment(address indexed _influencer, bool _objectiveReached, uint256 _campaignId);\n    event CampaignTerminationJackpotPayment(address indexed _influencer, bool _objectiveReached, uint256 _campaignId);\n    event CampaignEnding(uint256 _refundableAmount,  bool _objectiveReached, uint256 _campaignId);\n    event ExtendDeadline(uint256 _newDeadline, uint256 _campaignId);\n    \n    modifier onlyInfluencer() {\n        require(influencer == msg.sender);\n        _;\n    }\n    \n    modifier onlyBusiness() { \n        require(business == msg.sender);\n        _;\n    }\n    \n    constructor ( \n        address payable _influencer, \n        address payable _business, \n        uint256 _campaignId, \n        uint256 _startDate, \n        uint256 _deadline, \n        uint256 _jackpotPayment, \n        uint256 _incrementalPayment, \n        uint256 _jackpotTargetAmount, \n        uint256 _incrementalTargetAmount, \n        // uint256 _potentialPayoutAmount,  \n        string memory _objective\n    ) public payable { \n            influencer = _influencer;\n            business = _business;\n            campaignId = _campaignId;\n            startDate = _startDate;\n            deadline = _deadline;\n            jackpotPayment = _jackpotPayment;\n            incrementalPayment = _incrementalPayment;\n            jackpotTargetAmount = _jackpotTargetAmount;\n            incrementalTargetAmount = _incrementalTargetAmount;\n            // potentialPayoutAmount = _potentialPayoutAmount;\n            objective = _objective;\n            depositedFor[influencer] = depositedFor[influencer] + address(this).balance;\n    }\n    \n    function getTimestamp() public view returns (uint256) {\n        return block.timestamp;\n    }\n        \n    //consider removing the public!<<\n    function depositPayment() public payable  {\n        require(deadline > block.timestamp, \"The campaign deadline has passed\"); \n        require(msg.value > 0, \"You must deposit money into the contract\");\n        depositedFor[influencer] = depositedFor[influencer] + msg.value;\n        emit BusinessDeposited(msg.sender, msg.value, campaignId);\n    }\n\n    function depositedForInfluencerBalance() public view returns (uint256) {\n        return depositedFor[influencer];\n    }\n    \n    function addressBalance() public view returns (uint256) {\n        return address(this).balance;\n    }\n    \n    function outstandingPayments() public  view returns (uint256) {\n        return outstandingIncrementalPayments.length;\n    }\n    \n    function confirmBusinessInfluencer(bool _confirmedBusiness, bool _confirmedInfluencer) /*onlyBusiness onlyInfluencer*/ public {\n        businessConfirmed = _confirmedBusiness;\n        influencerConfirmed = _confirmedInfluencer;\n    }\n    \n    function paymentTargetReached(bool _jackpotTargetReached, bool _incrementalTargetReached) public {\n        jackpotTargetReached = _jackpotTargetReached;\n        if(_incrementalTargetReached && keccak256(abi.encodePacked(objective)) != keccak256(abi.encodePacked(\"simplePost\"))) {  //review this if logic\n            incrementalTargetReached = _incrementalTargetReached;\n            outstandingIncrementalPayments.push(incrementalPayment);\n        } else {\n            incrementalTargetReached = _incrementalTargetReached;\n        }\n    }\n\n    \n    function payInfluencer(bool _businessConfirmed, bool _influencerConfirmed, uint256 _confirmedPaymentAmount) public payable {\n        require(jackpotTargetReached || incrementalTargetReached || (_businessConfirmed && _influencerConfirmed ), \"conditions for payment were not met\");\n        require(deadline >= block.timestamp, \"the campaign period is over\");\n        //jackpot payment\n        if (jackpotTargetReached) {\n            require(depositedFor[influencer] >= jackpotPayment);\n            depositedFor[influencer] -= jackpotPayment;\n            influencer.transfer(jackpotPayment);\n            jackpotTargetReached = false;\n            emit JackpotInfluencerPayment(jackpotPayment, campaignId);\n        } \n\n        //incremental payment\n        if (incrementalTargetReached) {\n            require(depositedFor[influencer] >= incrementalPayment, \"the attempted payout is more than is despoited in the campaign\");\n            // for multiple outstanding payments\n            if(outstandingIncrementalPayments.length >= 1) {\n                uint256 outstandingIncrementalPayment = outstandingIncrementalPayments.length.mul(incrementalPayment);\n                depositedFor[influencer] -= outstandingIncrementalPayment;\n                influencer.transfer(outstandingIncrementalPayment);\n                delete outstandingIncrementalPayments;\n                incrementalTargetReached = false;\n                emit IncrementInfluencerPayment(outstandingIncrementalPayment, outstandingIncrementalPayments.length, campaignId);\n            } else {\n                depositedFor[influencer] -= incrementalPayment;\n                influencer.transfer(incrementalPayment);\n                incrementalTargetReached = false;\n                emit IncrementInfluencerPayment(incrementalPayment, outstandingIncrementalPayments.length, campaignId);\n            }\n        }\n        \n        //agreed upon sum\n        if(_businessConfirmed && _influencerConfirmed) {\n            require(_confirmedPaymentAmount < depositedFor[influencer]);\n            influencer.transfer(_confirmedPaymentAmount);\n            emit AgreedAmountPayment(influencer, _confirmedPaymentAmount, campaignId);\n        } \n    }\n    \n    function confirmRefund(bool _businessConfirmed, bool _influencerConfirmed) public {\n        businessConfirmed = _businessConfirmed;\n        influencerConfirmed = _influencerConfirmed;\n    }\n    \n    function extendDeadline(uint256 _newDeadline) public {\n        require (deadline < _newDeadline);\n        deadline = _newDeadline;\n            emit ExtendDeadline(_newDeadline, campaignId);\n    }\n    \n    function campaignEnded(uint256 _agreedAmount) payable public {\n        // require(deadline <= block.timestamp || businessConfirmed && influencerConfirmed); //check multiple require statements\n        if(jackpotTargetReached) {\n            payInfluencer(businessConfirmed, influencerConfirmed, _agreedAmount);\n            emit CampaignTerminationJackpotPayment(business, true, campaignId);\n        }\n        else if(incrementalTargetReached) {\n            payInfluencer(businessConfirmed, influencerConfirmed, _agreedAmount);\n            emit CampaignTerminationIncrementPayment(business,  false, campaignId);\n        }\n        emit CampaignEnding(depositedFor[influencer], false, campaignId);\n        selfdestruct(business);\n    }\n    \n\n    \n    \n    // function adminCancelCampaign(uint256 _agreedAmount) onlyAdmin internal {\n    //     if(incrementalTargetReached) {\n    //         payInfluencer(true, true, _agreedAmount);\n    //         emit CampaignTerminationIncrementPayment(business, \"remaining incremental payments to be paid:\", depositedFor[influencer], false);\n    //     }\n    //     if(jackpotTargetReached) {\n    //         payInfluencer(true, true, _agreedAmount);\n    //         emit CampaignTerminationJackpotPayment(business, \"making the remaining jackpot payment before campagin termination\", true);\n    //     }\n    //     emit CampaignEnding(\"Campaign is about to be terminated. Amount to be refunded:\", depositedFor[influencer], false);\n    //     selfdestruct;\n    // }\n    \n    /*\n    function pause() external onlyAdmin {\n        super._pause();\n    }\n\n    function unpause() external onlyAdmin {\n        super._unpause();\n    }\n    \n    \n    */\n\n}\n\n\n\n\n\n\n\n\n\n",
  "sourcePath": "/Users/benweinberg/Desktop/Work/FamePay/FamePayContract/contracts/FamePay.sol",
  "compiler": {
    "name": "solc",
    "version": "0.6.12+commit.27d51765.Emscripten.clang"
  },
  "schemaVersion": "3.4.1",
  "updatedAt": "2021-06-17T01:14:21.868Z",
  "devdoc": {
    "kind": "dev",
    "methods": {},
    "version": 1
  },
  "userdoc": {
    "kind": "user",
    "methods": {},
    "version": 1
  }
}