{
  "contractName": "Famepay",
  "abi": [
    {
      "inputs": [
        {
          "internalType": "address payable",
          "name": "_platform",
          "type": "address"
        },
        {
          "internalType": "address payable",
          "name": "_influencer",
          "type": "address"
        },
        {
          "internalType": "address payable",
          "name": "_business",
          "type": "address"
        },
        {
          "internalType": "uint256",
          "name": "_campaignId",
          "type": "uint256"
        },
        {
          "internalType": "uint256",
          "name": "_deadline",
          "type": "uint256"
        },
        {
          "internalType": "uint256",
          "name": "_jackpotPayment",
          "type": "uint256"
        },
        {
          "internalType": "uint256",
          "name": "_incrementalPayment",
          "type": "uint256"
        }
      ],
      "stateMutability": "nonpayable",
      "type": "constructor"
    },
    {
      "anonymous": false,
      "inputs": [
        {
          "indexed": false,
          "internalType": "address",
          "name": "_influencer",
          "type": "address"
        },
        {
          "indexed": false,
          "internalType": "string",
          "name": "_message",
          "type": "string"
        },
        {
          "indexed": false,
          "internalType": "uint256",
          "name": "_amount",
          "type": "uint256"
        }
      ],
      "name": "AgreedAmountPayment",
      "type": "event"
    },
    {
      "anonymous": false,
      "inputs": [
        {
          "indexed": false,
          "internalType": "address",
          "name": "_business",
          "type": "address"
        },
        {
          "indexed": false,
          "internalType": "string",
          "name": "_message",
          "type": "string"
        },
        {
          "indexed": false,
          "internalType": "uint256",
          "name": "_amount",
          "type": "uint256"
        }
      ],
      "name": "BusinessDeposited",
      "type": "event"
    },
    {
      "anonymous": false,
      "inputs": [
        {
          "indexed": false,
          "internalType": "address",
          "name": "_business",
          "type": "address"
        },
        {
          "indexed": false,
          "internalType": "string",
          "name": "_message",
          "type": "string"
        },
        {
          "indexed": false,
          "internalType": "uint256",
          "name": "_amount",
          "type": "uint256"
        }
      ],
      "name": "BusinessRefunded",
      "type": "event"
    },
    {
      "anonymous": false,
      "inputs": [
        {
          "indexed": false,
          "internalType": "string",
          "name": "_message",
          "type": "string"
        }
      ],
      "name": "CampaignEnding",
      "type": "event"
    },
    {
      "anonymous": false,
      "inputs": [
        {
          "indexed": false,
          "internalType": "address",
          "name": "_influencer",
          "type": "address"
        },
        {
          "indexed": false,
          "internalType": "string",
          "name": "_message",
          "type": "string"
        }
      ],
      "name": "CampaignTerminationIncrementPayment",
      "type": "event"
    },
    {
      "anonymous": false,
      "inputs": [
        {
          "indexed": false,
          "internalType": "address",
          "name": "_influencer",
          "type": "address"
        },
        {
          "indexed": false,
          "internalType": "string",
          "name": "_message",
          "type": "string"
        }
      ],
      "name": "CampaignTerminationJackpotPayment",
      "type": "event"
    },
    {
      "anonymous": false,
      "inputs": [
        {
          "indexed": false,
          "internalType": "address",
          "name": "_influencer",
          "type": "address"
        },
        {
          "indexed": false,
          "internalType": "string",
          "name": "_message",
          "type": "string"
        },
        {
          "indexed": false,
          "internalType": "uint256",
          "name": "_amount",
          "type": "uint256"
        }
      ],
      "name": "IncrementInfluencerPayment",
      "type": "event"
    },
    {
      "anonymous": false,
      "inputs": [
        {
          "indexed": false,
          "internalType": "string",
          "name": "_message",
          "type": "string"
        }
      ],
      "name": "InvalidWithdrawal",
      "type": "event"
    },
    {
      "anonymous": false,
      "inputs": [
        {
          "indexed": false,
          "internalType": "address",
          "name": "_influencer",
          "type": "address"
        },
        {
          "indexed": false,
          "internalType": "string",
          "name": "_message",
          "type": "string"
        },
        {
          "indexed": false,
          "internalType": "uint256",
          "name": "_amount",
          "type": "uint256"
        }
      ],
      "name": "JackpotInfluencerPayment",
      "type": "event"
    },
    {
      "inputs": [],
      "name": "business",
      "outputs": [
        {
          "internalType": "address payable",
          "name": "",
          "type": "address"
        }
      ],
      "stateMutability": "view",
      "type": "function"
    },
    {
      "inputs": [],
      "name": "businessConfirmed",
      "outputs": [
        {
          "internalType": "bool",
          "name": "",
          "type": "bool"
        }
      ],
      "stateMutability": "view",
      "type": "function"
    },
    {
      "inputs": [],
      "name": "campaignId",
      "outputs": [
        {
          "internalType": "uint256",
          "name": "",
          "type": "uint256"
        }
      ],
      "stateMutability": "view",
      "type": "function"
    },
    {
      "inputs": [],
      "name": "deadline",
      "outputs": [
        {
          "internalType": "uint256",
          "name": "",
          "type": "uint256"
        }
      ],
      "stateMutability": "view",
      "type": "function"
    },
    {
      "inputs": [
        {
          "internalType": "address",
          "name": "",
          "type": "address"
        }
      ],
      "name": "depositedFor",
      "outputs": [
        {
          "internalType": "uint256",
          "name": "",
          "type": "uint256"
        }
      ],
      "stateMutability": "view",
      "type": "function"
    },
    {
      "inputs": [],
      "name": "incrementalPayment",
      "outputs": [
        {
          "internalType": "uint256",
          "name": "",
          "type": "uint256"
        }
      ],
      "stateMutability": "view",
      "type": "function"
    },
    {
      "inputs": [],
      "name": "incrementalTargetReached",
      "outputs": [
        {
          "internalType": "bool",
          "name": "",
          "type": "bool"
        }
      ],
      "stateMutability": "view",
      "type": "function"
    },
    {
      "inputs": [],
      "name": "influencer",
      "outputs": [
        {
          "internalType": "address payable",
          "name": "",
          "type": "address"
        }
      ],
      "stateMutability": "view",
      "type": "function"
    },
    {
      "inputs": [],
      "name": "influencerConfirmed",
      "outputs": [
        {
          "internalType": "bool",
          "name": "",
          "type": "bool"
        }
      ],
      "stateMutability": "view",
      "type": "function"
    },
    {
      "inputs": [],
      "name": "jackpotPayment",
      "outputs": [
        {
          "internalType": "uint256",
          "name": "",
          "type": "uint256"
        }
      ],
      "stateMutability": "view",
      "type": "function"
    },
    {
      "inputs": [],
      "name": "jackpotTargetReached",
      "outputs": [
        {
          "internalType": "bool",
          "name": "",
          "type": "bool"
        }
      ],
      "stateMutability": "view",
      "type": "function"
    },
    {
      "inputs": [
        {
          "internalType": "uint256",
          "name": "",
          "type": "uint256"
        }
      ],
      "name": "outstandingIncrementalPayments",
      "outputs": [
        {
          "internalType": "uint256",
          "name": "",
          "type": "uint256"
        }
      ],
      "stateMutability": "view",
      "type": "function"
    },
    {
      "inputs": [],
      "name": "getTimestamp",
      "outputs": [
        {
          "internalType": "uint256",
          "name": "",
          "type": "uint256"
        }
      ],
      "stateMutability": "view",
      "type": "function"
    },
    {
      "inputs": [],
      "name": "depositPayment",
      "outputs": [],
      "stateMutability": "payable",
      "type": "function"
    },
    {
      "inputs": [],
      "name": "balance",
      "outputs": [
        {
          "internalType": "uint256",
          "name": "",
          "type": "uint256"
        }
      ],
      "stateMutability": "view",
      "type": "function"
    },
    {
      "inputs": [],
      "name": "outstandingPayments",
      "outputs": [
        {
          "internalType": "uint256",
          "name": "",
          "type": "uint256"
        }
      ],
      "stateMutability": "view",
      "type": "function"
    },
    {
      "inputs": [
        {
          "internalType": "bool",
          "name": "_confirmedBusiness",
          "type": "bool"
        },
        {
          "internalType": "bool",
          "name": "_confirmedInfluencer",
          "type": "bool"
        }
      ],
      "name": "confirmBusinessInfluencer",
      "outputs": [],
      "stateMutability": "nonpayable",
      "type": "function"
    },
    {
      "inputs": [
        {
          "internalType": "bool",
          "name": "_jackpotTargetReached",
          "type": "bool"
        },
        {
          "internalType": "bool",
          "name": "_incrementalTargetReached",
          "type": "bool"
        }
      ],
      "name": "paymentTargetReached",
      "outputs": [],
      "stateMutability": "nonpayable",
      "type": "function"
    },
    {
      "inputs": [
        {
          "internalType": "bool",
          "name": "_businessConfirmed",
          "type": "bool"
        },
        {
          "internalType": "bool",
          "name": "_influencerConfirmed",
          "type": "bool"
        },
        {
          "internalType": "uint256",
          "name": "_confirmedPaymentAmount",
          "type": "uint256"
        }
      ],
      "name": "payInfluencer",
      "outputs": [],
      "stateMutability": "payable",
      "type": "function"
    },
    {
      "inputs": [
        {
          "internalType": "bool",
          "name": "_businessConfirmed",
          "type": "bool"
        },
        {
          "internalType": "bool",
          "name": "_influencerConfirmed",
          "type": "bool"
        }
      ],
      "name": "confirmRefund",
      "outputs": [],
      "stateMutability": "nonpayable",
      "type": "function"
    },
    {
      "inputs": [],
      "name": "refundPayment",
      "outputs": [],
      "stateMutability": "payable",
      "type": "function"
    },
    {
      "inputs": [
        {
          "internalType": "uint256",
          "name": "_newDeadline",
          "type": "uint256"
        }
      ],
      "name": "extendDeadline",
      "outputs": [],
      "stateMutability": "nonpayable",
      "type": "function"
    },
    {
      "inputs": [
        {
          "internalType": "uint256",
          "name": "_agreedAmount",
          "type": "uint256"
        }
      ],
      "name": "campaignEnded",
      "outputs": [],
      "stateMutability": "nonpayable",
      "type": "function"
    },
    {
      "inputs": [],
      "name": "confirmTransaction",
      "outputs": [],
      "stateMutability": "nonpayable",
      "type": "function"
    }
  ],
  "bytecode": "0x60806040526007805463ffff00001916905534801561001d57600080fd5b50604051611058380380611058833981810160405260e081101561004057600080fd5b508051602082015160408301516060840151608085015160a086015160c090960151600280546001600160a01b03199081166001600160a01b0398891617909155600080548216968816969096178655600180549091169690941695909517909255600355600655600592909255600455610f979081906100c190396000f3fe60806040526004361061018b5760003560e01c8063b65412b5116100d6578063df2d88ca1161007f578063e74dc11c11610059578063e74dc11c14610426578063f41662ed1461043b578063fac3fd59146103c85761018b565b8063df2d88ca146103c8578063e3668632146103fc578063e53abae9146104115761018b565b8063c7a6c454116100b0578063c7a6c45414610371578063da85a11f14610386578063dc5b13311461039b5761018b565b8063b65412b51461033f578063b69ef8a814610347578063b801ed851461035c5761018b565b80638d0449d611610138578063a87588e711610112578063a87588e7146102dd578063aa5e21531461030e578063ac35e160146103165761018b565b80638d0449d61461026b5780638ed5b0fc14610295578063a4b870c4146102aa5761018b565b80633621905f116101695780633621905f146101f6578063389b75331461020b5780637005a865146102375761018b565b80630496336914610190578063188ec356146101cc57806329dcb0cf146101e1575b600080fd5b34801561019c57600080fd5b506101ba600480360360208110156101b357600080fd5b5035610450565b60408051918252519081900360200190f35b3480156101d857600080fd5b506101ba61046e565b3480156101ed57600080fd5b506101ba610472565b34801561020257600080fd5b506101ba610478565b34801561021757600080fd5b506102356004803603602081101561022e57600080fd5b503561047e565b005b34801561024357600080fd5b506102356004803603604081101561025a57600080fd5b508035151590602001351515610491565b34801561027757600080fd5b506102356004803603602081101561028e57600080fd5b503561050b565b3480156102a157600080fd5b506101ba6106ac565b3480156102b657600080fd5b506101ba600480360360208110156102cd57600080fd5b50356001600160a01b03166106b2565b3480156102e957600080fd5b506102f26106c4565b604080516001600160a01b039092168252519081900360200190f35b6102356106d3565b34801561032257600080fd5b5061032b6107d3565b604080519115158252519081900360200190f35b6102356107e1565b34801561035357600080fd5b506101ba6108e9565b34801561036857600080fd5b5061032b610905565b34801561037d57600080fd5b50610235610915565b34801561039257600080fd5b506101ba610917565b610235600480360360608110156103b157600080fd5b50803515159060208101351515906040013561091d565b3480156103d457600080fd5b50610235600480360360408110156103eb57600080fd5b508035151590602001351515610d78565b34801561040857600080fd5b506101ba610da8565b34801561041d57600080fd5b5061032b610dae565b34801561043257600080fd5b506102f2610dbd565b34801561044757600080fd5b5061032b610dcc565b6009818154811061045d57fe5b600091825260209091200154905081565b4290565b60065481565b60045481565b806006541061048c57600080fd5b600655565b6007805460ff191683151517905580156104f3576007805461ff00191661010083151502179055600454600980546001810182556000919091527f6e1540171b6c0c960b71a7020d9f60077f6af931a8bbf590da0223dacf75c7af0155610507565b6007805461ff001916610100831515021790555b5050565b42600654111580610538575060075462010000900460ff16801561053857506007546301000000900460ff165b61054157600080fd5b600754610100900460ff16156105d3576007546105719060ff62010000820481169163010000009004168361091d565b600154604080516001600160a01b039092168083526020830182815260449284018390527f0d107b46cc87df81d8b07b84c9779b936476d0dcec3bc847f9426ff6ab7cafde9391926060830190610f1e82396060019250505060405180910390a15b60075460ff161561065e576007546105fe9060ff62010000820481169163010000009004168361091d565b600154604080516001600160a01b03909216808352602083018281528383018390527f190aa6da3303246decb4e8c5ad0aa1d9ca05213f67cc5f0435601021f1962c519391926060830190610e9b82396040019250505060405180910390a15b7faa3cf383fa3c023b6d5f60a405dba45b1e3c35cf5d87931c5ec2780846af11f6604051808060200182810382526022815260200180610efc6022913960400191505060405180910390a150565b60035481565b60086020526000908152604090205481565b6000546001600160a01b031681565b6001546001600160a01b031633146106ea57600080fd5b4260065411610740576040805162461bcd60e51b815260206004820181905260248201527f5468652063616d706169676e20646561646c696e652068617320706173736564604482015290519081900360640190fd5b600080546001600160a01b031681526008602090815260409182902080543490810190915582513381528084019190915260608183018190528101919091527f686173206d61646520746865207265717569726564206465706f736974206f66608082015290517fe70f65e6d145e604d88d569d432577752fc4194b4030037c10b7411ebf46f36f9181900360a00190a1565b600754610100900460ff1681565b4260065411158061080e575060075462010000900460ff16801561080e57506007546301000000900460ff165b61081757600080fd5b600080546001600160a01b0390811682526008602052604080832080549084905560015491519093919092169183156108fc0291849190818181858888f1935050505015801561086b573d6000803e3d6000fd5b50600154604080516001600160a01b039092168252818101839052606060208301819052600c908301527f77617320726566756e64656400000000000000000000000000000000000000006080830152517fc345da4fedaebfd42068502a8ebda0f2138f5b32f72494fc1e53a77c7f53c0dc9181900360a00190a150565b600080546001600160a01b031681526008602052604090205490565b6007546301000000900460ff1681565b565b60095490565b60075460ff16806109355750600754610100900460ff165b8061094557508280156109455750815b61094e57600080fd5b42600654101561095d57600080fd5b60075460ff1615610a6f57600554600080546001600160a01b0316815260086020526040902054101561098f57600080fd5b60058054600080546001600160a01b0390811682526008602052604080832080549490940390935581549354925193169282156108fc029291818181858888f193505050501580156109e5573d6000803e3d6000fd5b506007805460ff19169055600054600554604080516001600160a01b03909316835282810191909152606060208301819052601d908301527f686173206d6164652061206a61636b706f74207769746864726177616c0000006080830152517f209d29239e210d3bbcc9570c9096b966765614e7da0402446dbeee7af6b900da9181900360a00190a15b600754610100900460ff1615610c8e57600454600080546001600160a01b03168152600860205260409020541015610aa657600080fd5b600954600111610bad57600454600954600091610ac39190610dd5565b600080546001600160a01b039081168252600860205260408083208054859003905582549051939450169183156108fc0291849190818181858888f19350505050158015610b15573d6000803e3d6000fd5b50610b2260096000610e37565b6007805461ff0019169055600054604080516001600160a01b039092168252818101839052606060208301819052601f908301527f686173206d61646520616e20696e74657276616c207769746864726177616c006080830152517f81117671d30e3822689c5b5b34dfb4f996907d0a0758463e514a7e81a347c3a79181900360a00190a150610c8e565b60048054600080546001600160a01b0390811682526008602052604080832080549490940390935581549354925193169282156108fc029291818181858888f19350505050158015610c03573d6000803e3d6000fd5b506007805461ff0019169055600054600454604080516001600160a01b03909316835282810191909152606060208301819052601f908301527f686173206d61646520616e20696e74657276616c207769746864726177616c006080830152517f81117671d30e3822689c5b5b34dfb4f996907d0a0758463e514a7e81a347c3a79181900360a00190a15b828015610c985750815b15610d7357600080546001600160a01b03168152600860205260409020548110610cc157600080fd5b600080546040516001600160a01b039091169183156108fc02918491818181858888f19350505050158015610cfa573d6000803e3d6000fd5b507fb9e9851c7b478aea3d46f271f06d92c7728357aee4a4a6d88b165bbe1ede19a960008054906101000a90046001600160a01b03168260405180836001600160a01b031681526020018060200183815260200182810382526029815260200180610e7260299139604001935050505060405180910390a15b505050565b6007805491151563010000000263ff00000019931515620100000262ff0000199093169290921792909216179055565b60055481565b60075462010000900460ff1681565b6001546001600160a01b031681565b60075460ff1681565b600082610de457506000610e31565b82820282848281610df157fe5b0414610e2e5760405162461bcd60e51b8152600401808060200182810382526021815260200180610edb6021913960400191505060405180910390fd5b90505b92915050565b5080546000825590600052602060002090810190610e559190610e58565b50565b5b80821115610e6d5760008155600101610e59565b509056fe686173206d61646520616e206167726565642075706f6e20616d6f756e74207769746864726177616c6d616b696e67207468652072656d61696e696e67206a61636b706f74207061796d656e74206265666f72652063616d706167696e207465726d696e6174696f6e536166654d6174683a206d756c7469706c69636174696f6e206f766572666c6f7763616d706169676e2069732061626f757420746f206265207465726d696e617465646d616b696e67207468652072656d61696e696e6720696e6372656d656e74616c207061796d656e74206265666f72652063616d706167696e207465726d696e6174696f6ea26469706673582212200ec812f7f2c450f2426a174f92b917e1c8bc06a7d646f8843a55be493dbc3ac064736f6c634300060c0033",
  "immutableReferences": {},
  "source": "pragma solidity >=0.4.22 <0.8.0;\n\n// import \"./Ownable.sol\";\n// import \"./Escrow.sol\";\n// import './RefundEscrow.sol';\nimport '@openzeppelin/contracts/math/SafeMath.sol';\n\ncontract Famepay {\n    using SafeMath for uint256;\n\n    address payable public influencer;\n    address payable public business;\n    address payable platform;\n\n    uint256 public campaignId;\n    uint256 public incrementalPayment;\n    uint256 public jackpotPayment;\n    uint256 public deadline;\n\n    bool public jackpotTargetReached;\n    bool public incrementalTargetReached;\n\n    bool public businessConfirmed = false;\n    bool public influencerConfirmed = false;\n\n    mapping(address => uint256) public depositedFor;\n    uint256[] public outstandingIncrementalPayments;\n\n    event BusinessDeposited(address _business, string _message, uint256 _amount);\n    event BusinessRefunded(address _business, string _message, uint256 _amount);\n\n    event IncrementInfluencerPayment(address _influencer, string _message, uint256 _amount);\n    event JackpotInfluencerPayment(address _influencer, string _message, uint256 _amount);\n    event AgreedAmountPayment(address _influencer, string _message, uint256 _amount);\n\n    event InvalidWithdrawal(string _message);\n\n    event CampaignTerminationIncrementPayment(address _influencer, string _message);\n    event CampaignTerminationJackpotPayment(address _influencer, string _message);\n    event CampaignEnding(string _message);\n\n    modifier onlyInfluencer() {\n        require(influencer == msg.sender);\n        _;\n    }\n\n    modifier onlyBusiness() {\n        require(business == msg.sender);\n        _;\n    }\n\n    \n\n    constructor(\n        address payable _platform,\n        address payable _influencer,\n        address payable _business,\n        uint256 _campaignId,\n        uint256 _deadline,\n        uint256 _jackpotPayment,\n        uint256 _incrementalPayment\n    ) public {\n        platform = _platform;\n        influencer = _influencer;\n        business = _business;\n        campaignId= _campaignId;\n        deadline = _deadline;\n        jackpotPayment = _jackpotPayment;\n        incrementalPayment = _incrementalPayment;\n    }\n\n    // fallback() external payable {\n    //     revert();\n    // }\n\n    function getTimestamp() public view returns (uint256) {\n        return block.timestamp;\n    }\n\n    function depositPayment() onlyBusiness public payable {\n        require(deadline > block.timestamp, 'The campaign deadline has passed'); //CHANGED!\n        depositedFor[influencer] = depositedFor[influencer] + msg.value;\n        emit BusinessDeposited(msg.sender, 'has made the required deposit of', msg.value);\n    }\n\n    function balance() public view returns (uint256) {\n        return depositedFor[influencer];\n    }\n\n    function outstandingPayments() public view returns (uint256) {\n        return outstandingIncrementalPayments.length;\n    }\n\n    function confirmBusinessInfluencer(bool _confirmedBusiness, bool _confirmedInfluencer) public {\n        businessConfirmed = _confirmedBusiness;\n        influencerConfirmed = _confirmedInfluencer;\n    }\n\n    function paymentTargetReached(bool _jackpotTargetReached, bool _incrementalTargetReached) public {\n        jackpotTargetReached = _jackpotTargetReached;\n        if (_incrementalTargetReached) {\n            incrementalTargetReached = _incrementalTargetReached;\n            outstandingIncrementalPayments.push(incrementalPayment);\n        } else {\n            incrementalTargetReached = _incrementalTargetReached;\n        }\n    }\n\n    function payInfluencer(\n        bool _businessConfirmed,\n        bool _influencerConfirmed,\n        uint256 _confirmedPaymentAmount\n    ) public payable {\n        require(jackpotTargetReached || incrementalTargetReached || (_businessConfirmed && _influencerConfirmed));\n        require(deadline >= block.timestamp);\n\n        //jackpot payment\n        if (jackpotTargetReached) {\n            require(depositedFor[influencer] >= jackpotPayment);\n            depositedFor[influencer] -= jackpotPayment;\n            influencer.transfer(jackpotPayment);\n            jackpotTargetReached = false;\n            emit JackpotInfluencerPayment(influencer, 'has made a jackpot withdrawal', jackpotPayment);\n        }\n\n        //incremental payment\n        if (incrementalTargetReached) {\n            require(depositedFor[influencer] >= incrementalPayment);\n            // for multiple outstanding payments\n            if (outstandingIncrementalPayments.length >= 1) {\n                uint256 outstandingIncrementalPayment = outstandingIncrementalPayments.length.mul(incrementalPayment);\n                depositedFor[influencer] -= outstandingIncrementalPayment;\n                influencer.transfer(outstandingIncrementalPayment);\n                delete outstandingIncrementalPayments;\n                incrementalTargetReached = false;\n                emit IncrementInfluencerPayment(influencer, 'has made an interval withdrawal', outstandingIncrementalPayment);\n            } else {\n                depositedFor[influencer] -= incrementalPayment;\n                influencer.transfer(incrementalPayment);\n                incrementalTargetReached = false;\n                emit IncrementInfluencerPayment(influencer, 'has made an interval withdrawal', incrementalPayment);\n            }\n        }\n\n        //agreed upon sum\n        if (_businessConfirmed && _influencerConfirmed) {\n            require(_confirmedPaymentAmount < depositedFor[influencer]);\n            influencer.transfer(_confirmedPaymentAmount);\n            emit AgreedAmountPayment(influencer, 'has made an agreed upon amount withdrawal', _confirmedPaymentAmount);\n        }\n    }\n\n\n    function confirmRefund(bool _businessConfirmed, bool _influencerConfirmed) public {\n        businessConfirmed = _businessConfirmed;\n        influencerConfirmed = _influencerConfirmed;\n    }\n\n    function refundPayment() public payable {\n        require(deadline <= block.timestamp || (businessConfirmed && influencerConfirmed));\n        uint256 payment = depositedFor[influencer];\n        depositedFor[influencer] = 0;\n        business.transfer(payment);\n        emit BusinessRefunded(business, 'was refunded', payment);\n    }\n\n    function extendDeadline(uint256 _newDeadline) public {\n        require(deadline < _newDeadline);\n        deadline = _newDeadline;\n    }\n\n    function campaignEnded(uint256 _agreedAmount) public {\n        require(deadline <= block.timestamp || (businessConfirmed && influencerConfirmed)); //check multiple require statements\n        if (incrementalTargetReached) {\n            payInfluencer(businessConfirmed, influencerConfirmed, _agreedAmount);\n            emit CampaignTerminationIncrementPayment(business, 'making the remaining incremental payment before campagin termination');\n        }\n        if (jackpotTargetReached) {\n            payInfluencer(businessConfirmed, influencerConfirmed, _agreedAmount);\n            emit CampaignTerminationJackpotPayment(business, 'making the remaining jackpot payment before campagin termination');\n        }\n        emit CampaignEnding('campaign is about to be terminated');\n        // selfdestruct;\n    }\n\n    function confirmTransaction() public {}\n\n   \n    /*\n    function pause() external onlyAdmin {\n        super._pause();\n    }\n\n    function unpause() external onlyAdmin {\n        super._unpause();\n    }\n    \n    \n    */\n}\n",
  "sourcePath": "/Users/benweinberg/Desktop/Work/FamePay/FamePayCode/contracts/Famepay.sol",
  "compiler": {
    "name": "solc",
    "version": "0.6.12+commit.27d51765.Emscripten.clang"
  },
  "schemaVersion": "3.3.0",
  "updatedAt": "2020-12-20T16:37:04.565Z",
  "devdoc": {
    "kind": "dev",
    "methods": {},
    "version": 1
  },
  "userdoc": {
    "kind": "user",
    "methods": {},
    "version": 1
  }
}