{
  "contractName": "FamepayFactory",
  "abi": [
    {
      "inputs": [],
      "stateMutability": "nonpayable",
      "type": "constructor"
    },
    {
      "anonymous": false,
      "inputs": [
        {
          "indexed": false,
          "internalType": "address",
          "name": "_influencer",
          "type": "address"
        },
        {
          "indexed": false,
          "internalType": "address",
          "name": "_business",
          "type": "address"
        },
        {
          "indexed": false,
          "internalType": "uint256",
          "name": "_campaignId",
          "type": "uint256"
        },
        {
          "indexed": false,
          "internalType": "uint256",
          "name": "_startDate",
          "type": "uint256"
        },
        {
          "indexed": false,
          "internalType": "uint256",
          "name": "_deadline",
          "type": "uint256"
        },
        {
          "indexed": false,
          "internalType": "uint256",
          "name": "_jackpotPayment",
          "type": "uint256"
        },
        {
          "indexed": false,
          "internalType": "uint256",
          "name": "_incrementalPayment",
          "type": "uint256"
        },
        {
          "indexed": false,
          "internalType": "uint256",
          "name": "_jackpotTargetAmount",
          "type": "uint256"
        },
        {
          "indexed": false,
          "internalType": "uint256",
          "name": "_incrementalTargetAmount",
          "type": "uint256"
        },
        {
          "indexed": false,
          "internalType": "uint256",
          "name": "_potentialPayoutAmount",
          "type": "uint256"
        },
        {
          "indexed": false,
          "internalType": "string",
          "name": "_name",
          "type": "string"
        },
        {
          "indexed": false,
          "internalType": "string",
          "name": "_objective",
          "type": "string"
        }
      ],
      "name": "NewFamepayCampaignCreated",
      "type": "event"
    },
    {
      "inputs": [
        {
          "internalType": "address payable",
          "name": "_business",
          "type": "address"
        },
        {
          "internalType": "address payable",
          "name": "_influencer",
          "type": "address"
        },
        {
          "internalType": "uint256",
          "name": "_campaignId",
          "type": "uint256"
        },
        {
          "internalType": "uint256",
          "name": "_startDate",
          "type": "uint256"
        },
        {
          "internalType": "uint256",
          "name": "_deadline",
          "type": "uint256"
        },
        {
          "internalType": "uint256",
          "name": "_jackpotPayment",
          "type": "uint256"
        },
        {
          "internalType": "uint256",
          "name": "_incrementalPayment",
          "type": "uint256"
        },
        {
          "internalType": "uint256",
          "name": "_jackpotTargetAmount",
          "type": "uint256"
        },
        {
          "internalType": "uint256",
          "name": "_incrementalTargetAmount",
          "type": "uint256"
        },
        {
          "internalType": "uint256",
          "name": "_potentialPayoutAmount",
          "type": "uint256"
        },
        {
          "internalType": "string",
          "name": "_name",
          "type": "string"
        },
        {
          "internalType": "string",
          "name": "_objective",
          "type": "string"
        }
      ],
      "name": "newFamepayCampaign",
      "outputs": [],
      "stateMutability": "payable",
      "type": "function"
    },
    {
      "inputs": [
        {
          "internalType": "uint256",
          "name": "_campaignId",
          "type": "uint256"
        }
      ],
      "name": "getCampaign",
      "outputs": [
        {
          "internalType": "address",
          "name": "",
          "type": "address"
        }
      ],
      "stateMutability": "view",
      "type": "function"
    }
  ],
  "bytecode": "0x608060405234801561001057600080fd5b50600080546001600160a01b03191633179055611d7e806100326000396000f3fe6080604052600436106100295760003560e01c80635598f8cc1461002e578063d6605b4c14610074575b600080fd5b34801561003a57600080fd5b506100586004803603602081101561005157600080fd5b50356101f1565b604080516001600160a01b039092168252519081900360200190f35b6101ef600480360361018081101561008b57600080fd5b6001600160a01b03823581169260208101359091169160408201359160608101359160808201359160a08101359160c08201359160e081013591610100820135916101208101359181019061016081016101408201356401000000008111156100f357600080fd5b82018360208201111561010557600080fd5b8035906020019184600183028401116401000000008311171561012757600080fd5b91908080601f016020809104026020016040519081016040528093929190818152602001838380828437600092019190915250929594936020810193503591505064010000000081111561017a57600080fd5b82018360208201111561018c57600080fd5b803590602001918460018302840111640100000000831117156101ae57600080fd5b91908080601f01602080910402602001604051908101604052809392919081815260200183838082843760009201919091525092955061020c945050505050565b005b6000908152600160205260409020546001600160a01b031690565b61021685856105bb565b6003819055610226908790610606565b600281905561023690889061065f565b8311610289576040805162461bcd60e51b815260206004820152601f60248201527f54686520706f74656e7469616c207061796f757420697320696e76616c696400604482015290519081900360640190fd5b60003460008054906101000a90046001600160a01b03168d8f8e8e8e8e8e8e8e8e8e8e6040516102b89061075b565b808e6001600160a01b031681526020018d6001600160a01b031681526020018c6001600160a01b031681526020018b81526020018a81526020018981526020018881526020018781526020018681526020018581526020018481526020018060200180602001838103835285818151815260200191508051906020019080838360005b8381101561035357818101518382015260200161033b565b50505050905090810190601f1680156103805780820380516001836020036101000a031916815260200191505b50838103825284518152845160209182019186019080838360005b838110156103b357818101518382015260200161039b565b50505050905090810190601f1680156103e05780820380516001836020036101000a031916815260200191505b509f505050505050505050505050505050506040518091039082f090508015801561040f573d6000803e3d6000fd5b50905080600160008d815260200190815260200160002060006101000a8154816001600160a01b0302191690836001600160a01b031602179055507f623d4c2a7e233a3902bd907d3dce603d31b43f63d4b5ddc636383d9a729226d98c8e8d8d8d8d8d8d8d8d8d8d604051808d6001600160a01b031681526020018c6001600160a01b031681526020018b81526020018a81526020018981526020018881526020018781526020018681526020018581526020018481526020018060200180602001838103835285818151815260200191508051906020019080838360005b838110156105065781810151838201526020016104ee565b50505050905090810190601f1680156105335780820380516001836020036101000a031916815260200191505b50838103825284518152845160209182019186019080838360005b8381101561056657818101518382015260200161054e565b50505050905090810190601f1680156105935780820380516001836020036101000a031916815260200191505b509e50505050505050505050505050505060405180910390a150505050505050505050505050565b60006105fd83836040518060400160405280601a81526020017f536166654d6174683a206469766973696f6e206279207a65726f0000000000008152506106b9565b90505b92915050565b60008261061557506000610600565b8282028284828161062257fe5b04146105fd5760405162461bcd60e51b8152600401808060200182810382526021815260200180611d286021913960400191505060405180910390fd5b6000828201838110156105fd576040805162461bcd60e51b815260206004820152601b60248201527f536166654d6174683a206164646974696f6e206f766572666c6f770000000000604482015290519081900360640190fd5b600081836107455760405162461bcd60e51b81526004018080602001828103825283818151815260200191508051906020019080838360005b8381101561070a5781810151838201526020016106f2565b50505050905090810190601f1680156107375780820380516001836020036101000a031916815260200191505b509250505060405180910390fd5b50600083858161075157fe5b0495945050505050565b6115bf806107698339019056fe60806040819052600b805463ffff000019169055620015bf3881900390819083398181016040526101a08110156200003657600080fd5b815160208301516040808501516060860151608087015160a088015160c089015160e08a01516101008b01516101208c01516101408d01516101608e0180519a519c9e9b9d999c989b979a969995989497939692959194939182019284640100000000821115620000a657600080fd5b908301906020820185811115620000bc57600080fd5b8251640100000000811182820188101715620000d757600080fd5b82525081516020918201929091019080838360005b8381101562000106578181015183820152602001620000ec565b50505050905090810190601f168015620001345780820380516001836020036101000a031916815260200191505b50604052602001805160405193929190846401000000008211156200015857600080fd5b9083019060208201858111156200016e57600080fd5b82516401000000008111828201881017156200018957600080fd5b82525081516020918201929091019080838360005b83811015620001b85781810151838201526020016200019e565b50505050905090810190601f168015620001e65780820380516001836020036101000a031916815260200191505b506040525050508c600260006101000a8154816001600160a01b0302191690836001600160a01b031602179055508b6000806101000a8154816001600160a01b0302191690836001600160a01b031602179055508a600160006101000a8154816001600160a01b0302191690836001600160a01b031602179055508960078190555088600581905550876006819055508660048190555085600381905550846009819055508360088190555082600a8190555081600c9080519060200190620002b1929190620002fa565b508051620002c790600d906020840190620002fa565b5050600080546001600160a01b03168152600e6020526040902080544701905550620003969a5050505050505050505050565b828054600181600116156101000203166002900490600052602060002090601f016020900481019282601f106200033d57805160ff19168380011785556200036d565b828001600101855582156200036d579182015b828111156200036d57825182559160200191906001019062000350565b506200037b9291506200037f565b5090565b5b808211156200037b576000815560010162000380565b61121980620003a66000396000f3fe6080604052600436106101b75760003560e01c8063a87588e7116100ec578063e36686321161008a578063e74dc11c11610064578063e74dc11c14610506578063f318e5571461051b578063f41662ed14610530578063fac3fd5914610493576101b7565b8063e3668632146104c7578063e53abae9146104dc578063e5fb0450146104f1576101b7565b8063b801ed85116100c6578063b801ed851461043c578063da85a11f14610451578063dc5b133114610466578063df2d88ca14610493576101b7565b8063a87588e7146103da578063aa5e21531461040b578063ac35e16014610413576101b7565b80632fe289b311610159578063612abb1011610133578063612abb10146103415780637005a865146103565780638d0449d61461038a578063a4b870c4146103a7576101b7565b80632fe289b3146102eb5780633621905f14610300578063389b753314610315576101b7565b806314f1586a1161019557806314f1586a14610297578063188ec356146102ac5780631d8d1f66146102c157806329dcb0cf146102d6576101b7565b806304963369146101bc57806306fdde03146101f85780630b97bc8614610282575b600080fd5b3480156101c857600080fd5b506101e6600480360360208110156101df57600080fd5b5035610545565b60408051918252519081900360200190f35b34801561020457600080fd5b5061020d610563565b6040805160208082528351818301528351919283929083019185019080838360005b8381101561024757818101518382015260200161022f565b50505050905090810190601f1680156102745780820380516001836020036101000a031916815260200191505b509250505060405180910390f35b34801561028e57600080fd5b506101e66105f1565b3480156102a357600080fd5b5061020d6105f7565b3480156102b857600080fd5b506101e6610652565b3480156102cd57600080fd5b506101e6610656565b3480156102e257600080fd5b506101e6610672565b3480156102f757600080fd5b506101e6610678565b34801561030c57600080fd5b506101e661067e565b34801561032157600080fd5b5061033f6004803603602081101561033857600080fd5b5035610684565b005b34801561034d57600080fd5b506101e66106f9565b34801561036257600080fd5b5061033f6004803603604081101561037957600080fd5b5080351515906020013515156106ff565b61033f600480360360208110156103a057600080fd5b5035610779565b3480156103b357600080fd5b506101e6600480360360208110156103ca57600080fd5b50356001600160a01b0316610963565b3480156103e657600080fd5b506103ef610975565b604080516001600160a01b039092168252519081900360200190f35b61033f610984565b34801561041f57600080fd5b50610428610ab4565b604080519115158252519081900360200190f35b34801561044857600080fd5b50610428610ac2565b34801561045d57600080fd5b506101e6610ad2565b61033f6004803603606081101561047c57600080fd5b508035151590602081013515159060400135610ad8565b34801561049f57600080fd5b5061033f600480360360408110156104b657600080fd5b508035151590602001351515610f42565b3480156104d357600080fd5b506101e6610f72565b3480156104e857600080fd5b50610428610f78565b3480156104fd57600080fd5b506101e6610f87565b34801561051257600080fd5b506103ef610f8d565b34801561052757600080fd5b506101e6610f9c565b34801561053c57600080fd5b50610428610fa0565b600f818154811061055257fe5b600091825260209091200154905081565b600c805460408051602060026001851615610100026000190190941693909304601f810184900484028201840190925281815292918301828280156105e95780601f106105be576101008083540402835291602001916105e9565b820191906000526020600020905b8154815290600101906020018083116105cc57829003601f168201915b505050505081565b60055481565b600d805460408051602060026001851615610100026000190190941693909304601f810184900484028201840190925281815292918301828280156105e95780601f106105be576101008083540402835291602001916105e9565b4290565b600080546001600160a01b03168152600e602052604090205490565b60065481565b60095481565b60035481565b806006541061069257600080fd5b806006819055507f0b00605b9ad7ef2de33021fe160f4d82994976e6817d72e28de02224bcf7ef668160075460405180806020018481526020018381526020018281038252602581526020018061104660259139604001935050505060405180910390a150565b60085481565b600b805460ff1916831515179055801561076157600b805461ff00191661010083151502179055600354600f80546001810182556000919091527f8d1108e10bcb7c27dddfc02ed9d693a074039d026cf4ea4240b40f7d581ac8020155610775565b600b805461ff001916610100831515021790555b5050565b600b54610100900460ff161561082757600b546107a99060ff620100008204811691630100000090041683610ad8565b600154600754604080516001600160a01b0390931680845260009184018290526060840183905260806020850181815260449186018290527f10c17442a5ea70a854e377780176fec1a27a0fc4b74e0184353a6053da9e5d2a959294929160a08301906111a0823960600194505050505060405180910390a1610955565b600b5460ff16156108ce57600b546108529060ff620100008204811691630100000090041683610ad8565b60018054600754604080516001600160a01b03909316808452838201859052606084018390526080602085018181529085018390527ff624d99a89aaa005e805dc92498435916c6c254ae279b9344f2ac1e3196608fc95919491939260a08301906110f5823960400194505050505060405180910390a1610955565b600080546001600160a01b03168152600e6020908152604080832054600754825193840182905291830184905260608301829052608080845260229084018190527f692bb0029b219b1cc9399e529c627028a932feacc8848fb01b38eb1ee5b8575d94919391929190819060a082019061117e823960400194505050505060405180910390a15b6001546001600160a01b0316ff5b600e6020526000908152604090205481565b6000546001600160a01b031681565b42600654116109da576040805162461bcd60e51b815260206004820181905260248201527f5468652063616d706169676e20646561646c696e652068617320706173736564604482015290519081900360640190fd5b60003411610a195760405162461bcd60e51b81526004018080602001828103825260288152602001806111566028913960400191505060405180910390fd5b600080546001600160a01b03168152600e6020908152604091829020805434908101909155600754835133815280850192909252606082015260808183018190528101919091527f686173206d61646520746865207265717569726564206465706f736974206f6660a082015290517f5e099b07090a28377d290cb1b348bf56003cf9b56fd13c3fdda41dca8bbe4dcf9181900360c00190a1565b600b54610100900460ff1681565b600b546301000000900460ff1681565b600f5490565b600b5460ff1680610af05750600b54610100900460ff165b80610b005750828015610b005750815b610b3b5760405162461bcd60e51b815260040180806020018281038252602381526020018061106b6023913960400191505060405180910390fd5b426006541015610b92576040805162461bcd60e51b815260206004820152601b60248201527f7468652063616d706169676e20706572696f64206973206f7665720000000000604482015290519081900360640190fd5b600b5460ff1615610c6757600454600080546001600160a01b03168152600e60205260409020541015610bc457600080fd5b60048054600080546001600160a01b039081168252600e602052604080832080549490940390935581549354925193169282156108fc029291818181858888f19350505050158015610c1a573d6000803e3d6000fd5b50600b805460ff1916905560045460075460408051928352602083019190915280517f314b8d1c1fcf6a0803dd4c073d3a198302a249e6e1e0a6ce20a289f6f61c80e89281900390910190a15b600b54610100900460ff1615610e4e57600354600080546001600160a01b03168152600e60205260409020541015610cd05760405162461bcd60e51b815260040180806020018281038252603e8152602001806110b7603e913960400191505060405180910390fd5b600f54600111610da457600354600f54600091610ced9190610fa9565b600080546001600160a01b039081168252600e60205260408083208054859003905582549051939450169183156108fc0291849190818181858888f19350505050158015610d3f573d6000803e3d6000fd5b50610d4c600f600061100b565b600b805461ff0019169055600f5460075460408051848152602081019390935282810191909152517f4e096a163f990a9051b37b380a1fdc57da1ed67943857ddeb496a302fea7a7c09181900360600190a150610e4e565b60038054600080546001600160a01b039081168252600e602052604080832080549490940390935581549354925193169282156108fc029291818181858888f19350505050158015610dfa573d6000803e3d6000fd5b50600b805461ff0019169055600354600f5460075460408051938452602084019290925282820152517f4e096a163f990a9051b37b380a1fdc57da1ed67943857ddeb496a302fea7a7c09181900360600190a15b828015610e585750815b15610f3d57600080546001600160a01b03168152600e60205260409020548110610e8157600080fd5b600080546040516001600160a01b039091169183156108fc02918491818181858888f19350505050158015610eba573d6000803e3d6000fd5b507fa92187b78345558eed3648c90b7b79ea90173e8df1b56ecf17fa03896703d41b60008054906101000a90046001600160a01b03168260075460405180846001600160a01b03168152602001806020018481526020018381526020018281038252602981526020018061108e6029913960400194505050505060405180910390a15b505050565b600b805491151563010000000263ff00000019931515620100000262ff0000199093169290921792909216179055565b60045481565b600b5462010000900460ff1681565b600a5481565b6001546001600160a01b031681565b4790565b600b5460ff1681565b600082610fb857506000611005565b82820282848281610fc557fe5b04146110025760405162461bcd60e51b81526004018080602001828103825260218152602001806111356021913960400191505060405180910390fd5b90505b92915050565b5080546000825590600052602060002090810190611029919061102c565b50565b5b80821115611041576000815560010161102d565b509056fe5468652063616d706169676e20646561646c696e652077617320657874656e64656420746f636f6e646974696f6e7320666f72207061796d656e742077657265206e6f74206d6574686173206d61646520616e206167726565642075706f6e20616d6f756e74207769746864726177616c74686520617474656d70746564207061796f7574206973206d6f7265207468616e20697320646573706f6974656420696e207468652063616d706169676e6d616b696e67207468652072656d61696e696e67206a61636b706f74207061796d656e74206265666f72652063616d706167696e207465726d696e6174696f6e536166654d6174683a206d756c7469706c69636174696f6e206f766572666c6f77596f75206d757374206465706f736974206d6f6e657920696e746f2074686520636f6e747261637463616d706169676e2069732061626f757420746f206265207465726d696e617465646d616b696e67207468652072656d61696e696e6720696e6372656d656e74616c207061796d656e74206265666f72652063616d706167696e207465726d696e6174696f6ea264697066735822122001949bb0421bb5921a5c609cc07e201afe9b3be3b0052c3224ee5f95b186ee2264736f6c634300060c0033536166654d6174683a206d756c7469706c69636174696f6e206f766572666c6f77a26469706673582212208992a25607009a3490464fcc5e5424b7520bb35e96ab923b5ebc8729aa3f5d3d64736f6c634300060c0033",
  "immutableReferences": {},
  "source": "pragma solidity >=0.4.22 <0.8.0;\nimport './Famepay.sol';\nimport '@openzeppelin/contracts/math/SafeMath.sol';\n\ncontract FamepayFactory {\n    using SafeMath for uint256;\n\n    address payable private platform;\n    mapping(uint256 => address) private famepayCampaigns;\n    event NewFamepayCampaignCreated(\n        address _influencer,\n        address _business,\n        uint256 _campaignId,\n        uint256 _startDate,\n        uint256 _deadline,\n        uint256 _jackpotPayment,\n        uint256 _incrementalPayment,\n        uint256 _jackpotTargetAmount,\n        uint256 _incrementalTargetAmount,\n        uint256 _potentialPayoutAmount,\n        string _name,\n        string _objective\n    );\n\n    constructor() public {\n        platform = msg.sender;\n    }\n    \n        \n    uint256 incrementalPaymentsTillJackpotValue;\n    uint256 incrementalPaymentsTillJackpotAmount;\n    function newFamepayCampaign(\n        address payable _business,\n        address payable _influencer,\n        uint256 _campaignId,\n        uint256 _startDate,\n        uint256 _deadline,\n        uint256 _jackpotPayment,\n        uint256 _incrementalPayment,\n        uint256 _jackpotTargetAmount,\n        uint256 _incrementalTargetAmount,\n        uint256 _potentialPayoutAmount,\n        string memory _name,\n        string memory _objective\n    ) payable public {\n        incrementalPaymentsTillJackpotAmount = _jackpotTargetAmount.div(_incrementalTargetAmount);\n        incrementalPaymentsTillJackpotValue = _incrementalPayment.mul(incrementalPaymentsTillJackpotAmount);\n        require(_potentialPayoutAmount > _jackpotPayment.add(incrementalPaymentsTillJackpotValue), \"The potential payout is invalid\");\n        // require(_potentialPayoutAmount > _jackpotPayment.add(_incrementalPayment.mul(_jackpotTargetAmount.div(_incrementalTargetAmount))));\n        Famepay famepay = new Famepay{value: msg.value}(platform, _influencer, _business, _campaignId, _startDate, _deadline, _jackpotPayment, _incrementalPayment, _jackpotTargetAmount, _incrementalTargetAmount, _potentialPayoutAmount, _name, _objective) ;\n        famepayCampaigns[_campaignId] = address(famepay);\n        emit NewFamepayCampaignCreated( _influencer, _business, _campaignId, _startDate, _deadline, _jackpotPayment, _incrementalPayment, _jackpotTargetAmount, _incrementalTargetAmount, _potentialPayoutAmount, _name, _objective);\n    }\n\n    function getCampaign(uint256 _campaignId) view public returns (address) {\n         return famepayCampaigns[_campaignId];\n    }\n}\n",
  "sourcePath": "/Users/benweinberg/Desktop/Work/FamePay/FamePayContract/contracts/FamepayFactory.sol",
  "compiler": {
    "name": "solc",
    "version": "0.6.12+commit.27d51765.Emscripten.clang"
  },
  "schemaVersion": "3.3.0",
  "updatedAt": "2021-02-20T21:48:18.899Z",
  "devdoc": {
    "kind": "dev",
    "methods": {},
    "version": 1
  },
  "userdoc": {
    "kind": "user",
    "methods": {},
    "version": 1
  }
}