{
  "contractName": "Famepay",
  "abi": [
    {
      "inputs": [
        {
          "internalType": "address payable",
          "name": "_influencer",
          "type": "address"
        },
        {
          "internalType": "address payable",
          "name": "_business",
          "type": "address"
        },
        {
          "internalType": "uint256",
          "name": "_startDate",
          "type": "uint256"
        },
        {
          "internalType": "uint256",
          "name": "_deadline",
          "type": "uint256"
        },
        {
          "internalType": "uint256",
          "name": "_simplePostDuration",
          "type": "uint256"
        },
        {
          "internalType": "uint256",
          "name": "_jackpotPayment",
          "type": "uint256"
        },
        {
          "internalType": "uint256",
          "name": "_incrementalPayment",
          "type": "uint256"
        },
        {
          "internalType": "uint256",
          "name": "_jackpotTargetAmount",
          "type": "uint256"
        },
        {
          "internalType": "uint256",
          "name": "_incrementalTargetAmount",
          "type": "uint256"
        },
        {
          "internalType": "bytes4",
          "name": "_objective",
          "type": "bytes4"
        },
        {
          "internalType": "uint256",
          "name": "_campaignId",
          "type": "uint256"
        },
        {
          "internalType": "contract AccessControl",
          "name": "_accessControl",
          "type": "address"
        }
      ],
      "stateMutability": "payable",
      "type": "constructor"
    },
    {
      "anonymous": false,
      "inputs": [
        {
          "indexed": true,
          "internalType": "address",
          "name": "_influencer",
          "type": "address"
        },
        {
          "indexed": false,
          "internalType": "uint256",
          "name": "_amount",
          "type": "uint256"
        },
        {
          "indexed": false,
          "internalType": "uint256",
          "name": "_campaignId",
          "type": "uint256"
        }
      ],
      "name": "AgreedAmountPayment",
      "type": "event"
    },
    {
      "anonymous": false,
      "inputs": [
        {
          "indexed": true,
          "internalType": "address",
          "name": "_business",
          "type": "address"
        },
        {
          "indexed": false,
          "internalType": "uint256",
          "name": "_amount",
          "type": "uint256"
        },
        {
          "indexed": false,
          "internalType": "uint256",
          "name": "_campaignId",
          "type": "uint256"
        }
      ],
      "name": "BusinessDeposited",
      "type": "event"
    },
    {
      "anonymous": false,
      "inputs": [
        {
          "indexed": false,
          "internalType": "uint256",
          "name": "_refundableAmount",
          "type": "uint256"
        },
        {
          "indexed": false,
          "internalType": "bool",
          "name": "_jackpotObjectiveReached",
          "type": "bool"
        },
        {
          "indexed": false,
          "internalType": "bool",
          "name": "_incrementalObjectiveReached",
          "type": "bool"
        },
        {
          "indexed": false,
          "internalType": "uint256",
          "name": "_campaignId",
          "type": "uint256"
        }
      ],
      "name": "CampaignEnding",
      "type": "event"
    },
    {
      "anonymous": false,
      "inputs": [
        {
          "indexed": true,
          "internalType": "address",
          "name": "_influencer",
          "type": "address"
        },
        {
          "indexed": false,
          "internalType": "bool",
          "name": "_incrementalObjectiveReached",
          "type": "bool"
        },
        {
          "indexed": false,
          "internalType": "uint256",
          "name": "_campaignId",
          "type": "uint256"
        }
      ],
      "name": "CampaignTerminationIncrementPayment",
      "type": "event"
    },
    {
      "anonymous": false,
      "inputs": [
        {
          "indexed": true,
          "internalType": "address",
          "name": "_influencer",
          "type": "address"
        },
        {
          "indexed": false,
          "internalType": "bool",
          "name": "_jackpotObjectiveReached",
          "type": "bool"
        },
        {
          "indexed": false,
          "internalType": "uint256",
          "name": "_campaignId",
          "type": "uint256"
        }
      ],
      "name": "CampaignTerminationJackpotPayment",
      "type": "event"
    },
    {
      "anonymous": false,
      "inputs": [
        {
          "indexed": false,
          "internalType": "uint256",
          "name": "_revisedPayment",
          "type": "uint256"
        },
        {
          "indexed": false,
          "internalType": "uint256",
          "name": "_campaignId",
          "type": "uint256"
        }
      ],
      "name": "ConfirmedPayment",
      "type": "event"
    },
    {
      "anonymous": false,
      "inputs": [
        {
          "indexed": true,
          "internalType": "address",
          "name": "_proposer",
          "type": "address"
        },
        {
          "indexed": false,
          "internalType": "uint256",
          "name": "_campaignId",
          "type": "uint256"
        }
      ],
      "name": "ConfirmedRefund",
      "type": "event"
    },
    {
      "anonymous": false,
      "inputs": [
        {
          "indexed": false,
          "internalType": "uint256",
          "name": "_revisedDeadline",
          "type": "uint256"
        },
        {
          "indexed": false,
          "internalType": "uint256",
          "name": "_campaignId",
          "type": "uint256"
        }
      ],
      "name": "ExtendDeadline",
      "type": "event"
    },
    {
      "anonymous": false,
      "inputs": [
        {
          "indexed": false,
          "internalType": "uint256",
          "name": "_availablePayoutDate",
          "type": "uint256"
        },
        {
          "indexed": false,
          "internalType": "uint256",
          "name": "_campaignId",
          "type": "uint256"
        }
      ],
      "name": "GracePayoutPeriod",
      "type": "event"
    },
    {
      "anonymous": false,
      "inputs": [
        {
          "indexed": false,
          "internalType": "uint256",
          "name": "_incrementalTargetsReached",
          "type": "uint256"
        },
        {
          "indexed": false,
          "internalType": "uint256",
          "name": "_campaignId",
          "type": "uint256"
        }
      ],
      "name": "IncrementalTargetReached",
      "type": "event"
    },
    {
      "anonymous": false,
      "inputs": [
        {
          "indexed": false,
          "internalType": "uint256",
          "name": "_amount",
          "type": "uint256"
        },
        {
          "indexed": false,
          "internalType": "uint256",
          "name": "_campaignId",
          "type": "uint256"
        }
      ],
      "name": "JackpotInfluencerPayment",
      "type": "event"
    },
    {
      "anonymous": false,
      "inputs": [
        {
          "indexed": false,
          "internalType": "bool",
          "name": "_targetReached",
          "type": "bool"
        },
        {
          "indexed": false,
          "internalType": "uint256",
          "name": "_campaignId",
          "type": "uint256"
        }
      ],
      "name": "JackpotTargetReached",
      "type": "event"
    },
    {
      "anonymous": false,
      "inputs": [
        {
          "indexed": false,
          "internalType": "uint256",
          "name": "_amount",
          "type": "uint256"
        },
        {
          "indexed": false,
          "internalType": "uint256",
          "name": "_outstandingIncrementalPayments",
          "type": "uint256"
        },
        {
          "indexed": false,
          "internalType": "uint256",
          "name": "_campaignId",
          "type": "uint256"
        }
      ],
      "name": "PayInfluencerIncremental",
      "type": "event"
    },
    {
      "anonymous": false,
      "inputs": [
        {
          "indexed": false,
          "internalType": "uint256",
          "name": "_amount",
          "type": "uint256"
        },
        {
          "indexed": false,
          "internalType": "uint256",
          "name": "_outstandingIncrementalPayment",
          "type": "uint256"
        },
        {
          "indexed": false,
          "internalType": "uint256",
          "name": "_campaignId",
          "type": "uint256"
        }
      ],
      "name": "PayInfluencerIncrementalSingle",
      "type": "event"
    },
    {
      "anonymous": false,
      "inputs": [
        {
          "indexed": true,
          "internalType": "address",
          "name": "_proposer",
          "type": "address"
        },
        {
          "indexed": false,
          "internalType": "uint256",
          "name": "_proposedDeadline",
          "type": "uint256"
        },
        {
          "indexed": false,
          "internalType": "uint256",
          "name": "_campaignId",
          "type": "uint256"
        }
      ],
      "name": "ProposeNewDeadline",
      "type": "event"
    },
    {
      "anonymous": false,
      "inputs": [
        {
          "indexed": true,
          "internalType": "address",
          "name": "_proposer",
          "type": "address"
        },
        {
          "indexed": false,
          "internalType": "uint256",
          "name": "_proposedPayment",
          "type": "uint256"
        },
        {
          "indexed": false,
          "internalType": "uint256",
          "name": "_campaignId",
          "type": "uint256"
        }
      ],
      "name": "ProposedPayment",
      "type": "event"
    },
    {
      "inputs": [],
      "name": "ADMIN_ROLE",
      "outputs": [
        {
          "internalType": "bytes32",
          "name": "",
          "type": "bytes32"
        }
      ],
      "stateMutability": "view",
      "type": "function"
    },
    {
      "inputs": [],
      "name": "actualPostDuration",
      "outputs": [
        {
          "internalType": "uint256",
          "name": "",
          "type": "uint256"
        }
      ],
      "stateMutability": "view",
      "type": "function"
    },
    {
      "inputs": [],
      "name": "business",
      "outputs": [
        {
          "internalType": "address payable",
          "name": "",
          "type": "address"
        }
      ],
      "stateMutability": "view",
      "type": "function"
    },
    {
      "inputs": [],
      "name": "businessConfirmCampaignEnd",
      "outputs": [
        {
          "internalType": "bool",
          "name": "",
          "type": "bool"
        }
      ],
      "stateMutability": "view",
      "type": "function"
    },
    {
      "inputs": [],
      "name": "businessProposedDeadline",
      "outputs": [
        {
          "internalType": "uint256",
          "name": "",
          "type": "uint256"
        }
      ],
      "stateMutability": "view",
      "type": "function"
    },
    {
      "inputs": [],
      "name": "businessRevisedPay",
      "outputs": [
        {
          "internalType": "uint256",
          "name": "",
          "type": "uint256"
        }
      ],
      "stateMutability": "view",
      "type": "function"
    },
    {
      "inputs": [],
      "name": "campaignId",
      "outputs": [
        {
          "internalType": "uint256",
          "name": "",
          "type": "uint256"
        }
      ],
      "stateMutability": "view",
      "type": "function"
    },
    {
      "inputs": [],
      "name": "campaignIsUnderProtest",
      "outputs": [
        {
          "internalType": "bool",
          "name": "",
          "type": "bool"
        }
      ],
      "stateMutability": "view",
      "type": "function"
    },
    {
      "inputs": [],
      "name": "deadline",
      "outputs": [
        {
          "internalType": "uint256",
          "name": "",
          "type": "uint256"
        }
      ],
      "stateMutability": "view",
      "type": "function"
    },
    {
      "inputs": [],
      "name": "exceededObjectiveAmount",
      "outputs": [
        {
          "internalType": "uint256",
          "name": "",
          "type": "uint256"
        }
      ],
      "stateMutability": "view",
      "type": "function"
    },
    {
      "inputs": [],
      "name": "incrementalPayment",
      "outputs": [
        {
          "internalType": "uint256",
          "name": "",
          "type": "uint256"
        }
      ],
      "stateMutability": "view",
      "type": "function"
    },
    {
      "inputs": [],
      "name": "incrementalTargetAmount",
      "outputs": [
        {
          "internalType": "uint256",
          "name": "",
          "type": "uint256"
        }
      ],
      "stateMutability": "view",
      "type": "function"
    },
    {
      "inputs": [],
      "name": "incrementalTargetReached",
      "outputs": [
        {
          "internalType": "bool",
          "name": "",
          "type": "bool"
        }
      ],
      "stateMutability": "view",
      "type": "function"
    },
    {
      "inputs": [],
      "name": "influencer",
      "outputs": [
        {
          "internalType": "address payable",
          "name": "",
          "type": "address"
        }
      ],
      "stateMutability": "view",
      "type": "function"
    },
    {
      "inputs": [],
      "name": "influencerConfirmCampaignEnd",
      "outputs": [
        {
          "internalType": "bool",
          "name": "",
          "type": "bool"
        }
      ],
      "stateMutability": "view",
      "type": "function"
    },
    {
      "inputs": [],
      "name": "influencerProposedDeadline",
      "outputs": [
        {
          "internalType": "uint256",
          "name": "",
          "type": "uint256"
        }
      ],
      "stateMutability": "view",
      "type": "function"
    },
    {
      "inputs": [],
      "name": "influencerRevisedPay",
      "outputs": [
        {
          "internalType": "uint256",
          "name": "",
          "type": "uint256"
        }
      ],
      "stateMutability": "view",
      "type": "function"
    },
    {
      "inputs": [],
      "name": "jackpotPayment",
      "outputs": [
        {
          "internalType": "uint256",
          "name": "",
          "type": "uint256"
        }
      ],
      "stateMutability": "view",
      "type": "function"
    },
    {
      "inputs": [],
      "name": "jackpotTargetAmount",
      "outputs": [
        {
          "internalType": "uint256",
          "name": "",
          "type": "uint256"
        }
      ],
      "stateMutability": "view",
      "type": "function"
    },
    {
      "inputs": [],
      "name": "jackpotTargetReached",
      "outputs": [
        {
          "internalType": "bool",
          "name": "",
          "type": "bool"
        }
      ],
      "stateMutability": "view",
      "type": "function"
    },
    {
      "inputs": [],
      "name": "objective",
      "outputs": [
        {
          "internalType": "bytes4",
          "name": "",
          "type": "bytes4"
        }
      ],
      "stateMutability": "view",
      "type": "function"
    },
    {
      "inputs": [],
      "name": "outstandingIncrementalPayments",
      "outputs": [
        {
          "internalType": "uint256",
          "name": "",
          "type": "uint256"
        }
      ],
      "stateMutability": "view",
      "type": "function"
    },
    {
      "inputs": [],
      "name": "revisedPaymentAmount",
      "outputs": [
        {
          "internalType": "uint256",
          "name": "",
          "type": "uint256"
        }
      ],
      "stateMutability": "view",
      "type": "function"
    },
    {
      "inputs": [],
      "name": "simplePostDuration",
      "outputs": [
        {
          "internalType": "uint256",
          "name": "",
          "type": "uint256"
        }
      ],
      "stateMutability": "view",
      "type": "function"
    },
    {
      "inputs": [],
      "name": "startDate",
      "outputs": [
        {
          "internalType": "uint256",
          "name": "",
          "type": "uint256"
        }
      ],
      "stateMutability": "view",
      "type": "function"
    },
    {
      "inputs": [],
      "name": "getTimestamp",
      "outputs": [
        {
          "internalType": "uint256",
          "name": "",
          "type": "uint256"
        }
      ],
      "stateMutability": "view",
      "type": "function"
    },
    {
      "inputs": [],
      "name": "depositPayment",
      "outputs": [],
      "stateMutability": "payable",
      "type": "function"
    },
    {
      "inputs": [],
      "name": "addressBalance",
      "outputs": [
        {
          "internalType": "uint256",
          "name": "",
          "type": "uint256"
        }
      ],
      "stateMutability": "view",
      "type": "function"
    },
    {
      "inputs": [
        {
          "internalType": "bool",
          "name": "_postPosted",
          "type": "bool"
        }
      ],
      "name": "protestCampaign",
      "outputs": [],
      "stateMutability": "nonpayable",
      "type": "function"
    },
    {
      "inputs": [],
      "name": "resolveProtest",
      "outputs": [],
      "stateMutability": "nonpayable",
      "type": "function"
    },
    {
      "inputs": [],
      "name": "overrideMaliciousCampaign",
      "outputs": [],
      "stateMutability": "nonpayable",
      "type": "function"
    },
    {
      "inputs": [
        {
          "internalType": "bool",
          "name": "_businessConfirmed",
          "type": "bool"
        },
        {
          "internalType": "bool",
          "name": "_influencerConfirmed",
          "type": "bool"
        }
      ],
      "name": "removeGracePeriod",
      "outputs": [],
      "stateMutability": "nonpayable",
      "type": "function"
    },
    {
      "inputs": [
        {
          "internalType": "uint256",
          "name": "_postStat",
          "type": "uint256"
        },
        {
          "internalType": "bool",
          "name": "_postPosted",
          "type": "bool"
        },
        {
          "internalType": "uint256",
          "name": "_postTimestamp",
          "type": "uint256"
        }
      ],
      "name": "checkCampaignObjectiveReached",
      "outputs": [],
      "stateMutability": "nonpayable",
      "type": "function"
    },
    {
      "inputs": [],
      "name": "payInfluencer",
      "outputs": [],
      "stateMutability": "payable",
      "type": "function"
    },
    {
      "inputs": [
        {
          "internalType": "bool",
          "name": "_confirmed",
          "type": "bool"
        }
      ],
      "name": "businessConfirmEnd",
      "outputs": [],
      "stateMutability": "nonpayable",
      "type": "function"
    },
    {
      "inputs": [
        {
          "internalType": "bool",
          "name": "_confirmed",
          "type": "bool"
        }
      ],
      "name": "influencerConfirmEnd",
      "outputs": [],
      "stateMutability": "nonpayable",
      "type": "function"
    },
    {
      "inputs": [
        {
          "internalType": "uint256",
          "name": "_revisedPayment",
          "type": "uint256"
        }
      ],
      "name": "businessConfirmPayment",
      "outputs": [],
      "stateMutability": "nonpayable",
      "type": "function"
    },
    {
      "inputs": [
        {
          "internalType": "uint256",
          "name": "_revisedPayment",
          "type": "uint256"
        }
      ],
      "name": "influencerConfirmPayment",
      "outputs": [],
      "stateMutability": "nonpayable",
      "type": "function"
    },
    {
      "inputs": [
        {
          "internalType": "uint256",
          "name": "_newDeadline",
          "type": "uint256"
        }
      ],
      "name": "businessConfirmExtension",
      "outputs": [],
      "stateMutability": "nonpayable",
      "type": "function"
    },
    {
      "inputs": [
        {
          "internalType": "uint256",
          "name": "_newDeadline",
          "type": "uint256"
        }
      ],
      "name": "influencerConfirmExtension",
      "outputs": [],
      "stateMutability": "nonpayable",
      "type": "function"
    },
    {
      "inputs": [],
      "name": "campaignEnded",
      "outputs": [],
      "stateMutability": "nonpayable",
      "type": "function"
    }
  ],
  "bytecode": "0x608060408190526011805461ffff191690556014805460ff191690556200286f388190039081908339810160408190526200003a91620000f5565b60016000819055600280546001600160a01b039e8f166001600160a01b031991821617909155600380549d8f169d82169d909d17909c5560069a909a55600798909855600896909655600594909455600492909255600c55600b556014805460e09290921c6101000264ffffffff0019909216919091179055600a558154931692909116919091179055620001b7565b6001600160a01b0381168114620000e057600080fd5b50565b8051620000f081620000ca565b919050565b6000806000806000806000806000806000806101808d8f0312156200011957600080fd5b8c516200012681620000ca565b60208e0151909c506200013981620000ca565b809b505060408d0151995060608d0151985060808d0151975060a08d0151965060c08d0151955060e08d015194506101008d015193506101208d015163ffffffff60e01b811681146200018b57600080fd5b6101408e01519093509150620001a56101608e01620000e3565b90509295989b509295989b509295989b565b6126a880620001c76000396000f3fe6080604052600436106102c65760003560e01c806383d6dc0b11610179578063b81c74ca116100d6578063e36686321161008a578063ed9c544c11610064578063ed9c544c14610701578063f318e55714610720578063f41662ed1461073357600080fd5b8063e3668632146106b5578063e3d6dc2e146106cb578063e74dc11c146106e157600080fd5b8063d1fdd346116100bb578063d1fdd3461461066b578063d2bce4ed1461068b578063e2d950fa146106a057600080fd5b8063b81c74ca1461062b578063bc764fc81461064b57600080fd5b80639e976ff31161012d578063aa5e215311610112578063aa5e2153146105ee578063ac35e160146105f6578063b24506471461061557600080fd5b80639e976ff3146105a0578063a87588e7146105b657600080fd5b80638dc45e101161015e5780638dc45e101461054a5780638ed5b0fc1461056a57806395f8803e1461058057600080fd5b806383d6dc0b14610514578063842de7501461053457600080fd5b80634892a5e01161022757806368ad436f116101db57806372a998ea116101c057806372a998ea146104c257806375b238fc146104ca5780637e69a355146104fe57600080fd5b806368ad436f146104925780636e597aee146104ac57600080fd5b806350f5ae441161020c57806350f5ae4414610446578063612abb101461045c57806367d30aa21461047257600080fd5b80634892a5e014610410578063497159b01461042657600080fd5b80632acd23381161027e5780633621905f116102635780633621905f146103cf5780633869cbfa146103e55780633bc47fbe146103fb57600080fd5b80632acd23381461038f5780632fe289b3146103b957600080fd5b806314f1586a116102af57806314f1586a14610316578063188ec3561461036657806329dcb0cf1461037957600080fd5b80630b588e2c146102cb5780630b97bc86146102ed575b600080fd5b3480156102d757600080fd5b506102eb6102e636600461251a565b61074d565b005b3480156102f957600080fd5b5061030360065481565b6040519081526020015b60405180910390f35b34801561032257600080fd5b5060145461033590610100900460e01b81565b6040517fffffffff00000000000000000000000000000000000000000000000000000000909116815260200161030d565b34801561037257600080fd5b5042610303565b34801561038557600080fd5b5061030360075481565b34801561039b57600080fd5b506011546103a99060ff1681565b604051901515815260200161030d565b3480156103c557600080fd5b50610303600c5481565b3480156103db57600080fd5b5061030360045481565b3480156103f157600080fd5b5061030360085481565b34801561040757600080fd5b506102eb6108cf565b34801561041c57600080fd5b5061030360135481565b34801561043257600080fd5b506102eb610441366004612541565b610b44565b34801561045257600080fd5b5061030360105481565b34801561046857600080fd5b50610303600b5481565b34801561047e57600080fd5b506102eb61048d36600461255e565b610bf2565b34801561049e57600080fd5b506014546103a99060ff1681565b3480156104b857600080fd5b5061030360155481565b6102eb611376565b3480156104d657600080fd5b506103037fdf8b4c520ffe197c5343c6f5aec59570151ef9a492f2c624fd45ddde6135ec4281565b34801561050a57600080fd5b50610303600f5481565b34801561052057600080fd5b506102eb61052f366004612596565b6118a0565b34801561054057600080fd5b5061030360165481565b34801561055657600080fd5b506102eb610565366004612541565b611a62565b34801561057657600080fd5b50610303600a5481565b34801561058c57600080fd5b506102eb61059b36600461251a565b611ba7565b3480156105ac57600080fd5b50610303600e5481565b3480156105c257600080fd5b506002546105d6906001600160a01b031681565b6040516001600160a01b03909116815260200161030d565b6102eb611d10565b34801561060257600080fd5b50600d546103a990610100900460ff1681565b34801561062157600080fd5b5061030360095481565b34801561063757600080fd5b506102eb61064636600461251a565b611eaf565b34801561065757600080fd5b506102eb610666366004612541565b61201b565b34801561067757600080fd5b506102eb61068636600461251a565b6120d0565b34801561069757600080fd5b506102eb61223b565b3480156106ac57600080fd5b506102eb61239b565b3480156106c157600080fd5b5061030360055481565b3480156106d757600080fd5b5061030360125481565b3480156106ed57600080fd5b506003546105d6906001600160a01b031681565b34801561070d57600080fd5b506011546103a990610100900460ff1681565b34801561072c57600080fd5b5047610303565b34801561073f57600080fd5b50600d546103a99060ff1681565b6003546001600160a01b031633146107bd5760405162461bcd60e51b815260206004820152602860248201527f4f6e6c792074686520627573696e6573732063616e2063616c6c207468697320604482015267333ab731ba34b7b760c11b60648201526084015b60405180910390fd5b804211156108335760405162461bcd60e51b815260206004820152603e60248201527f657874656e64446561646c696e6528293a206e657720646561646c696e65206d60448201527f757374206265206166746572206578697374696e6720646561646c696e65000060648201526084016107b4565b8060135403610882576007819055600a546040805183815260208101929092527f53363e7eeef177f60d15e790e42c0cc492e5bee81887ced1390b5c2553ad2a2a91015b60405180910390a150565b6012819055600a5460405133917ffaf8d0ecbce5f21aac208a70f273a45f3e8e2ab16a2586ad54c9fc2626fbccd3916108c391858252602082015260400190565b60405180910390a25b50565b6003546001600160a01b03163314806108f257506002546001600160a01b031633145b6109645760405162461bcd60e51b815260206004820152603660248201527f4f6e6c792074686520627573696e657373206f7220696e666c75656e6365722060448201527f63616e2063616c6c20746869732066756e6374696f6e0000000000000000000060648201526084016107b4565b60075442101580610989575060115460ff1680156109895750601154610100900460ff165b610a215760405162461bcd60e51b815260206004820152605260248201527f63616d706169676e456e64656428293a204569746865722063616d706169676e60448201527f206f6e676f696e672c206f7220626f746820706172746965732079657420746f60648201527f20636f6e6669726d2064657369726520746f0000000000000000000000000000608482015260a4016107b4565b600d5460ff1615610a8657610a34611376565b600354600a54604080516001815260208101929092526001600160a01b03909216917fcfe51a56170170210c6b5def6488eabb132da271f908c143e485c0ae70edec6f910160405180910390a2610aec565b600d54610100900460ff1615610aec57610a9e611376565b600354600a54604080516000815260208101929092526001600160a01b03909216917f8d2937ab1456e52d5e52590e71857fe5899a3f1998d2098e812935ca22c06217910160405180910390a25b600a5460408051478152600060208201819052818301526060810192909252517f3a1f1aea29c8909f1c1e5aff163939f369fe1c87585220f7917377483a8b108f9181900360800190a16003546001600160a01b0316ff5b6003546001600160a01b03163314610baf5760405162461bcd60e51b815260206004820152602860248201527f4f6e6c792074686520627573696e6573732063616e2063616c6c207468697320604482015267333ab731ba34b7b760c11b60648201526084016107b4565b6011805460ff1916821515179055600a5460405190815233907f64a41bc05deee8633ce41ebe6feee84441249f1b50d1575a6707cbc718918fd2906020016108c3565b600754421015610c445760405162461bcd60e51b815260206004820152601960248201527f646561646c696e65206d7573742068617665207061737365640000000000000060448201526064016107b4565b6002546001600160a01b03163314610cc45760405162461bcd60e51b815260206004820152603a60248201527f636865636b43616d706169676e4f626a6563746976655265616368656428293a60448201527f2043616c6c6572206d75737420626520696e666c75656e63657200000000000060648201526084016107b4565b81610d375760405162461bcd60e51b815260206004820152603660248201527f636865636b43616d706169676e4f626a6563746976655265616368656428293a60448201527f20706f737420776173206e6f74206f627461696e65640000000000000000000060648201526084016107b4565b806007541015610dd55760405162461bcd60e51b815260206004820152604f60248201527f636865636b43616d706169676e4f626a6563746976655265616368656428293a60448201527f20696e76616c696420706f73743a20706f7374206d757374206265206265666f60648201527f72652074686520646561646c696e650000000000000000000000000000000000608482015260a4016107b4565b600654811015610e735760405162461bcd60e51b815260206004820152604660248201527f636865636b43616d706169676e4f626a6563746976655265616368656428293a60448201527f20706f7374206d7573742062652061667465722063616d706169676e2073746160648201527f7274446174650000000000000000000000000000000000000000000000000000608482015260a4016107b4565b6040517f706f737400000000000000000000000000000000000000000000000000000000602082015260240160408051601f19818403018152908290528051602091820120601454610100900460e01b7fffffffff0000000000000000000000000000000000000000000000000000000016918301919091529060240160405160208183030381529060405280519060200120036110e857600c54831015610f8d5760405162461bcd60e51b815260206004820152604160248201527f636865636b43616d706169676e4f626a6563746976655265616368656428293a60448201527f206a61636b706f7420746172676574206d7573742062652073617469736669656064820152601960fa1b608482015260a4016107b4565b610f9781426125e5565b600981905560085411156110395760405162461bcd60e51b815260206004820152604a60248201527f636865636b43616d706169676e4f626a6563746976655265616368656428293a60448201527f20706f7374206475726174696f6e206d757374206d656574207265717569726560648201527f64206475726174696f6e00000000000000000000000000000000000000000000608482015260a4016107b4565b600d805460ff19166001908117909155600a546040517fe02d4b153cb00a6da43e813b4e3c7f603966e02eb2a6c5a5f6324cb0f7fd769292611085929015158252602082015260400190565b60405180910390a160075461109c9061a8c06125fc565b6007819055600a546040517fdb02a8b2d1e15351fb613b65b230651757f425365aecc087b92e1710218357a1926110db92908252602082015260400190565b60405180910390a1505050565b600b548310156111865760405162461bcd60e51b815260206004820152605b60248201527f636865636b43616d706169676e4f626a6563746976655265616368656428293a60448201527f20706f7374206d757374206174206c656173742062652067726561746572207460648201527f68616e20696e6372656d656e74616c20746f2067657420706169640000000000608482015260a4016107b4565b600c54831061131b57600c548310156112115760405162461bcd60e51b815260206004820152604160248201527f636865636b43616d706169676e4f626a6563746976655265616368656428293a60448201527f206a61636b706f7420746172676574206d7573742062652073617469736669656064820152601960fa1b608482015260a4016107b4565b600b5461121e9084612614565b60158181556001916000906112349084906125e5565b9091555050600d805461ffff19166101011790556007546112579061a8c06125fc565b600755601554600a546040517f9b3f0e4756b97e4c61d863b0fd505500511987b87a434620e87f811f701b40199261129792908252602082015260400190565b60405180910390a1600a54604080516001815260208101929092527fe02d4b153cb00a6da43e813b4e3c7f603966e02eb2a6c5a5f6324cb0f7fd7692910160405180910390a17fdb02a8b2d1e15351fb613b65b230651757f425365aecc087b92e1710218357a1600754600a546040516110db929190918252602082015260400190565b600b546113289084612614565b6015819055600d805461ff001916610100179055600a546040517f9b3f0e4756b97e4c61d863b0fd505500511987b87a434620e87f811f701b40199261108592908252602082015260400190565b6003546001600160a01b031633148061139957506002546001600160a01b031633145b61140b5760405162461bcd60e51b815260206004820152603660248201527f4f6e6c792074686520627573696e657373206f7220696e666c75656e6365722060448201527f63616e2063616c6c20746869732066756e6374696f6e0000000000000000000060648201526084016107b4565b60075442101561145d5760405162461bcd60e51b815260206004820152601960248201527f646561646c696e65206d7573742068617665207061737365640000000000000060448201526064016107b4565b600d5460ff16806114755750600d54610100900460ff165b8061148257506000601054115b6114f45760405162461bcd60e51b815260206004820152603460248201527f706179496e666c75656e63657228293a20636f6e646974696f6e7320666f722060448201527f7061796d656e742077657265206e6f74206d657400000000000000000000000060648201526084016107b4565b60145460ff161561156d5760405162461bcd60e51b815260206004820152603a60248201527f706179496e666c75656e63657228293a2043616e6e6f7420636f6d706c65746560448201527f207061796f7574207768656e20756e6465722070726f7465737400000000000060648201526084016107b4565b600d5460ff16156116145760055447101561158757600080fd5b6002546005546040516001600160a01b039092169181156108fc0291906000818181858888f193505050501580156115c3573d6000803e3d6000fd5b50600d805460ff19169055600554600a546040517f314b8d1c1fcf6a0803dd4c073d3a198302a249e6e1e0a6ce20a289f6f61c80e89261160b92908252602082015260400190565b60405180910390a15b600d54610100900460ff161561180b576004544710156116c25760405162461bcd60e51b815260206004820152604f60248201527f706179496e666c75656e63657228293a2074686520617474656d70746564207060448201527f61796f7574206973206d6f7265207468616e206973206465706f73697465642060648201527f696e207468652063616d706169676e0000000000000000000000000000000000608482015260a4016107b4565b60016015541061177b5760006116e560045460155461250790919063ffffffff16565b6002546040519192506001600160a01b03169082156108fc029083906000818181858888f19350505050158015611720573d6000803e3d6000fd5b5060006015819055600d805461ff0019169055600a546040805184815260208101939093528201527f87b5dda082866a70c4b6b0385cf225fc12d16f7ce514f116e058442d58c159ae9060600160405180910390a15061180b565b6002546004546040516001600160a01b039092169181156108fc0291906000818181858888f193505050501580156117b7573d6000803e3d6000fd5b50600d805461ff0019169055600454601554600a5460408051938452602084019290925282820152517f7307a3d84e5bec561453196b4ecdf7841d6ce57ce51f495c86a42820b4d808d79181900360600190a15b6010541561189e576002546010546040516001600160a01b039092169181156108fc0291906000818181858888f1935050505015801561184f573d6000803e3d6000fd5b50600254600a546040805134815260208101929092526001600160a01b03909216917f9267f0dfa25dfb1e1a3676fdbc79fd9c57356e61c7da6a6865a492a68934e33f91015b60405180910390a25b565b6003546001600160a01b03163314806118c357506002546001600160a01b031633145b6119355760405162461bcd60e51b815260206004820152603660248201527f4f6e6c792074686520627573696e657373206f7220696e666c75656e6365722060448201527f63616e2063616c6c20746869732066756e6374696f6e0000000000000000000060648201526084016107b4565b600d5460ff168061194d5750600d54610100900460ff165b6119bf5760405162461bcd60e51b815260206004820152603b60248201527f72656d6f76654772616365506572696f6428293a206f6e6c79206170706c696360448201527f61626c65207768656e207061796f757420697320696e626f756e64000000000060648201526084016107b4565b8180156119c95750805b611a455760405162461bcd60e51b815260206004820152604160248201527f72656d6f76654772616365506572696f6428293a20626f74682073696465732060448201527f6d75737420616772656520746f2072656d6f766520677261636520706572696f6064820152601960fa1b608482015260a4016107b4565b61a8c060076000828254611a5991906125e5565b90915550505050565b6003546001600160a01b03163314611acd5760405162461bcd60e51b815260206004820152602860248201527f4f6e6c792074686520627573696e6573732063616e2063616c6c207468697320604482015267333ab731ba34b7b760c11b60648201526084016107b4565b600754421015611b1f5760405162461bcd60e51b815260206004820152601960248201527f646561646c696e65206d7573742068617665207061737365640000000000000060448201526064016107b4565b600181151514611b975760405162461bcd60e51b815260206004820152603660248201527f70726f7465737443616d706169676e28293a2c2070726f74657374206d75737460448201527f20626520616761696e73742076616c696420706f73740000000000000000000060648201526084016107b4565b506014805460ff19166001179055565b6003546001600160a01b03163314611c125760405162461bcd60e51b815260206004820152602860248201527f4f6e6c792074686520627573696e6573732063616e2063616c6c207468697320604482015267333ab731ba34b7b760c11b60648201526084016107b4565b478110611c875760405162461bcd60e51b815260206004820152603d60248201527f627573696e657373436f6e6669726d5061796d656e7428293a20616d6f756e7460448201527f206d757374206265206c6f776572207468616e206465706f736974656400000060648201526084016107b4565b80600f5403611ccf576010819055600a546040805183815260208101929092527f859acba95569b989faed0b5847b81d3322101fad39cb630fbff66650d927f40a9101610877565b600e819055600a5460405133917f5ec687808561cc4f397da0698e1f69c8291cca10164709ac4ecaea07b1935f1f916108c391858252602082015260400190565b6003546001600160a01b03163314611d7b5760405162461bcd60e51b815260206004820152602860248201527f4f6e6c792074686520627573696e6573732063616e2063616c6c207468697320604482015267333ab731ba34b7b760c11b60648201526084016107b4565b4260075411611df25760405162461bcd60e51b815260206004820152603260248201527f6465706f7369745061796d656e7428293a205468652063616d706169676e206460448201527f6561646c696e652068617320706173736564000000000000000000000000000060648201526084016107b4565b60003411611e685760405162461bcd60e51b815260206004820152603a60248201527f6465706f7369745061796d656e7428293a20596f75206d757374206465706f7360448201527f6974206d6f6e657920696e746f2074686520636f6e747261637400000000000060648201526084016107b4565b600d805461ffff19169055600a5460405133917fb75c5efb8f695c77c10eab316b5f4b02cb281e500c8a4e5474d1c3e19d5820029161189591348252602082015260400190565b6002546001600160a01b03163314611f1c5760405162461bcd60e51b815260206004820152602a60248201527f4f6e6c792074686520696e666c75656e6365722063616e2063616c6c207468696044820152693990333ab731ba34b7b760b11b60648201526084016107b4565b80421115611f925760405162461bcd60e51b815260206004820152603e60248201527f657874656e64446561646c696e6528293a206e657720646561646c696e65206d60448201527f757374206265206166746572206578697374696e6720646561646c696e65000060648201526084016107b4565b8060125403611fda576007819055600a546040805183815260208101929092527f53363e7eeef177f60d15e790e42c0cc492e5bee81887ced1390b5c2553ad2a2a9101610877565b6013819055600a5460405133917ffaf8d0ecbce5f21aac208a70f273a45f3e8e2ab16a2586ad54c9fc2626fbccd3916108c391858252602082015260400190565b6002546001600160a01b031633146120885760405162461bcd60e51b815260206004820152602a60248201527f4f6e6c792074686520696e666c75656e6365722063616e2063616c6c207468696044820152693990333ab731ba34b7b760b11b60648201526084016107b4565b6011805461ff00191661010083151502179055600a5460405190815233907f64a41bc05deee8633ce41ebe6feee84441249f1b50d1575a6707cbc718918fd2906020016108c3565b6002546001600160a01b0316331461213d5760405162461bcd60e51b815260206004820152602a60248201527f4f6e6c792074686520696e666c75656e6365722063616e2063616c6c207468696044820152693990333ab731ba34b7b760b11b60648201526084016107b4565b4781106121b25760405162461bcd60e51b815260206004820152603d60248201527f627573696e657373436f6e6669726d5061796d656e7428293a20616d6f756e7460448201527f206d757374206265206c6f776572207468616e206465706f736974656400000060648201526084016107b4565b80600e54036121fa576010819055600a546040805183815260208101929092527f859acba95569b989faed0b5847b81d3322101fad39cb630fbff66650d927f40a9101610877565b600f819055600a5460405133917f5ec687808561cc4f397da0698e1f69c8291cca10164709ac4ecaea07b1935f1f916108c391858252602082015260400190565b600154604051632474521560e21b81527fdf8b4c520ffe197c5343c6f5aec59570151ef9a492f2c624fd45ddde6135ec4260048201523360248201526001600160a01b03909116906391d1485490604401602060405180830381865afa1580156122a9573d6000803e3d6000fd5b505050506040513d601f19601f820116820180604052508101906122cd9190612636565b6123235760405162461bcd60e51b815260206004820152602160248201527f4f6e6c792061646d696e2063616e2063616c6c20746869732066756e6374696f6044820152603760f91b60648201526084016107b4565b60145460ff16610aec5760405162461bcd60e51b815260206004820152603c60248201527f7265736f6c766550726f7465737428293a2063616e6e6f742063616e63656c2060448201527f70726f74657374206966206e6f7420756e6465722070726f746573740000000060648201526084016107b4565b600154604051632474521560e21b81527fdf8b4c520ffe197c5343c6f5aec59570151ef9a492f2c624fd45ddde6135ec4260048201523360248201526001600160a01b03909116906391d1485490604401602060405180830381865afa158015612409573d6000803e3d6000fd5b505050506040513d601f19601f8201168201806040525081019061242d9190612636565b6124835760405162461bcd60e51b815260206004820152602160248201527f4f6e6c792061646d696e2063616e2063616c6c20746869732066756e6374696f6044820152603760f91b60648201526084016107b4565b60145460ff166124fb5760405162461bcd60e51b815260206004820152603c60248201527f7265736f6c766550726f7465737428293a2063616e6e6f742063616e63656c2060448201527f70726f74657374206966206e6f7420756e6465722070726f746573740000000060648201526084016107b4565b6014805460ff19169055565b60006125138284612653565b9392505050565b60006020828403121561252c57600080fd5b5035919050565b80151581146108cc57600080fd5b60006020828403121561255357600080fd5b813561251381612533565b60008060006060848603121561257357600080fd5b83359250602084013561258581612533565b929592945050506040919091013590565b600080604083850312156125a957600080fd5b82356125b481612533565b915060208301356125c481612533565b809150509250929050565b634e487b7160e01b600052601160045260246000fd5b6000828210156125f7576125f76125cf565b500390565b6000821982111561260f5761260f6125cf565b500190565b60008261263157634e487b7160e01b600052601260045260246000fd5b500490565b60006020828403121561264857600080fd5b815161251381612533565b600081600019048311821515161561266d5761266d6125cf565b50029056fea2646970667358221220b2b95099e20f8e4b4863185a88c16e995f236b65b5018b8c4aa9123a940ba21c64736f6c634300080e0033",
  "immutableReferences": {},
  "source": "// SPDX-License-Identifier: PRIVATE\n\n// extract logic into private functions and call those with public functions\n//eth alarm clock\n//x dai\n//chainlink\n// super fluid for incremental payments\n//\npragma solidity ^0.8.4;\n\nimport '@openzeppelin/contracts/utils/math/SafeMath.sol';\nimport '@openzeppelin/contracts/security/ReentrancyGuard.sol';\nimport '@openzeppelin/contracts/access/AccessControl.sol';\n\ncontract Famepay is ReentrancyGuard {\n    /* LIBRARIES */\n    using SafeMath for uint256;\n\n    //roles\n    AccessControl accessControl;\n    bytes32 public constant ADMIN_ROLE = keccak256('ADMIN');\n\n    /* STORAGE */\n    address payable public influencer;\n    address payable public business;\n\n    uint256 public incrementalPayment;\n    uint256 public jackpotPayment;\n\n    uint256 public startDate;\n    uint256 public deadline;\n    uint256 public simplePostDuration;\n    uint256 public actualPostDuration;\n\n    uint256 public campaignId;\n\n    uint256 public incrementalTargetAmount;\n    uint256 public jackpotTargetAmount;\n\n    bool public jackpotTargetReached;\n    bool public incrementalTargetReached;\n\n    uint256 public businessRevisedPay;\n    uint256 public influencerRevisedPay;\n    uint256 public revisedPaymentAmount;\n\n    bool public businessConfirmCampaignEnd = false;\n    bool public influencerConfirmCampaignEnd = false;\n\n    uint256 public businessProposedDeadline;\n    uint256 public influencerProposedDeadline;\n\n    bool public campaignIsUnderProtest = false;\n\n    bytes4 public objective;\n\n    uint256 public outstandingIncrementalPayments;\n    uint256 public exceededObjectiveAmount;\n\n    // mapping(address => uint256) public depositedFor;\n\n    /**Busines actions */\n    event BusinessDeposited(address indexed _business, uint256 _amount, uint256 _campaignId);\n\n    /*Influencer actions */\n    event IncrementalTargetReached(uint256 _incrementalTargetsReached, uint256 _campaignId);\n    event JackpotTargetReached(bool _targetReached, uint256 _campaignId);\n\n    /* Grave Payout Period */\n    event GracePayoutPeriod(uint256 _availablePayoutDate, uint256 _campaignId);\n\n    /*Payment actions */\n    event PayInfluencerIncrementalSingle(uint256 _amount, uint256 _outstandingIncrementalPayment, uint256 _campaignId);\n    //unloads all incremntal payments\n    event PayInfluencerIncremental(uint256 _amount, uint256 _outstandingIncrementalPayments, uint256 _campaignId);\n    event JackpotInfluencerPayment(uint256 _amount, uint256 _campaignId);\n    event AgreedAmountPayment(address indexed _influencer, uint256 _amount, uint256 _campaignId);\n\n    /*Payment override */\n    event ConfirmedPayment(uint256 _revisedPayment, uint256 _campaignId);\n    event ProposedPayment(address indexed _proposer, uint256 _proposedPayment, uint256 _campaignId);\n\n    /* Deadline override*/\n    event ExtendDeadline(uint256 _revisedDeadline, uint256 _campaignId);\n    event ProposeNewDeadline(address indexed _proposer, uint256 _proposedDeadline, uint256 _campaignId);\n\n    /* Refund override */\n    event ConfirmedRefund(address indexed _proposer, uint256 _campaignId);\n\n    /*Campaign ended actions */\n    event CampaignTerminationIncrementPayment(\n        address indexed _influencer,\n        bool _incrementalObjectiveReached,\n        uint256 _campaignId\n    );\n    event CampaignTerminationJackpotPayment(address indexed _influencer, bool _jackpotObjectiveReached, uint256 _campaignId);\n    event CampaignEnding(\n        uint256 _refundableAmount,\n        bool _jackpotObjectiveReached,\n        bool _incrementalObjectiveReached,\n        uint256 _campaignId\n    );\n\n    modifier onlyInfluencer() {\n        require(influencer == msg.sender, 'Only the influencer can call this function');\n        _;\n    }\n\n    modifier onlyBusiness() {\n        require(business == msg.sender, 'Only the business can call this function');\n        _;\n    }\n\n    modifier onlyAdmin() {\n        require(accessControl.hasRole(ADMIN_ROLE, msg.sender), 'Only admin can call this function');\n        _;\n    }\n\n    modifier eitherBusinessOrInfluencer() {\n        require(business == msg.sender || influencer == msg.sender, 'Only the business or influencer can call this function');\n        _;\n    }\n\n    modifier campaignOver() {\n        require(block.timestamp >= deadline, 'deadline must have passed');\n        _;\n    }\n\n    constructor(\n        address payable _influencer,\n        address payable _business,\n        uint256 _startDate,\n        uint256 _deadline,\n        uint256 _simplePostDuration,\n        uint256 _jackpotPayment,\n        uint256 _incrementalPayment,\n        uint256 _jackpotTargetAmount,\n        uint256 _incrementalTargetAmount,\n        bytes4 _objective,\n        uint256 _campaignId,\n        AccessControl _accessControl\n    ) payable {\n        influencer = _influencer;\n        business = _business;\n        startDate = _startDate;\n        deadline = _deadline;\n        simplePostDuration = _simplePostDuration;\n        jackpotPayment = _jackpotPayment;\n        incrementalPayment = _incrementalPayment;\n        jackpotTargetAmount = _jackpotTargetAmount;\n        incrementalTargetAmount = _incrementalTargetAmount;\n        objective = _objective;\n        campaignId = _campaignId;\n        accessControl = _accessControl;\n    }\n\n    function getTimestamp() public view returns (uint256) {\n        return block.timestamp;\n    }\n\n    /**\n     * @dev used for injecting more money for campaigns you want to extend\n     */\n    function depositPayment() external payable onlyBusiness {\n        require(deadline > block.timestamp, 'depositPayment(): The campaign deadline has passed');\n        require(msg.value > 0, 'depositPayment(): You must deposit money into the contract');\n        jackpotTargetReached = false;\n        incrementalTargetReached = false;\n        emit BusinessDeposited(msg.sender, msg.value, campaignId);\n    }\n\n    /**\n     * @dev check amount deposited in campaign\n     */\n    function addressBalance() external view returns (uint256) {\n        return address(this).balance;\n    }\n\n    /**\n     * @dev protest a contentious campaign\n     * @param _postPosted Protested post must be valid post\n     */\n    function protestCampaign(bool _postPosted) external onlyBusiness campaignOver {\n        require(_postPosted == true, 'protestCampaign():, protest must be against valid post');\n        campaignIsUnderProtest = true;\n    }\n\n    /**\n     * @dev end campaign protest (in favour of influencer)\n     */\n    function resolveProtest() external onlyAdmin {\n        require(campaignIsUnderProtest, 'resolveProtest(): cannot cancel protest if not under protest');\n        campaignIsUnderProtest = false;\n    }\n\n    /**\n     * @dev end campaign due to protest (in favour of business)\n     */\n    function overrideMaliciousCampaign() external onlyAdmin {\n        require(campaignIsUnderProtest, 'resolveProtest(): cannot cancel protest if not under protest');\n        emit CampaignEnding(address(this).balance, false, false, campaignId);\n        selfdestruct(business);\n    }\n\n    /**\n     * @dev remove 12 hour grace period to allow shorter payouts\n     * @param _businessConfirmed business confirms removal of grace period\n     * @param _influencerConfirmed influencer confirms removal of grace period\n     */\n    function removeGracePeriod(bool _businessConfirmed, bool _influencerConfirmed) external eitherBusinessOrInfluencer {\n        require(jackpotTargetReached || incrementalTargetReached, 'removeGracePeriod(): only applicable when payout is inbound');\n        require(_businessConfirmed && _influencerConfirmed, 'removeGracePeriod(): both sides must agree to remove grace period');\n        deadline -= 43200;\n    }\n\n    /**\n     * @dev check if objective was achieved\n     * @param _postStat Post stat for incremental payment\n     * @param _postPosted Check if post is posted and valid\n     * @param _postTimestamp Timestamp of post\n     */\n\n    //TODO investigate forwarding gas cost away from influencer\n    //TODO pay now feature: if business & influencer are both happy with present post they can both confirm to pay right now\n\n    function checkCampaignObjectiveReached(\n        uint256 _postStat,\n        bool _postPosted,\n        uint256 _postTimestamp\n    ) external campaignOver {\n        require(msg.sender == influencer, 'checkCampaignObjectiveReached(): Caller must be influencer');\n        require(_postPosted, 'checkCampaignObjectiveReached(): post was not obtained');\n        require(deadline >= _postTimestamp, 'checkCampaignObjectiveReached(): invalid post: post must be before the deadline');\n        require(_postTimestamp >= startDate, 'checkCampaignObjectiveReached(): post must be after campaign startDate');\n\n        //if it is a simplePost no incremental needed\n        if (keccak256(abi.encodePacked(objective)) == keccak256(abi.encodePacked('post'))) {\n            require(_postStat >= jackpotTargetAmount, 'checkCampaignObjectiveReached(): jackpot target must be satisfied');\n\n            //time post was up\n            actualPostDuration = block.timestamp - _postTimestamp;\n\n            require(\n                actualPostDuration >= simplePostDuration,\n                'checkCampaignObjectiveReached(): post duration must meet required duration'\n            );\n\n            //jackpot achieved\n            jackpotTargetReached = true;\n\n            emit JackpotTargetReached(true, campaignId);\n\n            // Extend payment by 12 hours\n            deadline = deadline + 43200;\n\n            emit GracePayoutPeriod(deadline, campaignId);\n        } else {\n            require(\n                _postStat >= incrementalTargetAmount,\n                'checkCampaignObjectiveReached(): post must at least be greater than incremental to get paid'\n            );\n            //eligible for jackpot reward\n            if (_postStat >= jackpotTargetAmount) {\n                require(_postStat >= jackpotTargetAmount, 'checkCampaignObjectiveReached(): jackpot target must be satisfied');\n\n                outstandingIncrementalPayments = _postStat / incrementalTargetAmount;\n\n                //remove one for the incremental where we hit jackpot\n                outstandingIncrementalPayments -= 1;\n\n                //jackpot achieved\n                jackpotTargetReached = true;\n\n                incrementalTargetReached = true;\n                //add grace period\n                deadline = deadline + 43200;\n                emit IncrementalTargetReached(outstandingIncrementalPayments, campaignId);\n                emit JackpotTargetReached(true, campaignId);\n\n                /*\n                //post stat amount needed to exceed objective\n                uint256 exceededAmountMin = jackpotTargetAmount + incrementalTargetAmount;\n\n                //Also eligible for bonus incremental reward\n                if (_postStat >= exceededAmountMin) {\n                    //amount which influencer exceeded jackpot objective\n                    exceededObjectiveAmount = _postStat - jackpotTargetAmount;\n\n                    if (exceededObjectiveAmount >= incrementalTargetAmount) {\n                        //incremental payments owed\n                        outstandingIncrementalPayments = exceededObjectiveAmount / incrementalTargetAmount;\n\n                        //incremental achieved\n                        incrementalTargetReached = true;\n\n                        //REVIEW the decimal problem\n                        emit IncrementalTargetReached(outstandingIncrementalPayments, campaignId);\n\n                        // Extend payment by 12 hours\n                        deadline = deadline + 43200;\n                    }\n                }\n                */\n\n                emit GracePayoutPeriod(deadline, campaignId);\n            } else {\n                //incremental payments owed\n                outstandingIncrementalPayments = _postStat / incrementalTargetAmount;\n\n                //incremental achieved\n                incrementalTargetReached = true;\n\n                //REVIEW the decimal problem\n                emit IncrementalTargetReached(outstandingIncrementalPayments, campaignId);\n                deadline = deadline + 43200;\n\n                emit GracePayoutPeriod(deadline, campaignId);\n            }\n        }\n    }\n\n    /**\n     * @dev pay the influencer\n     */\n    function payInfluencer() public payable eitherBusinessOrInfluencer campaignOver {\n        require(\n            jackpotTargetReached || incrementalTargetReached || revisedPaymentAmount > 0,\n            'payInfluencer(): conditions for payment were not met'\n        );\n        require(!campaignIsUnderProtest, 'payInfluencer(): Cannot complete payout when under protest');\n        //jackpot payment\n        if (jackpotTargetReached) {\n            // require(depositedFor[influencer] >= jackpotPayment);\n            require(address(this).balance >= jackpotPayment);\n\n            influencer.transfer(jackpotPayment);\n            jackpotTargetReached = false;\n            emit JackpotInfluencerPayment(jackpotPayment, campaignId);\n        }\n        //incremental payment\n        if (incrementalTargetReached) {\n            require(\n                address(this).balance >= incrementalPayment,\n                'payInfluencer(): the attempted payout is more than is deposited in the campaign'\n            );\n            // for multiple outstanding payments\n            if (outstandingIncrementalPayments >= 1) {\n                uint256 outstandingIncrementalPayment = outstandingIncrementalPayments.mul(incrementalPayment);\n\n                influencer.transfer(outstandingIncrementalPayment);\n\n                outstandingIncrementalPayments = 0;\n                incrementalTargetReached = false;\n                emit PayInfluencerIncremental(outstandingIncrementalPayment, outstandingIncrementalPayments, campaignId);\n            } else {\n                influencer.transfer(incrementalPayment);\n                incrementalTargetReached = false;\n                emit PayInfluencerIncrementalSingle(incrementalPayment, outstandingIncrementalPayments, campaignId);\n            }\n        }\n        //agreed upon sum\n        if (revisedPaymentAmount > 0) {\n            // require(msg.value == revisedPaymentAmount, 'payInfluencer(): only confirmed payment amount or more can be sent');\n            influencer.transfer(revisedPaymentAmount);\n            emit AgreedAmountPayment(influencer, msg.value, campaignId);\n        }\n    }\n\n    /**\n     * @dev business confirmed refund\n     * @param _confirmed business confirmation\n     **/\n    function businessConfirmEnd(bool _confirmed) external onlyBusiness {\n        businessConfirmCampaignEnd = _confirmed;\n        emit ConfirmedRefund(msg.sender, campaignId);\n    }\n\n    /**\n     * @dev influencer confirmed refund\n     * @param _confirmed business confirmation\n     **/\n    function influencerConfirmEnd(bool _confirmed) external onlyInfluencer {\n        influencerConfirmCampaignEnd = _confirmed;\n        emit ConfirmedRefund(msg.sender, campaignId);\n    }\n\n    /**\n     * @dev business confirmed specific payout\n     * @param _revisedPayment revised payment amount\n     */\n    function businessConfirmPayment(uint256 _revisedPayment) external onlyBusiness {\n        require(_revisedPayment < address(this).balance, 'businessConfirmPayment(): amount must be lower than deposited');\n        if (influencerRevisedPay == _revisedPayment) {\n            revisedPaymentAmount = _revisedPayment;\n            emit ConfirmedPayment(_revisedPayment, campaignId);\n        } else {\n            businessRevisedPay = _revisedPayment;\n            emit ProposedPayment(msg.sender, _revisedPayment, campaignId);\n        }\n    }\n\n    /**\n     * @dev influencer confirmed specific payout\n     * @param _revisedPayment revised payment amount\n     */\n    function influencerConfirmPayment(uint256 _revisedPayment) external onlyInfluencer {\n        require(_revisedPayment < address(this).balance, 'businessConfirmPayment(): amount must be lower than deposited');\n        if (businessRevisedPay == _revisedPayment) {\n            revisedPaymentAmount = _revisedPayment;\n            emit ConfirmedPayment(_revisedPayment, campaignId);\n        } else {\n            influencerRevisedPay = _revisedPayment;\n            emit ProposedPayment(msg.sender, _revisedPayment, campaignId);\n        }\n    }\n\n    /**\n     * @dev business confirmed new deadline\n     * @param _newDeadline revised deadline\n     */\n    function businessConfirmExtension(uint256 _newDeadline) external onlyBusiness {\n        require(block.timestamp <= _newDeadline, 'extendDeadline(): new deadline must be after existing deadline');\n        if (influencerProposedDeadline == _newDeadline) {\n            deadline = _newDeadline;\n            emit ExtendDeadline(_newDeadline, campaignId);\n        } else {\n            businessProposedDeadline = _newDeadline;\n            emit ProposeNewDeadline(msg.sender, _newDeadline, campaignId);\n        }\n    }\n\n    /**\n     * @dev influencer confirmed new deadline\n     * @param _newDeadline revised deadline\n     */\n    function influencerConfirmExtension(uint256 _newDeadline) external onlyInfluencer {\n        require(block.timestamp <= _newDeadline, 'extendDeadline(): new deadline must be after existing deadline');\n        if (businessProposedDeadline == _newDeadline) {\n            deadline = _newDeadline;\n            emit ExtendDeadline(_newDeadline, campaignId);\n        } else {\n            influencerProposedDeadline = _newDeadline;\n            emit ProposeNewDeadline(msg.sender, _newDeadline, campaignId);\n        }\n    }\n\n    /**\n     * @dev complete campaign and potentially refund business\n     */\n    function campaignEnded() external eitherBusinessOrInfluencer {\n        require(\n            block.timestamp >= deadline || (businessConfirmCampaignEnd && influencerConfirmCampaignEnd),\n            'campaignEnded(): Either campaign ongoing, or both parties yet to confirm desire to'\n        );\n        if (jackpotTargetReached) {\n            payInfluencer();\n            emit CampaignTerminationJackpotPayment(business, true, campaignId);\n        } else if (incrementalTargetReached) {\n            payInfluencer();\n            emit CampaignTerminationIncrementPayment(business, false, campaignId);\n        }\n        emit CampaignEnding(address(this).balance, false, false, campaignId);\n        selfdestruct(business);\n    }\n\n    /*\n    function pause() external onlyAdmin {\n        super._pause();\n    }\n\n    function unpause() external onlyAdmin {\n        super._unpause();\n    }\n    */\n}\n",
  "sourcePath": "/Users/benweinberg/Desktop/Work/FamePay/FamePayContract/contracts/Famepay.sol",
  "compiler": {
    "name": "solc",
    "version": "0.8.14+commit.80d49f37.Emscripten.clang"
  },
  "schemaVersion": "3.4.3",
  "updatedAt": "2022-06-08T20:30:44.395Z",
  "devdoc": {
    "kind": "dev",
    "methods": {
      "addressBalance()": {
        "details": "check amount deposited in campaign"
      },
      "businessConfirmEnd(bool)": {
        "details": "business confirmed refund",
        "params": {
          "_confirmed": "business confirmation*"
        }
      },
      "businessConfirmExtension(uint256)": {
        "details": "business confirmed new deadline",
        "params": {
          "_newDeadline": "revised deadline"
        }
      },
      "businessConfirmPayment(uint256)": {
        "details": "business confirmed specific payout",
        "params": {
          "_revisedPayment": "revised payment amount"
        }
      },
      "campaignEnded()": {
        "details": "complete campaign and potentially refund business"
      },
      "checkCampaignObjectiveReached(uint256,bool,uint256)": {
        "details": "check if objective was achieved",
        "params": {
          "_postPosted": "Check if post is posted and valid",
          "_postStat": "Post stat for incremental payment",
          "_postTimestamp": "Timestamp of post"
        }
      },
      "depositPayment()": {
        "details": "used for injecting more money for campaigns you want to extend"
      },
      "influencerConfirmEnd(bool)": {
        "details": "influencer confirmed refund",
        "params": {
          "_confirmed": "business confirmation*"
        }
      },
      "influencerConfirmExtension(uint256)": {
        "details": "influencer confirmed new deadline",
        "params": {
          "_newDeadline": "revised deadline"
        }
      },
      "influencerConfirmPayment(uint256)": {
        "details": "influencer confirmed specific payout",
        "params": {
          "_revisedPayment": "revised payment amount"
        }
      },
      "overrideMaliciousCampaign()": {
        "details": "end campaign due to protest (in favour of business)"
      },
      "payInfluencer()": {
        "details": "pay the influencer"
      },
      "protestCampaign(bool)": {
        "details": "protest a contentious campaign",
        "params": {
          "_postPosted": "Protested post must be valid post"
        }
      },
      "removeGracePeriod(bool,bool)": {
        "details": "remove 12 hour grace period to allow shorter payouts",
        "params": {
          "_businessConfirmed": "business confirms removal of grace period",
          "_influencerConfirmed": "influencer confirms removal of grace period"
        }
      },
      "resolveProtest()": {
        "details": "end campaign protest (in favour of influencer)"
      }
    },
    "version": 1
  },
  "userdoc": {
    "events": {
      "BusinessDeposited(address,uint256,uint256)": {
        "notice": "Busines actions "
      }
    },
    "kind": "user",
    "methods": {},
    "version": 1
  }
}