{
  "contractName": "FamepayFactory",
  "abi": [
    {
      "inputs": [],
      "stateMutability": "nonpayable",
      "type": "constructor"
    },
    {
      "anonymous": false,
      "inputs": [
        {
          "indexed": false,
          "internalType": "address",
          "name": "_deployedCampaign",
          "type": "address"
        },
        {
          "indexed": false,
          "internalType": "address",
          "name": "_influencer",
          "type": "address"
        },
        {
          "indexed": false,
          "internalType": "address",
          "name": "_business",
          "type": "address"
        },
        {
          "indexed": false,
          "internalType": "uint256",
          "name": "_campaignId",
          "type": "uint256"
        },
        {
          "indexed": false,
          "internalType": "uint256",
          "name": "_startDate",
          "type": "uint256"
        },
        {
          "indexed": false,
          "internalType": "uint256",
          "name": "_deadline",
          "type": "uint256"
        },
        {
          "indexed": false,
          "internalType": "uint256",
          "name": "_jackpotPayment",
          "type": "uint256"
        },
        {
          "indexed": false,
          "internalType": "uint256",
          "name": "_incrementalPayment",
          "type": "uint256"
        },
        {
          "indexed": false,
          "internalType": "uint256",
          "name": "_jackpotTargetAmount",
          "type": "uint256"
        },
        {
          "indexed": false,
          "internalType": "uint256",
          "name": "_incrementalTargetAmount",
          "type": "uint256"
        },
        {
          "indexed": false,
          "internalType": "uint256",
          "name": "_potentialPayoutAmount",
          "type": "uint256"
        },
        {
          "indexed": false,
          "internalType": "string",
          "name": "_objective",
          "type": "string"
        }
      ],
      "name": "NewFamepayCampaignCreated",
      "type": "event"
    },
    {
      "inputs": [
        {
          "internalType": "address payable",
          "name": "_business",
          "type": "address"
        },
        {
          "internalType": "address payable",
          "name": "_influencer",
          "type": "address"
        },
        {
          "internalType": "uint256",
          "name": "_campaignId",
          "type": "uint256"
        },
        {
          "internalType": "uint256",
          "name": "_startDate",
          "type": "uint256"
        },
        {
          "internalType": "uint256",
          "name": "_deadline",
          "type": "uint256"
        },
        {
          "internalType": "uint256",
          "name": "_jackpotPayment",
          "type": "uint256"
        },
        {
          "internalType": "uint256",
          "name": "_incrementalPayment",
          "type": "uint256"
        },
        {
          "internalType": "uint256",
          "name": "_jackpotTargetAmount",
          "type": "uint256"
        },
        {
          "internalType": "uint256",
          "name": "_incrementalTargetAmount",
          "type": "uint256"
        },
        {
          "internalType": "uint256",
          "name": "_potentialPayoutAmount",
          "type": "uint256"
        },
        {
          "internalType": "string",
          "name": "_objective",
          "type": "string"
        }
      ],
      "name": "newFamepayCampaign",
      "outputs": [],
      "stateMutability": "payable",
      "type": "function",
      "payable": true
    },
    {
      "inputs": [
        {
          "internalType": "uint256",
          "name": "_campaignId",
          "type": "uint256"
        }
      ],
      "name": "getCampaign",
      "outputs": [
        {
          "internalType": "address",
          "name": "",
          "type": "address"
        }
      ],
      "stateMutability": "view",
      "type": "function",
      "constant": true
    }
  ],
  "bytecode": "0x608060405234801561001057600080fd5b50600080546001600160a01b03191633179055611877806100326000396000f3fe6080604052600436106100295760003560e01c80632a11c0e61461002e5780635598f8cc14610124575b600080fd5b610122600480360361016081101561004557600080fd5b6001600160a01b03823581169260208101359091169160408201359160608101359160808201359160a08101359160c08201359160e081013591610100820135916101208101359181019061016081016101408201356401000000008111156100ad57600080fd5b8201836020820111156100bf57600080fd5b803590602001918460018302840111640100000000831117156100e157600080fd5b91908080601f01602080910402602001604051908101604052809392919081815260200183838082843760009201919091525092955061016a945050505050565b005b34801561013057600080fd5b5061014e6004803603602081101561014757600080fd5b5035610437565b604080516001600160a01b039092168252519081900360200190f35b6101748484610452565b600381905561018490869061049d565b60028190556101949087906104f6565b82116101e7576040805162461bcd60e51b815260206004820152601b60248201527f506f74656e7469616c207061796f757420697320696e76616c69640000000000604482015290519081900360640190fd5b6000348b8d8c8c8c8c8c8c8c8c8c604051610201906105f2565b808c6001600160a01b031681526020018b6001600160a01b031681526020018a815260200189815260200188815260200187815260200186815260200185815260200184815260200183815260200180602001828103825283818151815260200191508051906020019080838360005b83811015610289578181015183820152602001610271565b50505050905090810190601f1680156102b65780820380516001836020036101000a031916815260200191505b509c505050505050505050505050506040518091039082f09050801580156102e2573d6000803e3d6000fd5b50905080600160008c815260200190815260200160002060006101000a8154816001600160a01b0302191690836001600160a01b031602179055507fd07606fa23ac721f55e9f11a7126ae0cfeab6d45ea97556b11aa9ae8e29213df818c8e8d8d8d8d8d8d8d8d8d604051808d6001600160a01b031681526020018c6001600160a01b031681526020018b6001600160a01b031681526020018a815260200189815260200188815260200187815260200186815260200185815260200184815260200183815260200180602001828103825283818151815260200191508051906020019080838360005b838110156103e45781810151838201526020016103cc565b50505050905090810190601f1680156104115780820380516001836020036101000a031916815260200191505b509d505050505050505050505050505060405180910390a1505050505050505050505050565b6000908152600160205260409020546001600160a01b031690565b600061049483836040518060400160405280601a81526020017f536166654d6174683a206469766973696f6e206279207a65726f000000000000815250610550565b90505b92915050565b6000826104ac57506000610497565b828202828482816104b957fe5b04146104945760405162461bcd60e51b81526004018080602001828103825260218152602001806118216021913960400191505060405180910390fd5b600082820183811015610494576040805162461bcd60e51b815260206004820152601b60248201527f536166654d6174683a206164646974696f6e206f766572666c6f770000000000604482015290519081900360640190fd5b600081836105dc5760405162461bcd60e51b81526004018080602001828103825283818151815260200191508051906020019080838360005b838110156105a1578181015183820152602001610589565b50505050905090810190601f1680156105ce5780820380516001836020036101000a031916815260200191505b509250505060405180910390fd5b5060008385816105e857fe5b0495945050505050565b611221806106008339019056fe60806040819052600a805463ffff000019169055620012213881900390819083398181016040526101608110156200003657600080fd5b815160208301516040808501516060860151608087015160a088015160c089015160e08a01516101008b01516101208c01516101408d01805199519b9d9a9c989b979a96999598949793969295919483019291846401000000008211156200009d57600080fd5b908301906020820185811115620000b357600080fd5b8251640100000000811182820188101715620000ce57600080fd5b82525081516020918201929091019080838360005b83811015620000fd578181015183820152602001620000e3565b50505050905090810190601f1680156200012b5780820380516001836020036101000a031916815260200191505b506040525050600080546001600160a01b03808f166001600160a01b03199283161790925560018054928e1692909116919091179055506006899055600488905560058790556003869055600285905560088490556007839055600982905580516200019f90600b906020840190620001d0565b5050600080546001600160a01b03168152600c60205260409020805447019055506200026c98505050505050505050565b828054600181600116156101000203166002900490600052602060002090601f016020900481019282601f106200021357805160ff191683800117855562000243565b8280016001018555821562000243579182015b828111156200024357825182559160200191906001019062000226565b506200025192915062000255565b5090565b5b8082111562000251576000815560010162000256565b610fa5806200027c6000396000f3fe6080604052600436106101ac5760003560e01c8063a87588e7116100ec578063e36686321161008a578063e74dc11c11610064578063e74dc11c146104e6578063f318e557146104fb578063f41662ed14610510578063fac3fd5914610473576101ac565b8063e3668632146104a7578063e53abae9146104bc578063e5fb0450146104d1576101ac565b8063b801ed85116100c6578063b801ed851461041c578063da85a11f14610431578063dc5b133114610446578063df2d88ca14610473576101ac565b8063a87588e7146103ba578063aa5e2153146103eb578063ac35e160146103f3576101ac565b80632fe289b311610159578063612abb1011610133578063612abb10146103215780637005a865146103365780638d0449d61461036a578063a4b870c414610387576101ac565b80632fe289b3146102cb5780633621905f146102e0578063389b7533146102f5576101ac565b8063188ec3561161018a578063188ec3561461028c5780631d8d1f66146102a157806329dcb0cf146102b6576101ac565b806304963369146101b15780630b97bc86146101ed57806314f1586a14610202575b600080fd5b3480156101bd57600080fd5b506101db600480360360208110156101d457600080fd5b5035610525565b60408051918252519081900360200190f35b3480156101f957600080fd5b506101db610543565b34801561020e57600080fd5b50610217610549565b6040805160208082528351818301528351919283929083019185019080838360005b83811015610251578181015183820152602001610239565b50505050905090810190601f16801561027e5780820380516001836020036101000a031916815260200191505b509250505060405180910390f35b34801561029857600080fd5b506101db6105d7565b3480156102ad57600080fd5b506101db6105db565b3480156102c257600080fd5b506101db6105f7565b3480156102d757600080fd5b506101db6105fd565b3480156102ec57600080fd5b506101db610603565b34801561030157600080fd5b5061031f6004803603602081101561031857600080fd5b5035610609565b005b34801561032d57600080fd5b506101db61065d565b34801561034257600080fd5b5061031f6004803603604081101561035957600080fd5b508035151590602001351515610663565b61031f6004803603602081101561038057600080fd5b50356106dd565b34801561039357600080fd5b506101db600480360360208110156103aa57600080fd5b50356001600160a01b0316610849565b3480156103c657600080fd5b506103cf61085b565b604080516001600160a01b039092168252519081900360200190f35b61031f61086a565b3480156103ff57600080fd5b50610408610965565b604080519115158252519081900360200190f35b34801561042857600080fd5b50610408610973565b34801561043d57600080fd5b506101db610983565b61031f6004803603606081101561045c57600080fd5b508035151590602081013515159060400135610989565b34801561047f57600080fd5b5061031f6004803603604081101561049657600080fd5b508035151590602001351515610dc2565b3480156104b357600080fd5b506101db610df2565b3480156104c857600080fd5b50610408610df8565b3480156104dd57600080fd5b506101db610e07565b3480156104f257600080fd5b506103cf610e0d565b34801561050757600080fd5b506101db610e1c565b34801561051c57600080fd5b50610408610e20565b600d818154811061053257fe5b600091825260209091200154905081565b60045481565b600b805460408051602060026001851615610100026000190190941693909304601f810184900484028201840190925281815292918301828280156105cf5780601f106105a4576101008083540402835291602001916105cf565b820191906000526020600020905b8154815290600101906020018083116105b257829003601f168201915b505050505081565b4290565b600080546001600160a01b03168152600c602052604090205490565b60055481565b60085481565b60025481565b806005541061061757600080fd5b600581905560065460408051838152602081019290925280517f53363e7eeef177f60d15e790e42c0cc492e5bee81887ced1390b5c2553ad2a2a9281900390910190a150565b60075481565b600a805460ff191683151517905580156106c557600a805461ff00191661010083151502179055600254600d80546001810182556000919091527fd7b6990105719101dabeb77144f2a3385c8033acd3af97e9423a695e81ad1eb501556106d9565b600a805461ff001916610100831515021790555b5050565b600a5460ff161561075d57600a546107089060ff620100008204811691630100000090041683610989565b60018054600654604080516001600160a01b03909316835260208301939093528183015290517fcfe51a56170170210c6b5def6488eabb132da271f908c143e485c0ae70edec6f9181900360600190a16107de565b600a54610100900460ff16156107de57600a5461078d9060ff620100008204811691630100000090041683610989565b600154600654604080516001600160a01b0390931683526000602084015282810191909152517f8d2937ab1456e52d5e52590e71857fe5899a3f1998d2098e812935ca22c062179181900360600190a15b600080546001600160a01b03168152600c602090815260408083205460065482519182529281019390935282810191909152517fdbda569e7119cd172891e7c63899a4838e4e8670b1175345bf293cd3f31347489181900360600190a16001546001600160a01b0316ff5b600c6020526000908152604090205481565b6000546001600160a01b031681565b42600554116108c0576040805162461bcd60e51b815260206004820181905260248201527f5468652063616d706169676e20646561646c696e652068617320706173736564604482015290519081900360640190fd5b600034116108ff5760405162461bcd60e51b8152600401808060200182810382526028815260200180610f486028913960400191505060405180910390fd5b600080546001600160a01b03168152600c60209081526040918290208054349081019091556006548351338152928301919091528183015290517fb75c5efb8f695c77c10eab316b5f4b02cb281e500c8a4e5474d1c3e19d5820029181900360600190a1565b600a54610100900460ff1681565b600a546301000000900460ff1681565b600d5490565b600a5460ff16806109a15750600a54610100900460ff165b806109b157508280156109b15750815b6109ec5760405162461bcd60e51b8152600401808060200182810382526023815260200180610ec66023913960400191505060405180910390fd5b426005541015610a43576040805162461bcd60e51b815260206004820152601b60248201527f7468652063616d706169676e20706572696f64206973206f7665720000000000604482015290519081900360640190fd5b600a5460ff1615610b1857600354600080546001600160a01b03168152600c60205260409020541015610a7557600080fd5b60038054600080546001600160a01b039081168252600c602052604080832080549490940390935581549354925193169282156108fc029291818181858888f19350505050158015610acb573d6000803e3d6000fd5b50600a805460ff1916905560035460065460408051928352602083019190915280517f314b8d1c1fcf6a0803dd4c073d3a198302a249e6e1e0a6ce20a289f6f61c80e89281900390910190a15b600a54610100900460ff1615610cff57600254600080546001600160a01b03168152600c60205260409020541015610b815760405162461bcd60e51b815260040180806020018281038252603e815260200180610ee9603e913960400191505060405180910390fd5b600d54600111610c5557600254600d54600091610b9e9190610e29565b600080546001600160a01b039081168252600c60205260408083208054859003905582549051939450169183156108fc0291849190818181858888f19350505050158015610bf0573d6000803e3d6000fd5b50610bfd600d6000610e8b565b600a805461ff0019169055600d5460065460408051848152602081019390935282810191909152517f4e096a163f990a9051b37b380a1fdc57da1ed67943857ddeb496a302fea7a7c09181900360600190a150610cff565b60028054600080546001600160a01b039081168252600c602052604080832080549490940390935581549354925193169282156108fc029291818181858888f19350505050158015610cab573d6000803e3d6000fd5b50600a805461ff0019169055600254600d5460065460408051938452602084019290925282820152517f4e096a163f990a9051b37b380a1fdc57da1ed67943857ddeb496a302fea7a7c09181900360600190a15b828015610d095750815b15610dbd57600080546001600160a01b03168152600c60205260409020548110610d3257600080fd5b600080546040516001600160a01b039091169183156108fc02918491818181858888f19350505050158015610d6b573d6000803e3d6000fd5b50600054600654604080516001600160a01b0390931683526020830184905282810191909152517f9267f0dfa25dfb1e1a3676fdbc79fd9c57356e61c7da6a6865a492a68934e33f9181900360600190a15b505050565b600a805491151563010000000263ff00000019931515620100000262ff0000199093169290921792909216179055565b60035481565b600a5462010000900460ff1681565b60095481565b6001546001600160a01b031681565b4790565b600a5460ff1681565b600082610e3857506000610e85565b82820282848281610e4557fe5b0414610e825760405162461bcd60e51b8152600401808060200182810382526021815260200180610f276021913960400191505060405180910390fd5b90505b92915050565b5080546000825590600052602060002090810190610ea99190610eac565b50565b5b80821115610ec15760008155600101610ead565b509056fe636f6e646974696f6e7320666f72207061796d656e742077657265206e6f74206d657474686520617474656d70746564207061796f7574206973206d6f7265207468616e20697320646573706f6974656420696e207468652063616d706169676e536166654d6174683a206d756c7469706c69636174696f6e206f766572666c6f77596f75206d757374206465706f736974206d6f6e657920696e746f2074686520636f6e7472616374a2646970667358221220c4dad0efcf42c64fc56f5db8b9c3626024ad2f5019f16a720a9d6fd9e904732864736f6c634300060c0033536166654d6174683a206d756c7469706c69636174696f6e206f766572666c6f77a26469706673582212208e27592c0c857a9333e821c8b599b05ee7347ef0eda7dbc19a738795c160259464736f6c634300060c0033",
  "immutableReferences": {},
  "source": "// extract logic into private functions and call those with public functions\n//eth alarm clock\n//x dai\n//chainlink\n// super fluid for incremental payments\n// \n\npragma solidity >=0.4.22 <0.8.0;\n\nimport '@openzeppelin/contracts/math/SafeMath.sol';\nimport './Famepay.sol';\n\ncontract FamepayFactory {\n    using SafeMath for uint256;\n\n    address private platform; //payable?<-\n    mapping(uint256 => address) private famepayCampaigns;\n    event NewFamepayCampaignCreated(\n        address _deployedCampaign,\n        address _influencer,\n        address _business,\n        uint256 _campaignId,\n        uint256 _startDate,\n        uint256 _deadline,\n        uint256 _jackpotPayment,\n        uint256 _incrementalPayment,\n        uint256 _jackpotTargetAmount,\n        uint256 _incrementalTargetAmount,\n        uint256 _potentialPayoutAmount,\n        string _objective\n    );\n\n    constructor() public {\n        platform = msg.sender;\n    }\n    \n        \n    uint256 incrementalPaymentsTillJackpotValue;\n    uint256 incrementalPaymentsTillJackpotAmount;\n    function newFamepayCampaign(\n        address payable _business,\n        address payable _influencer,\n        uint256 _campaignId,\n        uint256 _startDate,\n        uint256 _deadline,\n        uint256 _jackpotPayment, //$1000 if we hit 1,000,000 views\n        uint256 _incrementalPayment, //$50 for every 50,000 views\n        uint256 _jackpotTargetAmount,\n        uint256 _incrementalTargetAmount,\n        uint256 _potentialPayoutAmount, //total in contract $2000\n        string memory _objective\n    ) payable public {\n        incrementalPaymentsTillJackpotAmount = _jackpotTargetAmount.div(_incrementalTargetAmount);\n        incrementalPaymentsTillJackpotValue = _incrementalPayment.mul(incrementalPaymentsTillJackpotAmount);\n        require(_potentialPayoutAmount > _jackpotPayment.add(incrementalPaymentsTillJackpotValue), \"Potential payout is invalid\");\n        // require(_potentialPayoutAmount > _jackpotPayment.add(_incrementalPayment.mul(_jackpotTargetAmount.div(_incrementalTargetAmount))));\n        Famepay famepay = new Famepay{value: msg.value}(_influencer, _business, _campaignId, _startDate, _deadline, _jackpotPayment, _incrementalPayment, _jackpotTargetAmount, _incrementalTargetAmount, _potentialPayoutAmount, _objective) ;\n        famepayCampaigns[_campaignId] = address(famepay);\n        emit NewFamepayCampaignCreated(address(famepay), _influencer, _business, _campaignId, _startDate, _deadline, _jackpotPayment, _incrementalPayment, _jackpotTargetAmount, _incrementalTargetAmount, _potentialPayoutAmount, _objective);\n    }\n\n    function getCampaign(uint256 _campaignId) view public returns (address) {\n         return famepayCampaigns[_campaignId];\n    }\n}\n",
  "sourcePath": "/Users/benweinberg/Desktop/Work/FamePay/FamePayContract/contracts/FamepayFactory.sol",
  "compiler": {
    "name": "solc",
    "version": "0.6.12+commit.27d51765.Emscripten.clang"
  },
  "schemaVersion": "3.3.0",
  "updatedAt": "2021-05-02T18:01:54.811Z",
  "networkType": "ethereum",
  "devdoc": {
    "kind": "dev",
    "methods": {},
    "version": 1
  },
  "userdoc": {
    "kind": "user",
    "methods": {},
    "version": 1
  }
}