{
  "contractName": "FamepayFactory",
  "abi": [
    {
      "inputs": [
        {
          "internalType": "contract AccessControl",
          "name": "_accessControl",
          "type": "address"
        }
      ],
      "stateMutability": "nonpayable",
      "type": "constructor"
    },
    {
      "anonymous": false,
      "inputs": [
        {
          "indexed": false,
          "internalType": "uint256",
          "name": "_startDate",
          "type": "uint256"
        },
        {
          "indexed": false,
          "internalType": "uint256",
          "name": "_deadline",
          "type": "uint256"
        },
        {
          "indexed": false,
          "internalType": "uint256",
          "name": "_simplePostDuration",
          "type": "uint256"
        },
        {
          "indexed": false,
          "internalType": "uint256",
          "name": "_maxJackpotReward",
          "type": "uint256"
        },
        {
          "indexed": false,
          "internalType": "uint256",
          "name": "_jackpotTargetAmount",
          "type": "uint256"
        },
        {
          "indexed": false,
          "internalType": "uint256",
          "name": "_bountyId",
          "type": "uint256"
        },
        {
          "indexed": false,
          "internalType": "uint256",
          "name": "_escrowedAmount",
          "type": "uint256"
        },
        {
          "indexed": false,
          "internalType": "bytes32",
          "name": "_bountyType",
          "type": "bytes32"
        },
        {
          "indexed": true,
          "internalType": "address",
          "name": "_business",
          "type": "address"
        },
        {
          "indexed": false,
          "internalType": "uint16",
          "name": "_maxParticipants",
          "type": "uint16"
        },
        {
          "indexed": false,
          "internalType": "bytes4",
          "name": "_objective",
          "type": "bytes4"
        },
        {
          "indexed": false,
          "internalType": "address",
          "name": "_bountyAddress",
          "type": "address"
        },
        {
          "indexed": false,
          "internalType": "uint16",
          "name": "_maxWinners",
          "type": "uint16"
        }
      ],
      "name": "NewBountyCreated",
      "type": "event"
    },
    {
      "anonymous": false,
      "inputs": [
        {
          "indexed": true,
          "internalType": "address",
          "name": "_influencer",
          "type": "address"
        },
        {
          "indexed": true,
          "internalType": "address",
          "name": "_business",
          "type": "address"
        },
        {
          "indexed": false,
          "internalType": "address",
          "name": "_campaignAddress",
          "type": "address"
        },
        {
          "indexed": false,
          "internalType": "uint256",
          "name": "_campaignId",
          "type": "uint256"
        },
        {
          "indexed": false,
          "internalType": "uint256",
          "name": "_startDate",
          "type": "uint256"
        },
        {
          "indexed": false,
          "internalType": "uint256",
          "name": "_deadline",
          "type": "uint256"
        },
        {
          "indexed": false,
          "internalType": "uint256",
          "name": "_simplePostDuration",
          "type": "uint256"
        },
        {
          "indexed": false,
          "internalType": "uint256",
          "name": "_jackpotPayment",
          "type": "uint256"
        },
        {
          "indexed": false,
          "internalType": "uint256",
          "name": "_incrementalPayment",
          "type": "uint256"
        },
        {
          "indexed": false,
          "internalType": "uint256",
          "name": "_jackpotTargetAmount",
          "type": "uint256"
        },
        {
          "indexed": false,
          "internalType": "uint256",
          "name": "_incrementalTargetAmount",
          "type": "uint256"
        },
        {
          "indexed": false,
          "internalType": "uint256",
          "name": "_potentialPayoutAmount",
          "type": "uint256"
        },
        {
          "indexed": false,
          "internalType": "bytes4",
          "name": "_objective",
          "type": "bytes4"
        }
      ],
      "name": "NewFamepayCampaignCreated",
      "type": "event"
    },
    {
      "inputs": [],
      "name": "ADMIN_ROLE",
      "outputs": [
        {
          "internalType": "bytes32",
          "name": "",
          "type": "bytes32"
        }
      ],
      "stateMutability": "view",
      "type": "function",
      "constant": true
    },
    {
      "inputs": [],
      "name": "campaignPointer",
      "outputs": [
        {
          "internalType": "uint256",
          "name": "",
          "type": "uint256"
        }
      ],
      "stateMutability": "view",
      "type": "function",
      "constant": true
    },
    {
      "inputs": [
        {
          "internalType": "uint256",
          "name": "",
          "type": "uint256"
        }
      ],
      "name": "famepayBounties",
      "outputs": [
        {
          "internalType": "address",
          "name": "",
          "type": "address"
        }
      ],
      "stateMutability": "view",
      "type": "function",
      "constant": true
    },
    {
      "inputs": [
        {
          "internalType": "uint256",
          "name": "",
          "type": "uint256"
        }
      ],
      "name": "famepayDeals",
      "outputs": [
        {
          "internalType": "address",
          "name": "",
          "type": "address"
        }
      ],
      "stateMutability": "view",
      "type": "function",
      "constant": true
    },
    {
      "inputs": [
        {
          "internalType": "address payable",
          "name": "_influencer",
          "type": "address"
        },
        {
          "internalType": "address payable",
          "name": "_business",
          "type": "address"
        },
        {
          "internalType": "uint256",
          "name": "_startDate",
          "type": "uint256"
        },
        {
          "internalType": "uint256",
          "name": "_deadline",
          "type": "uint256"
        },
        {
          "internalType": "uint256",
          "name": "_simplePostDuration",
          "type": "uint256"
        },
        {
          "internalType": "uint256",
          "name": "_jackpotPayment",
          "type": "uint256"
        },
        {
          "internalType": "uint256",
          "name": "_incrementalPayment",
          "type": "uint256"
        },
        {
          "internalType": "uint256",
          "name": "_jackpotTargetAmount",
          "type": "uint256"
        },
        {
          "internalType": "uint256",
          "name": "_incrementalTargetAmount",
          "type": "uint256"
        },
        {
          "internalType": "uint256",
          "name": "_potentialPayoutAmount",
          "type": "uint256"
        },
        {
          "internalType": "bytes4",
          "name": "_objective",
          "type": "bytes4"
        }
      ],
      "name": "newFamepayCampaign",
      "outputs": [],
      "stateMutability": "payable",
      "type": "function",
      "payable": true
    },
    {
      "inputs": [
        {
          "internalType": "uint256",
          "name": "_startDate",
          "type": "uint256"
        },
        {
          "internalType": "uint256",
          "name": "_deadline",
          "type": "uint256"
        },
        {
          "internalType": "uint256",
          "name": "_simplePostDuration",
          "type": "uint256"
        },
        {
          "internalType": "uint256",
          "name": "_maxJackpotReward",
          "type": "uint256"
        },
        {
          "internalType": "uint256",
          "name": "_jackpotTargetAmount",
          "type": "uint256"
        },
        {
          "internalType": "bytes32",
          "name": "_bountyType",
          "type": "bytes32"
        },
        {
          "internalType": "address payable",
          "name": "_business",
          "type": "address"
        },
        {
          "internalType": "uint16",
          "name": "_maxParticipants",
          "type": "uint16"
        },
        {
          "internalType": "bytes4",
          "name": "_objective",
          "type": "bytes4"
        },
        {
          "internalType": "uint16",
          "name": "_maxWinners",
          "type": "uint16"
        }
      ],
      "name": "newFamepayBounty",
      "outputs": [],
      "stateMutability": "payable",
      "type": "function",
      "payable": true
    },
    {
      "inputs": [],
      "name": "checkTimestamp",
      "outputs": [
        {
          "internalType": "uint256",
          "name": "",
          "type": "uint256"
        }
      ],
      "stateMutability": "view",
      "type": "function",
      "constant": true
    }
  ],
  "bytecode": "0x608060405234801561001057600080fd5b50604051615df4380380615df483398101604081905261002f91610065565b6001600081905560038054336001600160a01b0319918216179091558154166001600160a01b0392909216919091179055610095565b60006020828403121561007757600080fd5b81516001600160a01b038116811461008e57600080fd5b9392505050565b615d50806100a46000396000f3fe608060405260043610620000795760003560e01c806375b238fc116200005457806375b238fc14620000d1578063a0ac00c11462000107578063a29bf6fa146200015a578063b16d3a98146200017257600080fd5b806303143e88146200007e5780631ef6064d14620000975780635115732914620000ae575b600080fd5b620000956200008f36600462000cec565b620001ac565b005b62000095620000a836600462000d9a565b62000764565b348015620000bb57600080fd5b50425b6040519081526020015b60405180910390f35b348015620000de57600080fd5b50620000be7fdf8b4c520ffe197c5343c6f5aec59570151ef9a492f2c624fd45ddde6135ec4281565b3480156200011457600080fd5b50620001416200012636600462000e33565b6005602052600090815260409020546001600160a01b031681565b6040516001600160a01b039091168152602001620000c8565b3480156200016757600080fd5b50620000be60025481565b3480156200017f57600080fd5b50620001416200019136600462000e33565b6004602052600090815260409020546001600160a01b031681565b60408051631c1bdcdd60e21b602080830191909152825160048184030181526024830184528051908201206001600160e01b031985166044840152835160288185030181526048909301909352815191012014620002b357600062000212848662000e63565b9050600062000222828862000e86565b905062000230818962000ea8565b841015620002ab5760405162461bcd60e51b815260206004820152603160248201527f6e657746616d6570617943616d706169676e28293a20506f74656e7469616c2060448201527f7061796f757420697320696e76616c696400000000000000000000000000000060648201526084015b60405180910390fd5b5050620004b7565b61a8c08710156200032d5760405162461bcd60e51b815260206004820152603460248201527f6e657746616d6570617943616d706169676e28293a20706f7374206d7573742060448201527f6265206174206c6561737420313220686f7572730000000000000000000000006064820152608401620002a2565b8415620003a35760405162461bcd60e51b815260206004820152603c60248201527f6e657746616d6570617943616d706169676e28293a206e6f20696e6372656d6560448201527f6e74616c207061796d656e7420666f722073696d706c6520706f7374000000006064820152608401620002a2565b8215620004195760405162461bcd60e51b815260206004820152603b60248201527f6e657746616d6570617943616d706169676e28293a206e6f20696e6372656d6560448201527f6e74616c2074617267657420666f722073696d706c6520706f737400000000006064820152608401620002a2565b85821015620004b75760405162461bcd60e51b815260206004820152604260248201527f6e657746616d6570617943616d706169676e28293a20416d6f756e742064657060448201527f6f7369746564206d7573742062652067726561746572207468616e207265776160648201527f7264000000000000000000000000000000000000000000000000000000000000608482015260a401620002a2565b888810156200052f5760405162461bcd60e51b815260206004820152603760248201527f6e657746616d6570617943616d706169676e28293a20646561646c696e65206d60448201527f75737420626520616674657220737461727420646174650000000000000000006064820152608401620002a2565b42891015620005a75760405162461bcd60e51b815260206004820152603460248201527f6e657746616d6570617943616d706169676e28293a2063616d706169676e206360448201527f616e6e6f7420626520696e2074686520706173740000000000000000000000006064820152608401620002a2565b600254620005b790600162000ea8565b600281905550600060025490506000348d8d8d8d8d8d8d8d8d8c8c600160009054906101000a90046001600160a01b0316604051620005f69062000c9a565b6001600160a01b039c8d1681529a8c1660208c015260408b019990995260608a0197909752608089019590955260a088019390935260c087019190915260e08601526101008501526001600160e01b031916610120840152610140830152909116610160820152610180016040518091039082f09050801580156200067f573d6000803e3d6000fd5b5060008381526004602090815260409182902080547fffffffffffffffffffffffff0000000000000000000000000000000000000000166001600160a01b0385811691821790925583519081529182018690529181018e9052606081018d9052608081018c905260a081018b905260c081018a905260e08101899052610100810188905261012081018790526001600160e01b031986166101408201529192508d811691908f16907f5d41311f174981a9d477a6dd0adc044bb9e724f91a06eb4ec1054848977216df906101600160405180910390a350505050505050505050505050565b60008161ffff1611620007e05760405162461bcd60e51b815260206004820152603060248201527f6e657746616d65706179426f756e747928293a206174206c65617374206f6e6560448201527f2077696e6e6572207265717569726564000000000000000000000000000000006064820152608401620002a2565b8061ffff168361ffff161015620008605760405162461bcd60e51b815260206004820152603e60248201527f6e657746616d65706179426f756e747928293a2063616e6e6f7420686176652060448201527f6d6f72652077696e6e657273207468616e207061727469636970616e747300006064820152608401620002a2565b898911620008d75760405162461bcd60e51b815260206004820152603460248201527f6e657746616d65706179426f756e747928293a20646561646c696e65206d757360448201527f74206265206166746572207374617274446174650000000000000000000000006064820152608401620002a2565b428a10156200094f5760405162461bcd60e51b815260206004820152603260248201527f6e657746616d65706179426f756e747928293a2063616d706169676e2063616e60448201527f6e6f7420626520696e20746865207061737400000000000000000000000000006064820152608401620002a2565b60408051631c1bdcdd60e21b602080830191909152825160048184030181526024830184528051908201206001600160e01b03198616604484015283516028818503018152604890930190935281519101200362000a215761a8c088101562000a215760405162461bcd60e51b815260206004820152603260248201527f6e657746616d65706179426f756e747928293a20706f7374206d75737420626560448201527f206174206c6561737420313220686f75727300000000000000000000000000006064820152608401620002a2565b600062000a338861ffff841662000e86565b90508034101562000aad5760405162461bcd60e51b815260206004820152602f60248201527f6e657746616d65706179426f756e747928293a20696e73756666696369656e7460448201527f206465706f73697420616d6f756e7400000000000000000000000000000000006064820152608401620002a2565b60025462000abd90600162000ea8565b6002819055506000348c8c8c8c8c6002548d8d8d8d600160009054906101000a90046001600160a01b03168e60405162000af79062000ca8565b9b8c5260208c019a909a5260408b019890985260608a0196909652608089019490945260a088019290925260c08701526001600160a01b0390811660e087015261ffff9182166101008701526001600160e01b0319909216610120860152911661014084015216610160820152610180016040518091039082f090508015801562000b86573d6000803e3d6000fd5b5090508060056000600254815260200190815260200160002060006101000a8154816001600160a01b0302191690836001600160a01b03160217905550856001600160a01b03167fe474b9b9fc67ada61de9033487dc2dc6f7761206a5e31e4c914d11c7ae0f21528d8d8d8d8d600254348f8e8e8c8f60405162000c849c9b9a999897969594939291909b8c5260208c019a909a5260408b019890985260608a0196909652608089019490945260a088019290925260c087015260e086015261ffff9081166101008601526001600160e01b0319919091166101208501526001600160a01b0391909116610140840152166101608201526101800190565b60405180910390a2505050505050505050505050565b61286f8062000ec483390190565b6125e8806200373383390190565b80356001600160a01b038116811462000cce57600080fd5b919050565b80356001600160e01b03198116811462000cce57600080fd5b60008060008060008060008060008060006101608c8e03121562000d0f57600080fd5b62000d1a8c62000cb6565b9a5062000d2a60208d0162000cb6565b995060408c0135985060608c0135975060808c0135965060a08c0135955060c08c0135945060e08c013593506101008c013592506101208c0135915062000d756101408d0162000cd3565b90509295989b509295989b9093969950565b803561ffff8116811462000cce57600080fd5b6000806000806000806000806000806101408b8d03121562000dbb57600080fd5b8a35995060208b0135985060408b0135975060608b0135965060808b0135955060a08b0135945062000df060c08c0162000cb6565b935062000e0060e08c0162000d87565b925062000e116101008c0162000cd3565b915062000e226101208c0162000d87565b90509295989b9194979a5092959850565b60006020828403121562000e4657600080fd5b5035919050565b634e487b7160e01b600052601160045260246000fd5b60008262000e8157634e487b7160e01b600052601260045260246000fd5b500490565b600081600019048311821515161562000ea35762000ea362000e4d565b500290565b6000821982111562000ebe5762000ebe62000e4d565b50019056fe608060408190526011805461ffff191690556014805460ff191690556200286f388190039081908339810160408190526200003a91620000f5565b60016000819055600280546001600160a01b039e8f166001600160a01b031991821617909155600380549d8f169d82169d909d17909c5560069a909a55600798909855600896909655600594909455600492909255600c55600b556014805460e09290921c6101000264ffffffff0019909216919091179055600a558154931692909116919091179055620001b7565b6001600160a01b0381168114620000e057600080fd5b50565b8051620000f081620000ca565b919050565b6000806000806000806000806000806000806101808d8f0312156200011957600080fd5b8c516200012681620000ca565b60208e0151909c506200013981620000ca565b809b505060408d0151995060608d0151985060808d0151975060a08d0151965060c08d0151955060e08d015194506101008d015193506101208d015163ffffffff60e01b811681146200018b57600080fd5b6101408e01519093509150620001a56101608e01620000e3565b90509295989b509295989b509295989b565b6126a880620001c76000396000f3fe6080604052600436106102c65760003560e01c806383d6dc0b11610179578063b81c74ca116100d6578063e36686321161008a578063ed9c544c11610064578063ed9c544c14610701578063f318e55714610720578063f41662ed1461073357600080fd5b8063e3668632146106b5578063e3d6dc2e146106cb578063e74dc11c146106e157600080fd5b8063d1fdd346116100bb578063d1fdd3461461066b578063d2bce4ed1461068b578063e2d950fa146106a057600080fd5b8063b81c74ca1461062b578063bc764fc81461064b57600080fd5b80639e976ff31161012d578063aa5e215311610112578063aa5e2153146105ee578063ac35e160146105f6578063b24506471461061557600080fd5b80639e976ff3146105a0578063a87588e7146105b657600080fd5b80638dc45e101161015e5780638dc45e101461054a5780638ed5b0fc1461056a57806395f8803e1461058057600080fd5b806383d6dc0b14610514578063842de7501461053457600080fd5b80634892a5e01161022757806368ad436f116101db57806372a998ea116101c057806372a998ea146104c257806375b238fc146104ca5780637e69a355146104fe57600080fd5b806368ad436f146104925780636e597aee146104ac57600080fd5b806350f5ae441161020c57806350f5ae4414610446578063612abb101461045c57806367d30aa21461047257600080fd5b80634892a5e014610410578063497159b01461042657600080fd5b80632acd23381161027e5780633621905f116102635780633621905f146103cf5780633869cbfa146103e55780633bc47fbe146103fb57600080fd5b80632acd23381461038f5780632fe289b3146103b957600080fd5b806314f1586a116102af57806314f1586a14610316578063188ec3561461036657806329dcb0cf1461037957600080fd5b80630b588e2c146102cb5780630b97bc86146102ed575b600080fd5b3480156102d757600080fd5b506102eb6102e636600461251a565b61074d565b005b3480156102f957600080fd5b5061030360065481565b6040519081526020015b60405180910390f35b34801561032257600080fd5b5060145461033590610100900460e01b81565b6040517fffffffff00000000000000000000000000000000000000000000000000000000909116815260200161030d565b34801561037257600080fd5b5042610303565b34801561038557600080fd5b5061030360075481565b34801561039b57600080fd5b506011546103a99060ff1681565b604051901515815260200161030d565b3480156103c557600080fd5b50610303600c5481565b3480156103db57600080fd5b5061030360045481565b3480156103f157600080fd5b5061030360085481565b34801561040757600080fd5b506102eb6108cf565b34801561041c57600080fd5b5061030360135481565b34801561043257600080fd5b506102eb610441366004612541565b610b44565b34801561045257600080fd5b5061030360105481565b34801561046857600080fd5b50610303600b5481565b34801561047e57600080fd5b506102eb61048d36600461255e565b610bf2565b34801561049e57600080fd5b506014546103a99060ff1681565b3480156104b857600080fd5b5061030360155481565b6102eb611376565b3480156104d657600080fd5b506103037fdf8b4c520ffe197c5343c6f5aec59570151ef9a492f2c624fd45ddde6135ec4281565b34801561050a57600080fd5b50610303600f5481565b34801561052057600080fd5b506102eb61052f366004612596565b6118a0565b34801561054057600080fd5b5061030360165481565b34801561055657600080fd5b506102eb610565366004612541565b611a62565b34801561057657600080fd5b50610303600a5481565b34801561058c57600080fd5b506102eb61059b36600461251a565b611ba7565b3480156105ac57600080fd5b50610303600e5481565b3480156105c257600080fd5b506002546105d6906001600160a01b031681565b6040516001600160a01b03909116815260200161030d565b6102eb611d10565b34801561060257600080fd5b50600d546103a990610100900460ff1681565b34801561062157600080fd5b5061030360095481565b34801561063757600080fd5b506102eb61064636600461251a565b611eaf565b34801561065757600080fd5b506102eb610666366004612541565b61201b565b34801561067757600080fd5b506102eb61068636600461251a565b6120d0565b34801561069757600080fd5b506102eb61223b565b3480156106ac57600080fd5b506102eb61239b565b3480156106c157600080fd5b5061030360055481565b3480156106d757600080fd5b5061030360125481565b3480156106ed57600080fd5b506003546105d6906001600160a01b031681565b34801561070d57600080fd5b506011546103a990610100900460ff1681565b34801561072c57600080fd5b5047610303565b34801561073f57600080fd5b50600d546103a99060ff1681565b6003546001600160a01b031633146107bd5760405162461bcd60e51b815260206004820152602860248201527f4f6e6c792074686520627573696e6573732063616e2063616c6c207468697320604482015267333ab731ba34b7b760c11b60648201526084015b60405180910390fd5b804211156108335760405162461bcd60e51b815260206004820152603e60248201527f657874656e64446561646c696e6528293a206e657720646561646c696e65206d60448201527f757374206265206166746572206578697374696e6720646561646c696e65000060648201526084016107b4565b8060135403610882576007819055600a546040805183815260208101929092527f53363e7eeef177f60d15e790e42c0cc492e5bee81887ced1390b5c2553ad2a2a91015b60405180910390a150565b6012819055600a5460405133917ffaf8d0ecbce5f21aac208a70f273a45f3e8e2ab16a2586ad54c9fc2626fbccd3916108c391858252602082015260400190565b60405180910390a25b50565b6003546001600160a01b03163314806108f257506002546001600160a01b031633145b6109645760405162461bcd60e51b815260206004820152603660248201527f4f6e6c792074686520627573696e657373206f7220696e666c75656e6365722060448201527f63616e2063616c6c20746869732066756e6374696f6e0000000000000000000060648201526084016107b4565b60075442101580610989575060115460ff1680156109895750601154610100900460ff165b610a215760405162461bcd60e51b815260206004820152605260248201527f63616d706169676e456e64656428293a204569746865722063616d706169676e60448201527f206f6e676f696e672c206f7220626f746820706172746965732079657420746f60648201527f20636f6e6669726d2064657369726520746f0000000000000000000000000000608482015260a4016107b4565b600d5460ff1615610a8657610a34611376565b600354600a54604080516001815260208101929092526001600160a01b03909216917fcfe51a56170170210c6b5def6488eabb132da271f908c143e485c0ae70edec6f910160405180910390a2610aec565b600d54610100900460ff1615610aec57610a9e611376565b600354600a54604080516000815260208101929092526001600160a01b03909216917f8d2937ab1456e52d5e52590e71857fe5899a3f1998d2098e812935ca22c06217910160405180910390a25b600a5460408051478152600060208201819052818301526060810192909252517f3a1f1aea29c8909f1c1e5aff163939f369fe1c87585220f7917377483a8b108f9181900360800190a16003546001600160a01b0316ff5b6003546001600160a01b03163314610baf5760405162461bcd60e51b815260206004820152602860248201527f4f6e6c792074686520627573696e6573732063616e2063616c6c207468697320604482015267333ab731ba34b7b760c11b60648201526084016107b4565b6011805460ff1916821515179055600a5460405190815233907f64a41bc05deee8633ce41ebe6feee84441249f1b50d1575a6707cbc718918fd2906020016108c3565b600754421015610c445760405162461bcd60e51b815260206004820152601960248201527f646561646c696e65206d7573742068617665207061737365640000000000000060448201526064016107b4565b6002546001600160a01b03163314610cc45760405162461bcd60e51b815260206004820152603a60248201527f636865636b43616d706169676e4f626a6563746976655265616368656428293a60448201527f2043616c6c6572206d75737420626520696e666c75656e63657200000000000060648201526084016107b4565b81610d375760405162461bcd60e51b815260206004820152603660248201527f636865636b43616d706169676e4f626a6563746976655265616368656428293a60448201527f20706f737420776173206e6f74206f627461696e65640000000000000000000060648201526084016107b4565b806007541015610dd55760405162461bcd60e51b815260206004820152604f60248201527f636865636b43616d706169676e4f626a6563746976655265616368656428293a60448201527f20696e76616c696420706f73743a20706f7374206d757374206265206265666f60648201527f72652074686520646561646c696e650000000000000000000000000000000000608482015260a4016107b4565b600654811015610e735760405162461bcd60e51b815260206004820152604660248201527f636865636b43616d706169676e4f626a6563746976655265616368656428293a60448201527f20706f7374206d7573742062652061667465722063616d706169676e2073746160648201527f7274446174650000000000000000000000000000000000000000000000000000608482015260a4016107b4565b6040517f706f737400000000000000000000000000000000000000000000000000000000602082015260240160408051601f19818403018152908290528051602091820120601454610100900460e01b7fffffffff0000000000000000000000000000000000000000000000000000000016918301919091529060240160405160208183030381529060405280519060200120036110e857600c54831015610f8d5760405162461bcd60e51b815260206004820152604160248201527f636865636b43616d706169676e4f626a6563746976655265616368656428293a60448201527f206a61636b706f7420746172676574206d7573742062652073617469736669656064820152601960fa1b608482015260a4016107b4565b610f9781426125e5565b600981905560085411156110395760405162461bcd60e51b815260206004820152604a60248201527f636865636b43616d706169676e4f626a6563746976655265616368656428293a60448201527f20706f7374206475726174696f6e206d757374206d656574207265717569726560648201527f64206475726174696f6e00000000000000000000000000000000000000000000608482015260a4016107b4565b600d805460ff19166001908117909155600a546040517fe02d4b153cb00a6da43e813b4e3c7f603966e02eb2a6c5a5f6324cb0f7fd769292611085929015158252602082015260400190565b60405180910390a160075461109c9061a8c06125fc565b6007819055600a546040517fdb02a8b2d1e15351fb613b65b230651757f425365aecc087b92e1710218357a1926110db92908252602082015260400190565b60405180910390a1505050565b600b548310156111865760405162461bcd60e51b815260206004820152605b60248201527f636865636b43616d706169676e4f626a6563746976655265616368656428293a60448201527f20706f7374206d757374206174206c656173742062652067726561746572207460648201527f68616e20696e6372656d656e74616c20746f2067657420706169640000000000608482015260a4016107b4565b600c54831061131b57600c548310156112115760405162461bcd60e51b815260206004820152604160248201527f636865636b43616d706169676e4f626a6563746976655265616368656428293a60448201527f206a61636b706f7420746172676574206d7573742062652073617469736669656064820152601960fa1b608482015260a4016107b4565b600b5461121e9084612614565b60158181556001916000906112349084906125e5565b9091555050600d805461ffff19166101011790556007546112579061a8c06125fc565b600755601554600a546040517f9b3f0e4756b97e4c61d863b0fd505500511987b87a434620e87f811f701b40199261129792908252602082015260400190565b60405180910390a1600a54604080516001815260208101929092527fe02d4b153cb00a6da43e813b4e3c7f603966e02eb2a6c5a5f6324cb0f7fd7692910160405180910390a17fdb02a8b2d1e15351fb613b65b230651757f425365aecc087b92e1710218357a1600754600a546040516110db929190918252602082015260400190565b600b546113289084612614565b6015819055600d805461ff001916610100179055600a546040517f9b3f0e4756b97e4c61d863b0fd505500511987b87a434620e87f811f701b40199261108592908252602082015260400190565b6003546001600160a01b031633148061139957506002546001600160a01b031633145b61140b5760405162461bcd60e51b815260206004820152603660248201527f4f6e6c792074686520627573696e657373206f7220696e666c75656e6365722060448201527f63616e2063616c6c20746869732066756e6374696f6e0000000000000000000060648201526084016107b4565b60075442101561145d5760405162461bcd60e51b815260206004820152601960248201527f646561646c696e65206d7573742068617665207061737365640000000000000060448201526064016107b4565b600d5460ff16806114755750600d54610100900460ff165b8061148257506000601054115b6114f45760405162461bcd60e51b815260206004820152603460248201527f706179496e666c75656e63657228293a20636f6e646974696f6e7320666f722060448201527f7061796d656e742077657265206e6f74206d657400000000000000000000000060648201526084016107b4565b60145460ff161561156d5760405162461bcd60e51b815260206004820152603a60248201527f706179496e666c75656e63657228293a2043616e6e6f7420636f6d706c65746560448201527f207061796f7574207768656e20756e6465722070726f7465737400000000000060648201526084016107b4565b600d5460ff16156116145760055447101561158757600080fd5b6002546005546040516001600160a01b039092169181156108fc0291906000818181858888f193505050501580156115c3573d6000803e3d6000fd5b50600d805460ff19169055600554600a546040517f314b8d1c1fcf6a0803dd4c073d3a198302a249e6e1e0a6ce20a289f6f61c80e89261160b92908252602082015260400190565b60405180910390a15b600d54610100900460ff161561180b576004544710156116c25760405162461bcd60e51b815260206004820152604f60248201527f706179496e666c75656e63657228293a2074686520617474656d70746564207060448201527f61796f7574206973206d6f7265207468616e206973206465706f73697465642060648201527f696e207468652063616d706169676e0000000000000000000000000000000000608482015260a4016107b4565b60016015541061177b5760006116e560045460155461250790919063ffffffff16565b6002546040519192506001600160a01b03169082156108fc029083906000818181858888f19350505050158015611720573d6000803e3d6000fd5b5060006015819055600d805461ff0019169055600a546040805184815260208101939093528201527f87b5dda082866a70c4b6b0385cf225fc12d16f7ce514f116e058442d58c159ae9060600160405180910390a15061180b565b6002546004546040516001600160a01b039092169181156108fc0291906000818181858888f193505050501580156117b7573d6000803e3d6000fd5b50600d805461ff0019169055600454601554600a5460408051938452602084019290925282820152517f7307a3d84e5bec561453196b4ecdf7841d6ce57ce51f495c86a42820b4d808d79181900360600190a15b6010541561189e576002546010546040516001600160a01b039092169181156108fc0291906000818181858888f1935050505015801561184f573d6000803e3d6000fd5b50600254600a546040805134815260208101929092526001600160a01b03909216917f9267f0dfa25dfb1e1a3676fdbc79fd9c57356e61c7da6a6865a492a68934e33f91015b60405180910390a25b565b6003546001600160a01b03163314806118c357506002546001600160a01b031633145b6119355760405162461bcd60e51b815260206004820152603660248201527f4f6e6c792074686520627573696e657373206f7220696e666c75656e6365722060448201527f63616e2063616c6c20746869732066756e6374696f6e0000000000000000000060648201526084016107b4565b600d5460ff168061194d5750600d54610100900460ff165b6119bf5760405162461bcd60e51b815260206004820152603b60248201527f72656d6f76654772616365506572696f6428293a206f6e6c79206170706c696360448201527f61626c65207768656e207061796f757420697320696e626f756e64000000000060648201526084016107b4565b8180156119c95750805b611a455760405162461bcd60e51b815260206004820152604160248201527f72656d6f76654772616365506572696f6428293a20626f74682073696465732060448201527f6d75737420616772656520746f2072656d6f766520677261636520706572696f6064820152601960fa1b608482015260a4016107b4565b61a8c060076000828254611a5991906125e5565b90915550505050565b6003546001600160a01b03163314611acd5760405162461bcd60e51b815260206004820152602860248201527f4f6e6c792074686520627573696e6573732063616e2063616c6c207468697320604482015267333ab731ba34b7b760c11b60648201526084016107b4565b600754421015611b1f5760405162461bcd60e51b815260206004820152601960248201527f646561646c696e65206d7573742068617665207061737365640000000000000060448201526064016107b4565b600181151514611b975760405162461bcd60e51b815260206004820152603660248201527f70726f7465737443616d706169676e28293a2c2070726f74657374206d75737460448201527f20626520616761696e73742076616c696420706f73740000000000000000000060648201526084016107b4565b506014805460ff19166001179055565b6003546001600160a01b03163314611c125760405162461bcd60e51b815260206004820152602860248201527f4f6e6c792074686520627573696e6573732063616e2063616c6c207468697320604482015267333ab731ba34b7b760c11b60648201526084016107b4565b478110611c875760405162461bcd60e51b815260206004820152603d60248201527f627573696e657373436f6e6669726d5061796d656e7428293a20616d6f756e7460448201527f206d757374206265206c6f776572207468616e206465706f736974656400000060648201526084016107b4565b80600f5403611ccf576010819055600a546040805183815260208101929092527f859acba95569b989faed0b5847b81d3322101fad39cb630fbff66650d927f40a9101610877565b600e819055600a5460405133917f5ec687808561cc4f397da0698e1f69c8291cca10164709ac4ecaea07b1935f1f916108c391858252602082015260400190565b6003546001600160a01b03163314611d7b5760405162461bcd60e51b815260206004820152602860248201527f4f6e6c792074686520627573696e6573732063616e2063616c6c207468697320604482015267333ab731ba34b7b760c11b60648201526084016107b4565b4260075411611df25760405162461bcd60e51b815260206004820152603260248201527f6465706f7369745061796d656e7428293a205468652063616d706169676e206460448201527f6561646c696e652068617320706173736564000000000000000000000000000060648201526084016107b4565b60003411611e685760405162461bcd60e51b815260206004820152603a60248201527f6465706f7369745061796d656e7428293a20596f75206d757374206465706f7360448201527f6974206d6f6e657920696e746f2074686520636f6e747261637400000000000060648201526084016107b4565b600d805461ffff19169055600a5460405133917fb75c5efb8f695c77c10eab316b5f4b02cb281e500c8a4e5474d1c3e19d5820029161189591348252602082015260400190565b6002546001600160a01b03163314611f1c5760405162461bcd60e51b815260206004820152602a60248201527f4f6e6c792074686520696e666c75656e6365722063616e2063616c6c207468696044820152693990333ab731ba34b7b760b11b60648201526084016107b4565b80421115611f925760405162461bcd60e51b815260206004820152603e60248201527f657874656e64446561646c696e6528293a206e657720646561646c696e65206d60448201527f757374206265206166746572206578697374696e6720646561646c696e65000060648201526084016107b4565b8060125403611fda576007819055600a546040805183815260208101929092527f53363e7eeef177f60d15e790e42c0cc492e5bee81887ced1390b5c2553ad2a2a9101610877565b6013819055600a5460405133917ffaf8d0ecbce5f21aac208a70f273a45f3e8e2ab16a2586ad54c9fc2626fbccd3916108c391858252602082015260400190565b6002546001600160a01b031633146120885760405162461bcd60e51b815260206004820152602a60248201527f4f6e6c792074686520696e666c75656e6365722063616e2063616c6c207468696044820152693990333ab731ba34b7b760b11b60648201526084016107b4565b6011805461ff00191661010083151502179055600a5460405190815233907f64a41bc05deee8633ce41ebe6feee84441249f1b50d1575a6707cbc718918fd2906020016108c3565b6002546001600160a01b0316331461213d5760405162461bcd60e51b815260206004820152602a60248201527f4f6e6c792074686520696e666c75656e6365722063616e2063616c6c207468696044820152693990333ab731ba34b7b760b11b60648201526084016107b4565b4781106121b25760405162461bcd60e51b815260206004820152603d60248201527f627573696e657373436f6e6669726d5061796d656e7428293a20616d6f756e7460448201527f206d757374206265206c6f776572207468616e206465706f736974656400000060648201526084016107b4565b80600e54036121fa576010819055600a546040805183815260208101929092527f859acba95569b989faed0b5847b81d3322101fad39cb630fbff66650d927f40a9101610877565b600f819055600a5460405133917f5ec687808561cc4f397da0698e1f69c8291cca10164709ac4ecaea07b1935f1f916108c391858252602082015260400190565b600154604051632474521560e21b81527fdf8b4c520ffe197c5343c6f5aec59570151ef9a492f2c624fd45ddde6135ec4260048201523360248201526001600160a01b03909116906391d1485490604401602060405180830381865afa1580156122a9573d6000803e3d6000fd5b505050506040513d601f19601f820116820180604052508101906122cd9190612636565b6123235760405162461bcd60e51b815260206004820152602160248201527f4f6e6c792061646d696e2063616e2063616c6c20746869732066756e6374696f6044820152603760f91b60648201526084016107b4565b60145460ff16610aec5760405162461bcd60e51b815260206004820152603c60248201527f7265736f6c766550726f7465737428293a2063616e6e6f742063616e63656c2060448201527f70726f74657374206966206e6f7420756e6465722070726f746573740000000060648201526084016107b4565b600154604051632474521560e21b81527fdf8b4c520ffe197c5343c6f5aec59570151ef9a492f2c624fd45ddde6135ec4260048201523360248201526001600160a01b03909116906391d1485490604401602060405180830381865afa158015612409573d6000803e3d6000fd5b505050506040513d601f19601f8201168201806040525081019061242d9190612636565b6124835760405162461bcd60e51b815260206004820152602160248201527f4f6e6c792061646d696e2063616e2063616c6c20746869732066756e6374696f6044820152603760f91b60648201526084016107b4565b60145460ff166124fb5760405162461bcd60e51b815260206004820152603c60248201527f7265736f6c766550726f7465737428293a2063616e6e6f742063616e63656c2060448201527f70726f74657374206966206e6f7420756e6465722070726f746573740000000060648201526084016107b4565b6014805460ff19169055565b60006125138284612653565b9392505050565b60006020828403121561252c57600080fd5b5035919050565b80151581146108cc57600080fd5b60006020828403121561255357600080fd5b813561251381612533565b60008060006060848603121561257357600080fd5b83359250602084013561258581612533565b929592945050506040919091013590565b600080604083850312156125a957600080fd5b82356125b481612533565b915060208301356125c481612533565b809150509250929050565b634e487b7160e01b600052601160045260246000fd5b6000828210156125f7576125f76125cf565b500390565b6000821982111561260f5761260f6125cf565b500190565b60008261263157634e487b7160e01b600052601260045260246000fd5b500490565b60006020828403121561264857600080fd5b815161251381612533565b600081600019048311821515161561266d5761266d6125cf565b50029056fea2646970667358221220b2b95099e20f8e4b4863185a88c16e995f236b65b5018b8c4aa9123a940ba21c64736f6c634300080e003360806040819052600f805460ff60c01b19169055620025e8388190039081908339810160408190526200003291620001aa565b60016000819055506000600160006101000a81548160ff02191690831515021790555084600f60006101000a8154816001600160a01b0302191690836001600160a01b031602179055508b6005819055508a6006819055508960078190555088600381905550876009819055508361ffff16600c819055508061ffff16600d81905550816001806101000a8154816001600160a01b0302191690836001600160a01b0316021790555082600f60146101000a81548163ffffffff021916908360e01c0217905550866008819055506000651d985c941bdd60d21b9050600065199a5e141bdd60d21b905081880362000132576001805460ff60a81b191690555b80880362000153576001805460ff60a81b1916600160a81b17905560048b90555b50504760025550620002719a5050505050505050505050565b6001600160a01b03811681146200018257600080fd5b50565b805162000192816200016c565b919050565b805161ffff811681146200019257600080fd5b6000806000806000806000806000806000806101808d8f031215620001ce57600080fd5b8c519b5060208d01519a5060408d0151995060608d0151985060808d0151975060a08d0151965060c08d0151955060e08d01516200020c816200016c565b94506200021d6101008e0162000197565b6101208e01519094506001600160e01b0319811681146200023d57600080fd5b92506200024e6101408e0162000185565b91506200025f6101608e0162000197565b90509295989b509295989b509295989b565b61236780620002816000396000f3fe60806040526004361061024f5760003560e01c8063698eb84911610138578063bc8711fd116100b0578063d24e794b1161007f578063e74dc11c11610064578063e74dc11c14610774578063f318e55714610794578063f4de5e1a146107a75761024f565b8063d24e794b1461073f578063dba27bae146107545761024f565b8063bc8711fd146106e8578063bcc941b6146106fd578063c32d4b7b14610713578063cde8e5d3146107295761024f565b80638ed5b0fc11610107578063a58d20f4116100ec578063a58d20f414610684578063b3000d35146106a4578063b3ca1f3b146106ba5761024f565b80638ed5b0fc146106385780639ebd69931461064e5761024f565b8063698eb849146105ba57806372a998ea146105da57806375b238fc146105ef5780638456cb59146106235761024f565b80633869cbfa116101cb5780633f4ba83a1161019a5780635c975abb1161017f5780635c975abb1461055557806367d30aa21461057957806368ad436f146105995761024f565b80633f4ba83a1461052a578063405088a71461053f5761024f565b80633869cbfa146104a757806338ed2712146104bd5780633bc47fbe146104f55780633e079f3f1461050a5761024f565b806324924bf71161022257806329dcb0cf1161020757806329dcb0cf146104655780632de001c71461047b5780632fe289b3146104915761024f565b806324924bf7146103b757806329473a53146103cd5761024f565b80630a86a71a146103135780630b97bc861461033c57806314f1586a14610352578063188ec356146103a4575b600f546001600160a01b031633146102bf5760405162461bcd60e51b815260206004820152602860248201527f4f6e6c792074686520627573696e6573732063616e2063616c6c207468697320604482015267333ab731ba34b7b760c11b60648201526084015b60405180910390fd5b6006544210156103115760405162461bcd60e51b815260206004820152601960248201527f646561646c696e65206d7573742068617665207061737365640000000000000060448201526064016102b6565b005b34801561031f57600080fd5b50610329600b5481565b6040519081526020015b60405180910390f35b34801561034857600080fd5b5061032960055481565b34801561035e57600080fd5b50600f5461037390600160a01b900460e01b81565b6040517fffffffff000000000000000000000000000000000000000000000000000000009091168152602001610333565b3480156103b057600080fd5b5042610329565b3480156103c357600080fd5b50610329600c5481565b3480156103d957600080fd5b5061042d6103e83660046121e0565b601260205260009081526040902080546001909101546001600160a01b0382169160ff600160a01b8204811692600160a81b8304821692600160b01b90049091169085565b604080516001600160a01b0390961686529315156020860152911515928401929092529015156060830152608082015260a001610333565b34801561047157600080fd5b5061032960065481565b34801561048757600080fd5b5061032960045481565b34801561049d57600080fd5b5061032960095481565b3480156104b357600080fd5b5061032960075481565b3480156104c957600080fd5b506104dd6104d8366004612210565b6107c7565b6040516001600160a01b039091168152602001610333565b34801561050157600080fd5b506103116107f1565b34801561051657600080fd5b506103116105253660046121e0565b610a09565b34801561053657600080fd5b50610311610c52565b34801561054b57600080fd5b50610329600a5481565b34801561056157600080fd5b5060015460ff165b6040519015158152602001610333565b34801561058557600080fd5b50610311610594366004612237565b610d48565b3480156105a557600080fd5b50600f5461056990600160c01b900460ff1681565b3480156105c657600080fd5b506103116105d53660046121e0565b6112cc565b3480156105e657600080fd5b5061031161160b565b3480156105fb57600080fd5b506103297fdf8b4c520ffe197c5343c6f5aec59570151ef9a492f2c624fd45ddde6135ec4281565b34801561062f57600080fd5b50610311611a2b565b34801561064457600080fd5b5061032960085481565b34801561065a57600080fd5b506104dd6106693660046121e0565b6013602052600090815260409020546001600160a01b031681565b34801561069057600080fd5b506104dd61069f366004612210565b611b1f565b3480156106b057600080fd5b5061032960035481565b3480156106c657600080fd5b506001546106db90600160a81b900460ff1681565b6040516103339190612285565b3480156106f457600080fd5b50601154610329565b34801561070957600080fd5b50610329600e5481565b34801561071f57600080fd5b5061032960025481565b34801561073557600080fd5b50610329600d5481565b34801561074b57600080fd5b50610311611b2f565b34801561076057600080fd5b5061031161076f3660046121e0565b611e0d565b34801561078057600080fd5b50600f546104dd906001600160a01b031681565b3480156107a057600080fd5b5047610329565b3480156107b357600080fd5b506103116107c23660046121e0565b611f4b565b601181815481106107d757600080fd5b6000918252602090912001546001600160a01b0316905081565b600f546001600160a01b0316331461085c5760405162461bcd60e51b815260206004820152602860248201527f4f6e6c792074686520627573696e6573732063616e2063616c6c207468697320604482015267333ab731ba34b7b760c11b60648201526084016102b6565b6006544210156108ae5760405162461bcd60e51b815260206004820152601960248201527f646561646c696e65206d7573742068617665207061737365640000000000000060448201526064016102b6565b600f54600160c01b900460ff161561092e5760405162461bcd60e51b815260206004820152603a60248201527f63616d706169676e456e64656428293a2063616e6e6f7420656e642063616d7060448201527f6169676e207468617420697320756e6465722070726f7465737400000000000060648201526084016102b6565b6011546201595090156109be578060065461094991906122c3565b4210156109be5760405162461bcd60e51b815260206004820152602d60248201527f63616d706169676e456e64656428293a20677261636520636173686f7574207060448201527f6572696f64206f6e676f696e670000000000000000000000000000000000000060648201526084016102b6565b6008546040805147815260208101929092527f706cd8a8437103c208468aa802ad1abee5e1c662b77f9506a80137f5677062ef910160405180910390a1600f546001600160a01b0316ff5b600f546001600160a01b0316331480610ab35750600154604051632474521560e21b81527fdf8b4c520ffe197c5343c6f5aec59570151ef9a492f2c624fd45ddde6135ec4260048201523360248201526101009091046001600160a01b0316906391d1485490604401602060405180830381865afa158015610a8f573d6000803e3d6000fd5b505050506040513d601f19601f82011682018060405250810190610ab391906122db565b610aff5760405162461bcd60e51b815260206004820181905260248201527f43616c6c6572206d75737420626520627573696e657373206f722061646d696e60448201526064016102b6565b600f54600160c01b900460ff16610b7e5760405162461bcd60e51b815260206004820152603c60248201527f7265736f6c766550726f7465737428293a2063616e6e6f742063616e63656c2060448201527f70726f74657374206966206e6f7420756e6465722070726f746573740000000060648201526084016102b6565b6001600160a01b038116600090815260126020526040902054600160b01b900460ff16610c135760405162461bcd60e51b815260206004820152603f60248201527f70726f7465737457696e6e696e67496e666c75656e63657228293a20696e666c60448201527f75656e63657220697320616c726561647920756e6465722070726f746573740060648201526084016102b6565b6001600160a01b0381166000908152601260205260409020805460ff60b01b1916905560105460011115610c4f57600f805460ff60c01b191690555b50565b600154604051632474521560e21b81527fdf8b4c520ffe197c5343c6f5aec59570151ef9a492f2c624fd45ddde6135ec4260048201523360248201526101009091046001600160a01b0316906391d1485490604401602060405180830381865afa158015610cc4573d6000803e3d6000fd5b505050506040513d601f19601f82011682018060405250810190610ce891906122db565b610d3e5760405162461bcd60e51b815260206004820152602160248201527f4f6e6c792061646d696e2063616e2063616c6c20746869732066756e6374696f6044820152603760f91b60648201526084016102b6565b610d466120be565b565b600260005403610d9a5760405162461bcd60e51b815260206004820152601f60248201527f5265656e7472616e637947756172643a207265656e7472616e742063616c6c0060448201526064016102b6565b6002600055600654421015610df15760405162461bcd60e51b815260206004820152601960248201527f646561646c696e65206d7573742068617665207061737365640000000000000060448201526064016102b6565b336000818152601260205260409020546001600160a01b031614610e7d5760405162461bcd60e51b815260206004820152603e60248201527f636865636b43616d706169676e4f626a6563746976655265616368656428293a60448201527f204d757374206265207265676973746572656420696e666c75656e636572000060648201526084016102b6565b81610ef05760405162461bcd60e51b815260206004820152603660248201527f636865636b43616d706169676e4f626a6563746976655265616368656428293a60448201527f20706f737420776173206e6f74206f627461696e65640000000000000000000060648201526084016102b6565b600654811115610f8e5760405162461bcd60e51b815260206004820152604160248201527f636865636b43616d706169676e4f626a6563746976655265616368656428293a60448201527f20706f7374206d757374206265206265666f72652074686520646561646c696e60648201527f6500000000000000000000000000000000000000000000000000000000000000608482015260a4016102b6565b60055481101561102c5760405162461bcd60e51b815260206004820152604660248201527f636865636b43616d706169676e4f626a6563746976655265616368656428293a60448201527f20706f7374206d7573742062652061667465722063616d706169676e2073746160648201527f7274446174650000000000000000000000000000000000000000000000000000608482015260a4016102b6565b6009548310156110ca5760405162461bcd60e51b815260206004820152604160248201527f636865636b43616d706169676e4f626a6563746976655265616368656428293a60448201527f206a61636b706f7420746172676574206d75737420626520736174697366696560648201527f6400000000000000000000000000000000000000000000000000000000000000608482015260a4016102b6565b33600090815260126020526040902054600160a81b900460ff16156111575760405162461bcd60e51b815260206004820152603a60248201527f636865636b43616d706169676e4f626a6563746976655265616368656428293a60448201527f2077696e6e657220616c7265616479207265676973746572656400000000000060648201526084016102b6565b6011805460018101825560008290527f31ecc21a745e3968a04e9570e4425bc18fa8019c68028196b546d1669c200c6801805473ffffffffffffffffffffffffffffffffffffffff19163317905554600d54101561121d5760405162461bcd60e51b815260206004820152603960248201527f636865636b43616d706169676e4f626a6563746976655265616368656428293a60448201527f20746f6f206d616e792077696e6e65727320636c61696d65640000000000000060648201526084016102b6565b33600090815260126020526040902080547fffffffffffffffffffff00ffffffffffffffffffffffffffffffffffffffffff16600160a81b179055601154600e5560065461126d9061a8c06122c3565b336000818152601260205260409081902060010192909255600854915190917f40b18b4fd4318bad0d693bfde0830f58e4a305303442a1dd589bc87a900cde01916112ba91815260200190565b60405180910390a25050600160005550565b600154604051632474521560e21b81527fdf8b4c520ffe197c5343c6f5aec59570151ef9a492f2c624fd45ddde6135ec4260048201523360248201526101009091046001600160a01b0316906391d1485490604401602060405180830381865afa15801561133e573d6000803e3d6000fd5b505050506040513d601f19601f8201168201806040525081019061136291906122db565b6113b85760405162461bcd60e51b815260206004820152602160248201527f4f6e6c792061646d696e2063616e2063616c6c20746869732066756e6374696f6044820152603760f91b60648201526084016102b6565b6001600160a01b0381811660009081526013602052604090205416156114465760405162461bcd60e51b815260206004820152603560248201527f626c61636b6c697374496e666c75656e63657228293a20696e666c75656e636560448201527f7220616c726561647920626c61636b6c6973746564000000000000000000000060648201526084016102b6565b6001600160a01b038116600090815260126020526040902054600160b01b900460ff166114db5760405162461bcd60e51b815260206004820152603360248201527f626c61636b6c697374496e666c75656e63657228293a20696e666c75656e636560448201527f72206e6f7420756e6465722070726f746573740000000000000000000000000060648201526084016102b6565b6040805160a0810182526000808252602080830182815283850183815260608501848152608086018581526001600160a01b0389811680885260128752898820985189549651955194511515600160b01b0260ff60b01b19951515600160a81b029590951661ffff60a81b19961515600160a01b0274ffffffffffffffffffffffffffffffffffffffffff199098169190931617959095179390931692909217178555516001948501556013909152929020805473ffffffffffffffffffffffffffffffffffffffff191690921790915560105410156115c357600f805460ff60c01b191690555b806001600160a01b03167faaab3b3610b85801738dabadc712a87adb9ad971d1f7ba61f88ca16a5248572c60085460405161160091815260200190565b60405180910390a250565b60026000540361165d5760405162461bcd60e51b815260206004820152601f60248201527f5265656e7472616e637947756172643a207265656e7472616e742063616c6c0060448201526064016102b6565b6002600090815533815260126020526040902054600160a81b900460ff166116ed5760405162461bcd60e51b815260206004820152603060248201527f4f6e6c7920612077696e6e696e6720696e666c75656e6365722063616e20636160448201527f6c6c20746869732066756e6374696f6e0000000000000000000000000000000060648201526084016102b6565b60065442101561173f5760405162461bcd60e51b815260206004820152601960248201527f646561646c696e65206d7573742068617665207061737365640000000000000060448201526064016102b6565b33600090815260126020526040902054600160a01b900460ff16156117cc5760405162461bcd60e51b815260206004820152602c60248201527f706179496e666c75656e63657228293a20696e666c75656e63657220616c726560448201527f6164792070616964206f7574000000000000000000000000000000000000000060648201526084016102b6565b33600090815260126020526040902054600160b01b900460ff16156118595760405162461bcd60e51b815260206004820152603a60248201527f706179496e666c75656e63657228293a2063616e6e6f7420636f6d706c65746560448201527f207061796f7574207768656e20756e6465722070726f7465737400000000000060648201526084016102b6565b336000908152601260205260409020600101544210156119075760405162461bcd60e51b815260206004820152604560248201527f706179496e666c75656e63657228293a20696e666c75656e6365722063616e6e60448201527f6f74206265207061696420756e74696c20677261636520706572696f6420697360648201527f206f766572000000000000000000000000000000000000000000000000000000608482015260a4016102b6565b60008060018054600160a81b900460ff16908111156119285761192861226f565b1461193557600454611945565b600e5460025461194591906122f8565b9050600354811180156119755750600060018054600160a81b900460ff16908111156119735761197361226f565b145b1561197f57506003545b604051339082156108fc029083906000818181858888f193505050501580156119ac573d6000803e3d6000fd5b503360008181526012602090815260409182902080547fffffffffffffffffffffff00ffffffffffffffffffffffffffffffffffffffff16600160a01b1790556008548251858152918201527fd15faf65c0a691a42f8e8f948188d9c2451e2c1c3874754a37adf2aa87c82b79910160405180910390a2506001600055565b600154604051632474521560e21b81527fdf8b4c520ffe197c5343c6f5aec59570151ef9a492f2c624fd45ddde6135ec4260048201523360248201526101009091046001600160a01b0316906391d1485490604401602060405180830381865afa158015611a9d573d6000803e3d6000fd5b505050506040513d601f19601f82011682018060405250810190611ac191906122db565b611b175760405162461bcd60e51b815260206004820152602160248201527f4f6e6c792061646d696e2063616e2063616c6c20746869732066756e6374696f6044820152603760f91b60648201526084016102b6565b610d4661215a565b601081815481106107d757600080fd5b600f546001600160a01b03163303611baf5760405162461bcd60e51b815260206004820152603160248201527f616464496e666c75656e63657228293a20627573696e6573732063616e6e6f7460448201527f20626520616e20696e666c75656e63657200000000000000000000000000000060648201526084016102b6565b426006541015611c265760405162461bcd60e51b8152602060048201526024808201527f616464496e666c75656e63657228293a20646561646c696e652068617320706160448201527f737365640000000000000000000000000000000000000000000000000000000060648201526084016102b6565b336000908152601260205260409020546001600160a01b031615611cb25760405162461bcd60e51b815260206004820152602960248201527f616464496e666c75656e63657228293a20696e666c75656e63657220616c726560448201527f616479206164646564000000000000000000000000000000000000000000000060648201526084016102b6565b6001600b6000828254611cc591906122c3565b9091555050600b54600c541015611d1e5760405162461bcd60e51b815260206004820152601c60248201527f616464496e666c75656e63657228293a20626f756e74792066756c6c0000000060448201526064016102b6565b6040805160a081018252338082526000602080840182815284860183815260608601848152608087018581528686526012855294889020965187549351925191511515600160b01b0260ff60b01b19921515600160a81b029290921661ffff60a81b19931515600160a01b0274ffffffffffffffffffffffffffffffffffffffffff199095166001600160a01b03909216919091179390931791909116919091171784559051600190930192909255600b54600854845191825292810192909252917fed9b09e2eb6cd1adaccb9aac720c9d2abb20b65928450021b584755907c8df41910160405180910390a2565b600f546001600160a01b03163314611e785760405162461bcd60e51b815260206004820152602860248201527f4f6e6c792074686520627573696e6573732063616e2063616c6c207468697320604482015267333ab731ba34b7b760c11b60648201526084016102b6565b6001600160a01b038116600090815260126020526040902054600160b01b900460ff1615611f0e5760405162461bcd60e51b815260206004820152603f60248201527f70726f7465737457696e6e696e67496e666c75656e63657228293a20696e666c60448201527f75656e63657220697320616c726561647920756e6465722070726f746573740060648201526084016102b6565b6001600160a01b03166000908152601260205260409020805460ff60b01b1916600160b01b179055600f805460ff60c01b1916600160c01b179055565b600f546001600160a01b03163314611fb65760405162461bcd60e51b815260206004820152602860248201527f4f6e6c792074686520627573696e6573732063616e2063616c6c207468697320604482015267333ab731ba34b7b760c11b60648201526084016102b6565b6040805160a0810182526000808252602080830182815283850183815260608501848152608086018581526001600160a01b0389811687526012909552968520955186549351925191511515600160b01b0260ff60b01b19921515600160a81b029290921661ffff60a81b19931515600160a01b0274ffffffffffffffffffffffffffffffffffffffffff1990951691909516179290921716919091171782559151600191820155600b80549192909161207190849061231a565b9091555050600b546008546040516001600160a01b038416927fed27e8d1e7af17993d8fa60595d08df7071f1dfa257719070ded5c52fb1199c89261160092918252602082015260400190565b60015460ff166121105760405162461bcd60e51b815260206004820152601460248201527f5061757361626c653a206e6f742070617573656400000000000000000000000060448201526064016102b6565b6001805460ff191690557f5db9ee0a495bf2e6ff9c91a7834c1ba4fdd244a5e8aa4e537bd38aeae4b073aa335b6040516001600160a01b03909116815260200160405180910390a1565b60015460ff16156121ad5760405162461bcd60e51b815260206004820152601060248201527f5061757361626c653a207061757365640000000000000000000000000000000060448201526064016102b6565b6001805460ff1916811790557f62e78cea01bee320cd4e420270b5ea74000d11b0c9f74754ebdbfc544b05a2583361213d565b6000602082840312156121f257600080fd5b81356001600160a01b038116811461220957600080fd5b9392505050565b60006020828403121561222257600080fd5b5035919050565b8015158114610c4f57600080fd5b60008060006060848603121561224c57600080fd5b83359250602084013561225e81612229565b929592945050506040919091013590565b634e487b7160e01b600052602160045260246000fd5b60208101600283106122a757634e487b7160e01b600052602160045260246000fd5b91905290565b634e487b7160e01b600052601160045260246000fd5b600082198211156122d6576122d66122ad565b500190565b6000602082840312156122ed57600080fd5b815161220981612229565b60008261231557634e487b7160e01b600052601260045260246000fd5b500490565b60008282101561232c5761232c6122ad565b50039056fea26469706673582212201080ccf3dd55a08d74fe5230d48c796794a19ae4380a0b97eb063c4171405e4064736f6c634300080e0033a2646970667358221220218ae048f93e4382511f3e3a389249026fb062a3ce46bf1d9635cf1d094b338e64736f6c634300080e0033",
  "immutableReferences": {},
  "source": "pragma solidity ^0.8.4;\nimport './Famepay.sol';\nimport './FamepayBounty.sol';\nimport '@openzeppelin/contracts/utils/math/SafeMath.sol';\nimport '@openzeppelin/contracts/security/ReentrancyGuard.sol';\nimport './FamepayAccessControl.sol';\n\n// SPDX-License-Identifier: PRIVATE\n\ncontract FamepayFactory is ReentrancyGuard {\n    using SafeMath for uint256;\n\n    AccessControl accessControl;\n\n    uint256 public campaignPointer;\n\n    address payable private platform;\n\n    bytes32 public constant ADMIN_ROLE = keccak256('ADMIN');\n\n    mapping(uint256 => address) public famepayDeals;\n    mapping(uint256 => address) public famepayBounties;\n\n    event NewFamepayCampaignCreated(\n        address indexed _influencer,\n        address indexed _business,\n        address _campaignAddress,\n        uint256 _campaignId,\n        uint256 _startDate,\n        uint256 _deadline,\n        uint256 _simplePostDuration,\n        uint256 _jackpotPayment,\n        uint256 _incrementalPayment,\n        uint256 _jackpotTargetAmount,\n        uint256 _incrementalTargetAmount,\n        uint256 _potentialPayoutAmount,\n        bytes4 _objective\n    );\n\n    event NewBountyCreated(\n        uint256 _startDate,\n        uint256 _deadline,\n        uint256 _simplePostDuration,\n        uint256 _maxJackpotReward,\n        uint256 _jackpotTargetAmount,\n        uint256 _bountyId,\n        uint256 _escrowedAmount,\n        bytes32 _bountyType,\n        address indexed _business,\n        uint16 _maxParticipants,\n        bytes4 _objective,\n        address _bountyAddress,\n        uint16 _maxWinners\n    );\n\n    constructor(AccessControl _accessControl) {\n        platform = payable(msg.sender);\n        accessControl = _accessControl;\n    }\n\n    /**\n     * @dev create new one-to-one campaign\n     * @param _influencer participating influencer\n     * @param _business participating business\n     * @param _startDate start timestamp of campaign\n     * @param _deadline completion timestamp of campaign\n     * @param _simplePostDuration duration which post must be up\n     * @param _jackpotPayment reward for achieving jackpot objective\n     * @param _incrementalPayment reward for achieving incremental objective\n     * @param _jackpotTargetAmount minimum target metric to achieve jackpot objective\n     * @param _incrementalTargetAmount minimum target metric to achieve incremental objective\n     * @param _potentialPayoutAmount total eth staked in the contract to be earned\n     * @param _objective objective type\n     */\n    function newFamepayCampaign(\n        address payable _influencer,\n        address payable _business,\n        uint256 _startDate,\n        uint256 _deadline,\n        uint256 _simplePostDuration,\n        uint256 _jackpotPayment, //$1000 if we hit 1,000,000 views\n        uint256 _incrementalPayment, //$50 for every 50,000 views    //0 for simple post\n        uint256 _jackpotTargetAmount,\n        uint256 _incrementalTargetAmount, //1 for simple post\n        uint256 _potentialPayoutAmount, //total in contract $2000 //TODO can probably be taken out for msg.value\n        bytes4 _objective\n    ) external payable {\n        if (keccak256(abi.encodePacked(_objective)) != keccak256(abi.encodePacked('post'))) {\n            //ex. 7 payments till jackpot\n            uint256 incrementalPaymentsTillJackpotAmount = _jackpotTargetAmount / _incrementalTargetAmount;\n            //ex. 7 payments is total $400\n            uint256 incrementalPaymentsTillJackpotValue = _incrementalPayment * incrementalPaymentsTillJackpotAmount;\n            //payout must be bigger than totalIncremental reward + jackpot reward\n            require(\n                _potentialPayoutAmount >= _jackpotPayment + incrementalPaymentsTillJackpotValue,\n                'newFamepayCampaign(): Potential payout is invalid'\n            );\n            //all the logic on one line\n            //TODO --> failing in tests\n            // require(\n            //     _potentialPayoutAmount >\n            //         _jackpotPayment.add(_incrementalPayment.mul(_jackpotTargetAmount.div(_incrementalTargetAmount))),\n            //     'newFamepayCampaign(): Potential payout is invalid one line logic'\n            // );\n        } else {\n            require(_simplePostDuration >= 43200, 'newFamepayCampaign(): post must be at least 12 hours');\n            require(_incrementalPayment == 0, 'newFamepayCampaign(): no incremental payment for simple post');\n            require(_incrementalTargetAmount == 0, 'newFamepayCampaign(): no incremental target for simple post');\n            require(\n                _potentialPayoutAmount >= _jackpotPayment,\n                'newFamepayCampaign(): Amount deposited must be greater than reward'\n            );\n        }\n        require(_deadline >= _startDate, 'newFamepayCampaign(): deadline must be after start date');\n        require(_startDate >= block.timestamp, 'newFamepayCampaign(): campaign cannot be in the past');\n        campaignPointer = campaignPointer + 1;\n        uint256 campaignId = campaignPointer;\n        Famepay famepay = new Famepay{value: msg.value}(\n            _influencer,\n            _business,\n            _startDate,\n            _deadline,\n            _simplePostDuration,\n            _jackpotPayment,\n            _incrementalPayment,\n            _jackpotTargetAmount,\n            _incrementalTargetAmount,\n            _objective,\n            campaignId,\n            accessControl\n        );\n        famepayDeals[campaignId] = address(famepay);\n        emit NewFamepayCampaignCreated(\n            _influencer,\n            _business,\n            address(famepay),\n            campaignId,\n            _startDate,\n            _deadline,\n            _simplePostDuration,\n            _jackpotPayment,\n            _incrementalPayment,\n            _jackpotTargetAmount,\n            _incrementalTargetAmount,\n            _potentialPayoutAmount,\n            _objective\n        );\n    }\n\n    /**\n     * @dev create new multi pot\n     * @param _startDate start timestamp of bounty\n     * @param _deadline completion timestamp of bounty\n     * @param _simplePostDuration duration which post must be up\n     * @param _maxJackpotReward max possible reward if jackpot objective achieved. Either fixed or variable!\n     * @param _jackpotTargetAmount metric to achieve jackpot objective\n     * @param _bountyType fixed or variable pot\n     * @param _business participating business\n     * @param _maxParticipants max bounty participants\n     * @param _maxWinners max winners allowed to claim pot\n     * @param _objective objective type\n     */\n    function newFamepayBounty(\n        uint256 _startDate,\n        uint256 _deadline,\n        uint256 _simplePostDuration,\n        uint256 _maxJackpotReward,\n        uint256 _jackpotTargetAmount,\n        bytes32 _bountyType,\n        address payable _business,\n        uint16 _maxParticipants,\n        bytes4 _objective,\n        uint16 _maxWinners\n    ) external payable {\n        require(_maxWinners > 0, 'newFamepayBounty(): at least one winner required');\n        require(_maxParticipants >= _maxWinners, 'newFamepayBounty(): cannot have more winners than participants');\n        require(_deadline > _startDate, 'newFamepayBounty(): deadline must be after startDate');\n\n        require(_startDate >= block.timestamp, 'newFamepayBounty(): campaign cannot be in the past');\n\n        if (keccak256(abi.encodePacked(_objective)) == keccak256(abi.encodePacked('post'))) {\n            require(_simplePostDuration >= 43200, 'newFamepayBounty(): post must be at least 12 hours');\n        }\n\n        uint256 potentialPayout = _maxWinners * _maxJackpotReward;\n        require(msg.value >= potentialPayout, 'newFamepayBounty(): insufficient deposit amount');\n\n        campaignPointer = campaignPointer + 1;\n\n        FamepayBounty famepayBounty = new FamepayBounty{value: msg.value}(\n            _startDate,\n            _deadline,\n            _simplePostDuration,\n            _maxJackpotReward,\n            _jackpotTargetAmount,\n            campaignPointer,\n            _bountyType,\n            _business,\n            _maxParticipants,\n            _objective,\n            accessControl,\n            _maxWinners\n        );\n        famepayBounties[campaignPointer] = address(famepayBounty);\n        emit NewBountyCreated(\n            _startDate,\n            _deadline,\n            _simplePostDuration,\n            _maxJackpotReward,\n            _jackpotTargetAmount,\n            campaignPointer,\n            msg.value,\n            _bountyType,\n            _business,\n            _maxParticipants,\n            _objective,\n            address(famepayBounty),\n            _maxWinners\n        );\n    }\n\n    function checkTimestamp() external view returns (uint256) {\n        return block.timestamp;\n    }\n}\n\n\n",
  "sourcePath": "/Users/benweinberg/Desktop/Work/FamePay/FamePayContract/contracts/FamepayFactory.sol",
  "compiler": {
    "name": "solc",
    "version": "0.8.14+commit.80d49f37.Emscripten.clang"
  },
  "schemaVersion": "3.4.3",
  "updatedAt": "2022-06-10T19:36:10.512Z",
  "networkType": "ethereum",
  "devdoc": {
    "kind": "dev",
    "methods": {
      "newFamepayBounty(uint256,uint256,uint256,uint256,uint256,bytes32,address,uint16,bytes4,uint16)": {
        "details": "create new multi pot",
        "params": {
          "_bountyType": "fixed or variable pot",
          "_business": "participating business",
          "_deadline": "completion timestamp of bounty",
          "_jackpotTargetAmount": "metric to achieve jackpot objective",
          "_maxJackpotReward": "max possible reward if jackpot objective achieved. Either fixed or variable!",
          "_maxParticipants": "max bounty participants",
          "_maxWinners": "max winners allowed to claim pot",
          "_objective": "objective type",
          "_simplePostDuration": "duration which post must be up",
          "_startDate": "start timestamp of bounty"
        }
      },
      "newFamepayCampaign(address,address,uint256,uint256,uint256,uint256,uint256,uint256,uint256,uint256,bytes4)": {
        "details": "create new one-to-one campaign",
        "params": {
          "_business": "participating business",
          "_deadline": "completion timestamp of campaign",
          "_incrementalPayment": "reward for achieving incremental objective",
          "_incrementalTargetAmount": "minimum target metric to achieve incremental objective",
          "_influencer": "participating influencer",
          "_jackpotPayment": "reward for achieving jackpot objective",
          "_jackpotTargetAmount": "minimum target metric to achieve jackpot objective",
          "_objective": "objective type",
          "_potentialPayoutAmount": "total eth staked in the contract to be earned",
          "_simplePostDuration": "duration which post must be up",
          "_startDate": "start timestamp of campaign"
        }
      }
    },
    "version": 1
  },
  "userdoc": {
    "kind": "user",
    "methods": {},
    "version": 1
  }
}