{
  "contractName": "Famepay",
  "abi": [
    {
      "inputs": [
        {
          "internalType": "address payable",
          "name": "_influencer",
          "type": "address"
        },
        {
          "internalType": "address payable",
          "name": "_business",
          "type": "address"
        },
        {
          "internalType": "uint256",
          "name": "_startDate",
          "type": "uint256"
        },
        {
          "internalType": "uint256",
          "name": "_deadline",
          "type": "uint256"
        },
        {
          "internalType": "uint256",
          "name": "_simplePostDuration",
          "type": "uint256"
        },
        {
          "internalType": "uint256",
          "name": "_jackpotPayment",
          "type": "uint256"
        },
        {
          "internalType": "uint256",
          "name": "_incrementalPayment",
          "type": "uint256"
        },
        {
          "internalType": "uint256",
          "name": "_jackpotTargetAmount",
          "type": "uint256"
        },
        {
          "internalType": "uint256",
          "name": "_incrementalTargetAmount",
          "type": "uint256"
        },
        {
          "internalType": "bytes4",
          "name": "_objective",
          "type": "bytes4"
        },
        {
          "internalType": "uint256",
          "name": "_campaignId",
          "type": "uint256"
        }
      ],
      "stateMutability": "payable",
      "type": "constructor"
    },
    {
      "anonymous": false,
      "inputs": [
        {
          "indexed": true,
          "internalType": "address",
          "name": "_influencer",
          "type": "address"
        },
        {
          "indexed": false,
          "internalType": "uint256",
          "name": "_amount",
          "type": "uint256"
        },
        {
          "indexed": false,
          "internalType": "uint256",
          "name": "_campaignId",
          "type": "uint256"
        }
      ],
      "name": "AgreedAmountPayment",
      "type": "event"
    },
    {
      "anonymous": false,
      "inputs": [
        {
          "indexed": true,
          "internalType": "address",
          "name": "_business",
          "type": "address"
        },
        {
          "indexed": false,
          "internalType": "uint256",
          "name": "_amount",
          "type": "uint256"
        },
        {
          "indexed": false,
          "internalType": "uint256",
          "name": "_campaignId",
          "type": "uint256"
        }
      ],
      "name": "BusinessDeposited",
      "type": "event"
    },
    {
      "anonymous": false,
      "inputs": [
        {
          "indexed": true,
          "internalType": "address",
          "name": "_business",
          "type": "address"
        },
        {
          "indexed": false,
          "internalType": "uint256",
          "name": "_amount",
          "type": "uint256"
        },
        {
          "indexed": false,
          "internalType": "uint256",
          "name": "_campaignId",
          "type": "uint256"
        }
      ],
      "name": "BusinessRefunded",
      "type": "event"
    },
    {
      "anonymous": false,
      "inputs": [
        {
          "indexed": false,
          "internalType": "uint256",
          "name": "_refundableAmount",
          "type": "uint256"
        },
        {
          "indexed": false,
          "internalType": "bool",
          "name": "_jackpotObjectiveReached",
          "type": "bool"
        },
        {
          "indexed": false,
          "internalType": "uint256",
          "name": "_campaignId",
          "type": "uint256"
        }
      ],
      "name": "CampaignEnding",
      "type": "event"
    },
    {
      "anonymous": false,
      "inputs": [
        {
          "indexed": true,
          "internalType": "address",
          "name": "_influencer",
          "type": "address"
        },
        {
          "indexed": false,
          "internalType": "bool",
          "name": "_jackpotObjectiveReached",
          "type": "bool"
        },
        {
          "indexed": false,
          "internalType": "uint256",
          "name": "_campaignId",
          "type": "uint256"
        }
      ],
      "name": "CampaignTerminationIncrementPayment",
      "type": "event"
    },
    {
      "anonymous": false,
      "inputs": [
        {
          "indexed": true,
          "internalType": "address",
          "name": "_influencer",
          "type": "address"
        },
        {
          "indexed": false,
          "internalType": "bool",
          "name": "_jackpotObjectiveReached",
          "type": "bool"
        },
        {
          "indexed": false,
          "internalType": "uint256",
          "name": "_campaignId",
          "type": "uint256"
        }
      ],
      "name": "CampaignTerminationJackpotPayment",
      "type": "event"
    },
    {
      "anonymous": false,
      "inputs": [
        {
          "indexed": false,
          "internalType": "uint256",
          "name": "_newDeadline",
          "type": "uint256"
        },
        {
          "indexed": false,
          "internalType": "uint256",
          "name": "_campaignId",
          "type": "uint256"
        }
      ],
      "name": "ExtendDeadline",
      "type": "event"
    },
    {
      "anonymous": false,
      "inputs": [
        {
          "indexed": false,
          "internalType": "uint256",
          "name": "_amount",
          "type": "uint256"
        },
        {
          "indexed": false,
          "internalType": "uint256",
          "name": "_amountOfIncrementalPayments",
          "type": "uint256"
        },
        {
          "indexed": false,
          "internalType": "uint256",
          "name": "_campaignId",
          "type": "uint256"
        }
      ],
      "name": "IncrementInfluencerPayment",
      "type": "event"
    },
    {
      "anonymous": false,
      "inputs": [
        {
          "indexed": false,
          "internalType": "uint256",
          "name": "_incrementalTargetsReached",
          "type": "uint256"
        },
        {
          "indexed": false,
          "internalType": "uint256",
          "name": "_campaignId",
          "type": "uint256"
        }
      ],
      "name": "IncrementalTargetReached",
      "type": "event"
    },
    {
      "anonymous": false,
      "inputs": [
        {
          "indexed": false,
          "internalType": "uint256",
          "name": "_amount",
          "type": "uint256"
        },
        {
          "indexed": false,
          "internalType": "uint256",
          "name": "_campaignId",
          "type": "uint256"
        }
      ],
      "name": "InvalidWithdrawal",
      "type": "event"
    },
    {
      "anonymous": false,
      "inputs": [
        {
          "indexed": false,
          "internalType": "uint256",
          "name": "_amount",
          "type": "uint256"
        },
        {
          "indexed": false,
          "internalType": "uint256",
          "name": "_campaignId",
          "type": "uint256"
        }
      ],
      "name": "JackpotInfluencerPayment",
      "type": "event"
    },
    {
      "anonymous": false,
      "inputs": [
        {
          "indexed": false,
          "internalType": "bool",
          "name": "_targetReached",
          "type": "bool"
        },
        {
          "indexed": false,
          "internalType": "uint256",
          "name": "_campaignId",
          "type": "uint256"
        }
      ],
      "name": "JackpotTargetReached",
      "type": "event"
    },
    {
      "inputs": [],
      "name": "business",
      "outputs": [
        {
          "internalType": "address payable",
          "name": "",
          "type": "address"
        }
      ],
      "stateMutability": "view",
      "type": "function"
    },
    {
      "inputs": [],
      "name": "businessConfirmed",
      "outputs": [
        {
          "internalType": "bool",
          "name": "",
          "type": "bool"
        }
      ],
      "stateMutability": "view",
      "type": "function"
    },
    {
      "inputs": [],
      "name": "campaignId",
      "outputs": [
        {
          "internalType": "uint256",
          "name": "",
          "type": "uint256"
        }
      ],
      "stateMutability": "view",
      "type": "function"
    },
    {
      "inputs": [],
      "name": "deadline",
      "outputs": [
        {
          "internalType": "uint256",
          "name": "",
          "type": "uint256"
        }
      ],
      "stateMutability": "view",
      "type": "function"
    },
    {
      "inputs": [
        {
          "internalType": "address",
          "name": "",
          "type": "address"
        }
      ],
      "name": "depositedFor",
      "outputs": [
        {
          "internalType": "uint256",
          "name": "",
          "type": "uint256"
        }
      ],
      "stateMutability": "view",
      "type": "function"
    },
    {
      "inputs": [],
      "name": "exceededObjectiveAmount",
      "outputs": [
        {
          "internalType": "uint256",
          "name": "",
          "type": "uint256"
        }
      ],
      "stateMutability": "view",
      "type": "function"
    },
    {
      "inputs": [],
      "name": "incrementalPayment",
      "outputs": [
        {
          "internalType": "uint256",
          "name": "",
          "type": "uint256"
        }
      ],
      "stateMutability": "view",
      "type": "function"
    },
    {
      "inputs": [],
      "name": "incrementalTargetAmount",
      "outputs": [
        {
          "internalType": "uint256",
          "name": "",
          "type": "uint256"
        }
      ],
      "stateMutability": "view",
      "type": "function"
    },
    {
      "inputs": [],
      "name": "incrementalTargetReached",
      "outputs": [
        {
          "internalType": "bool",
          "name": "",
          "type": "bool"
        }
      ],
      "stateMutability": "view",
      "type": "function"
    },
    {
      "inputs": [],
      "name": "influencer",
      "outputs": [
        {
          "internalType": "address payable",
          "name": "",
          "type": "address"
        }
      ],
      "stateMutability": "view",
      "type": "function"
    },
    {
      "inputs": [],
      "name": "influencerConfirmed",
      "outputs": [
        {
          "internalType": "bool",
          "name": "",
          "type": "bool"
        }
      ],
      "stateMutability": "view",
      "type": "function"
    },
    {
      "inputs": [],
      "name": "jackpotPayment",
      "outputs": [
        {
          "internalType": "uint256",
          "name": "",
          "type": "uint256"
        }
      ],
      "stateMutability": "view",
      "type": "function"
    },
    {
      "inputs": [],
      "name": "jackpotTargetAmount",
      "outputs": [
        {
          "internalType": "uint256",
          "name": "",
          "type": "uint256"
        }
      ],
      "stateMutability": "view",
      "type": "function"
    },
    {
      "inputs": [],
      "name": "jackpotTargetReached",
      "outputs": [
        {
          "internalType": "bool",
          "name": "",
          "type": "bool"
        }
      ],
      "stateMutability": "view",
      "type": "function"
    },
    {
      "inputs": [],
      "name": "objective",
      "outputs": [
        {
          "internalType": "bytes4",
          "name": "",
          "type": "bytes4"
        }
      ],
      "stateMutability": "view",
      "type": "function"
    },
    {
      "inputs": [],
      "name": "outstandingIncrementalPayments",
      "outputs": [
        {
          "internalType": "uint256",
          "name": "",
          "type": "uint256"
        }
      ],
      "stateMutability": "view",
      "type": "function"
    },
    {
      "inputs": [],
      "name": "simplePostDuration",
      "outputs": [
        {
          "internalType": "uint256",
          "name": "",
          "type": "uint256"
        }
      ],
      "stateMutability": "view",
      "type": "function"
    },
    {
      "inputs": [],
      "name": "startDate",
      "outputs": [
        {
          "internalType": "uint256",
          "name": "",
          "type": "uint256"
        }
      ],
      "stateMutability": "view",
      "type": "function"
    },
    {
      "inputs": [],
      "name": "getTimestamp",
      "outputs": [
        {
          "internalType": "uint256",
          "name": "",
          "type": "uint256"
        }
      ],
      "stateMutability": "view",
      "type": "function"
    },
    {
      "inputs": [],
      "name": "depositPayment",
      "outputs": [],
      "stateMutability": "payable",
      "type": "function"
    },
    {
      "inputs": [],
      "name": "depositedForInfluencerBalance",
      "outputs": [
        {
          "internalType": "uint256",
          "name": "",
          "type": "uint256"
        }
      ],
      "stateMutability": "view",
      "type": "function"
    },
    {
      "inputs": [],
      "name": "addressBalance",
      "outputs": [
        {
          "internalType": "uint256",
          "name": "",
          "type": "uint256"
        }
      ],
      "stateMutability": "view",
      "type": "function"
    },
    {
      "inputs": [
        {
          "internalType": "bool",
          "name": "_confirmedBusiness",
          "type": "bool"
        },
        {
          "internalType": "bool",
          "name": "_confirmedInfluencer",
          "type": "bool"
        }
      ],
      "name": "confirmBusinessInfluencer",
      "outputs": [],
      "stateMutability": "nonpayable",
      "type": "function"
    },
    {
      "inputs": [
        {
          "internalType": "uint256",
          "name": "_postStat",
          "type": "uint256"
        },
        {
          "internalType": "bool",
          "name": "_postPosted",
          "type": "bool"
        }
      ],
      "name": "checkCampaignObjectiveReached",
      "outputs": [],
      "stateMutability": "nonpayable",
      "type": "function"
    },
    {
      "inputs": [
        {
          "internalType": "bool",
          "name": "_businessConfirmed",
          "type": "bool"
        },
        {
          "internalType": "bool",
          "name": "_influencerConfirmed",
          "type": "bool"
        },
        {
          "internalType": "uint256",
          "name": "_confirmedPaymentAmount",
          "type": "uint256"
        }
      ],
      "name": "payInfluencer",
      "outputs": [],
      "stateMutability": "payable",
      "type": "function"
    },
    {
      "inputs": [
        {
          "internalType": "bool",
          "name": "_businessConfirmed",
          "type": "bool"
        },
        {
          "internalType": "bool",
          "name": "_influencerConfirmed",
          "type": "bool"
        }
      ],
      "name": "confirmRefund",
      "outputs": [],
      "stateMutability": "nonpayable",
      "type": "function"
    },
    {
      "inputs": [
        {
          "internalType": "uint256",
          "name": "_newDeadline",
          "type": "uint256"
        }
      ],
      "name": "extendDeadline",
      "outputs": [],
      "stateMutability": "nonpayable",
      "type": "function"
    },
    {
      "inputs": [
        {
          "internalType": "uint256",
          "name": "_agreedAmount",
          "type": "uint256"
        }
      ],
      "name": "campaignEnded",
      "outputs": [],
      "stateMutability": "payable",
      "type": "function"
    }
  ],
  "bytecode": "0x60806040819052600b805463ffff0000191690556200176738819003908190833981016040819052620000329162000110565b6001600081815581546001600160a01b03808f166001600160a01b0319928316811790945560028054918f169190921617905560058b905560068a9055600789905560048890556003879055600a8690556009859055600b805460e086901c6401000000000263ffffffff60201b199091161790556008839055908152600e6020526040902054620000c6904790620001ba565b6001546001600160a01b03166000908152600e602052604090205550620001e19950505050505050505050565b80516001600160a01b03811681146200010b57600080fd5b919050565b60008060008060008060008060008060006101608c8e0312156200013357600080fd5b6200013e8c620000f3565b9a506200014e60208d01620000f3565b995060408c0151985060608c0151975060808c0151965060a08c0151955060c08c0151945060e08c015193506101008c015192506101208c015163ffffffff60e01b811681146200019e57600080fd5b809250506101408c015190509295989b509295989b9093969950565b60008219821115620001dc57634e487b7160e01b600052601160045260246000fd5b500190565b61157680620001f16000396000f3fe6080604052600436106101b75760003560e01c80638ed5b0fc116100ec578063df2d88ca1161008a578063e74dc11c11610064578063e74dc11c146104d0578063f318e557146104f0578063f41662ed14610503578063fac3fd591461044d57600080fd5b8063df2d88ca1461044d578063e36686321461049a578063e53abae9146104b057600080fd5b8063aa5e2153116100c6578063aa5e2153146103e2578063ac35e160146103ea578063b801ed8514610419578063dc5b13311461043a57600080fd5b80638ed5b0fc14610367578063a4b870c41461037d578063a87588e7146103aa57600080fd5b80633869cbfa116101595780636e597aee116101335780636e597aee14610308578063842de7501461031e5780638a8c8736146103345780638d0449d61461035457600080fd5b80633869cbfa146102ba578063389b7533146102d0578063612abb10146102f257600080fd5b80631d8d1f66116101955780631d8d1f661461024b57806329dcb0cf146102785780632fe289b31461028e5780633621905f146102a457600080fd5b80630b97bc86146101bc57806314f1586a146101e5578063188ec35614610238575b600080fd5b3480156101c857600080fd5b506101d260055481565b6040519081526020015b60405180910390f35b3480156101f157600080fd5b50600b5461020790640100000000900460e01b81565b6040517fffffffff0000000000000000000000000000000000000000000000000000000090911681526020016101dc565b34801561024457600080fd5b50426101d2565b34801561025757600080fd5b506001546001600160a01b03166000908152600e60205260409020546101d2565b34801561028457600080fd5b506101d260065481565b34801561029a57600080fd5b506101d2600a5481565b3480156102b057600080fd5b506101d260035481565b3480156102c657600080fd5b506101d260075481565b3480156102dc57600080fd5b506102f06102eb36600461147e565b61051d565b005b3480156102fe57600080fd5b506101d260095481565b34801561031457600080fd5b506101d2600c5481565b34801561032a57600080fd5b506101d2600d5481565b34801561034057600080fd5b506102f061034f366004611497565b610570565b6102f061036236600461147e565b610a69565b34801561037357600080fd5b506101d260085481565b34801561038957600080fd5b506101d26103983660046113e6565b600e6020526000908152604090205481565b3480156103b657600080fd5b506001546103ca906001600160a01b031681565b6040516001600160a01b0390911681526020016101dc565b6102f0610c94565b3480156103f657600080fd5b50600b5461040990610100900460ff1681565b60405190151581526020016101dc565b34801561042557600080fd5b50600b54610409906301000000900460ff1681565b6102f0610448366004611442565b610e8f565b34801561045957600080fd5b506102f061046836600461140f565b600b805463ffff00001916620100009315159390930263ff000000191692909217630100000091151591909102179055565b3480156104a657600080fd5b506101d260045481565b3480156104bc57600080fd5b50600b546104099062010000900460ff1681565b3480156104dc57600080fd5b506002546103ca906001600160a01b031681565b3480156104fc57600080fd5b50476101d2565b34801561050f57600080fd5b50600b546104099060ff1681565b806006541061052b57600080fd5b60068190556008546040805183815260208101929092527f53363e7eeef177f60d15e790e42c0cc492e5bee81887ced1390b5c2553ad2a2a910160405180910390a150565b6001811515146105ed5760405162461bcd60e51b815260206004820152603a60248201527f636865636b43616d706169676e4f626a6563746976655265616368656428293a60448201527f2074686520706f737420776173206e6f74206f627461696e656400000000000060648201526084015b60405180910390fd5b4260065411156106655760405162461bcd60e51b815260206004820152603e60248201527f636865636b43616d706169676e4f626a6563746976655265616368656428293a60448201527f207468652063616d706169676e206973207374696c6c206f6e676f696e67000060648201526084016105e4565b6001546001600160a01b031633146106e55760405162461bcd60e51b815260206004820152603a60248201527f636865636b43616d706169676e4f626a6563746976655265616368656428293a60448201527f2043616c6c6572206d75737420626520696e666c75656e63657200000000000060648201526084016105e4565b6040517f706f737400000000000000000000000000000000000000000000000000000000602082015260240160408051601f19818403018152908290528051602091820120600b54640100000000900460e01b7fffffffff0000000000000000000000000000000000000000000000000000000016918301919091529060240160405160208183030381529060405280519060200120141561082b57600a548210156107d35760405162461bcd60e51b815260206004820181905260248201527f6a61636b706f7420746172676574206d7573742062652073617469736669656460448201526064016105e4565b600b805460ff191660019081179091556008546040517fe02d4b153cb00a6da43e813b4e3c7f603966e02eb2a6c5a5f6324cb0f7fd76929261081f929015158252602082015260400190565b60405180910390a15050565b6009548210156108a35760405162461bcd60e51b815260206004820152603560248201527f6d757374206174206c656173742062652067726561746572207468616e20696e60448201527f6372656d656e74616c20746f206765742070616964000000000000000000000060648201526084016105e4565b600a548210610a0757600a548210156108fe5760405162461bcd60e51b815260206004820181905260248201527f6a61636b706f7420746172676574206d7573742062652073617469736669656460448201526064016105e4565b600b805460ff19166001179055600a54821115610a0357600a54821161098b5760405162461bcd60e51b8152602060048201526024808201527f706f73742073746174206d75737420657863656564206a61636b706f7420746160448201527f726765740000000000000000000000000000000000000000000000000000000060648201526084016105e4565b600a546109999083906113a6565b600d81905560095411610a0357600954600d546109b5916113b9565b600c819055600b805461ff0019166101001790556008546040517f9b3f0e4756b97e4c61d863b0fd505500511987b87a434620e87f811f701b40199261081f92908252602082015260400190565b5050565b600954610a159083906113b9565b600c55600b805461ff001916610100179055600854604080516001815260208101929092527fe02d4b153cb00a6da43e813b4e3c7f603966e02eb2a6c5a5f6324cb0f7fd7692910160405180910390a15050565b42600654101580610a965750600b5462010000900460ff168015610a965750600b546301000000900460ff165b610b2e5760405162461bcd60e51b815260206004820152605260248201527f63616d706169676e456e64656428293a204569746865722063616d706169676e60448201527f206f6e676f696e672c206f7220626f746820706172746965732079657420746f60648201527f20636f6e6669726d2064657369726520746f0000000000000000000000000000608482015260a4016105e4565b600b5460ff1615610bab57600b54610b599060ff620100008204811691630100000090041683610e8f565b600254600854604080516001815260208101929092526001600160a01b03909216917fcfe51a56170170210c6b5def6488eabb132da271f908c143e485c0ae70edec6f910160405180910390a2610c29565b600b54610100900460ff1615610c2957600b54610bdb9060ff620100008204811691630100000090041683610e8f565b600254600854604080516000815260208101929092526001600160a01b03909216917f8d2937ab1456e52d5e52590e71857fe5899a3f1998d2098e812935ca22c06217910160405180910390a25b6001546001600160a01b03166000908152600e60209081526040808320546008548251918252928101939093528201527fdbda569e7119cd172891e7c63899a4838e4e8670b1175345bf293cd3f31347489060600160405180910390a16002546001600160a01b0316ff5b6002546001600160a01b03163314610d145760405162461bcd60e51b815260206004820152602860248201527f4f6e6c792074686520627573696e6573732063616e2063616c6c20746869732060448201527f66756e6374696f6e00000000000000000000000000000000000000000000000060648201526084016105e4565b4260065411610d8b5760405162461bcd60e51b815260206004820152603260248201527f6465706f7369745061796d656e7428293a205468652063616d706169676e206460448201527f6561646c696e652068617320706173736564000000000000000000000000000060648201526084016105e4565b60003411610e015760405162461bcd60e51b815260206004820152603a60248201527f6465706f7369745061796d656e7428293a20596f75206d757374206465706f7360448201527f6974206d6f6e657920696e746f2074686520636f6e747261637400000000000060648201526084016105e4565b600b805461ffff191690556001546001600160a01b03166000908152600e6020526040902054610e329034906114ba565b6001546001600160a01b03166000908152600e60209081526040918290209290925560085481513481529283015233917fb75c5efb8f695c77c10eab316b5f4b02cb281e500c8a4e5474d1c3e19d582002910160405180910390a2565b600b5460ff1680610ea75750600b54610100900460ff165b80610eb75750828015610eb75750815b610f295760405162461bcd60e51b815260206004820152602360248201527f636f6e646974696f6e7320666f72207061796d656e742077657265206e6f742060448201527f6d6574000000000000000000000000000000000000000000000000000000000060648201526084016105e4565b426006541115610fa15760405162461bcd60e51b815260206004820152603560248201527f6a61636b706f745461726765745265616368656428293a207468652063616d7060448201527f6169676e206973207374696c6c206f6e676f696e67000000000000000000000060648201526084016105e4565b600b5460ff1615611094576004546001546001600160a01b03166000908152600e60205260409020541015610fd557600080fd5b6004546001546001600160a01b03166000908152600e602052604081208054909190611002908490611513565b90915550506001546004546040516001600160a01b039092169181156108fc0291906000818181858888f19350505050158015611043573d6000803e3d6000fd5b50600b805460ff191690556004546008546040517f314b8d1c1fcf6a0803dd4c073d3a198302a249e6e1e0a6ce20a289f6f61c80e89261108b92908252602082015260400190565b60405180910390a15b600b54610100900460ff16156112e4576003546001546001600160a01b03166000908152600e602052604090205410156111365760405162461bcd60e51b815260206004820152603e60248201527f74686520617474656d70746564207061796f7574206973206d6f72652074686160448201527f6e20697320646573706f6974656420696e207468652063616d706169676e000060648201526084016105e4565b6001600c5410611222576000611159600354600c546113c590919063ffffffff16565b6001546001600160a01b03166000908152600e6020526040812080549293508392909190611188908490611513565b90915550506001546040516001600160a01b039091169082156108fc029083906000818181858888f193505050501580156111c7573d6000803e3d6000fd5b506000600c819055600b805461ff00191690556008546040805184815260208101939093528201527f4e096a163f990a9051b37b380a1fdc57da1ed67943857ddeb496a302fea7a7c09060600160405180910390a1506112e4565b6003546001546001600160a01b03166000908152600e60205260408120805490919061124f908490611513565b90915550506001546003546040516001600160a01b039092169181156108fc0291906000818181858888f19350505050158015611290573d6000803e3d6000fd5b50600b805461ff0019169055600354600c5460085460408051938452602084019290925282820152517f4e096a163f990a9051b37b380a1fdc57da1ed67943857ddeb496a302fea7a7c09181900360600190a15b8280156112ee5750815b156113a1576001546001600160a01b03166000908152600e6020526040902054811061131957600080fd5b6001546040516001600160a01b039091169082156108fc029083906000818181858888f19350505050158015611353573d6000803e3d6000fd5b506001546008546040805184815260208101929092526001600160a01b03909216917f9267f0dfa25dfb1e1a3676fdbc79fd9c57356e61c7da6a6865a492a68934e33f910160405180910390a25b505050565b60006113b28284611513565b9392505050565b60006113b282846114d2565b60006113b282846114f4565b803580151581146113e157600080fd5b919050565b6000602082840312156113f857600080fd5b81356001600160a01b03811681146113b257600080fd5b6000806040838503121561142257600080fd5b61142b836113d1565b9150611439602084016113d1565b90509250929050565b60008060006060848603121561145757600080fd5b611460846113d1565b925061146e602085016113d1565b9150604084013590509250925092565b60006020828403121561149057600080fd5b5035919050565b600080604083850312156114aa57600080fd5b82359150611439602084016113d1565b600082198211156114cd576114cd61152a565b500190565b6000826114ef57634e487b7160e01b600052601260045260246000fd5b500490565b600081600019048311821515161561150e5761150e61152a565b500290565b6000828210156115255761152561152a565b500390565b634e487b7160e01b600052601160045260246000fdfea264697066735822122060211bb6439ed881c547100d1cc80c78b1a3de8a7fd81f5712dac596917f6c2d64736f6c63430008070033",
  "immutableReferences": {},
  "source": "// extract logic into private functions and call those with public functions\n//eth alarm clock\n//x dai\n//chainlink\n// super fluid for incremental payments\n// \npragma solidity ^0.8.0;\n\nimport '@openzeppelin/contracts/utils/math/SafeMath.sol';\nimport \"@openzeppelin/contracts/security/ReentrancyGuard.sol\";\n\n\n// SPDX-License-Identifier: PRIVATE\n\n\ncontract Famepay is ReentrancyGuard {\n    using SafeMath for uint256;\n    \n    address payable public influencer;\n    address payable public business;\n\n    uint256 public incrementalPayment; \n    uint256 public jackpotPayment;\n    \n    uint256 public startDate;\n    uint256 public deadline;\n    uint256 public simplePostDuration;\n    \n    uint256 public campaignId;\n    \n    uint256 public incrementalTargetAmount;\n    uint256 public jackpotTargetAmount;\n    \n    bool public jackpotTargetReached;\n    bool public incrementalTargetReached;\n    \n    bool public businessConfirmed = false;\n    bool public influencerConfirmed = false;\n    \n\n    bytes4 public objective;\n    \n    \n    uint256 public outstandingIncrementalPayments;\n    uint256 public exceededObjectiveAmount;\n\n    mapping(address => uint256) public depositedFor;\n   \n    \n    event BusinessDeposited(address indexed _business, uint256  _amount, uint256 _campaignId);\n    event BusinessRefunded(address indexed _business, uint256  _amount, uint256 _campaignId);\n\n\n    event IncrementalTargetReached(uint256 _incrementalTargetsReached, uint256 _campaignId);\n    event JackpotTargetReached(bool _targetReached, uint256 _campaignId);\n    \n    event IncrementInfluencerPayment(uint256 _amount,  uint256 _amountOfIncrementalPayments, uint256 _campaignId);\n    event JackpotInfluencerPayment(uint256 _amount, uint256 _campaignId);\n    event AgreedAmountPayment(address indexed _influencer, uint256 _amount, uint256 _campaignId);\n    \n\n    event InvalidWithdrawal(uint256 _amount, uint256 _campaignId);\n    \n    event CampaignTerminationIncrementPayment(address indexed _influencer, bool _jackpotObjectiveReached, uint256 _campaignId);\n    event CampaignTerminationJackpotPayment(address indexed _influencer, bool _jackpotObjectiveReached, uint256 _campaignId);\n    event CampaignEnding(uint256 _refundableAmount,  bool _jackpotObjectiveReached, uint256 _campaignId);\n    event ExtendDeadline(uint256 _newDeadline, uint256 _campaignId);\n    \n    modifier onlyInfluencer() {\n        require(influencer == msg.sender, \"Only the influencer can call this function\");\n        _;\n    }\n    \n    modifier onlyBusiness() { \n        require(business == msg.sender, \"Only the business can call this function\");\n        _;\n    }\n    \n    constructor ( \n        address payable _influencer, \n        address payable _business, \n        uint256 _startDate, \n        uint256 _deadline,\n        uint256 _simplePostDuration, \n        uint256 _jackpotPayment, \n        uint256 _incrementalPayment, \n        uint256 _jackpotTargetAmount,\n        uint256 _incrementalTargetAmount,\n        bytes4  _objective,\n        uint256 _campaignId\n    ) payable { \n            influencer = _influencer;\n            business = _business;\n            startDate = _startDate;\n            deadline = _deadline;\n            simplePostDuration = _simplePostDuration;\n            jackpotPayment = _jackpotPayment;\n            incrementalPayment = _incrementalPayment;\n            jackpotTargetAmount = _jackpotTargetAmount;\n            incrementalTargetAmount = _incrementalTargetAmount;\n            objective = _objective;\n            campaignId = _campaignId;\n            depositedFor[influencer] = depositedFor[influencer] + address(this).balance;\n    }\n    \n    function getTimestamp() public view returns (uint256) {\n        return block.timestamp;\n    }\n        \n\n    /**\n     * @dev used for injecting more money for campaigns you want to extend\n     */\n    function depositPayment() public payable onlyBusiness  {\n        require(deadline > block.timestamp, \"depositPayment(): The campaign deadline has passed\"); \n        require(msg.value > 0, \"depositPayment(): You must deposit money into the contract\");\n        jackpotTargetReached = false;\n        incrementalTargetReached = false;\n        depositedFor[influencer] = depositedFor[influencer] + msg.value;\n        emit BusinessDeposited(msg.sender, msg.value, campaignId);\n    }\n\n    function depositedForInfluencerBalance() public view returns (uint256) {\n        return depositedFor[influencer];\n    }\n    \n    function addressBalance() public view returns (uint256) {\n        return address(this).balance;\n    }\n    \n    function confirmBusinessInfluencer(bool _confirmedBusiness, bool _confirmedInfluencer) public {\n        businessConfirmed = _confirmedBusiness;\n        influencerConfirmed = _confirmedInfluencer;\n    }\n\n    \n    /** \n      * @dev check if objective was achieved\n      * @param  _postStat Target post stat for incremental payment\n      * @param  _postPosted check if post is posted\n     */\n     //only influencer posts the url(s) throughout the campaign. At the end of the campaign sum of \n     //target metric is added and passed to this function. \n     //influencer must tag the @business on social media which we'll use to validate there eth address\n     //business has a protest button which will flag a shady post which will be manually reviewed by team\n     //protested posts will delay payout by a day\n     //12 hour delay period after deadline for business to protest\n     //claim your reward button on the frontend so only influencer can call this function\n     //TODO investigate forwarding gas cost away from influencer\n     //TODO (address _business, address _influencer, uint256 _postTimestamp)\n     //TODO pay now feature:\n        //if business & influencer are both happy with present post they can both confirm to pay right now\n    function checkCampaignObjectiveReached (uint256 _postStat, bool _postPosted) external {\n        require(_postPosted == true, \"checkCampaignObjectiveReached(): the post was not obtained\");\n        // TODO (deadline <= block.timestamp) this should only trigger after campaign period is over\n        require(deadline <= block.timestamp, \"checkCampaignObjectiveReached(): the campaign is still ongoing\");\n        require(msg.sender == influencer, \"checkCampaignObjectiveReached(): Caller must be influencer\");\n        //if it is a simplePost no incremental needed\n        if(keccak256(abi.encodePacked(objective)) == keccak256(abi.encodePacked(\"post\"))) { \n            require(_postStat >= jackpotTargetAmount, \"jackpot target must be satisfied\");\n            jackpotTargetReached = true;\n            emit JackpotTargetReached(true, campaignId);            \n        //not a simple post\n        } else {\n            require(_postStat >= incrementalTargetAmount, \"must at least be greater than incremental to get paid\");\n            //eligible for jackpot reward and incremental reward\n            if(_postStat >= jackpotTargetAmount) {\n                require(_postStat >= jackpotTargetAmount, \"jackpot target must be satisfied\");\n                jackpotTargetReached = true;\n                if(_postStat > jackpotTargetAmount) {\n                   require(_postStat > jackpotTargetAmount, \"post stat must exceed jackpot target\");\n                    //amount which influencer exceeded jackpot objective\n                    exceededObjectiveAmount = _postStat.sub(jackpotTargetAmount);\n                    if(exceededObjectiveAmount >= incrementalTargetAmount) {\n                        outstandingIncrementalPayments = exceededObjectiveAmount.div(incrementalTargetAmount);\n                        // outstandingIncrementalPayments.push(incrementalPayment);\n                        incrementalTargetReached = true;\n                        emit IncrementalTargetReached(outstandingIncrementalPayments, campaignId);\n                    }\n                }\n            //only incremental reward\n            } else {\n                outstandingIncrementalPayments = _postStat.div(incrementalTargetAmount);\n                incrementalTargetReached = true;\n                emit JackpotTargetReached(true, campaignId);\n            }\n        }\n    }\n\n    /**\n     * @dev pay the influencer \n     * @param _businessConfirmed business has confirmed in case of overriding payment\n     * @param _influencerConfirmed influencer has confirmed in case of overriding payment\n     * @param _confirmedPaymentAmount how much the parties want to realease from ecrow in case of overriding payment\n     */\n    function payInfluencer(bool _businessConfirmed, bool _influencerConfirmed, uint256 _confirmedPaymentAmount) public payable {\n        require(jackpotTargetReached || incrementalTargetReached || (_businessConfirmed && _influencerConfirmed ), \"conditions for payment were not met\");\n        //TODO (deadline <= block.timestamp) this should only trigger after campaign period is over\n        require(deadline <= block.timestamp, \"jackpotTargetReached(): the campaign is still ongoing\");\n        //jackpot payment\n        if (jackpotTargetReached) {\n            require(depositedFor[influencer] >= jackpotPayment);\n            depositedFor[influencer] -= jackpotPayment;\n            influencer.transfer(jackpotPayment);\n            jackpotTargetReached = false;\n            emit JackpotInfluencerPayment(jackpotPayment, campaignId);\n        } \n\n    //     //incremental payment\n        if (incrementalTargetReached) {\n            require(depositedFor[influencer] >= incrementalPayment, \"the attempted payout is more than is despoited in the campaign\");\n            // for multiple outstanding payments\n            if(outstandingIncrementalPayments >= 1) {\n                uint256 outstandingIncrementalPayment = outstandingIncrementalPayments.mul(incrementalPayment);\n                depositedFor[influencer] -= outstandingIncrementalPayment;\n                influencer.transfer(outstandingIncrementalPayment);\n                // delete outstandingIncrementalPayments;\n                outstandingIncrementalPayments = 0;\n                incrementalTargetReached = false;\n                emit IncrementInfluencerPayment(outstandingIncrementalPayment, outstandingIncrementalPayments, campaignId);\n            } else {\n                depositedFor[influencer] -= incrementalPayment;\n                influencer.transfer(incrementalPayment);\n                incrementalTargetReached = false;\n                emit IncrementInfluencerPayment(incrementalPayment, outstandingIncrementalPayments, campaignId);\n            }\n        }\n        \n    //     //agreed upon sum\n        if(_businessConfirmed && _influencerConfirmed) {\n            require(_confirmedPaymentAmount < depositedFor[influencer]);\n            influencer.transfer(_confirmedPaymentAmount);\n            emit AgreedAmountPayment(influencer, _confirmedPaymentAmount, campaignId);\n        } \n    }\n    \n    /**\n     * @dev confirm that both parties are in agreement for refund\n     * @param _businessConfirmed business confirmation\n     * @param _influencerConfirmed influencer confirmation\n     */\n    function confirmRefund(bool _businessConfirmed, bool _influencerConfirmed) public {\n        businessConfirmed = _businessConfirmed;\n        influencerConfirmed = _influencerConfirmed;\n    }\n    \n    /**\n     * @dev extend the campaign deadline\n     * @param _newDeadline the new unix timestamp deadline\n     */\n    function extendDeadline(uint256 _newDeadline) public {\n        require (deadline < _newDeadline);\n        deadline = _newDeadline;\n            emit ExtendDeadline(_newDeadline, campaignId);\n    }\n    \n    /**\n     * @dev complete campaign and potentially refund business\n     * @param _agreedAmount if prematurely ending amount to pay influencer\n     */\n    function campaignEnded(uint256 _agreedAmount) payable public {\n        require(deadline >= block.timestamp || businessConfirmed && influencerConfirmed, \"campaignEnded(): Either campaign ongoing, or both parties yet to confirm desire to\"); //check multiple require statements\n        if(jackpotTargetReached) {\n            payInfluencer(businessConfirmed, influencerConfirmed, _agreedAmount);\n            emit CampaignTerminationJackpotPayment(business, true, campaignId);\n        }\n        else if(incrementalTargetReached) {\n            payInfluencer(businessConfirmed, influencerConfirmed, _agreedAmount);\n            emit CampaignTerminationIncrementPayment(business,  false, campaignId);\n        }\n        emit CampaignEnding(depositedFor[influencer], false, campaignId);\n        selfdestruct(business);\n    }\n    \n\n    \n    \n    // function adminCancelCampaign(uint256 _agreedAmount) onlyAdmin internal {\n    //     if(incrementalTargetReached) {\n    //         payInfluencer(true, true, _agreedAmount);\n    //         emit CampaignTerminationIncrementPayment(business, \"remaining incremental payments to be paid:\", depositedFor[influencer], false);\n    //     }\n    //     if(jackpotTargetReached) {\n    //         payInfluencer(true, true, _agreedAmount);\n    //         emit CampaignTerminationJackpotPayment(business, \"making the remaining jackpot payment before campagin termination\", true);\n    //     }\n    //     emit CampaignEnding(\"Campaign is about to be terminated. Amount to be refunded:\", depositedFor[influencer], false);\n    //     selfdestruct;\n    // }\n    \n    /*\n    function pause() external onlyAdmin {\n        super._pause();\n    }\n\n    function unpause() external onlyAdmin {\n        super._unpause();\n    }\n    */\n\n}\n\n\n\n\n\n\n\n\n\n",
  "sourcePath": "/Users/benweinberg/Desktop/Work/FamePay/FamePayContract/contracts/FamePay.sol",
  "compiler": {
    "name": "solc",
    "version": "0.8.7+commit.e28d00a7.Emscripten.clang"
  },
  "schemaVersion": "3.4.1",
  "updatedAt": "2021-09-01T01:27:16.585Z",
  "devdoc": {
    "kind": "dev",
    "methods": {
      "campaignEnded(uint256)": {
        "details": "complete campaign and potentially refund business",
        "params": {
          "_agreedAmount": "if prematurely ending amount to pay influencer"
        }
      },
      "checkCampaignObjectiveReached(uint256,bool)": {
        "details": "check if objective was achieved",
        "params": {
          "_postPosted": "check if post is posted",
          "_postStat": "Target post stat for incremental payment"
        }
      },
      "confirmRefund(bool,bool)": {
        "details": "confirm that both parties are in agreement for refund",
        "params": {
          "_businessConfirmed": "business confirmation",
          "_influencerConfirmed": "influencer confirmation"
        }
      },
      "depositPayment()": {
        "details": "used for injecting more money for campaigns you want to extend"
      },
      "extendDeadline(uint256)": {
        "details": "extend the campaign deadline",
        "params": {
          "_newDeadline": "the new unix timestamp deadline"
        }
      },
      "payInfluencer(bool,bool,uint256)": {
        "details": "pay the influencer ",
        "params": {
          "_businessConfirmed": "business has confirmed in case of overriding payment",
          "_confirmedPaymentAmount": "how much the parties want to realease from ecrow in case of overriding payment",
          "_influencerConfirmed": "influencer has confirmed in case of overriding payment"
        }
      }
    },
    "version": 1
  },
  "userdoc": {
    "kind": "user",
    "methods": {},
    "version": 1
  }
}