{
  "contractName": "FamepayFactory",
  "abi": [
    {
      "inputs": [],
      "stateMutability": "nonpayable",
      "type": "constructor"
    },
    {
      "anonymous": false,
      "inputs": [
        {
          "indexed": true,
          "internalType": "address",
          "name": "_influencer",
          "type": "address"
        },
        {
          "indexed": true,
          "internalType": "address",
          "name": "_business",
          "type": "address"
        },
        {
          "indexed": true,
          "internalType": "address",
          "name": "_campaignAddress",
          "type": "address"
        },
        {
          "indexed": false,
          "internalType": "uint256",
          "name": "_campaignId",
          "type": "uint256"
        },
        {
          "indexed": false,
          "internalType": "uint256",
          "name": "_startDate",
          "type": "uint256"
        },
        {
          "indexed": false,
          "internalType": "uint256",
          "name": "_deadline",
          "type": "uint256"
        },
        {
          "indexed": false,
          "internalType": "uint256",
          "name": "_simplePostDuration",
          "type": "uint256"
        },
        {
          "indexed": false,
          "internalType": "uint256",
          "name": "_jackpotPayment",
          "type": "uint256"
        },
        {
          "indexed": false,
          "internalType": "uint256",
          "name": "_incrementalPayment",
          "type": "uint256"
        },
        {
          "indexed": false,
          "internalType": "uint256",
          "name": "_jackpotTargetAmount",
          "type": "uint256"
        },
        {
          "indexed": false,
          "internalType": "uint256",
          "name": "_incrementalTargetAmount",
          "type": "uint256"
        },
        {
          "indexed": false,
          "internalType": "uint256",
          "name": "_potentialPayoutAmount",
          "type": "uint256"
        },
        {
          "indexed": false,
          "internalType": "bytes4",
          "name": "_objective",
          "type": "bytes4"
        }
      ],
      "name": "NewFamepayCampaignCreated",
      "type": "event"
    },
    {
      "inputs": [],
      "name": "campaignPointer",
      "outputs": [
        {
          "internalType": "uint256",
          "name": "",
          "type": "uint256"
        }
      ],
      "stateMutability": "view",
      "type": "function",
      "constant": true
    },
    {
      "inputs": [
        {
          "internalType": "uint256",
          "name": "",
          "type": "uint256"
        }
      ],
      "name": "famepayCampaigns",
      "outputs": [
        {
          "internalType": "address",
          "name": "",
          "type": "address"
        }
      ],
      "stateMutability": "view",
      "type": "function",
      "constant": true
    },
    {
      "inputs": [
        {
          "internalType": "address payable",
          "name": "_influencer",
          "type": "address"
        },
        {
          "internalType": "address payable",
          "name": "_business",
          "type": "address"
        },
        {
          "internalType": "uint256",
          "name": "_startDate",
          "type": "uint256"
        },
        {
          "internalType": "uint256",
          "name": "_deadline",
          "type": "uint256"
        },
        {
          "internalType": "uint256",
          "name": "_simplePostDuration",
          "type": "uint256"
        },
        {
          "internalType": "uint256",
          "name": "_jackpotPayment",
          "type": "uint256"
        },
        {
          "internalType": "uint256",
          "name": "_incrementalPayment",
          "type": "uint256"
        },
        {
          "internalType": "uint256",
          "name": "_jackpotTargetAmount",
          "type": "uint256"
        },
        {
          "internalType": "uint256",
          "name": "_incrementalTargetAmount",
          "type": "uint256"
        },
        {
          "internalType": "uint256",
          "name": "_potentialPayoutAmount",
          "type": "uint256"
        },
        {
          "internalType": "bytes4",
          "name": "_objective",
          "type": "bytes4"
        }
      ],
      "name": "newFamepayCampaign",
      "outputs": [],
      "stateMutability": "payable",
      "type": "function",
      "payable": true
    },
    {
      "inputs": [
        {
          "internalType": "uint256",
          "name": "_campaignId",
          "type": "uint256"
        }
      ],
      "name": "getCampaign",
      "outputs": [
        {
          "internalType": "address",
          "name": "",
          "type": "address"
        }
      ],
      "stateMutability": "view",
      "type": "function",
      "constant": true
    }
  ],
  "bytecode": "0x608060405234801561001057600080fd5b506001600055600480546001600160a01b03191633179055612fe8806100376000396000f3fe60806040526004361061003f5760003560e01c806303143e881461004457806325ca4024146100595780635598f8cc146100ac578063a29bf6fa146100e2575b600080fd5b610057610052366004610500565b610106565b005b34801561006557600080fd5b5061008f6100743660046105a5565b6005602052600090815260409020546001600160a01b031681565b6040516001600160a01b0390911681526020015b60405180910390f35b3480156100b857600080fd5b5061008f6100c73660046105a5565b6000908152600560205260409020546001600160a01b031690565b3480156100ee57600080fd5b506100f860015481565b6040519081526020016100a3565b604080517f706f737400000000000000000000000000000000000000000000000000000000602080830191909152825160048184030181526024830184528051908201206001600160e01b03198516604484015283516028818503018152604890930190935281519101201461028a5761018084846104ac565b60038190556101909086906104bf565b60028190556101a09087906104cb565b82116101f35760405162461bcd60e51b815260206004820152601b60248201527f506f74656e7469616c207061796f757420697320696e76616c6964000000000060448201526064015b60405180910390fd5b61021161020a61020386866104ac565b87906104bf565b87906104cb565b82116102855760405162461bcd60e51b815260206004820152602a60248201527f506f74656e7469616c207061796f757420697320696e76616c6964206f6e652060448201527f6c696e65206c6f6769630000000000000000000000000000000000000000000060648201526084016101ea565b610300565b858210156103005760405162461bcd60e51b815260206004820152602c60248201527f416d6f756e74206465706f7369746564206d757374206265206772656174657260448201527f207468616e20726577617264000000000000000000000000000000000000000060648201526084016101ea565b6001805461030d916104cb565b600181905550600060015490506000348d8d8d8d8d8d8d8d8d8c8c604051610334906104d7565b6001600160a01b039b8c1681529a90991660208b015260408a01979097526060890195909552608088019390935260a087019190915260c086015260e08501526101008401526001600160e01b031916610120830152610140820152610160016040518091039082f09050801580156103b1573d6000803e3d6000fd5b509050806005600084815260200190815260200160002060006101000a8154816001600160a01b0302191690836001600160a01b03160217905550806001600160a01b03168c6001600160a01b03168e6001600160a01b03167f5d41311f174981a9d477a6dd0adc044bb9e724f91a06eb4ec1054848977216df858f8f8f8f8f8f8f8f8f6040516104959a99989796959493929190998a5260208a019890985260408901969096526060880194909452608087019290925260a086015260c085015260e08401526101008301526001600160e01b0319166101208201526101400190565b60405180910390a450505050505050505050505050565b60006104b882846105d4565b9392505050565b60006104b882846105f6565b60006104b88284610615565b6129858061062e83390190565b80356001600160a01b03811681146104fb57600080fd5b919050565b60008060008060008060008060008060006101608c8e03121561052257600080fd5b61052b8c6104e4565b9a5061053960208d016104e4565b995060408c0135985060608c0135975060808c0135965060a08c0135955060c08c0135945060e08c013593506101008c013592506101208c013591506101408c01356001600160e01b03198116811461059157600080fd5b809150509295989b509295989b9093969950565b6000602082840312156105b757600080fd5b5035919050565b634e487b7160e01b600052601160045260246000fd5b6000826105f157634e487b7160e01b600052601260045260246000fd5b500490565b6000816000190483118215151615610610576106106105be565b500290565b60008219821115610628576106286105be565b50019056fe60806040819052600b805463ffff000019169055600d805464ffffffffff19169055620029853881900390819083398101604081905262000040916200011f565b6001600081815581546001600160a01b03808f166001600160a01b0319928316811790945560028054918f169190921617905560058b905560068a9055600789905560048890556003879055600a8690556009859055600d805460e086901c650100000000000263ffffffff60281b19909116179055600883905590815260106020526040902054620000d5904790620001c9565b6001546001600160a01b031660009081526010602052604090205550620001f09950505050505050505050565b80516001600160a01b03811681146200011a57600080fd5b919050565b60008060008060008060008060008060006101608c8e0312156200014257600080fd5b6200014d8c62000102565b9a506200015d60208d0162000102565b995060408c0151985060608c0151975060808c0151965060a08c0151955060c08c0151945060e08c015193506101008c015192506101208c015163ffffffff60e01b81168114620001ad57600080fd5b809250506101408c015190509295989b509295989b9093969950565b60008219821115620001eb57634e487b7160e01b600052601160045260246000fd5b500190565b61278580620002006000396000f3fe6080604052600436106102855760003560e01c806383d6dc0b11610153578063aab470cf116100cb578063e503d56c1161007f578063f318e55711610064578063f318e557146106ae578063f41662ed146106c1578063fac3fd59146106db57600080fd5b8063e503d56c1461066d578063e74dc11c1461068e57600080fd5b8063b9001363116100b0578063b90013631461062f578063e2d950fa14610642578063e36686321461065757600080fd5b8063aab470cf146105f0578063ac35e1601461061057600080fd5b80638dc45e1011610122578063a4b870c411610107578063a4b870c414610583578063a87588e7146105b0578063aa5e2153146105e857600080fd5b80638dc45e101461054d5780638ed5b0fc1461056d57600080fd5b806383d6dc0b146104d8578063842de750146104f857806385e784e01461050e57806389c4bad71461052d57600080fd5b8063389b75331161020157806367d30aa2116101b55780636e597aee1161019a5780636e597aee14610481578063723ac2a1146104975780638244904a146104b757600080fd5b806367d30aa21461043f57806368ad436f1461045f57600080fd5b8063405088a7116101e6578063405088a7146103f3578063433b68c714610409578063612abb101461042957600080fd5b8063389b7533146103c95780633bc47fbe146103eb57600080fd5b80631d8d1f66116102585780632fe289b31161023d5780632fe289b3146103875780633621905f1461039d5780633869cbfa146103b357600080fd5b80631d8d1f661461034457806329dcb0cf1461037157600080fd5b80630b97bc861461028a57806314f1586a146102b357806316bbb1e214610307578063188ec35614610331575b600080fd5b34801561029657600080fd5b506102a060055481565b6040519081526020015b60405180910390f35b3480156102bf57600080fd5b50600d546102d69065010000000000900460e01b81565b6040517fffffffff0000000000000000000000000000000000000000000000000000000090911681526020016102aa565b34801561031357600080fd5b50600d546103219060ff1681565b60405190151581526020016102aa565b34801561033d57600080fd5b50426102a0565b34801561035057600080fd5b506001546001600160a01b03166000908152601060205260409020546102a0565b34801561037d57600080fd5b506102a060065481565b34801561039357600080fd5b506102a0600a5481565b3480156103a957600080fd5b506102a060035481565b3480156103bf57600080fd5b506102a060075481565b3480156103d557600080fd5b506103e96103e43660046125c3565b6106fb565b005b6103e9610927565b3480156103ff57600080fd5b506102a0600c5481565b34801561041557600080fd5b50600b546103219062010000900460ff1681565b34801561043557600080fd5b506102a060095481565b34801561044b57600080fd5b506103e961045a3660046125f1565b610c28565b34801561046b57600080fd5b50600d5461032190640100000000900460ff1681565b34801561048d57600080fd5b506102a0600e5481565b3480156104a357600080fd5b506103e96104b2366004612626565b6113d4565b3480156104c357600080fd5b50600d54610321906301000000900460ff1681565b3480156104e457600080fd5b506103e96104f3366004612626565b6114de565b34801561050457600080fd5b506102a0600f5481565b34801561051a57600080fd5b50600d5461032190610100900460ff1681565b34801561053957600080fd5b50600d546103219062010000900460ff1681565b34801561055957600080fd5b506103e9610568366004612659565b6116f8565b34801561057957600080fd5b506102a060085481565b34801561058f57600080fd5b506102a061059e366004612674565b60106020526000908152604090205481565b3480156105bc57600080fd5b506001546105d0906001600160a01b031681565b6040516001600160a01b0390911681526020016102aa565b6103e961186a565b3480156105fc57600080fd5b506103e961060b36600461269d565b611a50565b34801561061c57600080fd5b50600b5461032190610100900460ff1681565b6103e961063d366004612626565b611ba9565b34801561064e57600080fd5b506103e96122de565b34801561066357600080fd5b506102a060045481565b34801561067957600080fd5b50600b54610321906301000000900460ff1681565b34801561069a57600080fd5b506002546105d0906001600160a01b031681565b3480156106ba57600080fd5b50476102a0565b3480156106cd57600080fd5b50600b546103219060ff1681565b3480156106e757600080fd5b506103e96106f6366004612626565b61243f565b6002546001600160a01b0316331461076b5760405162461bcd60e51b815260206004820152602860248201527f4f6e6c792074686520627573696e6573732063616e2063616c6c207468697320604482015267333ab731ba34b7b760c11b60648201526084015b60405180910390fd5b6001546001600160a01b031633146107d85760405162461bcd60e51b815260206004820152602a60248201527f4f6e6c792074686520696e666c75656e6365722063616e2063616c6c207468696044820152693990333ab731ba34b7b760b11b6064820152608401610762565b806006541061084f5760405162461bcd60e51b815260206004820152603e60248201527f657874656e64446561646c696e6528293a206e657720646561646c696e65206d60448201527f757374206265206166746572206578697374696e6720646561646c696e6500006064820152608401610762565b600d5462010000900460ff1680156108705750600d546301000000900460ff165b6108e25760405162461bcd60e51b815260206004820152603360248201527f657874656e64446561646c696e6528293a20626f7468207369646573206d757360448201527f7420636f6e6669726d20657874656e73696f6e000000000000000000000000006064820152608401610762565b60068190556008546040805183815260208101929092527f53363e7eeef177f60d15e790e42c0cc492e5bee81887ced1390b5c2553ad2a2a910160405180910390a150565b6002546001600160a01b031633146109925760405162461bcd60e51b815260206004820152602860248201527f4f6e6c792074686520627573696e6573732063616e2063616c6c207468697320604482015267333ab731ba34b7b760c11b6064820152608401610762565b6001546001600160a01b031633146109ff5760405162461bcd60e51b815260206004820152602a60248201527f4f6e6c792074686520696e666c75656e6365722063616e2063616c6c207468696044820152693990333ab731ba34b7b760b11b6064820152608401610762565b42600654101580610a245750600d5460ff168015610a245750600d54610100900460ff165b610abc5760405162461bcd60e51b815260206004820152605260248201527f63616d706169676e456e64656428293a204569746865722063616d706169676e60448201527f206f6e676f696e672c206f7220626f746820706172746965732079657420746f60648201527f20636f6e6669726d2064657369726520746f0000000000000000000000000000608482015260a401610762565b600b5460ff1615610b3857600b54610ae69060ff6201000082048116916301000000900416611ba9565b600254600854604080516001815260208101929092526001600160a01b03909216917fcfe51a56170170210c6b5def6488eabb132da271f908c143e485c0ae70edec6f910160405180910390a2610bb5565b600b54610100900460ff1615610bb557600b54610b679060ff6201000082048116916301000000900416611ba9565b600254600854604080516000815260208101929092526001600160a01b03909216917f8d2937ab1456e52d5e52590e71857fe5899a3f1998d2098e812935ca22c06217910160405180910390a25b6001546001600160a01b031660009081526010602090815260408083205460085482519182529281018490529081019290925260608201527f3a1f1aea29c8909f1c1e5aff163939f369fe1c87585220f7917377483a8b108f9060800160405180910390a16002546001600160a01b0316ff5b6001546001600160a01b03163314610ca85760405162461bcd60e51b815260206004820152603a60248201527f636865636b43616d706169676e4f626a6563746976655265616368656428293a60448201527f2043616c6c6572206d75737420626520696e666c75656e6365720000000000006064820152608401610762565b600182151514610d205760405162461bcd60e51b815260206004820152603660248201527f636865636b43616d706169676e4f626a6563746976655265616368656428293a60448201527f20706f737420776173206e6f74206f627461696e6564000000000000000000006064820152608401610762565b426006541115610d985760405162461bcd60e51b815260206004820152603d60248201527f636865636b43616d706169676e4f626a6563746976655265616368656428293a60448201527f20646561646c696e65206d7573742062652068617665207061737365640000006064820152608401610762565b600654811115610e365760405162461bcd60e51b815260206004820152604f60248201527f636865636b43616d706169676e4f626a6563746976655265616368656428293a60448201527f20696e76616c696420706f73743a20706f7374206d757374206265206265666f60648201527f72652074686520646561646c696e650000000000000000000000000000000000608482015260a401610762565b600554811015610ed45760405162461bcd60e51b815260206004820152604660248201527f636865636b43616d706169676e4f626a6563746976655265616368656428293a60448201527f20706f7374206d7573742062652061667465722063616d706169676e2073746160648201527f7274446174650000000000000000000000000000000000000000000000000000608482015260a401610762565b6040517f706f737400000000000000000000000000000000000000000000000000000000602082015260240160408051601f19818403018152908290528051602091820120600d5465010000000000900460e01b7fffffffff000000000000000000000000000000000000000000000000000000001691830191909152906024016040516020818303038152906040528051906020012014156110a257600a54831015610ff35760405162461bcd60e51b815260206004820152604160248201527f636865636b43616d706169676e4f626a6563746976655265616368656428293a60448201527f206a61636b706f7420746172676574206d7573742062652073617469736669656064820152601960fa1b608482015260a401610762565b600b805460ff191660019081179091556008546040517fe02d4b153cb00a6da43e813b4e3c7f603966e02eb2a6c5a5f6324cb0f7fd76929261103f929015158252602082015260400190565b60405180910390a16006546110569061a8c061258c565b60068190556008546040517fdb02a8b2d1e15351fb613b65b230651757f425365aecc087b92e1710218357a19261109592908252602082015260400190565b60405180910390a1505050565b6006546110b19061a8c061258c565b6006556009548310156111525760405162461bcd60e51b815260206004820152605b60248201527f636865636b43616d706169676e4f626a6563746976655265616368656428293a60448201527f20706f7374206d757374206174206c656173742062652067726561746572207460648201527f68616e20696e6372656d656e74616c20746f2067657420706169640000000000608482015260a401610762565b600a54831061133257600a548310156111dd5760405162461bcd60e51b815260206004820152604160248201527f636865636b43616d706169676e4f626a6563746976655265616368656428293a60448201527f206a61636b706f7420746172676574206d7573742062652073617469736669656064820152601960fa1b608482015260a401610762565b600b805460ff191660019081179091556008546040517fe02d4b153cb00a6da43e813b4e3c7f603966e02eb2a6c5a5f6324cb0f7fd769292611229929015158252602082015260400190565b60405180910390a1600061124a600954600a5461258c90919063ffffffff16565b90508084106112e657600a5461126190859061259f565b600f819055600954116112e657600954600f5461127d916125ab565b600e819055600b805461ff0019166101001790556008546040517f9b3f0e4756b97e4c61d863b0fd505500511987b87a434620e87f811f701b4019926112cb92908252602082015260400190565b60405180910390a16006546112e29061a8c061258c565b6006555b7fdb02a8b2d1e15351fb613b65b230651757f425365aecc087b92e1710218357a1600654600854604051611324929190918252602082015260400190565b60405180910390a150505050565b6009546113409084906125ab565b600e819055600b805461ff0019166101001790556008546040517f9b3f0e4756b97e4c61d863b0fd505500511987b87a434620e87f811f701b40199261138e92908252602082015260400190565b60405180910390a17fdb02a8b2d1e15351fb613b65b230651757f425365aecc087b92e1710218357a1600654600854604051611095929190918252602082015260400190565b6002546001600160a01b0316331461143f5760405162461bcd60e51b815260206004820152602860248201527f4f6e6c792074686520627573696e6573732063616e2063616c6c207468697320604482015267333ab731ba34b7b760c11b6064820152608401610762565b6001546001600160a01b031633146114ac5760405162461bcd60e51b815260206004820152602a60248201527f4f6e6c792074686520696e666c75656e6365722063616e2063616c6c207468696044820152693990333ab731ba34b7b760b11b6064820152608401610762565b600d805463ffff00001916620100009315159390930263ff000000191692909217630100000091151591909102179055565b6002546001600160a01b031633146115495760405162461bcd60e51b815260206004820152602860248201527f4f6e6c792074686520627573696e6573732063616e2063616c6c207468697320604482015267333ab731ba34b7b760c11b6064820152608401610762565b6001546001600160a01b031633146115b65760405162461bcd60e51b815260206004820152602a60248201527f4f6e6c792074686520696e666c75656e6365722063616e2063616c6c207468696044820152693990333ab731ba34b7b760b11b6064820152608401610762565b600b5460ff161515600114806115d95750600b5460ff6101009091041615156001145b61164b5760405162461bcd60e51b815260206004820152603b60248201527f72656d6f76654772616365506572696f6428293a206f6e6c79206170706c696360448201527f61626c65207768656e207061796f757420697320696e626f756e6400000000006064820152608401610762565b600182151514801561165f57506001811515145b6116db5760405162461bcd60e51b815260206004820152604160248201527f72656d6f76654772616365506572696f6428293a20626f74682073696465732060448201527f6d75737420616772656520746f2072656d6f766520677261636520706572696f6064820152601960fa1b608482015260a401610762565b61a8c0600660008282546116ef91906126df565b90915550505050565b6002546001600160a01b031633146117635760405162461bcd60e51b815260206004820152602860248201527f4f6e6c792074686520627573696e6573732063616e2063616c6c207468697320604482015267333ab731ba34b7b760c11b6064820152608401610762565b42600654106117da5760405162461bcd60e51b815260206004820152603260248201527f70726f7465737443616d706169676e28293a207061796f75742068617320616c60448201527f726561647920676f6e65207468726f75676800000000000000000000000000006064820152608401610762565b6001811515146118525760405162461bcd60e51b815260206004820152603660248201527f70726f7465737443616d706169676e28293a2c2070726f74657374206d75737460448201527f20626520616761696e73742076616c696420706f7374000000000000000000006064820152608401610762565b50600d805464ff000000001916640100000000179055565b6002546001600160a01b031633146118d55760405162461bcd60e51b815260206004820152602860248201527f4f6e6c792074686520627573696e6573732063616e2063616c6c207468697320604482015267333ab731ba34b7b760c11b6064820152608401610762565b426006541161194c5760405162461bcd60e51b815260206004820152603260248201527f6465706f7369745061796d656e7428293a205468652063616d706169676e206460448201527f6561646c696e65206861732070617373656400000000000000000000000000006064820152608401610762565b600034116119c25760405162461bcd60e51b815260206004820152603a60248201527f6465706f7369745061796d656e7428293a20596f75206d757374206465706f7360448201527f6974206d6f6e657920696e746f2074686520636f6e74726163740000000000006064820152608401610762565b600b805461ffff191690556001546001600160a01b03166000908152601060205260409020546119f39034906126f6565b6001546001600160a01b03166000908152601060209081526040918290209290925560085481513481529283015233917fb75c5efb8f695c77c10eab316b5f4b02cb281e500c8a4e5474d1c3e19d582002910160405180910390a2565b6002546001600160a01b03163314611abb5760405162461bcd60e51b815260206004820152602860248201527f4f6e6c792074686520627573696e6573732063616e2063616c6c207468697320604482015267333ab731ba34b7b760c11b6064820152608401610762565b6001546001600160a01b03163314611b285760405162461bcd60e51b815260206004820152602a60248201527f4f6e6c792074686520696e666c75656e6365722063616e2063616c6c207468696044820152693990333ab731ba34b7b760b11b6064820152608401610762565b600b805483151563010000000263ff0000001986151562010000021663ffff00001990921691909117179055600c8190556008546040517f069e8114a68e3c1e4e5b3628a73d09da0b8912fac2ee9b3000a7609db5fd35d6916110959186918691869190931515845291151560208401526040830152606082015260800190565b6001546001600160a01b03163314611c165760405162461bcd60e51b815260206004820152602a60248201527f4f6e6c792074686520696e666c75656e6365722063616e2063616c6c207468696044820152693990333ab731ba34b7b760b11b6064820152608401610762565b600b5460ff1680611c2e5750600b54610100900460ff165b80611c3e5750818015611c3e5750805b611cb05760405162461bcd60e51b815260206004820152603460248201527f706179496e666c75656e63657228293a20636f6e646974696f6e7320666f722060448201527f7061796d656e742077657265206e6f74206d65740000000000000000000000006064820152608401610762565b600d54640100000000900460ff1615611d315760405162461bcd60e51b815260206004820152603a60248201527f706179496e666c75656e63657228293a2043616e6e6f7420636f6d706c65746560448201527f207061796f7574207768656e20756e6465722070726f746573740000000000006064820152608401610762565b426006541115611db95760405162461bcd60e51b815260206004820152604760248201527f706179496e666c75656e63657228293a20746869732073686f756c64206f6e6c60448201527f7920747269676765722061667465722063616d706169676e20706572696f642060648201526634b99037bb32b960c91b608482015260a401610762565b811580611dc4575080155b15611e3d573415611e3d5760405162461bcd60e51b815260206004820152603160248201527f706179496e666c75656e63657228292c206e6f7420616c6c6f77656420746f2060448201527f666f726369626c792073656e64206574680000000000000000000000000000006064820152608401610762565b600b5460ff1615611f30576004546001546001600160a01b03166000908152601060205260409020541015611e7157600080fd5b6004546001546001600160a01b031660009081526010602052604081208054909190611e9e9084906126df565b90915550506001546004546040516001600160a01b039092169181156108fc0291906000818181858888f19350505050158015611edf573d6000803e3d6000fd5b50600b805460ff191690556004546008546040517f314b8d1c1fcf6a0803dd4c073d3a198302a249e6e1e0a6ce20a289f6f61c80e892611f2792908252602082015260400190565b60405180910390a15b600b54610100900460ff16156121a6576003546001546001600160a01b03166000908152601060205260409020541015611ff85760405162461bcd60e51b815260206004820152604f60248201527f706179496e666c75656e63657228293a2074686520617474656d70746564207060448201527f61796f7574206973206d6f7265207468616e20697320646573706f697465642060648201527f696e207468652063616d706169676e0000000000000000000000000000000000608482015260a401610762565b6001600e54106120e457600061201b600354600e546125b790919063ffffffff16565b6001546001600160a01b031660009081526010602052604081208054929350839290919061204a9084906126df565b90915550506001546040516001600160a01b039091169082156108fc029083906000818181858888f19350505050158015612089573d6000803e3d6000fd5b506000600e819055600b805461ff00191690556008546040805184815260208101939093528201527f87b5dda082866a70c4b6b0385cf225fc12d16f7ce514f116e058442d58c159ae9060600160405180910390a1506121a6565b6003546001546001600160a01b0316600090815260106020526040812080549091906121119084906126df565b90915550506001546003546040516001600160a01b039092169181156108fc0291906000818181858888f19350505050158015612152573d6000803e3d6000fd5b50600b805461ff0019169055600354600e5460085460408051938452602084019290925282820152517f7307a3d84e5bec561453196b4ecdf7841d6ce57ce51f495c86a42820b4d808d79181900360600190a15b8180156121b05750805b156122da57600c543410156122535760405162461bcd60e51b815260206004820152604260248201527f706179496e666c75656e63657228293a206f6e6c7920636f6e6669726d65642060448201527f7061796d656e7420616d6f756e74206f72206d6f72652063616e20626520736560648201527f6e74000000000000000000000000000000000000000000000000000000000000608482015260a401610762565b6001546040516001600160a01b03909116903480156108fc02916000818181858888f1935050505015801561228c573d6000803e3d6000fd5b506001546008546040805134815260208101929092526001600160a01b03909216917f9267f0dfa25dfb1e1a3676fdbc79fd9c57356e61c7da6a6865a492a68934e33f910160405180910390a25b5050565b6002546001600160a01b031633146123495760405162461bcd60e51b815260206004820152602860248201527f4f6e6c792074686520627573696e6573732063616e2063616c6c207468697320604482015267333ab731ba34b7b760c11b6064820152608401610762565b600d54640100000000900460ff1615156001146123ce5760405162461bcd60e51b815260206004820152603b60248201527f63616e63656c50726f7465737428293a2063616e6e6f742063616e63656c207060448201527f726f74657374206966206e6f7420756e6465722070726f7465737400000000006064820152608401610762565b426006541061242f5760405162461bcd60e51b815260206004820152602760248201527f63616e63656c50726f7465737428293a2070726f7465737420706572696f642060448201526634b99037bb32b960c91b6064820152608401610762565b600d805464ff0000000019169055565b6002546001600160a01b031633146124aa5760405162461bcd60e51b815260206004820152602860248201527f4f6e6c792074686520627573696e6573732063616e2063616c6c207468697320604482015267333ab731ba34b7b760c11b6064820152608401610762565b6001546001600160a01b031633146125175760405162461bcd60e51b815260206004820152602a60248201527f4f6e6c792074686520696e666c75656e6365722063616e2063616c6c207468696044820152693990333ab731ba34b7b760b11b6064820152608401610762565b600d80548215156101000261ff00198515151661ffff19909216919091171790556008546040517f4687ee8477dde21ae3ce64b7dd08a0cfcf3b7ee36772fd9e70391e197bc060fd91612580918591859192151583529015156020830152604082015260600190565b60405180910390a15050565b600061259882846126f6565b9392505050565b600061259882846126df565b6000612598828461270e565b60006125988284612730565b6000602082840312156125d557600080fd5b5035919050565b803580151581146125ec57600080fd5b919050565b60008060006060848603121561260657600080fd5b83359250612616602085016125dc565b9150604084013590509250925092565b6000806040838503121561263957600080fd5b612642836125dc565b9150612650602084016125dc565b90509250929050565b60006020828403121561266b57600080fd5b612598826125dc565b60006020828403121561268657600080fd5b81356001600160a01b038116811461259857600080fd5b6000806000606084860312156126b257600080fd5b6126bb846125dc565b9250612616602085016125dc565b634e487b7160e01b600052601160045260246000fd5b6000828210156126f1576126f16126c9565b500390565b60008219821115612709576127096126c9565b500190565b60008261272b57634e487b7160e01b600052601260045260246000fd5b500490565b600081600019048311821515161561274a5761274a6126c9565b50029056fea264697066735822122027189467b976bd5779b4e28129e6d7e79df6336bba248a21ecc2874c5b0e8ad664736f6c634300080a0033a26469706673582212206eb35f3ad7515247371088d4a02f4ae8c032b40a448f8d4182a1b2d4d76e90fe64736f6c634300080a0033",
  "immutableReferences": {},
  "source": "pragma solidity ^0.8.4;\nimport './Famepay.sol';\nimport '@openzeppelin/contracts/utils/math/SafeMath.sol';\nimport '@openzeppelin/contracts/security/ReentrancyGuard.sol';\n\n// SPDX-License-Identifier: PRIVATE\n\ncontract FamepayFactory is ReentrancyGuard {\n    using SafeMath for uint256;\n\n    uint256 public campaignPointer;\n    uint256 incrementalPaymentsTillJackpotValue;\n    uint256 incrementalPaymentsTillJackpotAmount;\n\n    address private platform; //payable?<-\n\n    mapping(uint256 => address) public famepayCampaigns;\n\n    event NewFamepayCampaignCreated(\n        address indexed _influencer,\n        address indexed _business,\n        address indexed _campaignAddress,\n        uint256 _campaignId,\n        uint256 _startDate,\n        uint256 _deadline,\n        uint256 _simplePostDuration,\n        uint256 _jackpotPayment,\n        uint256 _incrementalPayment,\n        uint256 _jackpotTargetAmount,\n        uint256 _incrementalTargetAmount,\n        uint256 _potentialPayoutAmount,\n        bytes4 _objective\n    );\n\n    constructor() {\n        platform = msg.sender;\n    }\n\n    //require that simple post duration and incremental payment. One of these must be 0 or null <---\n    function newFamepayCampaign(\n        address payable _influencer,\n        address payable _business,\n        uint256 _startDate,\n        uint256 _deadline,\n        uint256 _simplePostDuration,\n        uint256 _jackpotPayment, //$1000 if we hit 1,000,000 views\n        uint256 _incrementalPayment, //$50 for every 50,000 views    //0 for simple post\n        uint256 _jackpotTargetAmount,\n        uint256 _incrementalTargetAmount, //1 for simple post\n        uint256 _potentialPayoutAmount, //total in contract $2000\n        bytes4 _objective\n    ) external payable {\n        if (keccak256(abi.encodePacked(_objective)) != keccak256(abi.encodePacked('post'))) {\n            //review this if logic\n            //ex. 7 payments till jackpot\n            incrementalPaymentsTillJackpotAmount = _jackpotTargetAmount.div(_incrementalTargetAmount);\n            //ex. 7 payments is total $400\n            incrementalPaymentsTillJackpotValue = _incrementalPayment.mul(incrementalPaymentsTillJackpotAmount);\n            //payout must be bigger than totalIncremental reward + jackpot reward\n            require(\n                _potentialPayoutAmount > _jackpotPayment.add(incrementalPaymentsTillJackpotValue),\n                'Potential payout is invalid'\n            );\n            //all the logic on one line\n            require(\n                _potentialPayoutAmount >\n                    _jackpotPayment.add(_incrementalPayment.mul(_jackpotTargetAmount.div(_incrementalTargetAmount))),\n                'Potential payout is invalid one line logic'\n            ); //failing in tests\n        } else {\n            require(_potentialPayoutAmount >= _jackpotPayment, 'Amount deposited must be greater than reward');\n        }\n        campaignPointer = campaignPointer.add(1);\n        uint256 campaignId = campaignPointer;\n        Famepay famepay = new Famepay{value: msg.value}(\n            _influencer,\n            _business,\n            _startDate,\n            _deadline,\n            _simplePostDuration,\n            _jackpotPayment,\n            _incrementalPayment,\n            _jackpotTargetAmount,\n            _incrementalTargetAmount,\n            _objective,\n            campaignId\n        );\n        famepayCampaigns[campaignId] = address(famepay);\n        emit NewFamepayCampaignCreated(\n            _influencer,\n            _business,\n            address(famepay),\n            campaignId,\n            _startDate,\n            _deadline,\n            _simplePostDuration,\n            _jackpotPayment,\n            _incrementalPayment,\n            _jackpotTargetAmount,\n            _incrementalTargetAmount,\n            _potentialPayoutAmount,\n            _objective\n        );\n    }\n\n    function getCampaign(uint256 _campaignId) external view returns (address) {\n        return famepayCampaigns[_campaignId];\n    }\n}\n",
  "sourcePath": "/Users/benweinberg/Desktop/Work/FamePay/FamePayContract/contracts/FamepayFactory.sol",
  "compiler": {
    "name": "solc",
    "version": "0.8.10+commit.fc410830.Emscripten.clang"
  },
  "schemaVersion": "3.4.3",
  "updatedAt": "2021-12-03T03:09:05.959Z",
  "networkType": "ethereum",
  "devdoc": {
    "kind": "dev",
    "methods": {},
    "version": 1
  },
  "userdoc": {
    "kind": "user",
    "methods": {},
    "version": 1
  }
}