{
  "contractName": "FamepayFactory",
  "abi": [
    {
      "inputs": [],
      "stateMutability": "nonpayable",
      "type": "constructor"
    },
    {
      "anonymous": false,
      "inputs": [
        {
          "indexed": true,
          "internalType": "address",
          "name": "_influencer",
          "type": "address"
        },
        {
          "indexed": true,
          "internalType": "address",
          "name": "_business",
          "type": "address"
        },
        {
          "indexed": true,
          "internalType": "address",
          "name": "_campaignAddress",
          "type": "address"
        },
        {
          "indexed": false,
          "internalType": "uint256",
          "name": "_campaignId",
          "type": "uint256"
        },
        {
          "indexed": false,
          "internalType": "uint256",
          "name": "_startDate",
          "type": "uint256"
        },
        {
          "indexed": false,
          "internalType": "uint256",
          "name": "_deadline",
          "type": "uint256"
        },
        {
          "indexed": false,
          "internalType": "uint256",
          "name": "_simplePostDuration",
          "type": "uint256"
        },
        {
          "indexed": false,
          "internalType": "uint256",
          "name": "_jackpotPayment",
          "type": "uint256"
        },
        {
          "indexed": false,
          "internalType": "uint256",
          "name": "_incrementalPayment",
          "type": "uint256"
        },
        {
          "indexed": false,
          "internalType": "uint256",
          "name": "_jackpotTargetAmount",
          "type": "uint256"
        },
        {
          "indexed": false,
          "internalType": "uint256",
          "name": "_incrementalTargetAmount",
          "type": "uint256"
        },
        {
          "indexed": false,
          "internalType": "uint256",
          "name": "_potentialPayoutAmount",
          "type": "uint256"
        },
        {
          "indexed": false,
          "internalType": "string",
          "name": "_objective",
          "type": "string"
        }
      ],
      "name": "NewFamepayCampaignCreated",
      "type": "event"
    },
    {
      "inputs": [],
      "name": "campaignPointer",
      "outputs": [
        {
          "internalType": "uint256",
          "name": "",
          "type": "uint256"
        }
      ],
      "stateMutability": "view",
      "type": "function",
      "constant": true
    },
    {
      "inputs": [
        {
          "internalType": "uint256",
          "name": "",
          "type": "uint256"
        }
      ],
      "name": "famepayCampaigns",
      "outputs": [
        {
          "internalType": "address",
          "name": "",
          "type": "address"
        }
      ],
      "stateMutability": "view",
      "type": "function",
      "constant": true
    },
    {
      "inputs": [
        {
          "internalType": "address payable",
          "name": "_business",
          "type": "address"
        },
        {
          "internalType": "address payable",
          "name": "_influencer",
          "type": "address"
        },
        {
          "internalType": "uint256",
          "name": "_startDate",
          "type": "uint256"
        },
        {
          "internalType": "uint256",
          "name": "_deadline",
          "type": "uint256"
        },
        {
          "internalType": "uint256",
          "name": "_simplePostDuration",
          "type": "uint256"
        },
        {
          "internalType": "uint256",
          "name": "_jackpotPayment",
          "type": "uint256"
        },
        {
          "internalType": "uint256",
          "name": "_incrementalPayment",
          "type": "uint256"
        },
        {
          "internalType": "uint256",
          "name": "_jackpotTargetAmount",
          "type": "uint256"
        },
        {
          "internalType": "uint256",
          "name": "_incrementalTargetAmount",
          "type": "uint256"
        },
        {
          "internalType": "uint256",
          "name": "_potentialPayoutAmount",
          "type": "uint256"
        },
        {
          "internalType": "string",
          "name": "_objective",
          "type": "string"
        }
      ],
      "name": "newFamepayCampaign",
      "outputs": [],
      "stateMutability": "payable",
      "type": "function",
      "payable": true
    },
    {
      "inputs": [
        {
          "internalType": "uint256",
          "name": "_campaignId",
          "type": "uint256"
        }
      ],
      "name": "getCampaign",
      "outputs": [
        {
          "internalType": "address",
          "name": "",
          "type": "address"
        }
      ],
      "stateMutability": "view",
      "type": "function",
      "constant": true
    }
  ],
  "bytecode": "0x608060405234801561001057600080fd5b506001600055600480546001600160a01b03191633179055611ab8806100376000396000f3fe60806040526004361061003f5760003560e01c806325ca4024146100445780632a11c0e61461008a5780635598f8cc14610180578063a29bf6fa146101aa575b600080fd5b34801561005057600080fd5b5061006e6004803603602081101561006757600080fd5b50356101d1565b604080516001600160a01b039092168252519081900360200190f35b61017e60048036036101608110156100a157600080fd5b6001600160a01b03823581169260208101359091169160408201359160608101359160808201359160a08101359160c08201359160e0810135916101008201359161012081013591810190610160810161014082013564010000000081111561010957600080fd5b82018360208201111561011b57600080fd5b8035906020019184600183028401116401000000008311171561013d57600080fd5b91908080601f0160208091040260200160405190810160405280939291908181526020018383808284376000920191909152509295506101ec945050505050565b005b34801561018c57600080fd5b5061006e600480360360208110156101a357600080fd5b5035610593565b3480156101b657600080fd5b506101bf6105ae565b60408051918252519081900360200190f35b6005602052600090815260409020546001600160a01b031681565b60405160200180807f73696d706c65506f737400000000000000000000000000000000000000000000815250600a01905060405160208183030381529060405280519060200120816040516020018082805190602001908083835b602083106102665780518252601f199092019160209182019101610247565b6001836020036101000a0380198251168184511680821785525050505050509050019150506040516020818303038152906040528051906020012014610328576102b084846105b4565b60038190556102c09086906105ff565b60028190556102d0908790610658565b8211610323576040805162461bcd60e51b815260206004820152601b60248201527f506f74656e7469616c207061796f757420697320696e76616c69640000000000604482015290519081900360640190fd5b610335565b8582101561033557600080fd5b6001805461034291610658565b600181905550600060015490506000348c8e848e8e8e8e8e8e8e8d60405161036990610754565b808c6001600160a01b031681526020018b6001600160a01b031681526020018a815260200189815260200188815260200187815260200186815260200185815260200184815260200183815260200180602001828103825283818151815260200191508051906020019080838360005b838110156103f15781810151838201526020016103d9565b50505050905090810190601f16801561041e5780820380516001836020036101000a031916815260200191505b509c505050505050505050505050506040518091039082f090508015801561044a573d6000803e3d6000fd5b509050806005600084815260200190815260200160002060006101000a8154816001600160a01b0302191690836001600160a01b03160217905550806001600160a01b03168d6001600160a01b03168d6001600160a01b03167f59fd934695ccd6b38985622aa2218b8c60cb9cf79579931886923ab44e77556c858f8f8f8f8f8f8f8f8f604051808b81526020018a815260200189815260200188815260200187815260200186815260200185815260200184815260200183815260200180602001828103825283818151815260200191508051906020019080838360005b83811015610541578181015183820152602001610529565b50505050905090810190601f16801561056e5780820380516001836020036101000a031916815260200191505b509b50505050505050505050505060405180910390a450505050505050505050505050565b6000908152600560205260409020546001600160a01b031690565b60015481565b60006105f683836040518060400160405280601a81526020017f536166654d6174683a206469766973696f6e206279207a65726f0000000000008152506106b2565b90505b92915050565b60008261060e575060006105f9565b8282028284828161061b57fe5b04146105f65760405162461bcd60e51b8152600401808060200182810382526021815260200180611a626021913960400191505060405180910390fd5b6000828201838110156105f6576040805162461bcd60e51b815260206004820152601b60248201527f536166654d6174683a206164646974696f6e206f766572666c6f770000000000604482015290519081900360640190fd5b6000818361073e5760405162461bcd60e51b81526004018080602001828103825283818151815260200191508051906020019080838360005b838110156107035781810151838201526020016106eb565b50505050905090810190601f1680156107305780820380516001836020036101000a031916815260200191505b509250505060405180910390fd5b50600083858161074a57fe5b0495945050505050565b611300806107628339019056fe60806040819052600b805463ffff000019169055620013003881900390819083398181016040526101608110156200003657600080fd5b815160208301516040808501516060860151608087015160a088015160c089015160e08a01516101008b01516101208c01516101408d01805199519b9d9a9c989b979a96999598949793969295919483019291846401000000008211156200009d57600080fd5b908301906020820185811115620000b357600080fd5b8251640100000000811182820188101715620000ce57600080fd5b82525081516020918201929091019080838360005b83811015620000fd578181015183820152602001620000e3565b50505050905090810190601f1680156200012b5780820380516001836020036101000a031916815260200191505b5060405250506001600081905580546001600160a01b03808f166001600160a01b03199283161790925560028054928e169290911691909117905550600889905560058890556006879055600786905560048590556003849055600a83905560098290558051620001a490600c906020840190620001d7565b50506001546001600160a01b03166000908152600d60205260409020805447019055506200027398505050505050505050565b828054600181600116156101000203166002900490600052602060002090601f016020900481019282601f106200021a57805160ff19168380011785556200024a565b828001600101855582156200024a579182015b828111156200024a5782518255916020019190600101906200022d565b50620002589291506200025c565b5090565b5b808211156200025857600081556001016200025d565b61107d80620002836000396000f3fe6080604052600436106101ac5760003560e01c8063a4b870c4116100ec578063df2d88ca1161008a578063e74dc11c11610064578063e74dc11c146104e6578063f318e557146104fb578063f41662ed14610510578063fac3fd5914610488576101ac565b8063df2d88ca14610488578063e3668632146104bc578063e53abae9146104d1576101ac565b8063ac35e160116100c6578063ac35e16014610408578063b801ed8514610431578063da85a11f14610446578063dc5b13311461045b576101ac565b8063a4b870c41461039c578063a87588e7146103cf578063aa5e215314610400576101ac565b80632fe289b311610159578063389b753311610133578063389b75331461030a578063612abb10146103365780637005a8651461034b5780638d0449d61461037f576101ac565b80632fe289b3146102cb5780633621905f146102e05780633869cbfa146102f5576101ac565b8063188ec3561161018a578063188ec3561461028c5780631d8d1f66146102a157806329dcb0cf146102b6576101ac565b806304963369146101b15780630b97bc86146101ed57806314f1586a14610202575b600080fd5b3480156101bd57600080fd5b506101db600480360360208110156101d457600080fd5b5035610525565b60408051918252519081900360200190f35b3480156101f957600080fd5b506101db610543565b34801561020e57600080fd5b50610217610549565b6040805160208082528351818301528351919283929083019185019080838360005b83811015610251578181015183820152602001610239565b50505050905090810190601f16801561027e5780820380516001836020036101000a031916815260200191505b509250505060405180910390f35b34801561029857600080fd5b506101db6105d7565b3480156102ad57600080fd5b506101db6105db565b3480156102c257600080fd5b506101db6105f9565b3480156102d757600080fd5b506101db6105ff565b3480156102ec57600080fd5b506101db610605565b34801561030157600080fd5b506101db61060b565b34801561031657600080fd5b506103346004803603602081101561032d57600080fd5b5035610611565b005b34801561034257600080fd5b506101db610665565b34801561035757600080fd5b506103346004803603604081101561036e57600080fd5b50803515159060200135151561066b565b6103346004803603602081101561039557600080fd5b50356107b1565b3480156103a857600080fd5b506101db600480360360208110156103bf57600080fd5b50356001600160a01b031661091b565b3480156103db57600080fd5b506103e461092d565b604080516001600160a01b039092168252519081900360200190f35b61033461093c565b34801561041457600080fd5b5061041d610a35565b604080519115158252519081900360200190f35b34801561043d57600080fd5b5061041d610a43565b34801561045257600080fd5b506101db610a53565b6103346004803603606081101561047157600080fd5b508035151590602081013515159060400135610a59565b34801561049457600080fd5b50610334600480360360408110156104ab57600080fd5b508035151590602001351515610ea0565b3480156104c857600080fd5b506101db610ed0565b3480156104dd57600080fd5b5061041d610ed6565b3480156104f257600080fd5b506103e4610ee5565b34801561050757600080fd5b506101db610ef4565b34801561051c57600080fd5b5061041d610ef8565b600e818154811061053257fe5b600091825260209091200154905081565b60055481565b600c805460408051602060026001851615610100026000190190941693909304601f810184900484028201840190925281815292918301828280156105cf5780601f106105a4576101008083540402835291602001916105cf565b820191906000526020600020905b8154815290600101906020018083116105b257829003601f168201915b505050505081565b4290565b6001546001600160a01b03166000908152600d602052604090205490565b60065481565b600a5481565b60035481565b60075481565b806006541061061f57600080fd5b600681905560085460408051838152602081019290925280517f53363e7eeef177f60d15e790e42c0cc492e5bee81887ced1390b5c2553ad2a2a9281900390910190a150565b60095481565b600b805460ff1916831515179055808015610746575060405160200180807f73696d706c65506f737400000000000000000000000000000000000000000000815250600a01905060405160208183030381529060405280519060200120600c60405160200180828054600181600116156101000203166002900480156107285780601f10610706576101008083540402835291820191610728565b820191906000526020600020905b815481529060010190602001808311610714575b50509150506040516020818303038152906040528051906020012014155b1561079957600b805461ff00191661010083151502179055600354600e80546001810182556000919091527fbb7b4a454dc3493923482f07822329ed19e8244eff582cc204f8554c3620c3fd01556107ad565b600b805461ff001916610100831515021790555b5050565b600b5460ff161561082f57600b546107dc9060ff620100008204811691630100000090041683610a59565b6002546008546040805160018152602081019290925280516001600160a01b03909316927fcfe51a56170170210c6b5def6488eabb132da271f908c143e485c0ae70edec6f9281900390910190a26108ae565b600b54610100900460ff16156108ae57600b5461085f9060ff620100008204811691630100000090041683610a59565b6002546008546040805160008152602081019290925280516001600160a01b03909316927f8d2937ab1456e52d5e52590e71857fe5899a3f1998d2098e812935ca22c062179281900390910190a25b6001546001600160a01b03166000908152600d602090815260408083205460085482519182529281019390935282810191909152517fdbda569e7119cd172891e7c63899a4838e4e8670b1175345bf293cd3f31347489181900360600190a16002546001600160a01b0316ff5b600d6020526000908152604090205481565b6001546001600160a01b031681565b4260065411610992576040805162461bcd60e51b815260206004820181905260248201527f5468652063616d706169676e20646561646c696e652068617320706173736564604482015290519081900360640190fd5b600034116109d15760405162461bcd60e51b81526004018080602001828103825260288152602001806110206028913960400191505060405180910390fd5b6001546001600160a01b03166000908152600d6020908152604091829020805434908101909155600854835191825291810191909152815133927fb75c5efb8f695c77c10eab316b5f4b02cb281e500c8a4e5474d1c3e19d582002928290030190a2565b600b54610100900460ff1681565b600b546301000000900460ff1681565b600e5490565b600b5460ff1680610a715750600b54610100900460ff165b80610a815750828015610a815750815b610abc5760405162461bcd60e51b8152600401808060200182810382526023815260200180610f9e6023913960400191505060405180910390fd5b426006541015610b13576040805162461bcd60e51b815260206004820152601b60248201527f7468652063616d706169676e20706572696f64206973206f7665720000000000604482015290519081900360640190fd5b600b5460ff1615610bed576004546001546001600160a01b03166000908152600d60205260409020541015610b4757600080fd5b60048054600180546001600160a01b039081166000908152600d602052604080822080549590950390945591549354925193169282156108fc029291818181858888f19350505050158015610ba0573d6000803e3d6000fd5b50600b805460ff1916905560045460085460408051928352602083019190915280517f314b8d1c1fcf6a0803dd4c073d3a198302a249e6e1e0a6ce20a289f6f61c80e89281900390910190a15b600b54610100900460ff1615610ddd576003546001546001600160a01b03166000908152600d60205260409020541015610c585760405162461bcd60e51b815260040180806020018281038252603e815260200180610fc1603e913960400191505060405180910390fd5b600e54600111610d3057600354600e54600091610c759190610f01565b600180546001600160a01b039081166000908152600d6020526040808220805486900390559254925193945091169183156108fc0291849190818181858888f19350505050158015610ccb573d6000803e3d6000fd5b50610cd8600e6000610f63565b600b805461ff0019169055600e5460085460408051848152602081019390935282810191909152517f4e096a163f990a9051b37b380a1fdc57da1ed67943857ddeb496a302fea7a7c09181900360600190a150610ddd565b60038054600180546001600160a01b039081166000908152600d602052604080822080549590950390945591549354925193169282156108fc029291818181858888f19350505050158015610d89573d6000803e3d6000fd5b50600b805461ff0019169055600354600e5460085460408051938452602084019290925282820152517f4e096a163f990a9051b37b380a1fdc57da1ed67943857ddeb496a302fea7a7c09181900360600190a15b828015610de75750815b15610e9b576001546001600160a01b03166000908152600d60205260409020548110610e1257600080fd5b6001546040516001600160a01b039091169082156108fc029083906000818181858888f19350505050158015610e4c573d6000803e3d6000fd5b5060015460085460408051848152602081019290925280516001600160a01b03909316927f9267f0dfa25dfb1e1a3676fdbc79fd9c57356e61c7da6a6865a492a68934e33f9281900390910190a25b505050565b600b805491151563010000000263ff00000019931515620100000262ff0000199093169290921792909216179055565b60045481565b600b5462010000900460ff1681565b6002546001600160a01b031681565b4790565b600b5460ff1681565b600082610f1057506000610f5d565b82820282848281610f1d57fe5b0414610f5a5760405162461bcd60e51b8152600401808060200182810382526021815260200180610fff6021913960400191505060405180910390fd5b90505b92915050565b5080546000825590600052602060002090810190610f819190610f84565b50565b5b80821115610f995760008155600101610f85565b509056fe636f6e646974696f6e7320666f72207061796d656e742077657265206e6f74206d657474686520617474656d70746564207061796f7574206973206d6f7265207468616e20697320646573706f6974656420696e207468652063616d706169676e536166654d6174683a206d756c7469706c69636174696f6e206f766572666c6f77596f75206d757374206465706f736974206d6f6e657920696e746f2074686520636f6e7472616374a2646970667358221220d94bb0f9d165f8fa5f79192121bc7266bdbaddac47a43e401efa5689e305c1d664736f6c634300060c0033536166654d6174683a206d756c7469706c69636174696f6e206f766572666c6f77a2646970667358221220282df1473c01377055d48bd96b2499fd5308cb1612a0b5ae9f30912607ac402264736f6c634300060c0033",
  "immutableReferences": {},
  "source": "pragma solidity >=0.4.22 <0.8.0;\nimport './Famepay.sol';\nimport '@openzeppelin/contracts/math/SafeMath.sol';\nimport \"@openzeppelin/contracts/utils/ReentrancyGuard.sol\";\n\n// SPDX-License-Identifier: PRIVATE\n\ncontract FamepayFactory is ReentrancyGuard {\n    using SafeMath for uint256;\n    uint256 public campaignPointer;\n    uint256 incrementalPaymentsTillJackpotValue;\n    uint256 incrementalPaymentsTillJackpotAmount;\n    address private platform; //payable?<-\n    mapping(uint256 => address) public famepayCampaigns;\n    event NewFamepayCampaignCreated(\n        address indexed _influencer,\n        address indexed _business,\n        address indexed _campaignAddress,\n        uint256 _campaignId,\n        uint256 _startDate,\n        uint256 _deadline,\n        uint256 _simplePostDuration,\n        uint256 _jackpotPayment,\n        uint256 _incrementalPayment,\n        uint256 _jackpotTargetAmount,\n        uint256 _incrementalTargetAmount,\n        uint256 _potentialPayoutAmount,\n        string _objective\n    );\n\n    constructor() public {\n        platform = msg.sender;\n    }\n    \n    function newFamepayCampaign(\n        address payable _business,\n        address payable _influencer,\n        uint256 _startDate,\n        uint256 _deadline,\n        uint256 _simplePostDuration,\n        uint256 _jackpotPayment, //$1000 if we hit 1,000,000 views\n        uint256 _incrementalPayment, //$50 for every 50,000 views    //0 for simple post\n        uint256 _jackpotTargetAmount,\n        uint256 _incrementalTargetAmount, //1 for simple post\n        uint256 _potentialPayoutAmount, //total in contract $2000\n        string memory _objective\n    ) payable public {\n        if(keccak256(abi.encodePacked(_objective)) != keccak256(abi.encodePacked(\"simplePost\"))) {  //review this if logic\n            incrementalPaymentsTillJackpotAmount = _jackpotTargetAmount.div(_incrementalTargetAmount);\n            incrementalPaymentsTillJackpotValue = _incrementalPayment.mul(incrementalPaymentsTillJackpotAmount);\n            require(_potentialPayoutAmount > _jackpotPayment.add(incrementalPaymentsTillJackpotValue), \"Potential payout is invalid\");\n            // require(_potentialPayoutAmount > _jackpotPayment.add(_incrementalPayment.mul(_jackpotTargetAmount.div(_incrementalTargetAmount))));\n        } else {\n            require(_potentialPayoutAmount >= _jackpotPayment);\n        }\n        campaignPointer = campaignPointer.add(1);\n        uint256 campaignId = campaignPointer;\n        Famepay famepay = new Famepay{value: msg.value}(_influencer, _business, campaignId, _startDate, _deadline, _simplePostDuration, _jackpotPayment, _incrementalPayment, _jackpotTargetAmount, _incrementalTargetAmount,/* _potentialPayoutAmount,*/ _objective) ;\n        famepayCampaigns[campaignId] = address(famepay);\n        emit NewFamepayCampaignCreated(_influencer, _business, address(famepay), campaignId, _startDate, _deadline, _simplePostDuration, _jackpotPayment, _incrementalPayment, _jackpotTargetAmount, _incrementalTargetAmount, _potentialPayoutAmount, _objective);\n    }\n\n    function getCampaign(uint256 _campaignId) view public returns (address) {\n         return famepayCampaigns[_campaignId];\n    }\n}\n",
  "sourcePath": "/Users/benweinberg/Desktop/Work/FamePay/FamePayContract/contracts/FamepayFactory.sol",
  "compiler": {
    "name": "solc",
    "version": "0.6.12+commit.27d51765.Emscripten.clang"
  },
  "schemaVersion": "3.4.1",
  "updatedAt": "2021-06-25T02:46:53.896Z",
  "networkType": "ethereum",
  "devdoc": {
    "kind": "dev",
    "methods": {},
    "version": 1
  },
  "userdoc": {
    "kind": "user",
    "methods": {},
    "version": 1
  }
}