{
  "contractName": "FamepayFactory",
  "abi": [
    {
      "inputs": [],
      "stateMutability": "nonpayable",
      "type": "constructor"
    },
    {
      "anonymous": false,
      "inputs": [
        {
          "indexed": false,
          "internalType": "address",
          "name": "_deployedCampaign",
          "type": "address"
        },
        {
          "indexed": false,
          "internalType": "address",
          "name": "_influencer",
          "type": "address"
        },
        {
          "indexed": false,
          "internalType": "address",
          "name": "_business",
          "type": "address"
        },
        {
          "indexed": false,
          "internalType": "uint256",
          "name": "_campaignId",
          "type": "uint256"
        },
        {
          "indexed": false,
          "internalType": "uint256",
          "name": "_startDate",
          "type": "uint256"
        },
        {
          "indexed": false,
          "internalType": "uint256",
          "name": "_deadline",
          "type": "uint256"
        },
        {
          "indexed": false,
          "internalType": "uint256",
          "name": "_jackpotPayment",
          "type": "uint256"
        },
        {
          "indexed": false,
          "internalType": "uint256",
          "name": "_incrementalPayment",
          "type": "uint256"
        },
        {
          "indexed": false,
          "internalType": "uint256",
          "name": "_jackpotTargetAmount",
          "type": "uint256"
        },
        {
          "indexed": false,
          "internalType": "uint256",
          "name": "_incrementalTargetAmount",
          "type": "uint256"
        },
        {
          "indexed": false,
          "internalType": "uint256",
          "name": "_potentialPayoutAmount",
          "type": "uint256"
        },
        {
          "indexed": false,
          "internalType": "string",
          "name": "_objective",
          "type": "string"
        }
      ],
      "name": "NewFamepayCampaignCreated",
      "type": "event"
    },
    {
      "inputs": [],
      "name": "campaignPointer",
      "outputs": [
        {
          "internalType": "uint256",
          "name": "",
          "type": "uint256"
        }
      ],
      "stateMutability": "view",
      "type": "function",
      "constant": true
    },
    {
      "inputs": [
        {
          "internalType": "address payable",
          "name": "_business",
          "type": "address"
        },
        {
          "internalType": "address payable",
          "name": "_influencer",
          "type": "address"
        },
        {
          "internalType": "uint256",
          "name": "_startDate",
          "type": "uint256"
        },
        {
          "internalType": "uint256",
          "name": "_deadline",
          "type": "uint256"
        },
        {
          "internalType": "uint256",
          "name": "_jackpotPayment",
          "type": "uint256"
        },
        {
          "internalType": "uint256",
          "name": "_incrementalPayment",
          "type": "uint256"
        },
        {
          "internalType": "uint256",
          "name": "_jackpotTargetAmount",
          "type": "uint256"
        },
        {
          "internalType": "uint256",
          "name": "_incrementalTargetAmount",
          "type": "uint256"
        },
        {
          "internalType": "uint256",
          "name": "_potentialPayoutAmount",
          "type": "uint256"
        },
        {
          "internalType": "string",
          "name": "_objective",
          "type": "string"
        }
      ],
      "name": "newFamepayCampaign",
      "outputs": [],
      "stateMutability": "payable",
      "type": "function",
      "payable": true
    },
    {
      "inputs": [
        {
          "internalType": "uint256",
          "name": "_campaignId",
          "type": "uint256"
        }
      ],
      "name": "getCampaign",
      "outputs": [
        {
          "internalType": "address",
          "name": "",
          "type": "address"
        }
      ],
      "stateMutability": "view",
      "type": "function",
      "constant": true
    }
  ],
  "bytecode": "0x608060405234801561001057600080fd5b50600380546001600160a01b03191633179055611a20806100326000396000f3fe6080604052600436106100345760003560e01c80635598f8cc14610039578063a29bf6fa1461007f578063e760fc8b146100a6575b600080fd5b34801561004557600080fd5b506100636004803603602081101561005c57600080fd5b5035610196565b604080516001600160a01b039092168252519081900360200190f35b34801561008b57600080fd5b506100946101b1565b60408051918252519081900360200190f35b61019460048036036101408110156100bd57600080fd5b6001600160a01b03823581169260208101359091169160408201359160608101359160808201359160a08101359160c08201359160e0810135916101008201359190810190610140810161012082013564010000000081111561011f57600080fd5b82018360208201111561013157600080fd5b8035906020019184600183028401116401000000008311171561015357600080fd5b91908080601f0160208091040260200160405190810160405280939291908181526020018383808284376000920191909152509295506101b7945050505050565b005b6000908152600460205260409020546001600160a01b031690565b60005481565b60405160200180807f73696d706c65506f737400000000000000000000000000000000000000000000815250600a01905060405160208183030381529060405280519060200120816040516020018082805190602001908083835b602083106102315780518252601f199092019160209182019101610212565b6001836020036101000a03801982511681845116808217855250505050505090500191505060405160208183030381529060405280519060200120146102f35761027b8484610562565b600281905561028b9086906105ad565b600181905561029b908790610606565b82116102ee576040805162461bcd60e51b815260206004820152601b60248201527f506f74656e7469616c207061796f757420697320696e76616c69640000000000604482015290519081900360640190fd5b610300565b8582101561030057600080fd5b60005461030e906001610606565b6000819055506000805490506000348b8d848d8d8d8d8d8d8c60405161033390610702565b808b6001600160a01b031681526020018a6001600160a01b0316815260200189815260200188815260200187815260200186815260200185815260200184815260200183815260200180602001828103825283818151815260200191508051906020019080838360005b838110156103b557818101518382015260200161039d565b50505050905090810190601f1680156103e25780820380516001836020036101000a031916815260200191505b509b5050505050505050505050506040518091039082f090508015801561040d573d6000803e3d6000fd5b509050806004600084815260200190815260200160002060006101000a8154816001600160a01b0302191690836001600160a01b031602179055507fd07606fa23ac721f55e9f11a7126ae0cfeab6d45ea97556b11aa9ae8e29213df818c8e858e8e8e8e8e8e8e8e604051808d6001600160a01b031681526020018c6001600160a01b031681526020018b6001600160a01b031681526020018a815260200189815260200188815260200187815260200186815260200185815260200184815260200183815260200180602001828103825283818151815260200191508051906020019080838360005b8381101561050f5781810151838201526020016104f7565b50505050905090810190601f16801561053c5780820380516001836020036101000a031916815260200191505b509d505050505050505050505050505060405180910390a1505050505050505050505050565b60006105a483836040518060400160405280601a81526020017f536166654d6174683a206469766973696f6e206279207a65726f000000000000815250610660565b90505b92915050565b6000826105bc575060006105a7565b828202828482816105c957fe5b04146105a45760405162461bcd60e51b81526004018080602001828103825260218152602001806119ca6021913960400191505060405180910390fd5b6000828201838110156105a4576040805162461bcd60e51b815260206004820152601b60248201527f536166654d6174683a206164646974696f6e206f766572666c6f770000000000604482015290519081900360640190fd5b600081836106ec5760405162461bcd60e51b81526004018080602001828103825283818151815260200191508051906020019080838360005b838110156106b1578181015183820152602001610699565b50505050905090810190601f1680156106de5780820380516001836020036101000a031916815260200191505b509250505060405180910390fd5b5060008385816106f857fe5b0495945050505050565b6112ba806107108339019056fe608060408190526009805463ffff000019169055620012ba3881900390819083398181016040526101408110156200003657600080fd5b815160208301516040808501516060860151608087015160a088015160c089015160e08a01516101008b01516101208c01805198519a9c999b979a9699959894979396929591949293820192846401000000008211156200009657600080fd5b908301906020820185811115620000ac57600080fd5b8251640100000000811182820188101715620000c757600080fd5b82525081516020918201929091019080838360005b83811015620000f6578181015183820152602001620000dc565b50505050905090810190601f168015620001245780820380516001836020036101000a031916815260200191505b506040525050600080546001600160a01b03808e166001600160a01b03199283161790925560018054928d169290911691909117905550600688905560048790556005869055600385905560028490556008839055600782905580516200019390600a906020840190620001c3565b5050600080546001600160a01b03168152600b60205260409020805447019055506200025f975050505050505050565b828054600181600116156101000203166002900490600052602060002090601f016020900481019282601f106200020657805160ff191683800117855562000236565b8280016001018555821562000236579182015b828111156200023657825182559160200191906001019062000219565b506200024492915062000248565b5090565b5b8082111562000244576000815560010162000249565b61104b806200026f6000396000f3fe6080604052600436106101a15760003560e01c8063a87588e7116100e1578063df2d88ca1161008a578063e74dc11c11610064578063e74dc11c146104c6578063f318e557146104db578063f41662ed146104f0578063fac3fd5914610468576101a1565b8063df2d88ca14610468578063e36686321461049c578063e53abae9146104b1576101a1565b8063b801ed85116100bb578063b801ed8514610411578063da85a11f14610426578063dc5b13311461043b576101a1565b8063a87588e7146103af578063aa5e2153146103e0578063ac35e160146103e8576101a1565b80632fe289b31161014e578063612abb1011610128578063612abb10146103165780637005a8651461032b5780638d0449d61461035f578063a4b870c41461037c576101a1565b80632fe289b3146102c05780633621905f146102d5578063389b7533146102ea576101a1565b8063188ec3561161017f578063188ec356146102815780631d8d1f661461029657806329dcb0cf146102ab576101a1565b806304963369146101a65780630b97bc86146101e257806314f1586a146101f7575b600080fd5b3480156101b257600080fd5b506101d0600480360360208110156101c957600080fd5b5035610505565b60408051918252519081900360200190f35b3480156101ee57600080fd5b506101d0610523565b34801561020357600080fd5b5061020c610529565b6040805160208082528351818301528351919283929083019185019080838360005b8381101561024657818101518382015260200161022e565b50505050905090810190601f1680156102735780820380516001836020036101000a031916815260200191505b509250505060405180910390f35b34801561028d57600080fd5b506101d06105b7565b3480156102a257600080fd5b506101d06105bb565b3480156102b757600080fd5b506101d06105d7565b3480156102cc57600080fd5b506101d06105dd565b3480156102e157600080fd5b506101d06105e3565b3480156102f657600080fd5b506103146004803603602081101561030d57600080fd5b50356105e9565b005b34801561032257600080fd5b506101d061063d565b34801561033757600080fd5b506103146004803603604081101561034e57600080fd5b508035151590602001351515610643565b6103146004803603602081101561037557600080fd5b5035610789565b34801561038857600080fd5b506101d06004803603602081101561039f57600080fd5b50356001600160a01b03166108f5565b3480156103bb57600080fd5b506103c4610907565b604080516001600160a01b039092168252519081900360200190f35b610314610916565b3480156103f457600080fd5b506103fd610a11565b604080519115158252519081900360200190f35b34801561041d57600080fd5b506103fd610a1f565b34801561043257600080fd5b506101d0610a2f565b6103146004803603606081101561045157600080fd5b508035151590602081013515159060400135610a35565b34801561047457600080fd5b506103146004803603604081101561048b57600080fd5b508035151590602001351515610e6e565b3480156104a857600080fd5b506101d0610e9e565b3480156104bd57600080fd5b506103fd610ea4565b3480156104d257600080fd5b506103c4610eb3565b3480156104e757600080fd5b506101d0610ec2565b3480156104fc57600080fd5b506103fd610ec6565b600c818154811061051257fe5b600091825260209091200154905081565b60045481565b600a805460408051602060026001851615610100026000190190941693909304601f810184900484028201840190925281815292918301828280156105af5780601f10610584576101008083540402835291602001916105af565b820191906000526020600020905b81548152906001019060200180831161059257829003601f168201915b505050505081565b4290565b600080546001600160a01b03168152600b602052604090205490565b60055481565b60085481565b60025481565b80600554106105f757600080fd5b600581905560065460408051838152602081019290925280517f53363e7eeef177f60d15e790e42c0cc492e5bee81887ced1390b5c2553ad2a2a9281900390910190a150565b60075481565b6009805460ff191683151517905580801561071e575060405160200180807f73696d706c65506f737400000000000000000000000000000000000000000000815250600a01905060405160208183030381529060405280519060200120600a60405160200180828054600181600116156101000203166002900480156107005780601f106106de576101008083540402835291820191610700565b820191906000526020600020905b8154815290600101906020018083116106ec575b50509150506040516020818303038152906040528051906020012014155b15610771576009805461ff00191661010083151502179055600254600c80546001810182556000919091527fdf6966c971051c3d54ec59162606531493a51404a002842f56009d7e5cf4a8c70155610785565b6009805461ff001916610100831515021790555b5050565b60095460ff1615610809576009546107b49060ff620100008204811691630100000090041683610a35565b60018054600654604080516001600160a01b03909316835260208301939093528183015290517fcfe51a56170170210c6b5def6488eabb132da271f908c143e485c0ae70edec6f9181900360600190a161088a565b600954610100900460ff161561088a576009546108399060ff620100008204811691630100000090041683610a35565b600154600654604080516001600160a01b0390931683526000602084015282810191909152517f8d2937ab1456e52d5e52590e71857fe5899a3f1998d2098e812935ca22c062179181900360600190a15b600080546001600160a01b03168152600b602090815260408083205460065482519182529281019390935282810191909152517fdbda569e7119cd172891e7c63899a4838e4e8670b1175345bf293cd3f31347489181900360600190a16001546001600160a01b0316ff5b600b6020526000908152604090205481565b6000546001600160a01b031681565b426005541161096c576040805162461bcd60e51b815260206004820181905260248201527f5468652063616d706169676e20646561646c696e652068617320706173736564604482015290519081900360640190fd5b600034116109ab5760405162461bcd60e51b8152600401808060200182810382526028815260200180610fee6028913960400191505060405180910390fd5b600080546001600160a01b03168152600b60209081526040918290208054349081019091556006548351338152928301919091528183015290517fb75c5efb8f695c77c10eab316b5f4b02cb281e500c8a4e5474d1c3e19d5820029181900360600190a1565b600954610100900460ff1681565b6009546301000000900460ff1681565b600c5490565b60095460ff1680610a4d5750600954610100900460ff165b80610a5d5750828015610a5d5750815b610a985760405162461bcd60e51b8152600401808060200182810382526023815260200180610f6c6023913960400191505060405180910390fd5b426005541015610aef576040805162461bcd60e51b815260206004820152601b60248201527f7468652063616d706169676e20706572696f64206973206f7665720000000000604482015290519081900360640190fd5b60095460ff1615610bc457600354600080546001600160a01b03168152600b60205260409020541015610b2157600080fd5b60038054600080546001600160a01b039081168252600b602052604080832080549490940390935581549354925193169282156108fc029291818181858888f19350505050158015610b77573d6000803e3d6000fd5b506009805460ff1916905560035460065460408051928352602083019190915280517f314b8d1c1fcf6a0803dd4c073d3a198302a249e6e1e0a6ce20a289f6f61c80e89281900390910190a15b600954610100900460ff1615610dab57600254600080546001600160a01b03168152600b60205260409020541015610c2d5760405162461bcd60e51b815260040180806020018281038252603e815260200180610f8f603e913960400191505060405180910390fd5b600c54600111610d0157600254600c54600091610c4a9190610ecf565b600080546001600160a01b039081168252600b60205260408083208054859003905582549051939450169183156108fc0291849190818181858888f19350505050158015610c9c573d6000803e3d6000fd5b50610ca9600c6000610f31565b6009805461ff0019169055600c5460065460408051848152602081019390935282810191909152517f4e096a163f990a9051b37b380a1fdc57da1ed67943857ddeb496a302fea7a7c09181900360600190a150610dab565b60028054600080546001600160a01b039081168252600b602052604080832080549490940390935581549354925193169282156108fc029291818181858888f19350505050158015610d57573d6000803e3d6000fd5b506009805461ff0019169055600254600c5460065460408051938452602084019290925282820152517f4e096a163f990a9051b37b380a1fdc57da1ed67943857ddeb496a302fea7a7c09181900360600190a15b828015610db55750815b15610e6957600080546001600160a01b03168152600b60205260409020548110610dde57600080fd5b600080546040516001600160a01b039091169183156108fc02918491818181858888f19350505050158015610e17573d6000803e3d6000fd5b50600054600654604080516001600160a01b0390931683526020830184905282810191909152517f9267f0dfa25dfb1e1a3676fdbc79fd9c57356e61c7da6a6865a492a68934e33f9181900360600190a15b505050565b6009805491151563010000000263ff00000019931515620100000262ff0000199093169290921792909216179055565b60035481565b60095462010000900460ff1681565b6001546001600160a01b031681565b4790565b60095460ff1681565b600082610ede57506000610f2b565b82820282848281610eeb57fe5b0414610f285760405162461bcd60e51b8152600401808060200182810382526021815260200180610fcd6021913960400191505060405180910390fd5b90505b92915050565b5080546000825590600052602060002090810190610f4f9190610f52565b50565b5b80821115610f675760008155600101610f53565b509056fe636f6e646974696f6e7320666f72207061796d656e742077657265206e6f74206d657474686520617474656d70746564207061796f7574206973206d6f7265207468616e20697320646573706f6974656420696e207468652063616d706169676e536166654d6174683a206d756c7469706c69636174696f6e206f766572666c6f77596f75206d757374206465706f736974206d6f6e657920696e746f2074686520636f6e7472616374a26469706673582212208685add7586449efa455bc376b2fa78c147626742ec88ef3f4a592e11a6c90e264736f6c634300060c0033536166654d6174683a206d756c7469706c69636174696f6e206f766572666c6f77a2646970667358221220120dc1148b08b87f27b4852e3986211a8ba5497799a9e5c3457f13a0d03a9bef64736f6c634300060c0033",
  "immutableReferences": {},
  "source": "// extract logic into private functions and call those with public functions\n//eth alarm clock\n//x dai\n//chainlink\n// super fluid for incremental payments\n// \n\npragma solidity >=0.4.22 <0.8.0;\n\nimport '@openzeppelin/contracts/math/SafeMath.sol';\nimport './Famepay.sol';\n\ncontract FamepayFactory {\n    using SafeMath for uint256;\n    uint256 public campaignPointer;\n    uint256 incrementalPaymentsTillJackpotValue;\n    uint256 incrementalPaymentsTillJackpotAmount;\n    address private platform; //payable?<-\n    mapping(uint256 => address) private famepayCampaigns;\n    event NewFamepayCampaignCreated(\n        address _deployedCampaign,\n        address _influencer,\n        address _business,\n        uint256 _campaignId,\n        uint256 _startDate,\n        uint256 _deadline,\n        uint256 _jackpotPayment,\n        uint256 _incrementalPayment,\n        uint256 _jackpotTargetAmount,\n        uint256 _incrementalTargetAmount,\n        uint256 _potentialPayoutAmount,\n        string _objective\n    );\n\n    constructor() public {\n        platform = msg.sender;\n    }\n    \n    function newFamepayCampaign(\n        address payable _business,\n        address payable _influencer,\n        uint256 _startDate,\n        uint256 _deadline, //to post\n        uint256 _jackpotPayment, //$1000 if we hit 1,000,000 views\n        uint256 _incrementalPayment, //$50 for every 50,000 views    //0 for simple post\n        uint256 _jackpotTargetAmount,\n        uint256 _incrementalTargetAmount, //1 for simple post\n        uint256 _potentialPayoutAmount, //total in contract $2000\n        string memory _objective\n    ) payable public {\n        if(keccak256(abi.encodePacked(_objective)) != keccak256(abi.encodePacked(\"simplePost\"))) {  //review this if logic\n            incrementalPaymentsTillJackpotAmount = _jackpotTargetAmount.div(_incrementalTargetAmount);\n            incrementalPaymentsTillJackpotValue = _incrementalPayment.mul(incrementalPaymentsTillJackpotAmount);\n            require(_potentialPayoutAmount > _jackpotPayment.add(incrementalPaymentsTillJackpotValue), \"Potential payout is invalid\");\n            \n            // require(_potentialPayoutAmount > _jackpotPayment.add(_incrementalPayment.mul(_jackpotTargetAmount.div(_incrementalTargetAmount))));\n        } else {\n            require(_potentialPayoutAmount >= _jackpotPayment);\n        }\n        campaignPointer = campaignPointer.add(1);\n        uint256 campaignId = campaignPointer;\n        Famepay famepay = new Famepay{value: msg.value}(_influencer, _business, campaignId, _startDate, _deadline, _jackpotPayment, _incrementalPayment, _jackpotTargetAmount, _incrementalTargetAmount,/* _potentialPayoutAmount, */_objective) ;\n        famepayCampaigns[campaignId] = address(famepay);\n        emit NewFamepayCampaignCreated(address(famepay), _influencer, _business, campaignId, _startDate, _deadline, _jackpotPayment, _incrementalPayment, _jackpotTargetAmount, _incrementalTargetAmount, _potentialPayoutAmount, _objective);\n    }\n\n    function getCampaign(uint256 _campaignId) view public returns (address) {\n         return famepayCampaigns[_campaignId];\n    }\n}\n",
  "sourcePath": "/Users/benweinberg/Desktop/Work/FamePay/FamePayContract/contracts/FamepayFactory.sol",
  "compiler": {
    "name": "solc",
    "version": "0.6.12+commit.27d51765.Emscripten.clang"
  },
  "schemaVersion": "3.4.1",
  "updatedAt": "2021-06-16T02:21:53.235Z",
  "networkType": "ethereum",
  "devdoc": {
    "kind": "dev",
    "methods": {},
    "version": 1
  },
  "userdoc": {
    "kind": "user",
    "methods": {},
    "version": 1
  }
}