{
  "contractName": "FamepayFactory",
  "abi": [
    {
      "inputs": [],
      "stateMutability": "nonpayable",
      "type": "constructor"
    },
    {
      "anonymous": false,
      "inputs": [
        {
          "indexed": false,
          "internalType": "address",
          "name": "_deployedCampaign",
          "type": "address"
        },
        {
          "indexed": false,
          "internalType": "address",
          "name": "_influencer",
          "type": "address"
        },
        {
          "indexed": false,
          "internalType": "address",
          "name": "_business",
          "type": "address"
        },
        {
          "indexed": false,
          "internalType": "uint256",
          "name": "_campaignId",
          "type": "uint256"
        },
        {
          "indexed": false,
          "internalType": "uint256",
          "name": "_startDate",
          "type": "uint256"
        },
        {
          "indexed": false,
          "internalType": "uint256",
          "name": "_deadline",
          "type": "uint256"
        },
        {
          "indexed": false,
          "internalType": "uint256",
          "name": "_singlePostDuration",
          "type": "uint256"
        },
        {
          "indexed": false,
          "internalType": "uint256",
          "name": "_jackpotPayment",
          "type": "uint256"
        },
        {
          "indexed": false,
          "internalType": "uint256",
          "name": "_incrementalPayment",
          "type": "uint256"
        },
        {
          "indexed": false,
          "internalType": "uint256",
          "name": "_jackpotTargetAmount",
          "type": "uint256"
        },
        {
          "indexed": false,
          "internalType": "uint256",
          "name": "_incrementalTargetAmount",
          "type": "uint256"
        },
        {
          "indexed": false,
          "internalType": "uint256",
          "name": "_potentialPayoutAmount",
          "type": "uint256"
        },
        {
          "indexed": false,
          "internalType": "string",
          "name": "_objective",
          "type": "string"
        }
      ],
      "name": "NewFamepayCampaignCreated",
      "type": "event"
    },
    {
      "inputs": [],
      "name": "campaignPointer",
      "outputs": [
        {
          "internalType": "uint256",
          "name": "",
          "type": "uint256"
        }
      ],
      "stateMutability": "view",
      "type": "function",
      "constant": true
    },
    {
      "inputs": [
        {
          "internalType": "address payable",
          "name": "_business",
          "type": "address"
        },
        {
          "internalType": "address payable",
          "name": "_influencer",
          "type": "address"
        },
        {
          "internalType": "uint256",
          "name": "_startDate",
          "type": "uint256"
        },
        {
          "internalType": "uint256",
          "name": "_deadline",
          "type": "uint256"
        },
        {
          "internalType": "uint256",
          "name": "_singlePostDuration",
          "type": "uint256"
        },
        {
          "internalType": "uint256",
          "name": "_jackpotPayment",
          "type": "uint256"
        },
        {
          "internalType": "uint256",
          "name": "_incrementalPayment",
          "type": "uint256"
        },
        {
          "internalType": "uint256",
          "name": "_jackpotTargetAmount",
          "type": "uint256"
        },
        {
          "internalType": "uint256",
          "name": "_incrementalTargetAmount",
          "type": "uint256"
        },
        {
          "internalType": "uint256",
          "name": "_potentialPayoutAmount",
          "type": "uint256"
        },
        {
          "internalType": "string",
          "name": "_objective",
          "type": "string"
        }
      ],
      "name": "newFamepayCampaign",
      "outputs": [],
      "stateMutability": "payable",
      "type": "function",
      "payable": true
    },
    {
      "inputs": [
        {
          "internalType": "uint256",
          "name": "_campaignId",
          "type": "uint256"
        }
      ],
      "name": "getCampaign",
      "outputs": [
        {
          "internalType": "address",
          "name": "",
          "type": "address"
        }
      ],
      "stateMutability": "view",
      "type": "function",
      "constant": true
    }
  ],
  "bytecode": "0x608060405234801561001057600080fd5b50600180546001600160a01b03191633179055611941806100326000396000f3fe6080604052600436106100345760003560e01c80632a11c0e6146100395780635598f8cc1461012f578063a29bf6fa14610175575b600080fd5b61012d600480360361016081101561005057600080fd5b6001600160a01b03823581169260208101359091169160408201359160608101359160808201359160a08101359160c08201359160e081013591610100820135916101208101359181019061016081016101408201356401000000008111156100b857600080fd5b8201836020820111156100ca57600080fd5b803590602001918460018302840111640100000000831117156100ec57600080fd5b91908080601f01602080910402602001604051908101604052809392919081815260200183838082843760009201919091525092955061019c945050505050565b005b34801561013b57600080fd5b506101596004803603602081101561015257600080fd5b5035610494565b604080516001600160a01b039092168252519081900360200190f35b34801561018157600080fd5b5061018a6104af565b60408051918252519081900360200190f35b6101a684846104b5565b60048190556101b6908690610500565b60038190556101c6908790610559565b8211610219576040805162461bcd60e51b815260206004820152601b60248201527f506f74656e7469616c207061796f757420697320696e76616c69640000000000604482015290519081900360640190fd5b600054610227906001610559565b6000819055506000805490506000348c8e848e8e8e8e8e8e8e8e8e60405161024e90610655565b808d6001600160a01b031681526020018c6001600160a01b031681526020018b81526020018a815260200189815260200188815260200187815260200186815260200185815260200184815260200183815260200180602001828103825283818151815260200191508051906020019080838360005b838110156102dc5781810151838201526020016102c4565b50505050905090810190601f1680156103095780820380516001836020036101000a031916815260200191505b509d50505050505050505050505050506040518091039082f0905080158015610336573d6000803e3d6000fd5b509050806002600084815260200190815260200160002060006101000a8154816001600160a01b0302191690836001600160a01b031602179055507f59fd934695ccd6b38985622aa2218b8c60cb9cf79579931886923ab44e77556c818d8f858f8f8f8f8f8f8f8f8f604051808e6001600160a01b031681526020018d6001600160a01b031681526020018c6001600160a01b031681526020018b81526020018a815260200189815260200188815260200187815260200186815260200185815260200184815260200183815260200180602001828103825283818151815260200191508051906020019080838360005b8381101561043f578181015183820152602001610427565b50505050905090810190601f16801561046c5780820380516001836020036101000a031916815260200191505b509e50505050505050505050505050505060405180910390a150505050505050505050505050565b6000908152600260205260409020546001600160a01b031690565b60005481565b60006104f783836040518060400160405280601a81526020017f536166654d6174683a206469766973696f6e206279207a65726f0000000000008152506105b3565b90505b92915050565b60008261050f575060006104fa565b8282028284828161051c57fe5b04146104f75760405162461bcd60e51b81526004018080602001828103825260218152602001806118eb6021913960400191505060405180910390fd5b6000828201838110156104f7576040805162461bcd60e51b815260206004820152601b60248201527f536166654d6174683a206164646974696f6e206f766572666c6f770000000000604482015290519081900360640190fd5b6000818361063f5760405162461bcd60e51b81526004018080602001828103825283818151815260200191508051906020019080838360005b838110156106045781810151838201526020016105ec565b50505050905090810190601f1680156106315780820380516001836020036101000a031916815260200191505b509250505060405180910390fd5b50600083858161064b57fe5b0495945050505050565b611288806106638339019056fe60806040819052600b805463ffff000019169055620012883881900390819083398181016040526101808110156200003657600080fd5b815160208301516040808501516060860151608087015160a088015160c089015160e08a01516101008b01516101208c01516101408d01516101608e0180519a519c9e9b9d999c989b979a969995989497939692959194939182019284640100000000821115620000a657600080fd5b908301906020820185811115620000bc57600080fd5b8251640100000000811182820188101715620000d757600080fd5b82525081516020918201929091019080838360005b8381101562000106578181015183820152602001620000ec565b50505050905090810190601f168015620001345780820380516001836020036101000a031916815260200191505b506040525050508b6000806101000a8154816001600160a01b0302191690836001600160a01b031602179055508a600160006101000a8154816001600160a01b0302191690836001600160a01b03160217905550896007819055508860048190555087600581905550866006819055508560038190555084600281905550836009819055508260088190555081600a8190555080600c9080519060200190620001df92919062000211565b5050600080546001600160a01b03168152600d6020526040902080544701905550620002ad9950505050505050505050565b828054600181600116156101000203166002900490600052602060002090601f016020900481019282601f106200025457805160ff191683800117855562000284565b8280016001018555821562000284579182015b828111156200028457825182559160200191906001019062000267565b506200029292915062000296565b5090565b5b8082111562000292576000815560010162000297565b610fcb80620002bd6000396000f3fe6080604052600436106101b75760003560e01c8063a87588e7116100ec578063e36686321161008a578063e74dc11c11610064578063e74dc11c14610506578063f318e5571461051b578063f41662ed14610530578063fac3fd5914610493576101b7565b8063e3668632146104c7578063e53abae9146104dc578063e5fb0450146104f1576101b7565b8063b801ed85116100c6578063b801ed851461043c578063da85a11f14610451578063dc5b133114610466578063df2d88ca14610493576101b7565b8063a87588e7146103da578063aa5e21531461040b578063ac35e16014610413576101b7565b80633621905f116101595780637005a865116101335780637005a86514610341578063888c6ca6146103755780638d0449d61461038a578063a4b870c4146103a7576101b7565b80633621905f146102eb578063389b753314610300578063612abb101461032c576101b7565b8063188ec35611610195578063188ec356146102975780631d8d1f66146102ac57806329dcb0cf146102c15780632fe289b3146102d6576101b7565b806304963369146101bc5780630b97bc86146101f857806314f1586a1461020d575b600080fd5b3480156101c857600080fd5b506101e6600480360360208110156101df57600080fd5b5035610545565b60408051918252519081900360200190f35b34801561020457600080fd5b506101e6610563565b34801561021957600080fd5b50610222610569565b6040805160208082528351818301528351919283929083019185019080838360005b8381101561025c578181015183820152602001610244565b50505050905090810190601f1680156102895780820380516001836020036101000a031916815260200191505b509250505060405180910390f35b3480156102a357600080fd5b506101e66105f7565b3480156102b857600080fd5b506101e66105fb565b3480156102cd57600080fd5b506101e6610617565b3480156102e257600080fd5b506101e661061d565b3480156102f757600080fd5b506101e6610623565b34801561030c57600080fd5b5061032a6004803603602081101561032357600080fd5b5035610629565b005b34801561033857600080fd5b506101e661067d565b34801561034d57600080fd5b5061032a6004803603604081101561036457600080fd5b508035151590602001351515610683565b34801561038157600080fd5b506101e66106fd565b61032a600480360360208110156103a057600080fd5b5035610703565b3480156103b357600080fd5b506101e6600480360360208110156103ca57600080fd5b50356001600160a01b031661086f565b3480156103e657600080fd5b506103ef610881565b604080516001600160a01b039092168252519081900360200190f35b61032a610890565b34801561041f57600080fd5b5061042861098b565b604080519115158252519081900360200190f35b34801561044857600080fd5b50610428610999565b34801561045d57600080fd5b506101e66109a9565b61032a6004803603606081101561047c57600080fd5b5080351515906020810135151590604001356109af565b34801561049f57600080fd5b5061032a600480360360408110156104b657600080fd5b508035151590602001351515610de8565b3480156104d357600080fd5b506101e6610e18565b3480156104e857600080fd5b50610428610e1e565b3480156104fd57600080fd5b506101e6610e2d565b34801561051257600080fd5b506103ef610e33565b34801561052757600080fd5b506101e6610e42565b34801561053c57600080fd5b50610428610e46565b600e818154811061055257fe5b600091825260209091200154905081565b60045481565b600c805460408051602060026001851615610100026000190190941693909304601f810184900484028201840190925281815292918301828280156105ef5780601f106105c4576101008083540402835291602001916105ef565b820191906000526020600020905b8154815290600101906020018083116105d257829003601f168201915b505050505081565b4290565b600080546001600160a01b03168152600d602052604090205490565b60055481565b60095481565b60025481565b806005541061063757600080fd5b600581905560075460408051838152602081019290925280517f53363e7eeef177f60d15e790e42c0cc492e5bee81887ced1390b5c2553ad2a2a9281900390910190a150565b60085481565b600b805460ff191683151517905580156106e557600b805461ff00191661010083151502179055600254600e80546001810182556000919091527fbb7b4a454dc3493923482f07822329ed19e8244eff582cc204f8554c3620c3fd01556106f9565b600b805461ff001916610100831515021790555b5050565b60065481565b600b5460ff161561078357600b5461072e9060ff6201000082048116916301000000900416836109af565b60018054600754604080516001600160a01b03909316835260208301939093528183015290517fcfe51a56170170210c6b5def6488eabb132da271f908c143e485c0ae70edec6f9181900360600190a1610804565b600b54610100900460ff161561080457600b546107b39060ff6201000082048116916301000000900416836109af565b600154600754604080516001600160a01b0390931683526000602084015282810191909152517f8d2937ab1456e52d5e52590e71857fe5899a3f1998d2098e812935ca22c062179181900360600190a15b600080546001600160a01b03168152600d602090815260408083205460075482519182529281019390935282810191909152517fdbda569e7119cd172891e7c63899a4838e4e8670b1175345bf293cd3f31347489181900360600190a16001546001600160a01b0316ff5b600d6020526000908152604090205481565b6000546001600160a01b031681565b42600554116108e6576040805162461bcd60e51b815260206004820181905260248201527f5468652063616d706169676e20646561646c696e652068617320706173736564604482015290519081900360640190fd5b600034116109255760405162461bcd60e51b8152600401808060200182810382526028815260200180610f6e6028913960400191505060405180910390fd5b600080546001600160a01b03168152600d60209081526040918290208054349081019091556007548351338152928301919091528183015290517fb75c5efb8f695c77c10eab316b5f4b02cb281e500c8a4e5474d1c3e19d5820029181900360600190a1565b600b54610100900460ff1681565b600b546301000000900460ff1681565b600e5490565b600b5460ff16806109c75750600b54610100900460ff165b806109d757508280156109d75750815b610a125760405162461bcd60e51b8152600401808060200182810382526023815260200180610eec6023913960400191505060405180910390fd5b426005541015610a69576040805162461bcd60e51b815260206004820152601b60248201527f7468652063616d706169676e20706572696f64206973206f7665720000000000604482015290519081900360640190fd5b600b5460ff1615610b3e57600354600080546001600160a01b03168152600d60205260409020541015610a9b57600080fd5b60038054600080546001600160a01b039081168252600d602052604080832080549490940390935581549354925193169282156108fc029291818181858888f19350505050158015610af1573d6000803e3d6000fd5b50600b805460ff1916905560035460075460408051928352602083019190915280517f314b8d1c1fcf6a0803dd4c073d3a198302a249e6e1e0a6ce20a289f6f61c80e89281900390910190a15b600b54610100900460ff1615610d2557600254600080546001600160a01b03168152600d60205260409020541015610ba75760405162461bcd60e51b815260040180806020018281038252603e815260200180610f0f603e913960400191505060405180910390fd5b600e54600111610c7b57600254600e54600091610bc49190610e4f565b600080546001600160a01b039081168252600d60205260408083208054859003905582549051939450169183156108fc0291849190818181858888f19350505050158015610c16573d6000803e3d6000fd5b50610c23600e6000610eb1565b600b805461ff0019169055600e5460075460408051848152602081019390935282810191909152517f4e096a163f990a9051b37b380a1fdc57da1ed67943857ddeb496a302fea7a7c09181900360600190a150610d25565b60028054600080546001600160a01b039081168252600d602052604080832080549490940390935581549354925193169282156108fc029291818181858888f19350505050158015610cd1573d6000803e3d6000fd5b50600b805461ff0019169055600254600e5460075460408051938452602084019290925282820152517f4e096a163f990a9051b37b380a1fdc57da1ed67943857ddeb496a302fea7a7c09181900360600190a15b828015610d2f5750815b15610de357600080546001600160a01b03168152600d60205260409020548110610d5857600080fd5b600080546040516001600160a01b039091169183156108fc02918491818181858888f19350505050158015610d91573d6000803e3d6000fd5b50600054600754604080516001600160a01b0390931683526020830184905282810191909152517f9267f0dfa25dfb1e1a3676fdbc79fd9c57356e61c7da6a6865a492a68934e33f9181900360600190a15b505050565b600b805491151563010000000263ff00000019931515620100000262ff0000199093169290921792909216179055565b60035481565b600b5462010000900460ff1681565b600a5481565b6001546001600160a01b031681565b4790565b600b5460ff1681565b600082610e5e57506000610eab565b82820282848281610e6b57fe5b0414610ea85760405162461bcd60e51b8152600401808060200182810382526021815260200180610f4d6021913960400191505060405180910390fd5b90505b92915050565b5080546000825590600052602060002090810190610ecf9190610ed2565b50565b5b80821115610ee75760008155600101610ed3565b509056fe636f6e646974696f6e7320666f72207061796d656e742077657265206e6f74206d657474686520617474656d70746564207061796f7574206973206d6f7265207468616e20697320646573706f6974656420696e207468652063616d706169676e536166654d6174683a206d756c7469706c69636174696f6e206f766572666c6f77596f75206d757374206465706f736974206d6f6e657920696e746f2074686520636f6e7472616374a2646970667358221220095937021f1b2a175c3e13f8ffd4b4ee74eabd72e67b4d24dd2f437b0e64f72e64736f6c634300060c0033536166654d6174683a206d756c7469706c69636174696f6e206f766572666c6f77a264697066735822122057264947f598b5db38a75f72d08dc4b3826acb381640c16f30aaf95715d9fb4e64736f6c634300060c0033",
  "immutableReferences": {},
  "source": "// extract logic into private functions and call those with public functions\n//eth alarm clock\n//x dai\n//chainlink\n// super fluid for incremental payments\n// \n\npragma solidity >=0.4.22 <0.8.0;\n\nimport '@openzeppelin/contracts/math/SafeMath.sol';\nimport './Famepay.sol';\n\ncontract FamepayFactory {\n    using SafeMath for uint256;\n    uint256 public campaignPointer;\n    address private platform; //payable?<-\n    mapping(uint256 => address) private famepayCampaigns;\n    event NewFamepayCampaignCreated(\n        address _deployedCampaign,\n        address _influencer,\n        address _business,\n        uint256 _campaignId,\n        uint256 _startDate,\n        uint256 _deadline,\n        uint256 _singlePostDuration,\n        uint256 _jackpotPayment,\n        uint256 _incrementalPayment,\n        uint256 _jackpotTargetAmount,\n        uint256 _incrementalTargetAmount,\n        uint256 _potentialPayoutAmount,\n        string _objective\n    );\n\n    constructor() public {\n        platform = msg.sender;\n    }\n    \n        \n    uint256 incrementalPaymentsTillJackpotValue;\n    uint256 incrementalPaymentsTillJackpotAmount;\n    function newFamepayCampaign(\n        address payable _business,\n        address payable _influencer,\n        uint256 _startDate,\n        uint256 _deadline,\n        uint256 _singlePostDuration,\n        uint256 _jackpotPayment, //$1000 if we hit 1,000,000 views\n        uint256 _incrementalPayment, //$50 for every 50,000 views\n        uint256 _jackpotTargetAmount,\n        uint256 _incrementalTargetAmount,\n        uint256 _potentialPayoutAmount, //total in contract $2000\n        string memory _objective\n    ) payable public {\n        incrementalPaymentsTillJackpotAmount = _jackpotTargetAmount.div(_incrementalTargetAmount);\n        incrementalPaymentsTillJackpotValue = _incrementalPayment.mul(incrementalPaymentsTillJackpotAmount);\n        require(_potentialPayoutAmount > _jackpotPayment.add(incrementalPaymentsTillJackpotValue), \"Potential payout is invalid\");\n        // require(_potentialPayoutAmount > _jackpotPayment.add(_incrementalPayment.mul(_jackpotTargetAmount.div(_incrementalTargetAmount))));\n        campaignPointer = campaignPointer.add(1);\n        uint256 campaignId = campaignPointer;\n        Famepay famepay = new Famepay{value: msg.value}(_influencer, _business, campaignId, _startDate, _deadline, _singlePostDuration, _jackpotPayment, _incrementalPayment, _jackpotTargetAmount, _incrementalTargetAmount, _potentialPayoutAmount, _objective) ;\n        famepayCampaigns[campaignId] = address(famepay);\n        emit NewFamepayCampaignCreated(address(famepay), _influencer, _business, campaignId, _startDate, _deadline, _singlePostDuration, _jackpotPayment, _incrementalPayment, _jackpotTargetAmount, _incrementalTargetAmount, _potentialPayoutAmount, _objective);\n    }\n\n    function getCampaign(uint256 _campaignId) view public returns (address) {\n         return famepayCampaigns[_campaignId];\n    }\n}\n",
  "sourcePath": "/Users/benweinberg/Desktop/Work/FamePay/FamePayContract/contracts/FamepayFactory.sol",
  "compiler": {
    "name": "solc",
    "version": "0.6.12+commit.27d51765.Emscripten.clang"
  },
  "schemaVersion": "3.3.0",
  "updatedAt": "2021-05-08T19:25:39.238Z",
  "networkType": "ethereum",
  "devdoc": {
    "kind": "dev",
    "methods": {},
    "version": 1
  },
  "userdoc": {
    "kind": "user",
    "methods": {},
    "version": 1
  }
}