{
  "contractName": "FamepayFactory",
  "abi": [
    {
      "inputs": [
        {
          "internalType": "contract AccessControl",
          "name": "_accessControl",
          "type": "address"
        }
      ],
      "stateMutability": "nonpayable",
      "type": "constructor"
    },
    {
      "anonymous": false,
      "inputs": [
        {
          "indexed": true,
          "internalType": "address",
          "name": "_influencer",
          "type": "address"
        },
        {
          "indexed": true,
          "internalType": "address",
          "name": "_business",
          "type": "address"
        },
        {
          "indexed": true,
          "internalType": "address",
          "name": "_campaignAddress",
          "type": "address"
        },
        {
          "indexed": false,
          "internalType": "uint256",
          "name": "_campaignId",
          "type": "uint256"
        },
        {
          "indexed": false,
          "internalType": "uint256",
          "name": "_startDate",
          "type": "uint256"
        },
        {
          "indexed": false,
          "internalType": "uint256",
          "name": "_deadline",
          "type": "uint256"
        },
        {
          "indexed": false,
          "internalType": "uint256",
          "name": "_simplePostDuration",
          "type": "uint256"
        },
        {
          "indexed": false,
          "internalType": "uint256",
          "name": "_jackpotPayment",
          "type": "uint256"
        },
        {
          "indexed": false,
          "internalType": "uint256",
          "name": "_incrementalPayment",
          "type": "uint256"
        },
        {
          "indexed": false,
          "internalType": "uint256",
          "name": "_jackpotTargetAmount",
          "type": "uint256"
        },
        {
          "indexed": false,
          "internalType": "uint256",
          "name": "_incrementalTargetAmount",
          "type": "uint256"
        },
        {
          "indexed": false,
          "internalType": "uint256",
          "name": "_potentialPayoutAmount",
          "type": "uint256"
        },
        {
          "indexed": false,
          "internalType": "bytes4",
          "name": "_objective",
          "type": "bytes4"
        }
      ],
      "name": "NewFamepayCampaignCreated",
      "type": "event"
    },
    {
      "anonymous": false,
      "inputs": [
        {
          "indexed": true,
          "internalType": "address",
          "name": "_business",
          "type": "address"
        },
        {
          "indexed": true,
          "internalType": "address",
          "name": "_bountyAddress",
          "type": "address"
        },
        {
          "indexed": false,
          "internalType": "uint256",
          "name": "_startDate",
          "type": "uint256"
        },
        {
          "indexed": false,
          "internalType": "uint256",
          "name": "_deadline",
          "type": "uint256"
        },
        {
          "indexed": false,
          "internalType": "uint256",
          "name": "_simplePostDuration",
          "type": "uint256"
        },
        {
          "indexed": false,
          "internalType": "uint256",
          "name": "_maxJackpotReward",
          "type": "uint256"
        },
        {
          "indexed": false,
          "internalType": "uint256",
          "name": "_jackpotTargetAmount",
          "type": "uint256"
        },
        {
          "indexed": false,
          "internalType": "uint256",
          "name": "_maxWinners",
          "type": "uint256"
        },
        {
          "indexed": false,
          "internalType": "uint256",
          "name": "_bountyId",
          "type": "uint256"
        },
        {
          "indexed": false,
          "internalType": "uint256",
          "name": "_escrowedAmount",
          "type": "uint256"
        },
        {
          "indexed": false,
          "internalType": "bytes32",
          "name": "_bountyType",
          "type": "bytes32"
        },
        {
          "indexed": false,
          "internalType": "bytes4",
          "name": "_objective",
          "type": "bytes4"
        }
      ],
      "name": "NewMultiBountyCreated",
      "type": "event"
    },
    {
      "inputs": [],
      "name": "ADMIN_ROLE",
      "outputs": [
        {
          "internalType": "bytes32",
          "name": "",
          "type": "bytes32"
        }
      ],
      "stateMutability": "view",
      "type": "function",
      "constant": true
    },
    {
      "inputs": [],
      "name": "campaignPointer",
      "outputs": [
        {
          "internalType": "uint256",
          "name": "",
          "type": "uint256"
        }
      ],
      "stateMutability": "view",
      "type": "function",
      "constant": true
    },
    {
      "inputs": [
        {
          "internalType": "uint256",
          "name": "",
          "type": "uint256"
        }
      ],
      "name": "famepayBounties",
      "outputs": [
        {
          "internalType": "address",
          "name": "",
          "type": "address"
        }
      ],
      "stateMutability": "view",
      "type": "function",
      "constant": true
    },
    {
      "inputs": [
        {
          "internalType": "uint256",
          "name": "",
          "type": "uint256"
        }
      ],
      "name": "famepayDeals",
      "outputs": [
        {
          "internalType": "address",
          "name": "",
          "type": "address"
        }
      ],
      "stateMutability": "view",
      "type": "function",
      "constant": true
    },
    {
      "inputs": [
        {
          "internalType": "address payable",
          "name": "_influencer",
          "type": "address"
        },
        {
          "internalType": "address payable",
          "name": "_business",
          "type": "address"
        },
        {
          "internalType": "uint256",
          "name": "_startDate",
          "type": "uint256"
        },
        {
          "internalType": "uint256",
          "name": "_deadline",
          "type": "uint256"
        },
        {
          "internalType": "uint256",
          "name": "_simplePostDuration",
          "type": "uint256"
        },
        {
          "internalType": "uint256",
          "name": "_jackpotPayment",
          "type": "uint256"
        },
        {
          "internalType": "uint256",
          "name": "_incrementalPayment",
          "type": "uint256"
        },
        {
          "internalType": "uint256",
          "name": "_jackpotTargetAmount",
          "type": "uint256"
        },
        {
          "internalType": "uint256",
          "name": "_incrementalTargetAmount",
          "type": "uint256"
        },
        {
          "internalType": "uint256",
          "name": "_potentialPayoutAmount",
          "type": "uint256"
        },
        {
          "internalType": "bytes4",
          "name": "_objective",
          "type": "bytes4"
        }
      ],
      "name": "newFamepayCampaign",
      "outputs": [],
      "stateMutability": "payable",
      "type": "function",
      "payable": true
    },
    {
      "inputs": [
        {
          "internalType": "address payable",
          "name": "_business",
          "type": "address"
        },
        {
          "internalType": "uint256",
          "name": "_startDate",
          "type": "uint256"
        },
        {
          "internalType": "uint256",
          "name": "_deadline",
          "type": "uint256"
        },
        {
          "internalType": "uint256",
          "name": "_simplePostDuration",
          "type": "uint256"
        },
        {
          "internalType": "uint256",
          "name": "_maxJackpotReward",
          "type": "uint256"
        },
        {
          "internalType": "uint256",
          "name": "_jackpotTargetAmount",
          "type": "uint256"
        },
        {
          "internalType": "uint256",
          "name": "_maxWinners",
          "type": "uint256"
        },
        {
          "internalType": "bytes4",
          "name": "_objective",
          "type": "bytes4"
        },
        {
          "internalType": "bytes32",
          "name": "_bountyType",
          "type": "bytes32"
        }
      ],
      "name": "newFamepayBounty",
      "outputs": [],
      "stateMutability": "payable",
      "type": "function",
      "payable": true
    },
    {
      "inputs": [],
      "name": "checkTimestamp",
      "outputs": [
        {
          "internalType": "uint256",
          "name": "",
          "type": "uint256"
        }
      ],
      "stateMutability": "view",
      "type": "function",
      "constant": true
    }
  ],
  "bytecode": "0x608060405234801561001057600080fd5b50604051615bd5380380615bd583398101604081905261002f91610065565b6001600081905560038054336001600160a01b0319918216179091558154166001600160a01b0392909216919091179055610095565b60006020828403121561007757600080fd5b81516001600160a01b038116811461008e57600080fd5b9392505050565b615b31806100a46000396000f3fe6080604052600436106100705760003560e01c806375b238fc1161004e57806375b238fc146100bf578063a0ac00c1146100f3578063a29bf6fa14610141578063b16d3a981461015757600080fd5b8063019c9d6e1461007557806303143e881461008a578063511573291461009d575b600080fd5b610088610083366004610c01565b61018d565b005b610088610098366004610c78565b610603565b3480156100a957600080fd5b50425b6040519081526020015b60405180910390f35b3480156100cb57600080fd5b506100ac7fdf8b4c520ffe197c5343c6f5aec59570151ef9a492f2c624fd45ddde6135ec4281565b3480156100ff57600080fd5b5061012961010e366004610d0c565b6005602052600090815260409020546001600160a01b031681565b6040516001600160a01b0390911681526020016100b6565b34801561014d57600080fd5b506100ac60025481565b34801561016357600080fd5b50610129610172366004610d0c565b6004602052600090815260409020546001600160a01b031681565b600083116102085760405162461bcd60e51b815260206004820152603060248201527f6e657746616d65706179426f756e747928293a206174206c65617374206f6e6560448201527f2077696e6e65722072657175697265640000000000000000000000000000000060648201526084015b60405180910390fd5b87871161027d5760405162461bcd60e51b815260206004820152603460248201527f6e657746616d65706179426f756e747928293a20646561646c696e65206d757360448201527f742062652061667465722073746172744461746500000000000000000000000060648201526084016101ff565b428810156102f35760405162461bcd60e51b815260206004820152603260248201527f6e657746616d65706179426f756e747928293a2063616d706169676e2063616e60448201527f6e6f7420626520696e207468652070617374000000000000000000000000000060648201526084016101ff565b60408051631c1bdcdd60e21b602080830191909152825160048184030181526024830184528051908201206001600160e01b031986166044840152835160288185030181526048909301909352815191012014156103c35761a8c08610156103c35760405162461bcd60e51b815260206004820152603260248201527f6e657746616d65706179426f756e747928293a20706f7374206d75737420626560448201527f206174206c6561737420313220686f757273000000000000000000000000000060648201526084016101ff565b60006103cf8685610d3b565b9050803410156104475760405162461bcd60e51b815260206004820152602f60248201527f6e657746616d65706179426f756e747928293a20696e73756666696369656e7460448201527f206465706f73697420616d6f756e74000000000000000000000000000000000060648201526084016101ff565b600254610455906001610d5a565b6002819055506000348b8b8b8b8b8b6002548c600160009054906101000a90046001600160a01b03168d8d60405161048c90610bb1565b6001600160a01b039b8c168152602081019a909a5260408a01989098526060890196909652608088019490945260a087019290925260c086015260e08501529093166101008301526001600160e01b0319909216610120820152610140810191909152610160016040518091039082f0905080158015610510573d6000803e3d6000fd5b5090508060056000600254815260200190815260200160002060006101000a8154816001600160a01b0302191690836001600160a01b03160217905550806001600160a01b03168b6001600160a01b03167fa9a23ef7cccee6882949a98b63977b48fb59493e86c7d29f02be1a070428cf748c8c8c8c8c8c600254348d8f6040516105ee9a99989796959493929190998a5260208a019890985260408901969096526060880194909452608087019290925260a086015260c085015260e08401526101008301526001600160e01b0319166101208201526101400190565b60405180910390a35050505050505050505050565b60408051631c1bdcdd60e21b602080830191909152825160048184030181526024830184528051908201206001600160e01b0319851660448401528351602881850301815260489093019093528151910120146106fb5760006106668486610d72565b905060006106748288610d3b565b90506106808189610d5a565b84116106f45760405162461bcd60e51b815260206004820152603160248201527f6e657746616d6570617943616d706169676e28293a20506f74656e7469616c2060448201527f7061796f757420697320696e76616c696400000000000000000000000000000060648201526084016101ff565b50506108f7565b61a8c08710156107735760405162461bcd60e51b815260206004820152603460248201527f6e657746616d6570617943616d706169676e28293a20706f7374206d7573742060448201527f6265206174206c6561737420313220686f75727300000000000000000000000060648201526084016101ff565b84156107e75760405162461bcd60e51b815260206004820152603c60248201527f6e657746616d6570617943616d706169676e28293a206e6f20696e6372656d6560448201527f6e74616c207061796d656e7420666f722073696d706c6520706f73740000000060648201526084016101ff565b821561085b5760405162461bcd60e51b815260206004820152603b60248201527f6e657746616d6570617943616d706169676e28293a206e6f20696e6372656d6560448201527f6e74616c2074617267657420666f722073696d706c6520706f7374000000000060648201526084016101ff565b858210156108f75760405162461bcd60e51b815260206004820152604260248201527f6e657746616d6570617943616d706169676e28293a20416d6f756e742064657060448201527f6f7369746564206d7573742062652067726561746572207468616e207265776160648201527f7264000000000000000000000000000000000000000000000000000000000000608482015260a4016101ff565b8888101561096d5760405162461bcd60e51b815260206004820152603760248201527f6e657746616d6570617943616d706169676e28293a20646561646c696e65206d60448201527f757374206265206166746572207374617274206461746500000000000000000060648201526084016101ff565b428910156109e35760405162461bcd60e51b815260206004820152603460248201527f6e657746616d6570617943616d706169676e28293a2063616d706169676e206360448201527f616e6e6f7420626520696e20746865207061737400000000000000000000000060648201526084016101ff565b6002546109f1906001610d5a565b600281905550600060025490506000348d8d8d8d8d8d8d8d8d8c8c600160009054906101000a90046001600160a01b0316604051610a2e90610bbf565b6001600160a01b039c8d1681529a8c1660208c015260408b019990995260608a0197909752608089019590955260a088019390935260c087019190915260e08601526101008501526001600160e01b031916610120840152610140830152909116610160820152610180016040518091039082f0905080158015610ab6573d6000803e3d6000fd5b509050806004600084815260200190815260200160002060006101000a8154816001600160a01b0302191690836001600160a01b03160217905550806001600160a01b03168c6001600160a01b03168e6001600160a01b03167f5d41311f174981a9d477a6dd0adc044bb9e724f91a06eb4ec1054848977216df858f8f8f8f8f8f8f8f8f604051610b9a9a99989796959493929190998a5260208a019890985260408901969096526060880194909452608087019290925260a086015260c085015260e08401526101008301526001600160e01b0319166101208201526101400190565b60405180910390a450505050505050505050505050565b61249f8062000d9583390190565b6128c8806200323483390190565b80356001600160a01b0381168114610be457600080fd5b919050565b80356001600160e01b031981168114610be457600080fd5b60008060008060008060008060006101208a8c031215610c2057600080fd5b610c298a610bcd565b985060208a0135975060408a0135965060608a0135955060808a0135945060a08a0135935060c08a01359250610c6160e08b01610be9565b91506101008a013590509295985092959850929598565b60008060008060008060008060008060006101608c8e031215610c9a57600080fd5b610ca38c610bcd565b9a50610cb160208d01610bcd565b995060408c0135985060608c0135975060808c0135965060a08c0135955060c08c0135945060e08c013593506101008c013592506101208c01359150610cfa6101408d01610be9565b90509295989b509295989b9093969950565b600060208284031215610d1e57600080fd5b5035919050565b634e487b7160e01b600052601160045260246000fd5b6000816000190483118215151615610d5557610d55610d25565b500290565b60008219821115610d6d57610d6d610d25565b500190565b600082610d8f57634e487b7160e01b600052601260045260246000fd5b50049056fe608060408190526012805460ff60a01b191690556200249f38819003908190833981016040819052620000329162000177565b60016000819055506000600160006101000a81548160ff0219169083151502179055508a600260006101000a8154816001600160a01b0302191690836001600160a01b031602179055508960068190555088600781905550876008819055508660048190555085600a8190555083600d81905550826001806101000a8154816001600160a01b0302191690836001600160a01b031602179055508460098190555081600c60006101000a81548163ffffffff021916908360e01c02179055506000651d985c941bdd60d21b9050600065199a5e141bdd60d21b90508183141562000124576001805460ff60a81b191690555b8083141562000146576001805460ff60a81b1916600160a81b17905560058990555b50504760035550620002299950505050505050505050565b6001600160a01b03811681146200017457600080fd5b50565b60008060008060008060008060008060006101608c8e0312156200019a57600080fd5b8b51620001a7816200015e565b809b505060208c0151995060408c0151985060608c0151975060808c0151965060a08c0151955060c08c0151945060e08c015193506101008c0151620001ed816200015e565b6101208d01519093506001600160e01b0319811681146200020d57600080fd5b809250506101408c015190509295989b509295989b9093969950565b61226680620002396000396000f3fe6080604052600436106102345760003560e01c806372a998ea11610138578063bcc941b6116100b0578063d24e794b1161007f578063e74dc11c11610064578063e74dc11c14610746578063f318e55714610766578063f4de5e1a1461077957610234565b8063d24e794b14610711578063dba27bae1461072657610234565b8063bcc941b6146106af578063c32d4b7b146106c5578063c8ec9cf1146106db578063cde8e5d3146106fb57610234565b80639ebd699311610107578063b3000d35116100ec578063b3000d3514610656578063b3ca1f3b1461066c578063bc8711fd1461069a57610234565b80639ebd699314610600578063a58d20f41461063657610234565b806372a998ea1461058c57806375b238fc146105a15780638456cb59146105d55780638ed5b0fc146105ea57610234565b806338ed2712116101cb578063405088a71161019a57806367d30aa21161017f57806367d30aa21461052b57806368ad436f1461054b578063698eb8491461056c57610234565b8063405088a7146104f15780635c975abb1461050757610234565b806338ed27121461046f5780633bc47fbe146104a75780633e079f3f146104bc5780633f4ba83a146104dc57610234565b806329dcb0cf1161020757806329dcb0cf146104175780632de001c71461042d5780632fe289b3146104435780633869cbfa1461045957610234565b80630b97bc86146102f857806314f1586a14610321578063188ec3561461036c57806329473a531461037f575b6002546001600160a01b031633146102a45760405162461bcd60e51b815260206004820152602860248201527f4f6e6c792074686520627573696e6573732063616e2063616c6c207468697320604482015267333ab731ba34b7b760c11b60648201526084015b60405180910390fd5b6007544210156102f65760405162461bcd60e51b815260206004820152601960248201527f646561646c696e65206d75737420686176652070617373656400000000000000604482015260640161029b565b005b34801561030457600080fd5b5061030e60065481565b6040519081526020015b60405180910390f35b34801561032d57600080fd5b50600c5461033b9060e01b81565b6040517fffffffff000000000000000000000000000000000000000000000000000000009091168152602001610318565b34801561037857600080fd5b504261030e565b34801561038b57600080fd5b506103df61039a3660046120fe565b600f60205260009081526040902080546001909101546001600160a01b0382169160ff600160a01b8204811692600160a81b8304821692600160b01b90049091169085565b604080516001600160a01b0390961686529315156020860152911515928401929092529015156060830152608082015260a001610318565b34801561042357600080fd5b5061030e60075481565b34801561043957600080fd5b5061030e60055481565b34801561044f57600080fd5b5061030e600a5481565b34801561046557600080fd5b5061030e60085481565b34801561047b57600080fd5b5061048f61048a36600461212e565b610799565b6040516001600160a01b039091168152602001610318565b3480156104b357600080fd5b506102f66107c3565b3480156104c857600080fd5b506102f66104d73660046120fe565b6109db565b3480156104e857600080fd5b506102f6610c24565b3480156104fd57600080fd5b5061030e600b5481565b34801561051357600080fd5b5060015460ff165b6040519015158152602001610318565b34801561053757600080fd5b506102f6610546366004612155565b610d1a565b34801561055757600080fd5b5060125461051b90600160a01b900460ff1681565b34801561057857600080fd5b506102f66105873660046120fe565b61129f565b34801561059857600080fd5b506102f66115de565b3480156105ad57600080fd5b5061030e7fdf8b4c520ffe197c5343c6f5aec59570151ef9a492f2c624fd45ddde6135ec4281565b3480156105e157600080fd5b506102f66119e4565b3480156105f657600080fd5b5061030e60095481565b34801561060c57600080fd5b5061048f61061b3660046120fe565b6010602052600090815260409020546001600160a01b031681565b34801561064257600080fd5b5061048f61065136600461212e565b611ad8565b34801561066257600080fd5b5061030e60045481565b34801561067857600080fd5b5060015461068d90600160a81b900460ff1681565b60405161031891906121a3565b3480156106a657600080fd5b5060115461030e565b3480156106bb57600080fd5b5061030e600e5481565b3480156106d157600080fd5b5061030e60035481565b3480156106e757600080fd5b5060125461048f906001600160a01b031681565b34801561070757600080fd5b5061030e600d5481565b34801561071d57600080fd5b506102f6611ae8565b34801561073257600080fd5b506102f66107413660046120fe565b611d51565b34801561075257600080fd5b5060025461048f906001600160a01b031681565b34801561077257600080fd5b504761030e565b34801561078557600080fd5b506102f66107943660046120fe565b611e8f565b601181815481106107a957600080fd5b6000918252602090912001546001600160a01b0316905081565b6002546001600160a01b0316331461082e5760405162461bcd60e51b815260206004820152602860248201527f4f6e6c792074686520627573696e6573732063616e2063616c6c207468697320604482015267333ab731ba34b7b760c11b606482015260840161029b565b6007544210156108805760405162461bcd60e51b815260206004820152601960248201527f646561646c696e65206d75737420686176652070617373656400000000000000604482015260640161029b565b601254600160a01b900460ff16156109005760405162461bcd60e51b815260206004820152603a60248201527f63616d706169676e456e64656428293a2063616e6e6f7420656e642063616d7060448201527f6169676e207468617420697320756e6465722070726f74657374000000000000606482015260840161029b565b601154620159509015610990578060075461091b91906121cb565b4210156109905760405162461bcd60e51b815260206004820152602d60248201527f63616d706169676e456e64656428293a20677261636520636173686f7574207060448201527f6572696f64206f6e676f696e6700000000000000000000000000000000000000606482015260840161029b565b6009546040805147815260208101929092527f706cd8a8437103c208468aa802ad1abee5e1c662b77f9506a80137f5677062ef910160405180910390a16002546001600160a01b0316ff5b6002546001600160a01b0316331480610a855750600154604051632474521560e21b81527fdf8b4c520ffe197c5343c6f5aec59570151ef9a492f2c624fd45ddde6135ec4260048201523360248201526101009091046001600160a01b0316906391d1485490604401602060405180830381865afa158015610a61573d6000803e3d6000fd5b505050506040513d601f19601f82011682018060405250810190610a8591906121f1565b610ad15760405162461bcd60e51b815260206004820181905260248201527f43616c6c6572206d75737420626520627573696e657373206f722061646d696e604482015260640161029b565b601254600160a01b900460ff16610b505760405162461bcd60e51b815260206004820152603c60248201527f7265736f6c766550726f7465737428293a2063616e6e6f742063616e63656c2060448201527f70726f74657374206966206e6f7420756e6465722070726f7465737400000000606482015260840161029b565b6001600160a01b0381166000908152600f6020526040902054600160b01b900460ff16610be55760405162461bcd60e51b815260206004820152603f60248201527f70726f7465737457696e6e696e67496e666c75656e63657228293a20696e666c60448201527f75656e63657220697320616c726561647920756e6465722070726f7465737400606482015260840161029b565b6001600160a01b0381166000908152600f60205260409020805460ff60b01b1916905560135460011115610c21576012805460ff60a01b191690555b50565b600154604051632474521560e21b81527fdf8b4c520ffe197c5343c6f5aec59570151ef9a492f2c624fd45ddde6135ec4260048201523360248201526101009091046001600160a01b0316906391d1485490604401602060405180830381865afa158015610c96573d6000803e3d6000fd5b505050506040513d601f19601f82011682018060405250810190610cba91906121f1565b610d105760405162461bcd60e51b815260206004820152602160248201527f4f6e6c792061646d696e2063616e2063616c6c20746869732066756e6374696f6044820152603760f91b606482015260840161029b565b610d18611fdc565b565b60026000541415610d6d5760405162461bcd60e51b815260206004820152601f60248201527f5265656e7472616e637947756172643a207265656e7472616e742063616c6c00604482015260640161029b565b6002600055600754421015610dc45760405162461bcd60e51b815260206004820152601960248201527f646561646c696e65206d75737420686176652070617373656400000000000000604482015260640161029b565b336000818152600f60205260409020546001600160a01b031614610e505760405162461bcd60e51b815260206004820152603e60248201527f636865636b43616d706169676e4f626a6563746976655265616368656428293a60448201527f204d757374206265207265676973746572656420696e666c75656e6365720000606482015260840161029b565b81610ec35760405162461bcd60e51b815260206004820152603660248201527f636865636b43616d706169676e4f626a6563746976655265616368656428293a60448201527f20706f737420776173206e6f74206f627461696e656400000000000000000000606482015260840161029b565b600754811115610f615760405162461bcd60e51b815260206004820152604160248201527f636865636b43616d706169676e4f626a6563746976655265616368656428293a60448201527f20706f7374206d757374206265206265666f72652074686520646561646c696e60648201527f6500000000000000000000000000000000000000000000000000000000000000608482015260a40161029b565b600654811015610fff5760405162461bcd60e51b815260206004820152604660248201527f636865636b43616d706169676e4f626a6563746976655265616368656428293a60448201527f20706f7374206d7573742062652061667465722063616d706169676e2073746160648201527f7274446174650000000000000000000000000000000000000000000000000000608482015260a40161029b565b600a5483101561109d5760405162461bcd60e51b815260206004820152604160248201527f636865636b43616d706169676e4f626a6563746976655265616368656428293a60448201527f206a61636b706f7420746172676574206d75737420626520736174697366696560648201527f6400000000000000000000000000000000000000000000000000000000000000608482015260a40161029b565b336000908152600f6020526040902054600160a81b900460ff161561112a5760405162461bcd60e51b815260206004820152603a60248201527f636865636b43616d706169676e4f626a6563746976655265616368656428293a60448201527f2077696e6e657220616c72656164792072656769737465726564000000000000606482015260840161029b565b6011805460018101825560008290527f31ecc21a745e3968a04e9570e4425bc18fa8019c68028196b546d1669c200c6801805473ffffffffffffffffffffffffffffffffffffffff19163317905554600d5410156111f05760405162461bcd60e51b815260206004820152603960248201527f636865636b43616d706169676e4f626a6563746976655265616368656428293a60448201527f20746f6f206d616e792077696e6e65727320636c61696d656400000000000000606482015260840161029b565b336000908152600f6020526040902080547fffffffffffffffffffff00ffffffffffffffffffffffffffffffffffffffffff16600160a81b179055601154600e556007546112409061a8c06121cb565b336000818152600f60205260409081902060010192909255600954915190917f40b18b4fd4318bad0d693bfde0830f58e4a305303442a1dd589bc87a900cde019161128d91815260200190565b60405180910390a25050600160005550565b600154604051632474521560e21b81527fdf8b4c520ffe197c5343c6f5aec59570151ef9a492f2c624fd45ddde6135ec4260048201523360248201526101009091046001600160a01b0316906391d1485490604401602060405180830381865afa158015611311573d6000803e3d6000fd5b505050506040513d601f19601f8201168201806040525081019061133591906121f1565b61138b5760405162461bcd60e51b815260206004820152602160248201527f4f6e6c792061646d696e2063616e2063616c6c20746869732066756e6374696f6044820152603760f91b606482015260840161029b565b6001600160a01b0381811660009081526010602052604090205416156114195760405162461bcd60e51b815260206004820152603560248201527f626c61636b6c697374496e666c75656e63657228293a20696e666c75656e636560448201527f7220616c726561647920626c61636b6c69737465640000000000000000000000606482015260840161029b565b6001600160a01b0381166000908152600f6020526040902054600160b01b900460ff166114ae5760405162461bcd60e51b815260206004820152603360248201527f626c61636b6c697374496e666c75656e63657228293a20696e666c75656e636560448201527f72206e6f7420756e6465722070726f7465737400000000000000000000000000606482015260840161029b565b6040805160a0810182526000808252602080830182815283850183815260608501848152608086018581526001600160a01b03898116808852600f8752898820985189549651955194511515600160b01b0260ff60b01b19951515600160a81b029590951661ffff60a81b19961515600160a01b0274ffffffffffffffffffffffffffffffffffffffffff199098169190931617959095179390931692909217178555516001948501556010909152929020805473ffffffffffffffffffffffffffffffffffffffff19169092179091556013541015611596576012805460ff60a01b191690555b806001600160a01b03167faaab3b3610b85801738dabadc712a87adb9ad971d1f7ba61f88ca16a5248572c6009546040516115d391815260200190565b60405180910390a250565b600260005414156116315760405162461bcd60e51b815260206004820152601f60248201527f5265656e7472616e637947756172643a207265656e7472616e742063616c6c00604482015260640161029b565b60026000908155338152600f6020526040902054600160a81b900460ff166116c15760405162461bcd60e51b815260206004820152603060248201527f4f6e6c7920612077696e6e696e6720696e666c75656e6365722063616e20636160448201527f6c6c20746869732066756e6374696f6e00000000000000000000000000000000606482015260840161029b565b6007544210156117135760405162461bcd60e51b815260206004820152601960248201527f646561646c696e65206d75737420686176652070617373656400000000000000604482015260640161029b565b336000908152600f6020526040902054600160a01b900460ff16156117a05760405162461bcd60e51b815260206004820152602c60248201527f706179496e666c75656e63657228293a20696e666c75656e63657220616c726560448201527f6164792070616964206f75740000000000000000000000000000000000000000606482015260840161029b565b336000908152600f6020526040902054600160b01b900460ff161561182d5760405162461bcd60e51b815260206004820152603a60248201527f706179496e666c75656e63657228293a2063616e6e6f7420636f6d706c65746560448201527f207061796f7574207768656e20756e6465722070726f74657374000000000000606482015260840161029b565b336000908152600f60205260409020600101544210156118db5760405162461bcd60e51b815260206004820152604560248201527f706179496e666c75656e63657228293a20696e666c75656e6365722063616e6e60448201527f6f74206265207061696420756e74696c20677261636520706572696f6420697360648201527f206f766572000000000000000000000000000000000000000000000000000000608482015260a40161029b565b60008060018054600160a81b900460ff16908111156118fc576118fc61218d565b1461190957600554611919565b600e54600354611919919061220e565b9050600454811180156119495750600060018054600160a81b900460ff16908111156119475761194761218d565b145b1561195357506004545b604051339082156108fc029083906000818181858888f19350505050158015611980573d6000803e3d6000fd5b50336000818152600f6020908152604091829020805460ff60a01b1916600160a01b1790556009548251858152918201527fd15faf65c0a691a42f8e8f948188d9c2451e2c1c3874754a37adf2aa87c82b79910160405180910390a2506001600055565b600154604051632474521560e21b81527fdf8b4c520ffe197c5343c6f5aec59570151ef9a492f2c624fd45ddde6135ec4260048201523360248201526101009091046001600160a01b0316906391d1485490604401602060405180830381865afa158015611a56573d6000803e3d6000fd5b505050506040513d601f19601f82011682018060405250810190611a7a91906121f1565b611ad05760405162461bcd60e51b815260206004820152602160248201527f4f6e6c792061646d696e2063616e2063616c6c20746869732066756e6374696f6044820152603760f91b606482015260840161029b565b610d18612078565b601381815481106107a957600080fd5b6002546001600160a01b0316331415611b695760405162461bcd60e51b815260206004820152603160248201527f616464496e666c75656e63657228293a20627573696e6573732063616e6e6f7460448201527f20626520616e20696e666c75656e636572000000000000000000000000000000606482015260840161029b565b426007541015611be05760405162461bcd60e51b8152602060048201526024808201527f616464496e666c75656e63657228293a20646561646c696e652068617320706160448201527f7373656400000000000000000000000000000000000000000000000000000000606482015260840161029b565b336000908152600f60205260409020546001600160a01b031615611c6c5760405162461bcd60e51b815260206004820152602960248201527f616464496e666c75656e63657228293a20696e666c75656e63657220616c726560448201527f6164792061646465640000000000000000000000000000000000000000000000606482015260840161029b565b6040805160a08101825233808252600060208084018281528486018381526060860184815260808701858152868652600f855294889020965187549351925191511515600160b01b0260ff60b01b19921515600160a81b029290921661ffff60a81b19931515600160a01b0274ffffffffffffffffffffffffffffffffffffffffff199095166001600160a01b039092169190911793909317919091169190911717845590516001909301929092556009549251928352917f40ab0e6e7182aa56f53f1f862caa2a8dbe16129da5ff2b07de199027a3698950910160405180910390a2565b6002546001600160a01b03163314611dbc5760405162461bcd60e51b815260206004820152602860248201527f4f6e6c792074686520627573696e6573732063616e2063616c6c207468697320604482015267333ab731ba34b7b760c11b606482015260840161029b565b6001600160a01b0381166000908152600f6020526040902054600160b01b900460ff1615611e525760405162461bcd60e51b815260206004820152603f60248201527f70726f7465737457696e6e696e67496e666c75656e63657228293a20696e666c60448201527f75656e63657220697320616c726561647920756e6465722070726f7465737400606482015260840161029b565b6001600160a01b03166000908152600f60205260409020805460ff60b01b1916600160b01b1790556012805460ff60a01b1916600160a01b179055565b6002546001600160a01b03163314611efa5760405162461bcd60e51b815260206004820152602860248201527f4f6e6c792074686520627573696e6573732063616e2063616c6c207468697320604482015267333ab731ba34b7b760c11b606482015260840161029b565b6040805160a0810182526000808252602080830182815283850183815260608501848152608086018581526001600160a01b03898116808852600f875296899020975188549551945193511515600160b01b0260ff60b01b19941515600160a81b029490941661ffff60a81b19951515600160a01b0274ffffffffffffffffffffffffffffffffffffffffff199097169190921617949094179290921692909217919091178455516001909301929092556009549251928352917f480997962b91e32a7eac7cd64b1637ac7e3ef692ebedfd70f04cdfb75f3b1a7d91016115d3565b60015460ff1661202e5760405162461bcd60e51b815260206004820152601460248201527f5061757361626c653a206e6f7420706175736564000000000000000000000000604482015260640161029b565b6001805460ff191690557f5db9ee0a495bf2e6ff9c91a7834c1ba4fdd244a5e8aa4e537bd38aeae4b073aa335b6040516001600160a01b03909116815260200160405180910390a1565b60015460ff16156120cb5760405162461bcd60e51b815260206004820152601060248201527f5061757361626c653a2070617573656400000000000000000000000000000000604482015260640161029b565b6001805460ff1916811790557f62e78cea01bee320cd4e420270b5ea74000d11b0c9f74754ebdbfc544b05a2583361205b565b60006020828403121561211057600080fd5b81356001600160a01b038116811461212757600080fd5b9392505050565b60006020828403121561214057600080fd5b5035919050565b8015158114610c2157600080fd5b60008060006060848603121561216a57600080fd5b83359250602084013561217c81612147565b929592945050506040919091013590565b634e487b7160e01b600052602160045260246000fd5b60208101600283106121c557634e487b7160e01b600052602160045260246000fd5b91905290565b600082198211156121ec57634e487b7160e01b600052601160045260246000fd5b500190565b60006020828403121561220357600080fd5b815161212781612147565b60008261222b57634e487b7160e01b600052601260045260246000fd5b50049056fea2646970667358221220e150af8f05f7fc7a46674aa7b41fd5d0b8dcec31eec71021630ad8c00224a3ce64736f6c634300080c0033608060408190526011805461ffff191690556014805460ff19169055620028c8388190039081908339810160408190526200003a91620000f5565b60016000819055600280546001600160a01b039e8f166001600160a01b031991821617909155600380549d8f169d82169d909d17909c5560069a909a55600798909855600896909655600594909455600492909255600c55600b556014805460e09290921c6101000264ffffffff0019909216919091179055600a558154931692909116919091179055620001b7565b6001600160a01b0381168114620000e057600080fd5b50565b8051620000f081620000ca565b919050565b6000806000806000806000806000806000806101808d8f0312156200011957600080fd5b8c516200012681620000ca565b60208e0151909c506200013981620000ca565b809b505060408d0151995060608d0151985060808d0151975060a08d0151965060c08d0151955060e08d015194506101008d015193506101208d015163ffffffff60e01b811681146200018b57600080fd5b6101408e01519093509150620001a56101608e01620000e3565b90509295989b509295989b509295989b565b61270180620001c76000396000f3fe6080604052600436106102c65760003560e01c806383d6dc0b11610179578063b81c74ca116100d6578063e36686321161008a578063ed9c544c11610064578063ed9c544c14610701578063f318e55714610720578063f41662ed1461073357600080fd5b8063e3668632146106b5578063e3d6dc2e146106cb578063e74dc11c146106e157600080fd5b8063d1fdd346116100bb578063d1fdd3461461066b578063d2bce4ed1461068b578063e2d950fa146106a057600080fd5b8063b81c74ca1461062b578063bc764fc81461064b57600080fd5b80639e976ff31161012d578063aa5e215311610112578063aa5e2153146105ee578063ac35e160146105f6578063b24506471461061557600080fd5b80639e976ff3146105a0578063a87588e7146105b657600080fd5b80638dc45e101161015e5780638dc45e101461054a5780638ed5b0fc1461056a57806395f8803e1461058057600080fd5b806383d6dc0b14610514578063842de7501461053457600080fd5b80634892a5e01161022757806368ad436f116101db57806372a998ea116101c057806372a998ea146104c257806375b238fc146104ca5780637e69a355146104fe57600080fd5b806368ad436f146104925780636e597aee146104ac57600080fd5b806350f5ae441161020c57806350f5ae4414610446578063612abb101461045c57806367d30aa21461047257600080fd5b80634892a5e014610410578063497159b01461042657600080fd5b80632acd23381161027e5780633621905f116102635780633621905f146103cf5780633869cbfa146103e55780633bc47fbe146103fb57600080fd5b80632acd23381461038f5780632fe289b3146103b957600080fd5b806314f1586a116102af57806314f1586a14610316578063188ec3561461036657806329dcb0cf1461037957600080fd5b80630b588e2c146102cb5780630b97bc86146102ed575b600080fd5b3480156102d757600080fd5b506102eb6102e6366004612573565b61074d565b005b3480156102f957600080fd5b5061030360065481565b6040519081526020015b60405180910390f35b34801561032257600080fd5b5060145461033590610100900460e01b81565b6040517fffffffff00000000000000000000000000000000000000000000000000000000909116815260200161030d565b34801561037257600080fd5b5042610303565b34801561038557600080fd5b5061030360075481565b34801561039b57600080fd5b506011546103a99060ff1681565b604051901515815260200161030d565b3480156103c557600080fd5b50610303600c5481565b3480156103db57600080fd5b5061030360045481565b3480156103f157600080fd5b5061030360085481565b34801561040757600080fd5b506102eb6108d0565b34801561041c57600080fd5b5061030360135481565b34801561043257600080fd5b506102eb61044136600461259a565b610b45565b34801561045257600080fd5b5061030360105481565b34801561046857600080fd5b50610303600b5481565b34801561047e57600080fd5b506102eb61048d3660046125b7565b610bf3565b34801561049e57600080fd5b506014546103a99060ff1681565b3480156104b857600080fd5b5061030360155481565b6102eb6113cc565b3480156104d657600080fd5b506103037fdf8b4c520ffe197c5343c6f5aec59570151ef9a492f2c624fd45ddde6135ec4281565b34801561050a57600080fd5b50610303600f5481565b34801561052057600080fd5b506102eb61052f3660046125ef565b6118f6565b34801561054057600080fd5b5061030360165481565b34801561055657600080fd5b506102eb61056536600461259a565b611ab8565b34801561057657600080fd5b50610303600a5481565b34801561058c57600080fd5b506102eb61059b366004612573565b611bfd565b3480156105ac57600080fd5b50610303600e5481565b3480156105c257600080fd5b506002546105d6906001600160a01b031681565b6040516001600160a01b03909116815260200161030d565b6102eb611d67565b34801561060257600080fd5b50600d546103a990610100900460ff1681565b34801561062157600080fd5b5061030360095481565b34801561063757600080fd5b506102eb610646366004612573565b611f06565b34801561065757600080fd5b506102eb61066636600461259a565b612073565b34801561067757600080fd5b506102eb610686366004612573565b612128565b34801561069757600080fd5b506102eb612294565b3480156106ac57600080fd5b506102eb6123f4565b3480156106c157600080fd5b5061030360055481565b3480156106d757600080fd5b5061030360125481565b3480156106ed57600080fd5b506003546105d6906001600160a01b031681565b34801561070d57600080fd5b506011546103a990610100900460ff1681565b34801561072c57600080fd5b5047610303565b34801561073f57600080fd5b50600d546103a99060ff1681565b6003546001600160a01b031633146107bd5760405162461bcd60e51b815260206004820152602860248201527f4f6e6c792074686520627573696e6573732063616e2063616c6c207468697320604482015267333ab731ba34b7b760c11b60648201526084015b60405180910390fd5b804211156108335760405162461bcd60e51b815260206004820152603e60248201527f657874656e64446561646c696e6528293a206e657720646561646c696e65206d60448201527f757374206265206166746572206578697374696e6720646561646c696e65000060648201526084016107b4565b806013541415610883576007819055600a546040805183815260208101929092527f53363e7eeef177f60d15e790e42c0cc492e5bee81887ced1390b5c2553ad2a2a91015b60405180910390a150565b6012819055600a5460405133917ffaf8d0ecbce5f21aac208a70f273a45f3e8e2ab16a2586ad54c9fc2626fbccd3916108c491858252602082015260400190565b60405180910390a25b50565b6003546001600160a01b03163314806108f357506002546001600160a01b031633145b6109655760405162461bcd60e51b815260206004820152603660248201527f4f6e6c792074686520627573696e657373206f7220696e666c75656e6365722060448201527f63616e2063616c6c20746869732066756e6374696f6e0000000000000000000060648201526084016107b4565b6007544210158061098a575060115460ff16801561098a5750601154610100900460ff165b610a225760405162461bcd60e51b815260206004820152605260248201527f63616d706169676e456e64656428293a204569746865722063616d706169676e60448201527f206f6e676f696e672c206f7220626f746820706172746965732079657420746f60648201527f20636f6e6669726d2064657369726520746f0000000000000000000000000000608482015260a4016107b4565b600d5460ff1615610a8757610a356113cc565b600354600a54604080516001815260208101929092526001600160a01b03909216917fcfe51a56170170210c6b5def6488eabb132da271f908c143e485c0ae70edec6f910160405180910390a2610aed565b600d54610100900460ff1615610aed57610a9f6113cc565b600354600a54604080516000815260208101929092526001600160a01b03909216917f8d2937ab1456e52d5e52590e71857fe5899a3f1998d2098e812935ca22c06217910160405180910390a25b600a5460408051478152600060208201819052818301526060810192909252517f3a1f1aea29c8909f1c1e5aff163939f369fe1c87585220f7917377483a8b108f9181900360800190a16003546001600160a01b0316ff5b6003546001600160a01b03163314610bb05760405162461bcd60e51b815260206004820152602860248201527f4f6e6c792074686520627573696e6573732063616e2063616c6c207468697320604482015267333ab731ba34b7b760c11b60648201526084016107b4565b6011805460ff1916821515179055600a5460405190815233907f64a41bc05deee8633ce41ebe6feee84441249f1b50d1575a6707cbc718918fd2906020016108c4565b600754421015610c455760405162461bcd60e51b815260206004820152601960248201527f646561646c696e65206d7573742068617665207061737365640000000000000060448201526064016107b4565b6002546001600160a01b03163314610cc55760405162461bcd60e51b815260206004820152603a60248201527f636865636b43616d706169676e4f626a6563746976655265616368656428293a60448201527f2043616c6c6572206d75737420626520696e666c75656e63657200000000000060648201526084016107b4565b81610d385760405162461bcd60e51b815260206004820152603660248201527f636865636b43616d706169676e4f626a6563746976655265616368656428293a60448201527f20706f737420776173206e6f74206f627461696e65640000000000000000000060648201526084016107b4565b806007541015610dd65760405162461bcd60e51b815260206004820152604f60248201527f636865636b43616d706169676e4f626a6563746976655265616368656428293a60448201527f20696e76616c696420706f73743a20706f7374206d757374206265206265666f60648201527f72652074686520646561646c696e650000000000000000000000000000000000608482015260a4016107b4565b600654811015610e745760405162461bcd60e51b815260206004820152604660248201527f636865636b43616d706169676e4f626a6563746976655265616368656428293a60448201527f20706f7374206d7573742062652061667465722063616d706169676e2073746160648201527f7274446174650000000000000000000000000000000000000000000000000000608482015260a4016107b4565b6040517f706f737400000000000000000000000000000000000000000000000000000000602082015260240160408051601f19818403018152908290528051602091820120601454610100900460e01b7fffffffff000000000000000000000000000000000000000000000000000000001691830191909152906024016040516020818303038152906040528051906020012014156110ea57600c54831015610f8f5760405162461bcd60e51b815260206004820152604160248201527f636865636b43616d706169676e4f626a6563746976655265616368656428293a60448201527f206a61636b706f7420746172676574206d7573742062652073617469736669656064820152601960fa1b608482015260a4016107b4565b610f99814261263e565b6009819055600854111561103b5760405162461bcd60e51b815260206004820152604a60248201527f636865636b43616d706169676e4f626a6563746976655265616368656428293a60448201527f20706f7374206475726174696f6e206d757374206d656574207265717569726560648201527f64206475726174696f6e00000000000000000000000000000000000000000000608482015260a4016107b4565b600d805460ff19166001908117909155600a546040517fe02d4b153cb00a6da43e813b4e3c7f603966e02eb2a6c5a5f6324cb0f7fd769292611087929015158252602082015260400190565b60405180910390a160075461109e9061a8c0612655565b6007819055600a546040517fdb02a8b2d1e15351fb613b65b230651757f425365aecc087b92e1710218357a1926110dd92908252602082015260400190565b60405180910390a1505050565b600b548310156111885760405162461bcd60e51b815260206004820152605b60248201527f636865636b43616d706169676e4f626a6563746976655265616368656428293a60448201527f20706f7374206d757374206174206c656173742062652067726561746572207460648201527f68616e20696e6372656d656e74616c20746f2067657420706169640000000000608482015260a4016107b4565b600c54831061137157600c548310156112135760405162461bcd60e51b815260206004820152604160248201527f636865636b43616d706169676e4f626a6563746976655265616368656428293a60448201527f206a61636b706f7420746172676574206d7573742062652073617469736669656064820152601960fa1b608482015260a4016107b4565b600d805460ff19166001908117909155600a546040517fe02d4b153cb00a6da43e813b4e3c7f603966e02eb2a6c5a5f6324cb0f7fd76929261125f929015158252602082015260400190565b60405180910390a16000600b54600c546112799190612655565b905080841061131557600c5461128f908561263e565b6016819055600b541161131557600b546016546112ac919061266d565b6015819055600d805461ff001916610100179055600a546040517f9b3f0e4756b97e4c61d863b0fd505500511987b87a434620e87f811f701b4019926112fa92908252602082015260400190565b60405180910390a16007546113119061a8c0612655565b6007555b6007546113249061a8c0612655565b6007819055600a546040517fdb02a8b2d1e15351fb613b65b230651757f425365aecc087b92e1710218357a19261136392908252602082015260400190565b60405180910390a150505050565b600b5461137e908461266d565b6015819055600d805461ff001916610100179055600a546040517f9b3f0e4756b97e4c61d863b0fd505500511987b87a434620e87f811f701b40199261108792908252602082015260400190565b6003546001600160a01b03163314806113ef57506002546001600160a01b031633145b6114615760405162461bcd60e51b815260206004820152603660248201527f4f6e6c792074686520627573696e657373206f7220696e666c75656e6365722060448201527f63616e2063616c6c20746869732066756e6374696f6e0000000000000000000060648201526084016107b4565b6007544210156114b35760405162461bcd60e51b815260206004820152601960248201527f646561646c696e65206d7573742068617665207061737365640000000000000060448201526064016107b4565b600d5460ff16806114cb5750600d54610100900460ff165b806114d857506000601054115b61154a5760405162461bcd60e51b815260206004820152603460248201527f706179496e666c75656e63657228293a20636f6e646974696f6e7320666f722060448201527f7061796d656e742077657265206e6f74206d657400000000000000000000000060648201526084016107b4565b60145460ff16156115c35760405162461bcd60e51b815260206004820152603a60248201527f706179496e666c75656e63657228293a2043616e6e6f7420636f6d706c65746560448201527f207061796f7574207768656e20756e6465722070726f7465737400000000000060648201526084016107b4565b600d5460ff161561166a576005544710156115dd57600080fd5b6002546005546040516001600160a01b039092169181156108fc0291906000818181858888f19350505050158015611619573d6000803e3d6000fd5b50600d805460ff19169055600554600a546040517f314b8d1c1fcf6a0803dd4c073d3a198302a249e6e1e0a6ce20a289f6f61c80e89261166192908252602082015260400190565b60405180910390a15b600d54610100900460ff1615611861576004544710156117185760405162461bcd60e51b815260206004820152604f60248201527f706179496e666c75656e63657228293a2074686520617474656d70746564207060448201527f61796f7574206973206d6f7265207468616e206973206465706f73697465642060648201527f696e207468652063616d706169676e0000000000000000000000000000000000608482015260a4016107b4565b6001601554106117d157600061173b60045460155461256090919063ffffffff16565b6002546040519192506001600160a01b03169082156108fc029083906000818181858888f19350505050158015611776573d6000803e3d6000fd5b5060006015819055600d805461ff0019169055600a546040805184815260208101939093528201527f87b5dda082866a70c4b6b0385cf225fc12d16f7ce514f116e058442d58c159ae9060600160405180910390a150611861565b6002546004546040516001600160a01b039092169181156108fc0291906000818181858888f1935050505015801561180d573d6000803e3d6000fd5b50600d805461ff0019169055600454601554600a5460408051938452602084019290925282820152517f7307a3d84e5bec561453196b4ecdf7841d6ce57ce51f495c86a42820b4d808d79181900360600190a15b601054156118f4576002546010546040516001600160a01b039092169181156108fc0291906000818181858888f193505050501580156118a5573d6000803e3d6000fd5b50600254600a546040805134815260208101929092526001600160a01b03909216917f9267f0dfa25dfb1e1a3676fdbc79fd9c57356e61c7da6a6865a492a68934e33f91015b60405180910390a25b565b6003546001600160a01b031633148061191957506002546001600160a01b031633145b61198b5760405162461bcd60e51b815260206004820152603660248201527f4f6e6c792074686520627573696e657373206f7220696e666c75656e6365722060448201527f63616e2063616c6c20746869732066756e6374696f6e0000000000000000000060648201526084016107b4565b600d5460ff16806119a35750600d54610100900460ff165b611a155760405162461bcd60e51b815260206004820152603b60248201527f72656d6f76654772616365506572696f6428293a206f6e6c79206170706c696360448201527f61626c65207768656e207061796f757420697320696e626f756e64000000000060648201526084016107b4565b818015611a1f5750805b611a9b5760405162461bcd60e51b815260206004820152604160248201527f72656d6f76654772616365506572696f6428293a20626f74682073696465732060448201527f6d75737420616772656520746f2072656d6f766520677261636520706572696f6064820152601960fa1b608482015260a4016107b4565b61a8c060076000828254611aaf919061263e565b90915550505050565b6003546001600160a01b03163314611b235760405162461bcd60e51b815260206004820152602860248201527f4f6e6c792074686520627573696e6573732063616e2063616c6c207468697320604482015267333ab731ba34b7b760c11b60648201526084016107b4565b600754421015611b755760405162461bcd60e51b815260206004820152601960248201527f646561646c696e65206d7573742068617665207061737365640000000000000060448201526064016107b4565b600181151514611bed5760405162461bcd60e51b815260206004820152603660248201527f70726f7465737443616d706169676e28293a2c2070726f74657374206d75737460448201527f20626520616761696e73742076616c696420706f73740000000000000000000060648201526084016107b4565b506014805460ff19166001179055565b6003546001600160a01b03163314611c685760405162461bcd60e51b815260206004820152602860248201527f4f6e6c792074686520627573696e6573732063616e2063616c6c207468697320604482015267333ab731ba34b7b760c11b60648201526084016107b4565b478110611cdd5760405162461bcd60e51b815260206004820152603d60248201527f627573696e657373436f6e6669726d5061796d656e7428293a20616d6f756e7460448201527f206d757374206265206c6f776572207468616e206465706f736974656400000060648201526084016107b4565b80600f541415611d26576010819055600a546040805183815260208101929092527f859acba95569b989faed0b5847b81d3322101fad39cb630fbff66650d927f40a9101610878565b600e819055600a5460405133917f5ec687808561cc4f397da0698e1f69c8291cca10164709ac4ecaea07b1935f1f916108c491858252602082015260400190565b6003546001600160a01b03163314611dd25760405162461bcd60e51b815260206004820152602860248201527f4f6e6c792074686520627573696e6573732063616e2063616c6c207468697320604482015267333ab731ba34b7b760c11b60648201526084016107b4565b4260075411611e495760405162461bcd60e51b815260206004820152603260248201527f6465706f7369745061796d656e7428293a205468652063616d706169676e206460448201527f6561646c696e652068617320706173736564000000000000000000000000000060648201526084016107b4565b60003411611ebf5760405162461bcd60e51b815260206004820152603a60248201527f6465706f7369745061796d656e7428293a20596f75206d757374206465706f7360448201527f6974206d6f6e657920696e746f2074686520636f6e747261637400000000000060648201526084016107b4565b600d805461ffff19169055600a5460405133917fb75c5efb8f695c77c10eab316b5f4b02cb281e500c8a4e5474d1c3e19d582002916118eb91348252602082015260400190565b6002546001600160a01b03163314611f735760405162461bcd60e51b815260206004820152602a60248201527f4f6e6c792074686520696e666c75656e6365722063616e2063616c6c207468696044820152693990333ab731ba34b7b760b11b60648201526084016107b4565b80421115611fe95760405162461bcd60e51b815260206004820152603e60248201527f657874656e64446561646c696e6528293a206e657720646561646c696e65206d60448201527f757374206265206166746572206578697374696e6720646561646c696e65000060648201526084016107b4565b806012541415612032576007819055600a546040805183815260208101929092527f53363e7eeef177f60d15e790e42c0cc492e5bee81887ced1390b5c2553ad2a2a9101610878565b6013819055600a5460405133917ffaf8d0ecbce5f21aac208a70f273a45f3e8e2ab16a2586ad54c9fc2626fbccd3916108c491858252602082015260400190565b6002546001600160a01b031633146120e05760405162461bcd60e51b815260206004820152602a60248201527f4f6e6c792074686520696e666c75656e6365722063616e2063616c6c207468696044820152693990333ab731ba34b7b760b11b60648201526084016107b4565b6011805461ff00191661010083151502179055600a5460405190815233907f64a41bc05deee8633ce41ebe6feee84441249f1b50d1575a6707cbc718918fd2906020016108c4565b6002546001600160a01b031633146121955760405162461bcd60e51b815260206004820152602a60248201527f4f6e6c792074686520696e666c75656e6365722063616e2063616c6c207468696044820152693990333ab731ba34b7b760b11b60648201526084016107b4565b47811061220a5760405162461bcd60e51b815260206004820152603d60248201527f627573696e657373436f6e6669726d5061796d656e7428293a20616d6f756e7460448201527f206d757374206265206c6f776572207468616e206465706f736974656400000060648201526084016107b4565b80600e541415612253576010819055600a546040805183815260208101929092527f859acba95569b989faed0b5847b81d3322101fad39cb630fbff66650d927f40a9101610878565b600f819055600a5460405133917f5ec687808561cc4f397da0698e1f69c8291cca10164709ac4ecaea07b1935f1f916108c491858252602082015260400190565b600154604051632474521560e21b81527fdf8b4c520ffe197c5343c6f5aec59570151ef9a492f2c624fd45ddde6135ec4260048201523360248201526001600160a01b03909116906391d1485490604401602060405180830381865afa158015612302573d6000803e3d6000fd5b505050506040513d601f19601f82011682018060405250810190612326919061268f565b61237c5760405162461bcd60e51b815260206004820152602160248201527f4f6e6c792061646d696e2063616e2063616c6c20746869732066756e6374696f6044820152603760f91b60648201526084016107b4565b60145460ff16610aed5760405162461bcd60e51b815260206004820152603c60248201527f7265736f6c766550726f7465737428293a2063616e6e6f742063616e63656c2060448201527f70726f74657374206966206e6f7420756e6465722070726f746573740000000060648201526084016107b4565b600154604051632474521560e21b81527fdf8b4c520ffe197c5343c6f5aec59570151ef9a492f2c624fd45ddde6135ec4260048201523360248201526001600160a01b03909116906391d1485490604401602060405180830381865afa158015612462573d6000803e3d6000fd5b505050506040513d601f19601f82011682018060405250810190612486919061268f565b6124dc5760405162461bcd60e51b815260206004820152602160248201527f4f6e6c792061646d696e2063616e2063616c6c20746869732066756e6374696f6044820152603760f91b60648201526084016107b4565b60145460ff166125545760405162461bcd60e51b815260206004820152603c60248201527f7265736f6c766550726f7465737428293a2063616e6e6f742063616e63656c2060448201527f70726f74657374206966206e6f7420756e6465722070726f746573740000000060648201526084016107b4565b6014805460ff19169055565b600061256c82846126ac565b9392505050565b60006020828403121561258557600080fd5b5035919050565b80151581146108cd57600080fd5b6000602082840312156125ac57600080fd5b813561256c8161258c565b6000806000606084860312156125cc57600080fd5b8335925060208401356125de8161258c565b929592945050506040919091013590565b6000806040838503121561260257600080fd5b823561260d8161258c565b9150602083013561261d8161258c565b809150509250929050565b634e487b7160e01b600052601160045260246000fd5b60008282101561265057612650612628565b500390565b6000821982111561266857612668612628565b500190565b60008261268a57634e487b7160e01b600052601260045260246000fd5b500490565b6000602082840312156126a157600080fd5b815161256c8161258c565b60008160001904831182151516156126c6576126c6612628565b50029056fea26469706673582212207fcd79632e495e159cc4f1c900550fbf062aeee177d2897b9028587f53d2fea364736f6c634300080c0033a264697066735822122093351cd3643cd7683e2810b454288b6916763664dcae970e95f4db17822dd23764736f6c634300080c0033",
  "immutableReferences": {},
  "source": "pragma solidity ^0.8.4;\nimport './Famepay.sol';\nimport './FamepayBounty.sol';\nimport '@openzeppelin/contracts/utils/math/SafeMath.sol';\nimport '@openzeppelin/contracts/security/ReentrancyGuard.sol';\nimport './FamepayAccessControl.sol';\n\n// SPDX-License-Identifier: PRIVATE\n\ncontract FamepayFactory is ReentrancyGuard {\n    using SafeMath for uint256;\n\n    AccessControl accessControl;\n\n    uint256 public campaignPointer;\n\n    address payable private platform;\n\n    bytes32 public constant ADMIN_ROLE = keccak256('ADMIN');\n\n    mapping(uint256 => address) public famepayDeals;\n    mapping(uint256 => address) public famepayBounties;\n\n    event NewFamepayCampaignCreated(\n        address indexed _influencer,\n        address indexed _business,\n        address indexed _campaignAddress,\n        uint256 _campaignId,\n        uint256 _startDate,\n        uint256 _deadline,\n        uint256 _simplePostDuration,\n        uint256 _jackpotPayment,\n        uint256 _incrementalPayment,\n        uint256 _jackpotTargetAmount,\n        uint256 _incrementalTargetAmount,\n        uint256 _potentialPayoutAmount,\n        bytes4 _objective\n    );\n\n    event NewMultiBountyCreated(\n        address indexed _business,\n        address indexed _bountyAddress,\n        uint256 _startDate,\n        uint256 _deadline,\n        uint256 _simplePostDuration,\n        uint256 _maxJackpotReward,\n        uint256 _jackpotTargetAmount,\n        uint256 _maxWinners,\n        uint256 _bountyId,\n        uint256 _escrowedAmount,\n        bytes32 _bountyType,\n        bytes4 _objective\n    );\n\n    constructor(AccessControl _accessControl) {\n        platform = payable(msg.sender);\n        accessControl = _accessControl;\n    }\n\n    /**\n     * @dev create new one-to-one campaign\n     * @param _influencer participating influencer\n     * @param _business participating business\n     * @param _startDate start timestamp of campaign\n     * @param _deadline completion timestamp of campaign\n     * @param _simplePostDuration duration which post must be up\n     * @param _jackpotPayment reward for achieving jackpot objective\n     * @param _incrementalPayment reward for achieving incremental objective\n     * @param _jackpotTargetAmount minimum target metric to achieve jackpot objective\n     * @param _incrementalTargetAmount minimum target metric to achieve incremental objective\n     * @param _potentialPayoutAmount total eth staked in the contract to be earned\n     * @param _objective objective type\n     */\n    function newFamepayCampaign(\n        address payable _influencer,\n        address payable _business,\n        uint256 _startDate,\n        uint256 _deadline,\n        uint256 _simplePostDuration,\n        uint256 _jackpotPayment, //$1000 if we hit 1,000,000 views\n        uint256 _incrementalPayment, //$50 for every 50,000 views    //0 for simple post\n        uint256 _jackpotTargetAmount,\n        uint256 _incrementalTargetAmount, //1 for simple post\n        uint256 _potentialPayoutAmount, //total in contract $2000 //TODO can probably be taken out for msg.value\n        bytes4 _objective\n    ) external payable {\n        if (keccak256(abi.encodePacked(_objective)) != keccak256(abi.encodePacked('post'))) {\n            //ex. 7 payments till jackpot\n            uint256 incrementalPaymentsTillJackpotAmount = _jackpotTargetAmount / _incrementalTargetAmount;\n            //ex. 7 payments is total $400\n            uint256 incrementalPaymentsTillJackpotValue = _incrementalPayment * incrementalPaymentsTillJackpotAmount;\n            //payout must be bigger than totalIncremental reward + jackpot reward\n            require(\n                _potentialPayoutAmount > _jackpotPayment + incrementalPaymentsTillJackpotValue,\n                'newFamepayCampaign(): Potential payout is invalid'\n            );\n            //all the logic on one line\n            //TODO --> failing in tests\n            // require(\n            //     _potentialPayoutAmount >\n            //         _jackpotPayment.add(_incrementalPayment.mul(_jackpotTargetAmount.div(_incrementalTargetAmount))),\n            //     'newFamepayCampaign(): Potential payout is invalid one line logic'\n            // );\n        } else {\n            require(_simplePostDuration >= 43200, 'newFamepayCampaign(): post must be at least 12 hours');\n            require(_incrementalPayment == 0, 'newFamepayCampaign(): no incremental payment for simple post');\n            require(_incrementalTargetAmount == 0, 'newFamepayCampaign(): no incremental target for simple post');\n            require(\n                _potentialPayoutAmount >= _jackpotPayment,\n                'newFamepayCampaign(): Amount deposited must be greater than reward'\n            );\n        }\n        require(_deadline >= _startDate, 'newFamepayCampaign(): deadline must be after start date');\n        require(_startDate >= block.timestamp, 'newFamepayCampaign(): campaign cannot be in the past');\n        campaignPointer = campaignPointer + 1;\n        uint256 campaignId = campaignPointer;\n        Famepay famepay = new Famepay{value: msg.value}(\n            _influencer,\n            _business,\n            _startDate,\n            _deadline,\n            _simplePostDuration,\n            _jackpotPayment,\n            _incrementalPayment,\n            _jackpotTargetAmount,\n            _incrementalTargetAmount,\n            _objective,\n            campaignId,\n            accessControl\n        );\n        famepayDeals[campaignId] = address(famepay);\n        emit NewFamepayCampaignCreated(\n            _influencer,\n            _business,\n            address(famepay),\n            campaignId,\n            _startDate,\n            _deadline,\n            _simplePostDuration,\n            _jackpotPayment,\n            _incrementalPayment,\n            _jackpotTargetAmount,\n            _incrementalTargetAmount,\n            _potentialPayoutAmount,\n            _objective\n        );\n    }\n\n    /**\n     * @dev create new multi pot\n     * @param _business participating business\n     * @param _startDate start timestamp of bounty\n     * @param _deadline completion timestamp of bounty\n     * @param _simplePostDuration duration which post must be up\n     * @param _maxJackpotReward max possible reward if jackpot objective achieved. Either fixed or variable!\n     * @param _jackpotTargetAmount metric to achieve jackpot objective\n     * @param _objective objective type\n     * @param _bountyType fixed or variable pot\n     * @param _maxWinners max winners allowed to claim pot\n     */\n\n    //TODO max participants???\n\n    function newFamepayBounty(\n        address payable _business,\n        uint256 _startDate,\n        uint256 _deadline,\n        uint256 _simplePostDuration,\n        uint256 _maxJackpotReward,\n        uint256 _jackpotTargetAmount,\n        uint256 _maxWinners,\n        bytes4 _objective,\n        bytes32 _bountyType\n    ) external payable {\n        require(_maxWinners > 0, 'newFamepayBounty(): at least one winner required');\n        require(_deadline > _startDate, 'newFamepayBounty(): deadline must be after startDate');\n\n        require(_startDate >= block.timestamp, 'newFamepayBounty(): campaign cannot be in the past');\n\n        if (keccak256(abi.encodePacked(_objective)) == keccak256(abi.encodePacked('post'))) {\n            require(_simplePostDuration >= 43200, 'newFamepayBounty(): post must be at least 12 hours');\n        }\n\n        uint256 potentialPayout = _maxWinners * _maxJackpotReward;\n        require(msg.value >= potentialPayout, 'newFamepayBounty(): insufficient deposit amount');\n\n        campaignPointer = campaignPointer + 1;\n\n        FamepayBounty famepayBounty = new FamepayBounty{value: msg.value}(\n            _business,\n            _startDate,\n            _deadline,\n            _simplePostDuration,\n            _maxJackpotReward,\n            _jackpotTargetAmount,\n            campaignPointer,\n            _maxWinners,\n            accessControl,\n            _objective,\n            _bountyType\n        );\n        famepayBounties[campaignPointer] = address(famepayBounty);\n        emit NewMultiBountyCreated(\n            _business,\n            address(famepayBounty),\n            _startDate,\n            _deadline,\n            _simplePostDuration,\n            _maxJackpotReward,\n            _jackpotTargetAmount,\n            _maxWinners,\n            campaignPointer,\n            msg.value,\n            _bountyType,\n            _objective\n            //potentialPayout -> calculate in subgraph\n        );\n    }\n\n    function checkTimestamp() external view returns (uint256) {\n        return block.timestamp;\n    }\n}\n",
  "sourcePath": "/Users/benweinberg/Desktop/Work/FamePay/FamePayContract/contracts/FamepayFactory.sol",
  "compiler": {
    "name": "solc",
    "version": "0.8.12+commit.f00d7308.Emscripten.clang"
  },
  "schemaVersion": "3.4.3",
  "updatedAt": "2022-02-24T21:58:20.227Z",
  "networkType": "ethereum",
  "devdoc": {
    "kind": "dev",
    "methods": {
      "newFamepayBounty(address,uint256,uint256,uint256,uint256,uint256,uint256,bytes4,bytes32)": {
        "details": "create new multi pot",
        "params": {
          "_bountyType": "fixed or variable pot",
          "_business": "participating business",
          "_deadline": "completion timestamp of bounty",
          "_jackpotTargetAmount": "metric to achieve jackpot objective",
          "_maxJackpotReward": "max possible reward if jackpot objective achieved. Either fixed or variable!",
          "_maxWinners": "max winners allowed to claim pot",
          "_objective": "objective type",
          "_simplePostDuration": "duration which post must be up",
          "_startDate": "start timestamp of bounty"
        }
      },
      "newFamepayCampaign(address,address,uint256,uint256,uint256,uint256,uint256,uint256,uint256,uint256,bytes4)": {
        "details": "create new one-to-one campaign",
        "params": {
          "_business": "participating business",
          "_deadline": "completion timestamp of campaign",
          "_incrementalPayment": "reward for achieving incremental objective",
          "_incrementalTargetAmount": "minimum target metric to achieve incremental objective",
          "_influencer": "participating influencer",
          "_jackpotPayment": "reward for achieving jackpot objective",
          "_jackpotTargetAmount": "minimum target metric to achieve jackpot objective",
          "_objective": "objective type",
          "_potentialPayoutAmount": "total eth staked in the contract to be earned",
          "_simplePostDuration": "duration which post must be up",
          "_startDate": "start timestamp of campaign"
        }
      }
    },
    "version": 1
  },
  "userdoc": {
    "kind": "user",
    "methods": {},
    "version": 1
  }
}