{
  "contractName": "Famepay",
  "abi": [
    {
      "inputs": [
        {
          "internalType": "address payable",
          "name": "_influencer",
          "type": "address"
        },
        {
          "internalType": "address payable",
          "name": "_business",
          "type": "address"
        },
        {
          "internalType": "uint256",
          "name": "_campaignId",
          "type": "uint256"
        },
        {
          "internalType": "uint256",
          "name": "_startDate",
          "type": "uint256"
        },
        {
          "internalType": "uint256",
          "name": "_deadline",
          "type": "uint256"
        },
        {
          "internalType": "uint256",
          "name": "_jackpotPayment",
          "type": "uint256"
        },
        {
          "internalType": "uint256",
          "name": "_incrementalPayment",
          "type": "uint256"
        },
        {
          "internalType": "uint256",
          "name": "_jackpotTargetAmount",
          "type": "uint256"
        },
        {
          "internalType": "uint256",
          "name": "_incrementalTargetAmount",
          "type": "uint256"
        },
        {
          "internalType": "uint256",
          "name": "_potentialPayoutAmount",
          "type": "uint256"
        },
        {
          "internalType": "string",
          "name": "_objective",
          "type": "string"
        }
      ],
      "stateMutability": "payable",
      "type": "constructor"
    },
    {
      "anonymous": false,
      "inputs": [
        {
          "indexed": false,
          "internalType": "address",
          "name": "_influencer",
          "type": "address"
        },
        {
          "indexed": false,
          "internalType": "string",
          "name": "_message",
          "type": "string"
        },
        {
          "indexed": false,
          "internalType": "uint256",
          "name": "_amount",
          "type": "uint256"
        },
        {
          "indexed": false,
          "internalType": "uint256",
          "name": "_campaignId",
          "type": "uint256"
        }
      ],
      "name": "AgreedAmountPayment",
      "type": "event"
    },
    {
      "anonymous": false,
      "inputs": [
        {
          "indexed": false,
          "internalType": "address",
          "name": "_business",
          "type": "address"
        },
        {
          "indexed": false,
          "internalType": "string",
          "name": "_message",
          "type": "string"
        },
        {
          "indexed": false,
          "internalType": "uint256",
          "name": "_amount",
          "type": "uint256"
        },
        {
          "indexed": false,
          "internalType": "uint256",
          "name": "_campaignId",
          "type": "uint256"
        }
      ],
      "name": "BusinessDeposited",
      "type": "event"
    },
    {
      "anonymous": false,
      "inputs": [
        {
          "indexed": false,
          "internalType": "address",
          "name": "_business",
          "type": "address"
        },
        {
          "indexed": false,
          "internalType": "string",
          "name": "_message",
          "type": "string"
        },
        {
          "indexed": false,
          "internalType": "uint256",
          "name": "_amount",
          "type": "uint256"
        },
        {
          "indexed": false,
          "internalType": "uint256",
          "name": "_campaignId",
          "type": "uint256"
        }
      ],
      "name": "BusinessRefunded",
      "type": "event"
    },
    {
      "anonymous": false,
      "inputs": [
        {
          "indexed": false,
          "internalType": "string",
          "name": "_message",
          "type": "string"
        },
        {
          "indexed": false,
          "internalType": "uint256",
          "name": "_refundableAmount",
          "type": "uint256"
        },
        {
          "indexed": false,
          "internalType": "bool",
          "name": "_objectiveReached",
          "type": "bool"
        },
        {
          "indexed": false,
          "internalType": "uint256",
          "name": "_campaignId",
          "type": "uint256"
        }
      ],
      "name": "CampaignEnding",
      "type": "event"
    },
    {
      "anonymous": false,
      "inputs": [
        {
          "indexed": false,
          "internalType": "address",
          "name": "_influencer",
          "type": "address"
        },
        {
          "indexed": false,
          "internalType": "string",
          "name": "_message",
          "type": "string"
        },
        {
          "indexed": false,
          "internalType": "bool",
          "name": "_objectiveReached",
          "type": "bool"
        },
        {
          "indexed": false,
          "internalType": "uint256",
          "name": "_campaignId",
          "type": "uint256"
        }
      ],
      "name": "CampaignTerminationIncrementPayment",
      "type": "event"
    },
    {
      "anonymous": false,
      "inputs": [
        {
          "indexed": false,
          "internalType": "address",
          "name": "_influencer",
          "type": "address"
        },
        {
          "indexed": false,
          "internalType": "string",
          "name": "_message",
          "type": "string"
        },
        {
          "indexed": false,
          "internalType": "bool",
          "name": "_objectiveReached",
          "type": "bool"
        },
        {
          "indexed": false,
          "internalType": "uint256",
          "name": "_campaignId",
          "type": "uint256"
        }
      ],
      "name": "CampaignTerminationJackpotPayment",
      "type": "event"
    },
    {
      "anonymous": false,
      "inputs": [
        {
          "indexed": false,
          "internalType": "string",
          "name": "_message",
          "type": "string"
        },
        {
          "indexed": false,
          "internalType": "uint256",
          "name": "_newDeadline",
          "type": "uint256"
        },
        {
          "indexed": false,
          "internalType": "uint256",
          "name": "_campaignId",
          "type": "uint256"
        }
      ],
      "name": "ExtendDeadline",
      "type": "event"
    },
    {
      "anonymous": false,
      "inputs": [
        {
          "indexed": false,
          "internalType": "uint256",
          "name": "_amount",
          "type": "uint256"
        },
        {
          "indexed": false,
          "internalType": "uint256",
          "name": "_amountOfIncrementalPayments",
          "type": "uint256"
        },
        {
          "indexed": false,
          "internalType": "uint256",
          "name": "_campaignId",
          "type": "uint256"
        }
      ],
      "name": "IncrementInfluencerPayment",
      "type": "event"
    },
    {
      "anonymous": false,
      "inputs": [
        {
          "indexed": false,
          "internalType": "uint256",
          "name": "_amount",
          "type": "uint256"
        },
        {
          "indexed": false,
          "internalType": "uint256",
          "name": "_campaignId",
          "type": "uint256"
        }
      ],
      "name": "InvalidWithdrawal",
      "type": "event"
    },
    {
      "anonymous": false,
      "inputs": [
        {
          "indexed": false,
          "internalType": "uint256",
          "name": "_amount",
          "type": "uint256"
        },
        {
          "indexed": false,
          "internalType": "uint256",
          "name": "_campaignId",
          "type": "uint256"
        }
      ],
      "name": "JackpotInfluencerPayment",
      "type": "event"
    },
    {
      "inputs": [],
      "name": "business",
      "outputs": [
        {
          "internalType": "address payable",
          "name": "",
          "type": "address"
        }
      ],
      "stateMutability": "view",
      "type": "function"
    },
    {
      "inputs": [],
      "name": "businessConfirmed",
      "outputs": [
        {
          "internalType": "bool",
          "name": "",
          "type": "bool"
        }
      ],
      "stateMutability": "view",
      "type": "function"
    },
    {
      "inputs": [],
      "name": "deadline",
      "outputs": [
        {
          "internalType": "uint256",
          "name": "",
          "type": "uint256"
        }
      ],
      "stateMutability": "view",
      "type": "function"
    },
    {
      "inputs": [
        {
          "internalType": "address",
          "name": "",
          "type": "address"
        }
      ],
      "name": "depositedFor",
      "outputs": [
        {
          "internalType": "uint256",
          "name": "",
          "type": "uint256"
        }
      ],
      "stateMutability": "view",
      "type": "function"
    },
    {
      "inputs": [],
      "name": "incrementalPayment",
      "outputs": [
        {
          "internalType": "uint256",
          "name": "",
          "type": "uint256"
        }
      ],
      "stateMutability": "view",
      "type": "function"
    },
    {
      "inputs": [],
      "name": "incrementalTargetAmount",
      "outputs": [
        {
          "internalType": "uint256",
          "name": "",
          "type": "uint256"
        }
      ],
      "stateMutability": "view",
      "type": "function"
    },
    {
      "inputs": [],
      "name": "incrementalTargetReached",
      "outputs": [
        {
          "internalType": "bool",
          "name": "",
          "type": "bool"
        }
      ],
      "stateMutability": "view",
      "type": "function"
    },
    {
      "inputs": [],
      "name": "influencer",
      "outputs": [
        {
          "internalType": "address payable",
          "name": "",
          "type": "address"
        }
      ],
      "stateMutability": "view",
      "type": "function"
    },
    {
      "inputs": [],
      "name": "influencerConfirmed",
      "outputs": [
        {
          "internalType": "bool",
          "name": "",
          "type": "bool"
        }
      ],
      "stateMutability": "view",
      "type": "function"
    },
    {
      "inputs": [],
      "name": "jackpotPayment",
      "outputs": [
        {
          "internalType": "uint256",
          "name": "",
          "type": "uint256"
        }
      ],
      "stateMutability": "view",
      "type": "function"
    },
    {
      "inputs": [],
      "name": "jackpotTargetAmount",
      "outputs": [
        {
          "internalType": "uint256",
          "name": "",
          "type": "uint256"
        }
      ],
      "stateMutability": "view",
      "type": "function"
    },
    {
      "inputs": [],
      "name": "jackpotTargetReached",
      "outputs": [
        {
          "internalType": "bool",
          "name": "",
          "type": "bool"
        }
      ],
      "stateMutability": "view",
      "type": "function"
    },
    {
      "inputs": [],
      "name": "objective",
      "outputs": [
        {
          "internalType": "string",
          "name": "",
          "type": "string"
        }
      ],
      "stateMutability": "view",
      "type": "function"
    },
    {
      "inputs": [
        {
          "internalType": "uint256",
          "name": "",
          "type": "uint256"
        }
      ],
      "name": "outstandingIncrementalPayments",
      "outputs": [
        {
          "internalType": "uint256",
          "name": "",
          "type": "uint256"
        }
      ],
      "stateMutability": "view",
      "type": "function"
    },
    {
      "inputs": [],
      "name": "potentialPayoutAmount",
      "outputs": [
        {
          "internalType": "uint256",
          "name": "",
          "type": "uint256"
        }
      ],
      "stateMutability": "view",
      "type": "function"
    },
    {
      "inputs": [],
      "name": "startDate",
      "outputs": [
        {
          "internalType": "uint256",
          "name": "",
          "type": "uint256"
        }
      ],
      "stateMutability": "view",
      "type": "function"
    },
    {
      "inputs": [],
      "name": "getTimestamp",
      "outputs": [
        {
          "internalType": "uint256",
          "name": "",
          "type": "uint256"
        }
      ],
      "stateMutability": "view",
      "type": "function"
    },
    {
      "inputs": [],
      "name": "depositPayment",
      "outputs": [],
      "stateMutability": "payable",
      "type": "function"
    },
    {
      "inputs": [],
      "name": "depositedForInfluencerBalance",
      "outputs": [
        {
          "internalType": "uint256",
          "name": "",
          "type": "uint256"
        }
      ],
      "stateMutability": "view",
      "type": "function"
    },
    {
      "inputs": [],
      "name": "addressBalance",
      "outputs": [
        {
          "internalType": "uint256",
          "name": "",
          "type": "uint256"
        }
      ],
      "stateMutability": "view",
      "type": "function"
    },
    {
      "inputs": [],
      "name": "outstandingPayments",
      "outputs": [
        {
          "internalType": "uint256",
          "name": "",
          "type": "uint256"
        }
      ],
      "stateMutability": "view",
      "type": "function"
    },
    {
      "inputs": [
        {
          "internalType": "bool",
          "name": "_confirmedBusiness",
          "type": "bool"
        },
        {
          "internalType": "bool",
          "name": "_confirmedInfluencer",
          "type": "bool"
        }
      ],
      "name": "confirmBusinessInfluencer",
      "outputs": [],
      "stateMutability": "nonpayable",
      "type": "function"
    },
    {
      "inputs": [
        {
          "internalType": "bool",
          "name": "_jackpotTargetReached",
          "type": "bool"
        },
        {
          "internalType": "bool",
          "name": "_incrementalTargetReached",
          "type": "bool"
        }
      ],
      "name": "paymentTargetReached",
      "outputs": [],
      "stateMutability": "nonpayable",
      "type": "function"
    },
    {
      "inputs": [
        {
          "internalType": "bool",
          "name": "_businessConfirmed",
          "type": "bool"
        },
        {
          "internalType": "bool",
          "name": "_influencerConfirmed",
          "type": "bool"
        },
        {
          "internalType": "uint256",
          "name": "_confirmedPaymentAmount",
          "type": "uint256"
        }
      ],
      "name": "payInfluencer",
      "outputs": [],
      "stateMutability": "payable",
      "type": "function"
    },
    {
      "inputs": [
        {
          "internalType": "bool",
          "name": "_businessConfirmed",
          "type": "bool"
        },
        {
          "internalType": "bool",
          "name": "_influencerConfirmed",
          "type": "bool"
        }
      ],
      "name": "confirmRefund",
      "outputs": [],
      "stateMutability": "nonpayable",
      "type": "function"
    },
    {
      "inputs": [
        {
          "internalType": "uint256",
          "name": "_newDeadline",
          "type": "uint256"
        }
      ],
      "name": "extendDeadline",
      "outputs": [],
      "stateMutability": "nonpayable",
      "type": "function"
    },
    {
      "inputs": [
        {
          "internalType": "uint256",
          "name": "_agreedAmount",
          "type": "uint256"
        }
      ],
      "name": "campaignEnded",
      "outputs": [],
      "stateMutability": "payable",
      "type": "function"
    }
  ],
  "bytecode": "0x60806040819052600a805463ffff000019169055620014153881900390819083398181016040526101608110156200003657600080fd5b815160208301516040808501516060860151608087015160a088015160c089015160e08a01516101008b01516101208c01516101408d01805199519b9d9a9c989b979a96999598949793969295919483019291846401000000008211156200009d57600080fd5b908301906020820185811115620000b357600080fd5b8251640100000000811182820188101715620000ce57600080fd5b82525081516020918201929091019080838360005b83811015620000fd578181015183820152602001620000e3565b50505050905090810190601f1680156200012b5780820380516001836020036101000a031916815260200191505b506040525050600080546001600160a01b03808f166001600160a01b03199283161790925560018054928e1692909116919091179055506006899055600488905560058790556003869055600285905560088490556007839055600982905580516200019f90600b906020840190620001d0565b5050600080546001600160a01b03168152600c60205260409020805447019055506200026c98505050505050505050565b828054600181600116156101000203166002900490600052602060002090601f016020900481019282601f106200021357805160ff191683800117855562000243565b8280016001018555821562000243579182015b828111156200024357825182559160200191906001019062000226565b506200025192915062000255565b5090565b5b8082111562000251576000815560010162000256565b611199806200027c6000396000f3fe6080604052600436106101ac5760003560e01c8063a87588e7116100ec578063e36686321161008a578063e74dc11c11610064578063e74dc11c146104e6578063f318e557146104fb578063f41662ed14610510578063fac3fd5914610473576101ac565b8063e3668632146104a7578063e53abae9146104bc578063e5fb0450146104d1576101ac565b8063b801ed85116100c6578063b801ed851461041c578063da85a11f14610431578063dc5b133114610446578063df2d88ca14610473576101ac565b8063a87588e7146103ba578063aa5e2153146103eb578063ac35e160146103f3576101ac565b80632fe289b311610159578063612abb1011610133578063612abb10146103215780637005a865146103365780638d0449d61461036a578063a4b870c414610387576101ac565b80632fe289b3146102cb5780633621905f146102e0578063389b7533146102f5576101ac565b8063188ec3561161018a578063188ec3561461028c5780631d8d1f66146102a157806329dcb0cf146102b6576101ac565b806304963369146101b15780630b97bc86146101ed57806314f1586a14610202575b600080fd5b3480156101bd57600080fd5b506101db600480360360208110156101d457600080fd5b5035610525565b60408051918252519081900360200190f35b3480156101f957600080fd5b506101db610543565b34801561020e57600080fd5b50610217610549565b6040805160208082528351818301528351919283929083019185019080838360005b83811015610251578181015183820152602001610239565b50505050905090810190601f16801561027e5780820380516001836020036101000a031916815260200191505b509250505060405180910390f35b34801561029857600080fd5b506101db6105d7565b3480156102ad57600080fd5b506101db6105db565b3480156102c257600080fd5b506101db6105f7565b3480156102d757600080fd5b506101db6105fd565b3480156102ec57600080fd5b506101db610603565b34801561030157600080fd5b5061031f6004803603602081101561031857600080fd5b5035610609565b005b34801561032d57600080fd5b506101db61067e565b34801561034257600080fd5b5061031f6004803603604081101561035957600080fd5b508035151590602001351515610684565b61031f6004803603602081101561038057600080fd5b50356106fe565b34801561039357600080fd5b506101db600480360360208110156103aa57600080fd5b50356001600160a01b03166108e3565b3480156103c657600080fd5b506103cf6108f5565b604080516001600160a01b039092168252519081900360200190f35b61031f610904565b3480156103ff57600080fd5b50610408610a34565b604080519115158252519081900360200190f35b34801561042857600080fd5b50610408610a42565b34801561043d57600080fd5b506101db610a52565b61031f6004803603606081101561045c57600080fd5b508035151590602081013515159060400135610a58565b34801561047f57600080fd5b5061031f6004803603604081101561049657600080fd5b508035151590602001351515610ec2565b3480156104b357600080fd5b506101db610ef2565b3480156104c857600080fd5b50610408610ef8565b3480156104dd57600080fd5b506101db610f07565b3480156104f257600080fd5b506103cf610f0d565b34801561050757600080fd5b506101db610f1c565b34801561051c57600080fd5b50610408610f20565b600d818154811061053257fe5b600091825260209091200154905081565b60045481565b600b805460408051602060026001851615610100026000190190941693909304601f810184900484028201840190925281815292918301828280156105cf5780601f106105a4576101008083540402835291602001916105cf565b820191906000526020600020905b8154815290600101906020018083116105b257829003601f168201915b505050505081565b4290565b600080546001600160a01b03168152600c602052604090205490565b60055481565b60085481565b60025481565b806005541061061757600080fd5b806005819055507f0b00605b9ad7ef2de33021fe160f4d82994976e6817d72e28de02224bcf7ef6681600654604051808060200184815260200183815260200182810382526025815260200180610fc660259139604001935050505060405180910390a150565b60075481565b600a805460ff191683151517905580156106e657600a805461ff00191661010083151502179055600254600d80546001810182556000919091527fd7b6990105719101dabeb77144f2a3385c8033acd3af97e9423a695e81ad1eb501556106fa565b600a805461ff001916610100831515021790555b5050565b600a5460ff16156107a557600a546107299060ff620100008204811691630100000090041683610a58565b60018054600654604080516001600160a01b03909316808452838201859052606084018390526080602085018181529085018390527ff624d99a89aaa005e805dc92498435916c6c254ae279b9344f2ac1e3196608fc95919491939260a0830190611075823960400194505050505060405180910390a161084f565b600a54610100900460ff161561084f57600a546107d59060ff620100008204811691630100000090041683610a58565b600154600654604080516001600160a01b0390931680845260009184018290526060840183905260806020850181815260449186018290527f10c17442a5ea70a854e377780176fec1a27a0fc4b74e0184353a6053da9e5d2a959294929160a0830190611120823960600194505050505060405180910390a15b600080546001600160a01b03168152600c6020908152604080832054600654825193840182905291830184905260608301829052608080845260229084018190527f692bb0029b219b1cc9399e529c627028a932feacc8848fb01b38eb1ee5b8575d94919391929190819060a08201906110fe823960400194505050505060405180910390a16001546001600160a01b0316ff5b600c6020526000908152604090205481565b6000546001600160a01b031681565b426005541161095a576040805162461bcd60e51b815260206004820181905260248201527f5468652063616d706169676e20646561646c696e652068617320706173736564604482015290519081900360640190fd5b600034116109995760405162461bcd60e51b81526004018080602001828103825260288152602001806110d66028913960400191505060405180910390fd5b600080546001600160a01b03168152600c6020908152604091829020805434908101909155600654835133815280850192909252606082015260808183018190528101919091527f686173206d61646520746865207265717569726564206465706f736974206f6660a082015290517f5e099b07090a28377d290cb1b348bf56003cf9b56fd13c3fdda41dca8bbe4dcf9181900360c00190a1565b600a54610100900460ff1681565b600a546301000000900460ff1681565b600d5490565b600a5460ff1680610a705750600a54610100900460ff165b80610a805750828015610a805750815b610abb5760405162461bcd60e51b8152600401808060200182810382526023815260200180610feb6023913960400191505060405180910390fd5b426005541015610b12576040805162461bcd60e51b815260206004820152601b60248201527f7468652063616d706169676e20706572696f64206973206f7665720000000000604482015290519081900360640190fd5b600a5460ff1615610be757600354600080546001600160a01b03168152600c60205260409020541015610b4457600080fd5b60038054600080546001600160a01b039081168252600c602052604080832080549490940390935581549354925193169282156108fc029291818181858888f19350505050158015610b9a573d6000803e3d6000fd5b50600a805460ff1916905560035460065460408051928352602083019190915280517f314b8d1c1fcf6a0803dd4c073d3a198302a249e6e1e0a6ce20a289f6f61c80e89281900390910190a15b600a54610100900460ff1615610dce57600254600080546001600160a01b03168152600c60205260409020541015610c505760405162461bcd60e51b815260040180806020018281038252603e815260200180611037603e913960400191505060405180910390fd5b600d54600111610d2457600254600d54600091610c6d9190610f29565b600080546001600160a01b039081168252600c60205260408083208054859003905582549051939450169183156108fc0291849190818181858888f19350505050158015610cbf573d6000803e3d6000fd5b50610ccc600d6000610f8b565b600a805461ff0019169055600d5460065460408051848152602081019390935282810191909152517f4e096a163f990a9051b37b380a1fdc57da1ed67943857ddeb496a302fea7a7c09181900360600190a150610dce565b60028054600080546001600160a01b039081168252600c602052604080832080549490940390935581549354925193169282156108fc029291818181858888f19350505050158015610d7a573d6000803e3d6000fd5b50600a805461ff0019169055600254600d5460065460408051938452602084019290925282820152517f4e096a163f990a9051b37b380a1fdc57da1ed67943857ddeb496a302fea7a7c09181900360600190a15b828015610dd85750815b15610ebd57600080546001600160a01b03168152600c60205260409020548110610e0157600080fd5b600080546040516001600160a01b039091169183156108fc02918491818181858888f19350505050158015610e3a573d6000803e3d6000fd5b507fa92187b78345558eed3648c90b7b79ea90173e8df1b56ecf17fa03896703d41b60008054906101000a90046001600160a01b03168260065460405180846001600160a01b03168152602001806020018481526020018381526020018281038252602981526020018061100e6029913960400194505050505060405180910390a15b505050565b600a805491151563010000000263ff00000019931515620100000262ff0000199093169290921792909216179055565b60035481565b600a5462010000900460ff1681565b60095481565b6001546001600160a01b031681565b4790565b600a5460ff1681565b600082610f3857506000610f85565b82820282848281610f4557fe5b0414610f825760405162461bcd60e51b81526004018080602001828103825260218152602001806110b56021913960400191505060405180910390fd5b90505b92915050565b5080546000825590600052602060002090810190610fa99190610fac565b50565b5b80821115610fc15760008155600101610fad565b509056fe5468652063616d706169676e20646561646c696e652077617320657874656e64656420746f636f6e646974696f6e7320666f72207061796d656e742077657265206e6f74206d6574686173206d61646520616e206167726565642075706f6e20616d6f756e74207769746864726177616c74686520617474656d70746564207061796f7574206973206d6f7265207468616e20697320646573706f6974656420696e207468652063616d706169676e6d616b696e67207468652072656d61696e696e67206a61636b706f74207061796d656e74206265666f72652063616d706167696e207465726d696e6174696f6e536166654d6174683a206d756c7469706c69636174696f6e206f766572666c6f77596f75206d757374206465706f736974206d6f6e657920696e746f2074686520636f6e747261637463616d706169676e2069732061626f757420746f206265207465726d696e617465646d616b696e67207468652072656d61696e696e6720696e6372656d656e74616c207061796d656e74206265666f72652063616d706167696e207465726d696e6174696f6ea26469706673582212205448ca135112f319ecaa72e38773c66eb229c0870350ee6b3b753d5b0fa90bb964736f6c634300060c0033",
  "immutableReferences": {},
  "source": "// extract logic into private functions and call those with public functions\n//eth alarm clock\n//x dai\n//chainlink\n// super fluid for incremental payments\n// \n\npragma solidity >=0.4.22 <0.8.0;\n\nimport '@openzeppelin/contracts/math/SafeMath.sol';\n\n\ncontract Famepay  {\n    using SafeMath for uint256;\n    \n    address payable public influencer;\n    address payable public business;\n    address constant  platform = 0xD77F59412898F48353570f196aaa23B42DE6E16D;  //payable?<--\n\n    uint256 public incrementalPayment;\n    uint256 public jackpotPayment;\n    \n    uint256 public startDate;\n    uint256 public deadline;\n    \n    uint256 private campaignId;\n    \n    uint256 public incrementalTargetAmount;\n    uint256 public jackpotTargetAmount;\n    uint256 public potentialPayoutAmount;\n    \n    bool public jackpotTargetReached;\n    bool public incrementalTargetReached;\n    \n    bool public businessConfirmed = false;\n    bool public influencerConfirmed = false;\n    \n\n    string public objective;\n    \n    \n    mapping(address => uint256) public depositedFor;\n    uint256[] public outstandingIncrementalPayments;\n    \n    \n    event BusinessDeposited(address _business, string _message, uint256 _amount, uint256 _campaignId);\n    event BusinessRefunded(address _business, string _message, uint256 _amount, uint256 _campaignId);\n    \n    event IncrementInfluencerPayment(uint256 _amount,  uint256 _amountOfIncrementalPayments, uint256 _campaignId);\n    event JackpotInfluencerPayment(uint256 _amount, uint256 _campaignId);\n    event AgreedAmountPayment(address _influencer, string _message, uint256 _amount, uint256 _campaignId);\n    \n\n    event InvalidWithdrawal(uint256 _amount, uint256 _campaignId);\n    \n    event CampaignTerminationIncrementPayment(address _influencer, string _message, bool _objectiveReached, uint256 _campaignId);\n    event CampaignTerminationJackpotPayment(address _influencer, string _message, bool _objectiveReached, uint256 _campaignId);\n    event CampaignEnding(string _message, uint256 _refundableAmount,  bool _objectiveReached, uint256 _campaignId);\n    event ExtendDeadline(string _message, uint256 _newDeadline, uint256 _campaignId);\n    \n    modifier onlyInfluencer() {\n        require(influencer == msg.sender);\n        _;\n    }\n    \n    modifier onlyBusiness() { \n        require(business == msg.sender);\n        _;\n    }\n    \n    constructor ( \n        address payable _influencer, \n        address payable _business, \n        uint256 _campaignId, \n        uint256 _startDate, \n        uint256 _deadline, \n        uint256 _jackpotPayment, \n        uint256 _incrementalPayment, \n        uint256 _jackpotTargetAmount, \n        uint256 _incrementalTargetAmount, \n        uint256 _potentialPayoutAmount,  \n        string memory _objective\n    ) public payable { \n            influencer = _influencer;\n            business = _business;\n            campaignId = _campaignId;\n            startDate = _startDate;\n            deadline = _deadline;\n            jackpotPayment = _jackpotPayment;\n            incrementalPayment = _incrementalPayment;\n            jackpotTargetAmount = _jackpotTargetAmount;\n            incrementalTargetAmount = _incrementalTargetAmount;\n            potentialPayoutAmount = _potentialPayoutAmount;\n            objective = _objective;\n            depositedFor[influencer] = depositedFor[influencer] + address(this).balance;\n    }\n    \n    function getTimestamp() public view returns (uint256) {\n        return block.timestamp;\n    }\n        \n    //consider removing the public!<<\n    function depositPayment() public payable  {\n        require(deadline > block.timestamp, \"The campaign deadline has passed\"); \n        require(msg.value > 0, \"You must deposit money into the contract\");\n        depositedFor[influencer] = depositedFor[influencer] + msg.value;\n        emit BusinessDeposited(msg.sender, \"has made the required deposit of\", msg.value, campaignId);\n    }\n\n    function depositedForInfluencerBalance() public view returns (uint256) {\n        return depositedFor[influencer];\n    }\n    \n    function addressBalance() public view returns (uint256) {\n        return address(this).balance;\n    }\n    \n    function outstandingPayments() public  view returns (uint256) {\n        return outstandingIncrementalPayments.length;\n    }\n    \n    function confirmBusinessInfluencer(bool _confirmedBusiness, bool _confirmedInfluencer) /*onlyBusiness onlyInfluencer*/ public {\n        businessConfirmed = _confirmedBusiness;\n        influencerConfirmed = _confirmedInfluencer;\n    }\n    \n    function paymentTargetReached(bool _jackpotTargetReached, bool _incrementalTargetReached) public {\n        jackpotTargetReached = _jackpotTargetReached;\n        if(_incrementalTargetReached) {  //review this if logic\n            incrementalTargetReached = _incrementalTargetReached;\n            outstandingIncrementalPayments.push(incrementalPayment);\n        } else {\n            incrementalTargetReached = _incrementalTargetReached;\n        }\n    }\n\n    \n    function payInfluencer(bool _businessConfirmed, bool _influencerConfirmed, uint256 _confirmedPaymentAmount) public payable {\n        require(jackpotTargetReached || incrementalTargetReached || (_businessConfirmed && _influencerConfirmed ), \"conditions for payment were not met\");\n        require(deadline >= block.timestamp, \"the campaign period is over\");\n        //jackpot payment\n        if (jackpotTargetReached) {\n            require(depositedFor[influencer] >= jackpotPayment);\n            depositedFor[influencer] -= jackpotPayment;\n            influencer.transfer(jackpotPayment);\n            jackpotTargetReached = false;\n            emit JackpotInfluencerPayment(jackpotPayment, campaignId);\n        } \n\n        //incremental payment\n        if (incrementalTargetReached) {\n            require(depositedFor[influencer] >= incrementalPayment, \"the attempted payout is more than is despoited in the campaign\");\n            // for multiple outstanding payments\n            if(outstandingIncrementalPayments.length >= 1) {\n                uint256 outstandingIncrementalPayment = outstandingIncrementalPayments.length.mul(incrementalPayment);\n                depositedFor[influencer] -= outstandingIncrementalPayment;\n                influencer.transfer(outstandingIncrementalPayment);\n                delete outstandingIncrementalPayments;\n                incrementalTargetReached = false;\n                emit IncrementInfluencerPayment(outstandingIncrementalPayment, outstandingIncrementalPayments.length, campaignId);\n            } else {\n                depositedFor[influencer] -= incrementalPayment;\n                influencer.transfer(incrementalPayment);\n                incrementalTargetReached = false;\n                emit IncrementInfluencerPayment(incrementalPayment, outstandingIncrementalPayments.length, campaignId);\n            }\n        }\n        \n        //agreed upon sum\n        if(_businessConfirmed && _influencerConfirmed) {\n            require(_confirmedPaymentAmount < depositedFor[influencer]);\n            influencer.transfer(_confirmedPaymentAmount);\n            emit AgreedAmountPayment(influencer, \"has made an agreed upon amount withdrawal\", _confirmedPaymentAmount, campaignId);\n        } \n    }\n    \n    function confirmRefund(bool _businessConfirmed, bool _influencerConfirmed) public {\n        businessConfirmed = _businessConfirmed;\n        influencerConfirmed = _influencerConfirmed;\n    }\n    \n    function extendDeadline(uint256 _newDeadline) public {\n        require (deadline < _newDeadline);\n        deadline = _newDeadline;\n            emit ExtendDeadline(\"The campaign deadline was extended to\", _newDeadline, campaignId);\n    }\n    \n    function campaignEnded(uint256 _agreedAmount) payable public {\n        // require(deadline <= block.timestamp || businessConfirmed && influencerConfirmed); //check multiple require statements\n        if(jackpotTargetReached) {\n            payInfluencer(businessConfirmed, influencerConfirmed, _agreedAmount);\n            emit CampaignTerminationJackpotPayment(business, \"making the remaining jackpot payment before campagin termination\", true, campaignId);\n        }\n        else if(incrementalTargetReached) {\n            payInfluencer(businessConfirmed, influencerConfirmed, _agreedAmount);\n            emit CampaignTerminationIncrementPayment(business, \"making the remaining incremental payment before campagin termination\", false, campaignId);\n        }\n        emit CampaignEnding(\"campaign is about to be terminated\", depositedFor[influencer], false, campaignId);\n        selfdestruct(business);\n    }\n    \n\n    \n    \n    // function adminCancelCampaign(uint256 _agreedAmount) onlyAdmin internal {\n    //     if(incrementalTargetReached) {\n    //         payInfluencer(true, true, _agreedAmount);\n    //         emit CampaignTerminationIncrementPayment(business, \"remaining incremental payments to be paid:\", depositedFor[influencer], false);\n    //     }\n    //     if(jackpotTargetReached) {\n    //         payInfluencer(true, true, _agreedAmount);\n    //         emit CampaignTerminationJackpotPayment(business, \"making the remaining jackpot payment before campagin termination\", true);\n    //     }\n    //     emit CampaignEnding(\"Campaign is about to be terminated. Amount to be refunded:\", depositedFor[influencer], false);\n    //     selfdestruct;\n    // }\n    \n    /*\n    function pause() external onlyAdmin {\n        super._pause();\n    }\n\n    function unpause() external onlyAdmin {\n        super._unpause();\n    }\n    \n    \n    */\n\n}\n\n\n\n\n\n\n\n\n\n",
  "sourcePath": "/Users/benweinberg/Desktop/Work/FamePay/FamePayContract/contracts/FamePay.sol",
  "compiler": {
    "name": "solc",
    "version": "0.6.12+commit.27d51765.Emscripten.clang"
  },
  "schemaVersion": "3.3.0",
  "updatedAt": "2021-04-28T02:43:14.431Z",
  "devdoc": {
    "kind": "dev",
    "methods": {},
    "version": 1
  },
  "userdoc": {
    "kind": "user",
    "methods": {},
    "version": 1
  }
}