{
  "contractName": "FamepayBounty",
  "abi": [
    {
      "inputs": [
        {
          "internalType": "uint256",
          "name": "_startDate",
          "type": "uint256"
        },
        {
          "internalType": "uint256",
          "name": "_deadline",
          "type": "uint256"
        },
        {
          "internalType": "uint256",
          "name": "_simplePostDuration",
          "type": "uint256"
        },
        {
          "internalType": "uint256",
          "name": "_maxJackpotReward",
          "type": "uint256"
        },
        {
          "internalType": "uint256",
          "name": "_jackpotTargetAmount",
          "type": "uint256"
        },
        {
          "internalType": "uint256",
          "name": "_bountyId",
          "type": "uint256"
        },
        {
          "internalType": "bytes32",
          "name": "_bountyType",
          "type": "bytes32"
        },
        {
          "internalType": "address payable",
          "name": "_business",
          "type": "address"
        },
        {
          "internalType": "uint16",
          "name": "_maxParticipants",
          "type": "uint16"
        },
        {
          "internalType": "bytes4",
          "name": "_objective",
          "type": "bytes4"
        },
        {
          "internalType": "contract AccessControl",
          "name": "_accessControl",
          "type": "address"
        },
        {
          "internalType": "uint16",
          "name": "_maxWinners",
          "type": "uint16"
        }
      ],
      "stateMutability": "payable",
      "type": "constructor"
    },
    {
      "anonymous": false,
      "inputs": [
        {
          "indexed": false,
          "internalType": "uint256",
          "name": "_refundableAmount",
          "type": "uint256"
        },
        {
          "indexed": false,
          "internalType": "uint256",
          "name": "_bountyId",
          "type": "uint256"
        }
      ],
      "name": "CampaignEnding",
      "type": "event"
    },
    {
      "anonymous": false,
      "inputs": [
        {
          "indexed": true,
          "internalType": "address",
          "name": "_influencer",
          "type": "address"
        },
        {
          "indexed": false,
          "internalType": "uint256",
          "name": "_bountyId",
          "type": "uint256"
        }
      ],
      "name": "InfluencerBlacklisted",
      "type": "event"
    },
    {
      "anonymous": false,
      "inputs": [
        {
          "indexed": true,
          "internalType": "address",
          "name": "_influencer",
          "type": "address"
        },
        {
          "indexed": false,
          "internalType": "uint256",
          "name": "_influencerCount",
          "type": "uint256"
        },
        {
          "indexed": false,
          "internalType": "uint256",
          "name": "_bountyId",
          "type": "uint256"
        }
      ],
      "name": "InfluencerRemoved",
      "type": "event"
    },
    {
      "anonymous": false,
      "inputs": [
        {
          "indexed": false,
          "internalType": "uint256",
          "name": "_amount",
          "type": "uint256"
        },
        {
          "indexed": true,
          "internalType": "address",
          "name": "_influencer",
          "type": "address"
        },
        {
          "indexed": false,
          "internalType": "uint256",
          "name": "_bountyId",
          "type": "uint256"
        }
      ],
      "name": "JackpotInfluencerPayment",
      "type": "event"
    },
    {
      "anonymous": false,
      "inputs": [
        {
          "indexed": true,
          "internalType": "address",
          "name": "_winningInfluencer",
          "type": "address"
        },
        {
          "indexed": false,
          "internalType": "uint256",
          "name": "_bountyId",
          "type": "uint256"
        }
      ],
      "name": "JackpotTargetReached",
      "type": "event"
    },
    {
      "anonymous": false,
      "inputs": [
        {
          "indexed": true,
          "internalType": "address",
          "name": "_newInfluencer",
          "type": "address"
        },
        {
          "indexed": false,
          "internalType": "uint256",
          "name": "_influencerCount",
          "type": "uint256"
        },
        {
          "indexed": false,
          "internalType": "uint256",
          "name": "_bountyId",
          "type": "uint256"
        }
      ],
      "name": "NewInfluencerAdded",
      "type": "event"
    },
    {
      "anonymous": false,
      "inputs": [
        {
          "indexed": false,
          "internalType": "address",
          "name": "account",
          "type": "address"
        }
      ],
      "name": "Paused",
      "type": "event"
    },
    {
      "anonymous": false,
      "inputs": [
        {
          "indexed": false,
          "internalType": "address",
          "name": "account",
          "type": "address"
        }
      ],
      "name": "Unpaused",
      "type": "event"
    },
    {
      "stateMutability": "payable",
      "type": "fallback"
    },
    {
      "inputs": [],
      "name": "ADMIN_ROLE",
      "outputs": [
        {
          "internalType": "bytes32",
          "name": "",
          "type": "bytes32"
        }
      ],
      "stateMutability": "view",
      "type": "function"
    },
    {
      "inputs": [
        {
          "internalType": "address",
          "name": "",
          "type": "address"
        }
      ],
      "name": "blacklistedInfluencers",
      "outputs": [
        {
          "internalType": "address",
          "name": "",
          "type": "address"
        }
      ],
      "stateMutability": "view",
      "type": "function"
    },
    {
      "inputs": [],
      "name": "bountyType",
      "outputs": [
        {
          "internalType": "enum FamepayBounty.BountyType",
          "name": "",
          "type": "uint8"
        }
      ],
      "stateMutability": "view",
      "type": "function"
    },
    {
      "inputs": [],
      "name": "business",
      "outputs": [
        {
          "internalType": "address payable",
          "name": "",
          "type": "address"
        }
      ],
      "stateMutability": "view",
      "type": "function"
    },
    {
      "inputs": [],
      "name": "campaignId",
      "outputs": [
        {
          "internalType": "uint256",
          "name": "",
          "type": "uint256"
        }
      ],
      "stateMutability": "view",
      "type": "function"
    },
    {
      "inputs": [],
      "name": "campaignIsUnderProtest",
      "outputs": [
        {
          "internalType": "bool",
          "name": "",
          "type": "bool"
        }
      ],
      "stateMutability": "view",
      "type": "function"
    },
    {
      "inputs": [],
      "name": "confirmedPaymentAmount",
      "outputs": [
        {
          "internalType": "uint256",
          "name": "",
          "type": "uint256"
        }
      ],
      "stateMutability": "view",
      "type": "function"
    },
    {
      "inputs": [],
      "name": "deadline",
      "outputs": [
        {
          "internalType": "uint256",
          "name": "",
          "type": "uint256"
        }
      ],
      "stateMutability": "view",
      "type": "function"
    },
    {
      "inputs": [],
      "name": "fixedPotReward",
      "outputs": [
        {
          "internalType": "uint256",
          "name": "",
          "type": "uint256"
        }
      ],
      "stateMutability": "view",
      "type": "function"
    },
    {
      "inputs": [
        {
          "internalType": "address",
          "name": "",
          "type": "address"
        }
      ],
      "name": "influencers",
      "outputs": [
        {
          "internalType": "address payable",
          "name": "influencer",
          "type": "address"
        },
        {
          "internalType": "bool",
          "name": "paidOut",
          "type": "bool"
        },
        {
          "internalType": "bool",
          "name": "isWinner",
          "type": "bool"
        },
        {
          "internalType": "bool",
          "name": "isUnderProtest",
          "type": "bool"
        },
        {
          "internalType": "uint256",
          "name": "gracePayout",
          "type": "uint256"
        }
      ],
      "stateMutability": "view",
      "type": "function"
    },
    {
      "inputs": [],
      "name": "influencersTotalCount",
      "outputs": [
        {
          "internalType": "uint256",
          "name": "",
          "type": "uint256"
        }
      ],
      "stateMutability": "view",
      "type": "function"
    },
    {
      "inputs": [
        {
          "internalType": "uint256",
          "name": "",
          "type": "uint256"
        }
      ],
      "name": "influencersUnderProtest",
      "outputs": [
        {
          "internalType": "address",
          "name": "",
          "type": "address"
        }
      ],
      "stateMutability": "view",
      "type": "function"
    },
    {
      "inputs": [],
      "name": "jackpotTargetAmount",
      "outputs": [
        {
          "internalType": "uint256",
          "name": "",
          "type": "uint256"
        }
      ],
      "stateMutability": "view",
      "type": "function"
    },
    {
      "inputs": [],
      "name": "maxJackpotReward",
      "outputs": [
        {
          "internalType": "uint256",
          "name": "",
          "type": "uint256"
        }
      ],
      "stateMutability": "view",
      "type": "function"
    },
    {
      "inputs": [],
      "name": "maxParticipants",
      "outputs": [
        {
          "internalType": "uint256",
          "name": "",
          "type": "uint256"
        }
      ],
      "stateMutability": "view",
      "type": "function"
    },
    {
      "inputs": [],
      "name": "maxWinners",
      "outputs": [
        {
          "internalType": "uint256",
          "name": "",
          "type": "uint256"
        }
      ],
      "stateMutability": "view",
      "type": "function"
    },
    {
      "inputs": [],
      "name": "objective",
      "outputs": [
        {
          "internalType": "bytes4",
          "name": "",
          "type": "bytes4"
        }
      ],
      "stateMutability": "view",
      "type": "function"
    },
    {
      "inputs": [],
      "name": "paused",
      "outputs": [
        {
          "internalType": "bool",
          "name": "",
          "type": "bool"
        }
      ],
      "stateMutability": "view",
      "type": "function"
    },
    {
      "inputs": [],
      "name": "simplePostDuration",
      "outputs": [
        {
          "internalType": "uint256",
          "name": "",
          "type": "uint256"
        }
      ],
      "stateMutability": "view",
      "type": "function"
    },
    {
      "inputs": [],
      "name": "startDate",
      "outputs": [
        {
          "internalType": "uint256",
          "name": "",
          "type": "uint256"
        }
      ],
      "stateMutability": "view",
      "type": "function"
    },
    {
      "inputs": [],
      "name": "totalBountyPot",
      "outputs": [
        {
          "internalType": "uint256",
          "name": "",
          "type": "uint256"
        }
      ],
      "stateMutability": "view",
      "type": "function"
    },
    {
      "inputs": [],
      "name": "totalWinners",
      "outputs": [
        {
          "internalType": "uint256",
          "name": "",
          "type": "uint256"
        }
      ],
      "stateMutability": "view",
      "type": "function"
    },
    {
      "inputs": [
        {
          "internalType": "uint256",
          "name": "",
          "type": "uint256"
        }
      ],
      "name": "winningInfluencers",
      "outputs": [
        {
          "internalType": "address payable",
          "name": "",
          "type": "address"
        }
      ],
      "stateMutability": "view",
      "type": "function"
    },
    {
      "inputs": [],
      "name": "addressBalance",
      "outputs": [
        {
          "internalType": "uint256",
          "name": "",
          "type": "uint256"
        }
      ],
      "stateMutability": "view",
      "type": "function"
    },
    {
      "inputs": [],
      "name": "addInfluencer",
      "outputs": [],
      "stateMutability": "nonpayable",
      "type": "function"
    },
    {
      "inputs": [
        {
          "internalType": "address",
          "name": "_influencer",
          "type": "address"
        }
      ],
      "name": "removeInfluencer",
      "outputs": [],
      "stateMutability": "nonpayable",
      "type": "function"
    },
    {
      "inputs": [
        {
          "internalType": "uint256",
          "name": "_postStat",
          "type": "uint256"
        },
        {
          "internalType": "bool",
          "name": "_postPosted",
          "type": "bool"
        },
        {
          "internalType": "uint256",
          "name": "_postTimestamp",
          "type": "uint256"
        }
      ],
      "name": "checkCampaignObjectiveReached",
      "outputs": [],
      "stateMutability": "nonpayable",
      "type": "function"
    },
    {
      "inputs": [],
      "name": "getWinnersLength",
      "outputs": [
        {
          "internalType": "uint256",
          "name": "",
          "type": "uint256"
        }
      ],
      "stateMutability": "view",
      "type": "function"
    },
    {
      "inputs": [],
      "name": "payInfluencer",
      "outputs": [],
      "stateMutability": "nonpayable",
      "type": "function"
    },
    {
      "inputs": [
        {
          "internalType": "address",
          "name": "_influencer",
          "type": "address"
        }
      ],
      "name": "protestWinningInfluencer",
      "outputs": [],
      "stateMutability": "nonpayable",
      "type": "function"
    },
    {
      "inputs": [
        {
          "internalType": "address",
          "name": "_influencer",
          "type": "address"
        }
      ],
      "name": "resolveProtest",
      "outputs": [],
      "stateMutability": "nonpayable",
      "type": "function"
    },
    {
      "inputs": [
        {
          "internalType": "address",
          "name": "_influencer",
          "type": "address"
        }
      ],
      "name": "blacklistInfluencer",
      "outputs": [],
      "stateMutability": "nonpayable",
      "type": "function"
    },
    {
      "inputs": [],
      "name": "getTimestamp",
      "outputs": [
        {
          "internalType": "uint256",
          "name": "",
          "type": "uint256"
        }
      ],
      "stateMutability": "view",
      "type": "function"
    },
    {
      "inputs": [],
      "name": "campaignEnded",
      "outputs": [],
      "stateMutability": "nonpayable",
      "type": "function"
    },
    {
      "inputs": [],
      "name": "pause",
      "outputs": [],
      "stateMutability": "nonpayable",
      "type": "function"
    },
    {
      "inputs": [],
      "name": "unpause",
      "outputs": [],
      "stateMutability": "nonpayable",
      "type": "function"
    }
  ],
  "bytecode": "0x60806040819052600f805460ff60c01b19169055620025e8388190039081908339810160408190526200003291620001aa565b60016000819055506000600160006101000a81548160ff02191690831515021790555084600f60006101000a8154816001600160a01b0302191690836001600160a01b031602179055508b6005819055508a6006819055508960078190555088600381905550876009819055508361ffff16600c819055508061ffff16600d81905550816001806101000a8154816001600160a01b0302191690836001600160a01b0316021790555082600f60146101000a81548163ffffffff021916908360e01c0217905550866008819055506000651d985c941bdd60d21b9050600065199a5e141bdd60d21b905081880362000132576001805460ff60a81b191690555b80880362000153576001805460ff60a81b1916600160a81b17905560048b90555b50504760025550620002719a5050505050505050505050565b6001600160a01b03811681146200018257600080fd5b50565b805162000192816200016c565b919050565b805161ffff811681146200019257600080fd5b6000806000806000806000806000806000806101808d8f031215620001ce57600080fd5b8c519b5060208d01519a5060408d0151995060608d0151985060808d0151975060a08d0151965060c08d0151955060e08d01516200020c816200016c565b94506200021d6101008e0162000197565b6101208e01519094506001600160e01b0319811681146200023d57600080fd5b92506200024e6101408e0162000185565b91506200025f6101608e0162000197565b90509295989b509295989b509295989b565b61236780620002816000396000f3fe60806040526004361061024f5760003560e01c8063698eb84911610138578063bc8711fd116100b0578063d24e794b1161007f578063e74dc11c11610064578063e74dc11c14610774578063f318e55714610794578063f4de5e1a146107a75761024f565b8063d24e794b1461073f578063dba27bae146107545761024f565b8063bc8711fd146106e8578063bcc941b6146106fd578063c32d4b7b14610713578063cde8e5d3146107295761024f565b80638ed5b0fc11610107578063a58d20f4116100ec578063a58d20f414610684578063b3000d35146106a4578063b3ca1f3b146106ba5761024f565b80638ed5b0fc146106385780639ebd69931461064e5761024f565b8063698eb849146105ba57806372a998ea146105da57806375b238fc146105ef5780638456cb59146106235761024f565b80633869cbfa116101cb5780633f4ba83a1161019a5780635c975abb1161017f5780635c975abb1461055557806367d30aa21461057957806368ad436f146105995761024f565b80633f4ba83a1461052a578063405088a71461053f5761024f565b80633869cbfa146104a757806338ed2712146104bd5780633bc47fbe146104f55780633e079f3f1461050a5761024f565b806324924bf71161022257806329dcb0cf1161020757806329dcb0cf146104655780632de001c71461047b5780632fe289b3146104915761024f565b806324924bf7146103b757806329473a53146103cd5761024f565b80630a86a71a146103135780630b97bc861461033c57806314f1586a14610352578063188ec356146103a4575b600f546001600160a01b031633146102bf5760405162461bcd60e51b815260206004820152602860248201527f4f6e6c792074686520627573696e6573732063616e2063616c6c207468697320604482015267333ab731ba34b7b760c11b60648201526084015b60405180910390fd5b6006544210156103115760405162461bcd60e51b815260206004820152601960248201527f646561646c696e65206d7573742068617665207061737365640000000000000060448201526064016102b6565b005b34801561031f57600080fd5b50610329600b5481565b6040519081526020015b60405180910390f35b34801561034857600080fd5b5061032960055481565b34801561035e57600080fd5b50600f5461037390600160a01b900460e01b81565b6040517fffffffff000000000000000000000000000000000000000000000000000000009091168152602001610333565b3480156103b057600080fd5b5042610329565b3480156103c357600080fd5b50610329600c5481565b3480156103d957600080fd5b5061042d6103e83660046121e0565b601260205260009081526040902080546001909101546001600160a01b0382169160ff600160a01b8204811692600160a81b8304821692600160b01b90049091169085565b604080516001600160a01b0390961686529315156020860152911515928401929092529015156060830152608082015260a001610333565b34801561047157600080fd5b5061032960065481565b34801561048757600080fd5b5061032960045481565b34801561049d57600080fd5b5061032960095481565b3480156104b357600080fd5b5061032960075481565b3480156104c957600080fd5b506104dd6104d8366004612210565b6107c7565b6040516001600160a01b039091168152602001610333565b34801561050157600080fd5b506103116107f1565b34801561051657600080fd5b506103116105253660046121e0565b610a09565b34801561053657600080fd5b50610311610c52565b34801561054b57600080fd5b50610329600a5481565b34801561056157600080fd5b5060015460ff165b6040519015158152602001610333565b34801561058557600080fd5b50610311610594366004612237565b610d48565b3480156105a557600080fd5b50600f5461056990600160c01b900460ff1681565b3480156105c657600080fd5b506103116105d53660046121e0565b6112cc565b3480156105e657600080fd5b5061031161160b565b3480156105fb57600080fd5b506103297fdf8b4c520ffe197c5343c6f5aec59570151ef9a492f2c624fd45ddde6135ec4281565b34801561062f57600080fd5b50610311611a2b565b34801561064457600080fd5b5061032960085481565b34801561065a57600080fd5b506104dd6106693660046121e0565b6013602052600090815260409020546001600160a01b031681565b34801561069057600080fd5b506104dd61069f366004612210565b611b1f565b3480156106b057600080fd5b5061032960035481565b3480156106c657600080fd5b506001546106db90600160a81b900460ff1681565b6040516103339190612285565b3480156106f457600080fd5b50601154610329565b34801561070957600080fd5b50610329600e5481565b34801561071f57600080fd5b5061032960025481565b34801561073557600080fd5b50610329600d5481565b34801561074b57600080fd5b50610311611b2f565b34801561076057600080fd5b5061031161076f3660046121e0565b611e0d565b34801561078057600080fd5b50600f546104dd906001600160a01b031681565b3480156107a057600080fd5b5047610329565b3480156107b357600080fd5b506103116107c23660046121e0565b611f4b565b601181815481106107d757600080fd5b6000918252602090912001546001600160a01b0316905081565b600f546001600160a01b0316331461085c5760405162461bcd60e51b815260206004820152602860248201527f4f6e6c792074686520627573696e6573732063616e2063616c6c207468697320604482015267333ab731ba34b7b760c11b60648201526084016102b6565b6006544210156108ae5760405162461bcd60e51b815260206004820152601960248201527f646561646c696e65206d7573742068617665207061737365640000000000000060448201526064016102b6565b600f54600160c01b900460ff161561092e5760405162461bcd60e51b815260206004820152603a60248201527f63616d706169676e456e64656428293a2063616e6e6f7420656e642063616d7060448201527f6169676e207468617420697320756e6465722070726f7465737400000000000060648201526084016102b6565b6011546201595090156109be578060065461094991906122c3565b4210156109be5760405162461bcd60e51b815260206004820152602d60248201527f63616d706169676e456e64656428293a20677261636520636173686f7574207060448201527f6572696f64206f6e676f696e670000000000000000000000000000000000000060648201526084016102b6565b6008546040805147815260208101929092527f706cd8a8437103c208468aa802ad1abee5e1c662b77f9506a80137f5677062ef910160405180910390a1600f546001600160a01b0316ff5b600f546001600160a01b0316331480610ab35750600154604051632474521560e21b81527fdf8b4c520ffe197c5343c6f5aec59570151ef9a492f2c624fd45ddde6135ec4260048201523360248201526101009091046001600160a01b0316906391d1485490604401602060405180830381865afa158015610a8f573d6000803e3d6000fd5b505050506040513d601f19601f82011682018060405250810190610ab391906122db565b610aff5760405162461bcd60e51b815260206004820181905260248201527f43616c6c6572206d75737420626520627573696e657373206f722061646d696e60448201526064016102b6565b600f54600160c01b900460ff16610b7e5760405162461bcd60e51b815260206004820152603c60248201527f7265736f6c766550726f7465737428293a2063616e6e6f742063616e63656c2060448201527f70726f74657374206966206e6f7420756e6465722070726f746573740000000060648201526084016102b6565b6001600160a01b038116600090815260126020526040902054600160b01b900460ff16610c135760405162461bcd60e51b815260206004820152603f60248201527f70726f7465737457696e6e696e67496e666c75656e63657228293a20696e666c60448201527f75656e63657220697320616c726561647920756e6465722070726f746573740060648201526084016102b6565b6001600160a01b0381166000908152601260205260409020805460ff60b01b1916905560105460011115610c4f57600f805460ff60c01b191690555b50565b600154604051632474521560e21b81527fdf8b4c520ffe197c5343c6f5aec59570151ef9a492f2c624fd45ddde6135ec4260048201523360248201526101009091046001600160a01b0316906391d1485490604401602060405180830381865afa158015610cc4573d6000803e3d6000fd5b505050506040513d601f19601f82011682018060405250810190610ce891906122db565b610d3e5760405162461bcd60e51b815260206004820152602160248201527f4f6e6c792061646d696e2063616e2063616c6c20746869732066756e6374696f6044820152603760f91b60648201526084016102b6565b610d466120be565b565b600260005403610d9a5760405162461bcd60e51b815260206004820152601f60248201527f5265656e7472616e637947756172643a207265656e7472616e742063616c6c0060448201526064016102b6565b6002600055600654421015610df15760405162461bcd60e51b815260206004820152601960248201527f646561646c696e65206d7573742068617665207061737365640000000000000060448201526064016102b6565b336000818152601260205260409020546001600160a01b031614610e7d5760405162461bcd60e51b815260206004820152603e60248201527f636865636b43616d706169676e4f626a6563746976655265616368656428293a60448201527f204d757374206265207265676973746572656420696e666c75656e636572000060648201526084016102b6565b81610ef05760405162461bcd60e51b815260206004820152603660248201527f636865636b43616d706169676e4f626a6563746976655265616368656428293a60448201527f20706f737420776173206e6f74206f627461696e65640000000000000000000060648201526084016102b6565b600654811115610f8e5760405162461bcd60e51b815260206004820152604160248201527f636865636b43616d706169676e4f626a6563746976655265616368656428293a60448201527f20706f7374206d757374206265206265666f72652074686520646561646c696e60648201527f6500000000000000000000000000000000000000000000000000000000000000608482015260a4016102b6565b60055481101561102c5760405162461bcd60e51b815260206004820152604660248201527f636865636b43616d706169676e4f626a6563746976655265616368656428293a60448201527f20706f7374206d7573742062652061667465722063616d706169676e2073746160648201527f7274446174650000000000000000000000000000000000000000000000000000608482015260a4016102b6565b6009548310156110ca5760405162461bcd60e51b815260206004820152604160248201527f636865636b43616d706169676e4f626a6563746976655265616368656428293a60448201527f206a61636b706f7420746172676574206d75737420626520736174697366696560648201527f6400000000000000000000000000000000000000000000000000000000000000608482015260a4016102b6565b33600090815260126020526040902054600160a81b900460ff16156111575760405162461bcd60e51b815260206004820152603a60248201527f636865636b43616d706169676e4f626a6563746976655265616368656428293a60448201527f2077696e6e657220616c7265616479207265676973746572656400000000000060648201526084016102b6565b6011805460018101825560008290527f31ecc21a745e3968a04e9570e4425bc18fa8019c68028196b546d1669c200c6801805473ffffffffffffffffffffffffffffffffffffffff19163317905554600d54101561121d5760405162461bcd60e51b815260206004820152603960248201527f636865636b43616d706169676e4f626a6563746976655265616368656428293a60448201527f20746f6f206d616e792077696e6e65727320636c61696d65640000000000000060648201526084016102b6565b33600090815260126020526040902080547fffffffffffffffffffff00ffffffffffffffffffffffffffffffffffffffffff16600160a81b179055601154600e5560065461126d9061a8c06122c3565b336000818152601260205260409081902060010192909255600854915190917f40b18b4fd4318bad0d693bfde0830f58e4a305303442a1dd589bc87a900cde01916112ba91815260200190565b60405180910390a25050600160005550565b600154604051632474521560e21b81527fdf8b4c520ffe197c5343c6f5aec59570151ef9a492f2c624fd45ddde6135ec4260048201523360248201526101009091046001600160a01b0316906391d1485490604401602060405180830381865afa15801561133e573d6000803e3d6000fd5b505050506040513d601f19601f8201168201806040525081019061136291906122db565b6113b85760405162461bcd60e51b815260206004820152602160248201527f4f6e6c792061646d696e2063616e2063616c6c20746869732066756e6374696f6044820152603760f91b60648201526084016102b6565b6001600160a01b0381811660009081526013602052604090205416156114465760405162461bcd60e51b815260206004820152603560248201527f626c61636b6c697374496e666c75656e63657228293a20696e666c75656e636560448201527f7220616c726561647920626c61636b6c6973746564000000000000000000000060648201526084016102b6565b6001600160a01b038116600090815260126020526040902054600160b01b900460ff166114db5760405162461bcd60e51b815260206004820152603360248201527f626c61636b6c697374496e666c75656e63657228293a20696e666c75656e636560448201527f72206e6f7420756e6465722070726f746573740000000000000000000000000060648201526084016102b6565b6040805160a0810182526000808252602080830182815283850183815260608501848152608086018581526001600160a01b0389811680885260128752898820985189549651955194511515600160b01b0260ff60b01b19951515600160a81b029590951661ffff60a81b19961515600160a01b0274ffffffffffffffffffffffffffffffffffffffffff199098169190931617959095179390931692909217178555516001948501556013909152929020805473ffffffffffffffffffffffffffffffffffffffff191690921790915560105410156115c357600f805460ff60c01b191690555b806001600160a01b03167faaab3b3610b85801738dabadc712a87adb9ad971d1f7ba61f88ca16a5248572c60085460405161160091815260200190565b60405180910390a250565b60026000540361165d5760405162461bcd60e51b815260206004820152601f60248201527f5265656e7472616e637947756172643a207265656e7472616e742063616c6c0060448201526064016102b6565b6002600090815533815260126020526040902054600160a81b900460ff166116ed5760405162461bcd60e51b815260206004820152603060248201527f4f6e6c7920612077696e6e696e6720696e666c75656e6365722063616e20636160448201527f6c6c20746869732066756e6374696f6e0000000000000000000000000000000060648201526084016102b6565b60065442101561173f5760405162461bcd60e51b815260206004820152601960248201527f646561646c696e65206d7573742068617665207061737365640000000000000060448201526064016102b6565b33600090815260126020526040902054600160a01b900460ff16156117cc5760405162461bcd60e51b815260206004820152602c60248201527f706179496e666c75656e63657228293a20696e666c75656e63657220616c726560448201527f6164792070616964206f7574000000000000000000000000000000000000000060648201526084016102b6565b33600090815260126020526040902054600160b01b900460ff16156118595760405162461bcd60e51b815260206004820152603a60248201527f706179496e666c75656e63657228293a2063616e6e6f7420636f6d706c65746560448201527f207061796f7574207768656e20756e6465722070726f7465737400000000000060648201526084016102b6565b336000908152601260205260409020600101544210156119075760405162461bcd60e51b815260206004820152604560248201527f706179496e666c75656e63657228293a20696e666c75656e6365722063616e6e60448201527f6f74206265207061696420756e74696c20677261636520706572696f6420697360648201527f206f766572000000000000000000000000000000000000000000000000000000608482015260a4016102b6565b60008060018054600160a81b900460ff16908111156119285761192861226f565b1461193557600454611945565b600e5460025461194591906122f8565b9050600354811180156119755750600060018054600160a81b900460ff16908111156119735761197361226f565b145b1561197f57506003545b604051339082156108fc029083906000818181858888f193505050501580156119ac573d6000803e3d6000fd5b503360008181526012602090815260409182902080547fffffffffffffffffffffff00ffffffffffffffffffffffffffffffffffffffff16600160a01b1790556008548251858152918201527fd15faf65c0a691a42f8e8f948188d9c2451e2c1c3874754a37adf2aa87c82b79910160405180910390a2506001600055565b600154604051632474521560e21b81527fdf8b4c520ffe197c5343c6f5aec59570151ef9a492f2c624fd45ddde6135ec4260048201523360248201526101009091046001600160a01b0316906391d1485490604401602060405180830381865afa158015611a9d573d6000803e3d6000fd5b505050506040513d601f19601f82011682018060405250810190611ac191906122db565b611b175760405162461bcd60e51b815260206004820152602160248201527f4f6e6c792061646d696e2063616e2063616c6c20746869732066756e6374696f6044820152603760f91b60648201526084016102b6565b610d4661215a565b601081815481106107d757600080fd5b600f546001600160a01b03163303611baf5760405162461bcd60e51b815260206004820152603160248201527f616464496e666c75656e63657228293a20627573696e6573732063616e6e6f7460448201527f20626520616e20696e666c75656e63657200000000000000000000000000000060648201526084016102b6565b426006541015611c265760405162461bcd60e51b8152602060048201526024808201527f616464496e666c75656e63657228293a20646561646c696e652068617320706160448201527f737365640000000000000000000000000000000000000000000000000000000060648201526084016102b6565b336000908152601260205260409020546001600160a01b031615611cb25760405162461bcd60e51b815260206004820152602960248201527f616464496e666c75656e63657228293a20696e666c75656e63657220616c726560448201527f616479206164646564000000000000000000000000000000000000000000000060648201526084016102b6565b6001600b6000828254611cc591906122c3565b9091555050600b54600c541015611d1e5760405162461bcd60e51b815260206004820152601c60248201527f616464496e666c75656e63657228293a20626f756e74792066756c6c0000000060448201526064016102b6565b6040805160a081018252338082526000602080840182815284860183815260608601848152608087018581528686526012855294889020965187549351925191511515600160b01b0260ff60b01b19921515600160a81b029290921661ffff60a81b19931515600160a01b0274ffffffffffffffffffffffffffffffffffffffffff199095166001600160a01b03909216919091179390931791909116919091171784559051600190930192909255600b54600854845191825292810192909252917fed9b09e2eb6cd1adaccb9aac720c9d2abb20b65928450021b584755907c8df41910160405180910390a2565b600f546001600160a01b03163314611e785760405162461bcd60e51b815260206004820152602860248201527f4f6e6c792074686520627573696e6573732063616e2063616c6c207468697320604482015267333ab731ba34b7b760c11b60648201526084016102b6565b6001600160a01b038116600090815260126020526040902054600160b01b900460ff1615611f0e5760405162461bcd60e51b815260206004820152603f60248201527f70726f7465737457696e6e696e67496e666c75656e63657228293a20696e666c60448201527f75656e63657220697320616c726561647920756e6465722070726f746573740060648201526084016102b6565b6001600160a01b03166000908152601260205260409020805460ff60b01b1916600160b01b179055600f805460ff60c01b1916600160c01b179055565b600f546001600160a01b03163314611fb65760405162461bcd60e51b815260206004820152602860248201527f4f6e6c792074686520627573696e6573732063616e2063616c6c207468697320604482015267333ab731ba34b7b760c11b60648201526084016102b6565b6040805160a0810182526000808252602080830182815283850183815260608501848152608086018581526001600160a01b0389811687526012909552968520955186549351925191511515600160b01b0260ff60b01b19921515600160a81b029290921661ffff60a81b19931515600160a01b0274ffffffffffffffffffffffffffffffffffffffffff1990951691909516179290921716919091171782559151600191820155600b80549192909161207190849061231a565b9091555050600b546008546040516001600160a01b038416927fed27e8d1e7af17993d8fa60595d08df7071f1dfa257719070ded5c52fb1199c89261160092918252602082015260400190565b60015460ff166121105760405162461bcd60e51b815260206004820152601460248201527f5061757361626c653a206e6f742070617573656400000000000000000000000060448201526064016102b6565b6001805460ff191690557f5db9ee0a495bf2e6ff9c91a7834c1ba4fdd244a5e8aa4e537bd38aeae4b073aa335b6040516001600160a01b03909116815260200160405180910390a1565b60015460ff16156121ad5760405162461bcd60e51b815260206004820152601060248201527f5061757361626c653a207061757365640000000000000000000000000000000060448201526064016102b6565b6001805460ff1916811790557f62e78cea01bee320cd4e420270b5ea74000d11b0c9f74754ebdbfc544b05a2583361213d565b6000602082840312156121f257600080fd5b81356001600160a01b038116811461220957600080fd5b9392505050565b60006020828403121561222257600080fd5b5035919050565b8015158114610c4f57600080fd5b60008060006060848603121561224c57600080fd5b83359250602084013561225e81612229565b929592945050506040919091013590565b634e487b7160e01b600052602160045260246000fd5b60208101600283106122a757634e487b7160e01b600052602160045260246000fd5b91905290565b634e487b7160e01b600052601160045260246000fd5b600082198211156122d6576122d66122ad565b500190565b6000602082840312156122ed57600080fd5b815161220981612229565b60008261231557634e487b7160e01b600052601260045260246000fd5b500490565b60008282101561232c5761232c6122ad565b50039056fea26469706673582212201080ccf3dd55a08d74fe5230d48c796794a19ae4380a0b97eb063c4171405e4064736f6c634300080e0033",
  "immutableReferences": {},
  "source": "// SPDX-License-Identifier: PRIVATE\n\n// extract logic into private functions and call those with public functions\n//eth alarm clock\n//x dai\n//chainlink\n// super fluid for incremental payments\n\npragma solidity ^0.8.4;\n\nimport '@openzeppelin/contracts/security/ReentrancyGuard.sol';\nimport '@openzeppelin/contracts/security/Pausable.sol';\nimport '@openzeppelin/contracts/access/AccessControl.sol';\n\ncontract FamepayBounty is ReentrancyGuard, Pausable {\n    /* ENUM */\n    enum BountyType {\n        variablePot,\n        fixedPot\n    }\n\n    /* STORAGE */\n\n    //roles\n    AccessControl accessControl;\n    bytes32 public constant ADMIN_ROLE = keccak256('ADMIN');\n\n    struct Influencer {\n        address payable influencer;\n        bool paidOut;\n        bool isWinner;\n        bool isUnderProtest;\n        uint256 gracePayout;\n    }\n\n    BountyType public bountyType;\n\n    //$$$\n    uint256 public totalBountyPot;\n    uint256 public maxJackpotReward;\n    uint256 public fixedPotReward;\n\n    //dates\n    uint256 public startDate;\n    uint256 public deadline;\n    uint256 public simplePostDuration;\n\n    //bounty id\n    uint256 public campaignId;\n\n    //objective amount\n    uint256 public jackpotTargetAmount;\n\n    uint256 public confirmedPaymentAmount;\n\n    //influencers\n    uint256 public influencersTotalCount;\n    uint256 public maxParticipants;\n    uint256 public maxWinners; //max amount who can win\n    uint256 public totalWinners; //number of winners that won\n\n    //business\n    address payable public business;\n\n    //objective\n    bytes4 public objective;\n\n    //protest\n    bool public campaignIsUnderProtest = false;\n    address[] public influencersUnderProtest;\n\n    //used for paying out all winners when campaign ends\n    address payable[] public winningInfluencers;\n\n    //all participating influencers\n    mapping(address => Influencer) public influencers;\n\n    //all removed influencers\n    mapping(address => address) public blacklistedInfluencers;\n\n    /////////* EVENTS *///////\n\n    /* Influencer Actions*/\n    event NewInfluencerAdded(address indexed _newInfluencer, uint256 _influencerCount, uint256 _bountyId);\n    event InfluencerRemoved(address indexed _influencer, uint256 _influencerCount, uint256 _bountyId);\n    event InfluencerBlacklisted(address indexed _influencer, uint256 _bountyId);\n\n    /*Target Status*/\n    event JackpotTargetReached(address indexed _winningInfluencer, uint256 _bountyId);\n\n    /*Payment Actions */\n    event JackpotInfluencerPayment(uint256 _amount, address indexed _influencer, uint256 _bountyId);\n    // event JackpotInfluencerPaymentAll(uint256 _amount, address payable[] _influencers, uint256 _bountyId);\n\n    /*Campaign Ended Actions */\n    event CampaignEnding(uint256 _refundableAmount, uint256 _bountyId);\n\n    /////////* MODIFIERS*///////\n\n    modifier onlyBusiness() {\n        require(business == msg.sender, 'Only the business can call this function');\n        _;\n    }\n\n    modifier businessOrWinningInfluencer() {\n        if (msg.sender == influencers[msg.sender].influencer) {\n            require(influencers[msg.sender].isWinner, 'Only a winning influencer can call this function');\n        } else {\n            require(business == msg.sender, 'Only the business or influencer can call this function');\n        }\n        _;\n    }\n\n    modifier onlyWinningInfluencer() {\n        // if (msg.sender == influencers[msg.sender].influencer) {\n        require(influencers[msg.sender].isWinner, 'Only a winning influencer can call this function');\n        // }\n        _;\n    }\n\n    modifier onlyAdmin() {\n        require(accessControl.hasRole(ADMIN_ROLE, msg.sender), 'Only admin can call this function');\n        _;\n    }\n\n    modifier adminOrBusiness() {\n        require(msg.sender == business || accessControl.hasRole(ADMIN_ROLE, msg.sender), 'Caller must be business or admin');\n        _;\n    }\n\n    modifier campaignOver() {\n        require(block.timestamp >= deadline, 'deadline must have passed');\n        _;\n    }\n\n    /////////* CONSTRUCTOR *///////\n    constructor(\n        uint256 _startDate,\n        uint256 _deadline,\n        uint256 _simplePostDuration,\n        uint256 _maxJackpotReward,\n        uint256 _jackpotTargetAmount, //payout per winner\n        uint256 _bountyId,\n        bytes32 _bountyType,\n        address payable _business,\n        uint16 _maxParticipants,\n        bytes4 _objective,\n        AccessControl _accessControl,\n        uint16 _maxWinners\n    ) payable {\n        business = _business;\n        startDate = _startDate;\n        deadline = _deadline;\n        simplePostDuration = _simplePostDuration;\n        maxJackpotReward = _maxJackpotReward;\n        jackpotTargetAmount = _jackpotTargetAmount;\n        maxParticipants = _maxParticipants;\n        maxWinners = _maxWinners;\n        accessControl = _accessControl;\n        objective = _objective;\n        campaignId = _bountyId;\n\n        bytes32 variablePot = 'varPot';\n        bytes32 fixedPot = 'fixPot';\n\n        if (_bountyType == variablePot) {\n            bountyType = BountyType.variablePot;\n        }\n        if (_bountyType == fixedPot) {\n            bountyType = BountyType.fixedPot;\n            fixedPotReward = _maxJackpotReward;\n        }\n        totalBountyPot = address(this).balance;\n    }\n\n    /////////* FUNCTIONS *///////\n\n    /**\n     * @dev check amount deposited in campaign\n     */\n    function addressBalance() external view returns (uint256) {\n        return address(this).balance;\n    }\n\n    /**\n     * @dev used for adding new influencer for bounty program\n     */\n    function addInfluencer() external {\n        require(msg.sender != business, 'addInfluencer(): business cannot be an influencer');\n        require(deadline >= block.timestamp, 'addInfluencer(): deadline has passed');\n        require(influencers[msg.sender].influencer == address(0), 'addInfluencer(): influencer already added');\n        influencersTotalCount += 1;\n        require(maxParticipants >= influencersTotalCount, 'addInfluencer(): bounty full');\n        influencers[msg.sender] = Influencer(payable(msg.sender), false, false, false, 0);\n        emit NewInfluencerAdded(msg.sender, influencersTotalCount, campaignId);\n    }\n\n    /**\n     * @dev remove influencer from campaign\n     * @param _influencer influencer to be moreved\n     */\n    function removeInfluencer(address _influencer) external onlyBusiness {\n        influencers[_influencer] = Influencer(payable(address(0)), false, false, false, 0);\n        influencersTotalCount -= 1;\n        emit InfluencerRemoved(_influencer, influencersTotalCount, campaignId);\n    }\n\n    /**\n     * @dev check if objective was achieved\n     * @param _postStat post stat for incremental payment\n     * @param _postPosted check if post is posted and valid\n     * @param _postTimestamp post date\n     */\n    // TODO investigate forwarding gas cost away from influencer\n    function checkCampaignObjectiveReached(\n        uint256 _postStat,\n        bool _postPosted,\n        uint256 _postTimestamp\n    ) external nonReentrant campaignOver {\n        require(\n            msg.sender == influencers[msg.sender].influencer,\n            'checkCampaignObjectiveReached(): Must be registered influencer'\n        );\n        require(_postPosted, 'checkCampaignObjectiveReached(): post was not obtained');\n        require(_postTimestamp <= deadline, 'checkCampaignObjectiveReached(): post must be before the deadline');\n        require(_postTimestamp >= startDate, 'checkCampaignObjectiveReached(): post must be after campaign startDate');\n        require(_postStat >= jackpotTargetAmount, 'checkCampaignObjectiveReached(): jackpot target must be satisfied');\n        require(!influencers[msg.sender].isWinner, 'checkCampaignObjectiveReached(): winner already registered');\n        winningInfluencers.push(payable(msg.sender));\n        require(maxWinners >= winningInfluencers.length, 'checkCampaignObjectiveReached(): too many winners claimed');\n        influencers[msg.sender].isWinner = true;\n        totalWinners = winningInfluencers.length;\n\n        influencers[msg.sender].gracePayout = deadline + 43200;\n        emit JackpotTargetReached(msg.sender, campaignId);\n    }\n\n    function getWinnersLength() external view returns (uint256) {\n        return winningInfluencers.length;\n    }\n\n    /**\n     * @dev pay the influencer\n     */\n    function payInfluencer() public nonReentrant onlyWinningInfluencer campaignOver {\n        require(!influencers[msg.sender].paidOut, 'payInfluencer(): influencer already paid out');\n        require(!influencers[msg.sender].isUnderProtest, 'payInfluencer(): cannot complete payout when under protest');\n        require(\n            influencers[msg.sender].gracePayout <= block.timestamp,\n            'payInfluencer(): influencer cannot be paid until grace period is over'\n        );\n        uint256 paymentPerInfluencerPot = bountyType == BountyType.variablePot ? totalBountyPot / totalWinners : fixedPotReward;\n        //limit to max jackpot\n        if (paymentPerInfluencerPot > maxJackpotReward && bountyType == BountyType.variablePot) {\n            paymentPerInfluencerPot = maxJackpotReward;\n        }\n\n        payable(msg.sender).transfer(paymentPerInfluencerPot);\n        influencers[msg.sender].paidOut = true;\n        emit JackpotInfluencerPayment(paymentPerInfluencerPot, msg.sender, campaignId);\n\n        //remove influencer that claims $\n        /*\n        for (uint256 i = 0; i < winningInfluencers.length - 1; i++) {\n            winningInfluencers[i] = winningInfluencers[i + 1];\n        }\n        winningInfluencers.pop();\n        campaign ending payout\n        if (msg.sender == business) {\n            for (uint256 i = 0; i < winningInfluencers.length; i++) {\n                winningInfluencers[i].transfer(paymentPerInfluencerPot);\n                influencers[winningInfluencers[i]].paidOut = true;\n            }\n            emit JackpotInfluencerPaymentAll(paymentPerInfluencerPot, winningInfluencers, campaignId);\n        }\n        */\n    }\n\n    /**\n     * @dev protest a contentious campaign\n     * @param _influencer influencer business is protesting\n     */\n    function protestWinningInfluencer(address _influencer) external onlyBusiness {\n        require(!influencers[_influencer].isUnderProtest, 'protestWinningInfluencer(): influencer is already under protest');\n        influencers[_influencer].isUnderProtest = true;\n        campaignIsUnderProtest = true;\n    }\n\n    /**\n     * @dev end campaign protest (in favour of influencer)\n     * @param _influencer influencer business is protesting\n     */\n    function resolveProtest(address _influencer) external adminOrBusiness {\n        require(campaignIsUnderProtest, 'resolveProtest(): cannot cancel protest if not under protest');\n        require(influencers[_influencer].isUnderProtest, 'protestWinningInfluencer(): influencer is already under protest');\n        influencers[_influencer].isUnderProtest = false;\n        if (influencersUnderProtest.length < 1) campaignIsUnderProtest = false;\n    }\n\n    /**\n     * @dev TODO put logic in remove influencer no need for two funcs\n     * @dev blacklist malicious influencer\n     * @param _influencer influencer to be removed\n     */\n    function blacklistInfluencer(address _influencer) external onlyAdmin {\n        require(blacklistedInfluencers[_influencer] == address(0), 'blacklistInfluencer(): influencer already blacklisted');\n        require(influencers[_influencer].isUnderProtest, 'blacklistInfluencer(): influencer not under protest');\n        influencers[_influencer] = Influencer(payable(address(0)), false, false, false, 0);\n        blacklistedInfluencers[_influencer] = _influencer;\n        if (influencersUnderProtest.length < 1) campaignIsUnderProtest = false;\n        emit InfluencerBlacklisted(_influencer, campaignId);\n    }\n\n    function getTimestamp() external view returns (uint256) {\n        return block.timestamp;\n    }\n\n    /**\n     * @dev complete campaign and potentially refund business\n     */\n    function campaignEnded() public onlyBusiness campaignOver {\n        require(!campaignIsUnderProtest, 'campaignEnded(): cannot end campaign that is under protest');\n        uint256 graceCashoutPeriod = 88400;\n        //added extra require statement for clearer revert message\n        if (winningInfluencers.length > 0) {\n            require(block.timestamp >= deadline + graceCashoutPeriod, 'campaignEnded(): grace cashout period ongoing');\n        }\n        emit CampaignEnding(address(this).balance, campaignId);\n        selfdestruct(business);\n    }\n\n    function pause() external onlyAdmin {\n        super._pause();\n    }\n\n    function unpause() external onlyAdmin {\n        super._unpause();\n    }\n\n    fallback() external payable onlyBusiness campaignOver {}\n}\n",
  "sourcePath": "/Users/benweinberg/Desktop/Work/FamePay/FamePayContract/contracts/FamepayBounty.sol",
  "compiler": {
    "name": "solc",
    "version": "0.8.14+commit.80d49f37.Emscripten.clang"
  },
  "schemaVersion": "3.4.3",
  "updatedAt": "2022-06-10T19:08:48.626Z",
  "devdoc": {
    "kind": "dev",
    "methods": {
      "addInfluencer()": {
        "details": "used for adding new influencer for bounty program"
      },
      "addressBalance()": {
        "details": "check amount deposited in campaign"
      },
      "blacklistInfluencer(address)": {
        "details": "TODO put logic in remove influencer no need for two funcsblacklist malicious influencer",
        "params": {
          "_influencer": "influencer to be removed"
        }
      },
      "campaignEnded()": {
        "details": "complete campaign and potentially refund business"
      },
      "checkCampaignObjectiveReached(uint256,bool,uint256)": {
        "details": "check if objective was achieved",
        "params": {
          "_postPosted": "check if post is posted and valid",
          "_postStat": "post stat for incremental payment",
          "_postTimestamp": "post date"
        }
      },
      "paused()": {
        "details": "Returns true if the contract is paused, and false otherwise."
      },
      "payInfluencer()": {
        "details": "pay the influencer"
      },
      "protestWinningInfluencer(address)": {
        "details": "protest a contentious campaign",
        "params": {
          "_influencer": "influencer business is protesting"
        }
      },
      "removeInfluencer(address)": {
        "details": "remove influencer from campaign",
        "params": {
          "_influencer": "influencer to be moreved"
        }
      },
      "resolveProtest(address)": {
        "details": "end campaign protest (in favour of influencer)",
        "params": {
          "_influencer": "influencer business is protesting"
        }
      }
    },
    "version": 1
  },
  "userdoc": {
    "kind": "user",
    "methods": {},
    "version": 1
  }
}