{
  "contractName": "FamepayFactory",
  "abi": [
    {
      "inputs": [],
      "stateMutability": "nonpayable",
      "type": "constructor"
    },
    {
      "anonymous": false,
      "inputs": [
        {
          "indexed": true,
          "internalType": "address",
          "name": "_influencer",
          "type": "address"
        },
        {
          "indexed": true,
          "internalType": "address",
          "name": "_business",
          "type": "address"
        },
        {
          "indexed": true,
          "internalType": "address",
          "name": "_campaignAddress",
          "type": "address"
        },
        {
          "indexed": false,
          "internalType": "uint256",
          "name": "_campaignId",
          "type": "uint256"
        },
        {
          "indexed": false,
          "internalType": "uint256",
          "name": "_startDate",
          "type": "uint256"
        },
        {
          "indexed": false,
          "internalType": "uint256",
          "name": "_deadline",
          "type": "uint256"
        },
        {
          "indexed": false,
          "internalType": "uint256",
          "name": "_simplePostDuration",
          "type": "uint256"
        },
        {
          "indexed": false,
          "internalType": "uint256",
          "name": "_jackpotPayment",
          "type": "uint256"
        },
        {
          "indexed": false,
          "internalType": "uint256",
          "name": "_incrementalPayment",
          "type": "uint256"
        },
        {
          "indexed": false,
          "internalType": "uint256",
          "name": "_jackpotTargetAmount",
          "type": "uint256"
        },
        {
          "indexed": false,
          "internalType": "uint256",
          "name": "_incrementalTargetAmount",
          "type": "uint256"
        },
        {
          "indexed": false,
          "internalType": "uint256",
          "name": "_potentialPayoutAmount",
          "type": "uint256"
        },
        {
          "indexed": false,
          "internalType": "bytes4",
          "name": "_objective",
          "type": "bytes4"
        }
      ],
      "name": "NewFamepayCampaignCreated",
      "type": "event"
    },
    {
      "inputs": [],
      "name": "campaignPointer",
      "outputs": [
        {
          "internalType": "uint256",
          "name": "",
          "type": "uint256"
        }
      ],
      "stateMutability": "view",
      "type": "function",
      "constant": true
    },
    {
      "inputs": [
        {
          "internalType": "uint256",
          "name": "",
          "type": "uint256"
        }
      ],
      "name": "famepayCampaigns",
      "outputs": [
        {
          "internalType": "address",
          "name": "",
          "type": "address"
        }
      ],
      "stateMutability": "view",
      "type": "function",
      "constant": true
    },
    {
      "inputs": [
        {
          "internalType": "address payable",
          "name": "_influencer",
          "type": "address"
        },
        {
          "internalType": "address payable",
          "name": "_business",
          "type": "address"
        },
        {
          "internalType": "uint256",
          "name": "_startDate",
          "type": "uint256"
        },
        {
          "internalType": "uint256",
          "name": "_deadline",
          "type": "uint256"
        },
        {
          "internalType": "uint256",
          "name": "_simplePostDuration",
          "type": "uint256"
        },
        {
          "internalType": "uint256",
          "name": "_jackpotPayment",
          "type": "uint256"
        },
        {
          "internalType": "uint256",
          "name": "_incrementalPayment",
          "type": "uint256"
        },
        {
          "internalType": "uint256",
          "name": "_jackpotTargetAmount",
          "type": "uint256"
        },
        {
          "internalType": "uint256",
          "name": "_incrementalTargetAmount",
          "type": "uint256"
        },
        {
          "internalType": "uint256",
          "name": "_potentialPayoutAmount",
          "type": "uint256"
        },
        {
          "internalType": "bytes4",
          "name": "_objective",
          "type": "bytes4"
        }
      ],
      "name": "newFamepayCampaign",
      "outputs": [],
      "stateMutability": "payable",
      "type": "function",
      "payable": true
    },
    {
      "inputs": [
        {
          "internalType": "uint256",
          "name": "_campaignId",
          "type": "uint256"
        }
      ],
      "name": "getCampaign",
      "outputs": [
        {
          "internalType": "address",
          "name": "",
          "type": "address"
        }
      ],
      "stateMutability": "view",
      "type": "function",
      "constant": true
    }
  ],
  "bytecode": "0x608060405234801561001057600080fd5b506001600055600480546001600160a01b03191633179055612760806100376000396000f3fe60806040526004361061003f5760003560e01c806303143e881461004457806325ca4024146100595780635598f8cc146100ac578063a29bf6fa146100e2575b600080fd5b610057610052366004610500565b610106565b005b34801561006557600080fd5b5061008f6100743660046105a5565b6005602052600090815260409020546001600160a01b031681565b6040516001600160a01b0390911681526020015b60405180910390f35b3480156100b857600080fd5b5061008f6100c73660046105a5565b6000908152600560205260409020546001600160a01b031690565b3480156100ee57600080fd5b506100f860015481565b6040519081526020016100a3565b604080517f706f737400000000000000000000000000000000000000000000000000000000602080830191909152825160048184030181526024830184528051908201206001600160e01b03198516604484015283516028818503018152604890930190935281519101201461028a5761018084846104ac565b60038190556101909086906104bf565b60028190556101a09087906104cb565b82116101f35760405162461bcd60e51b815260206004820152601b60248201527f506f74656e7469616c207061796f757420697320696e76616c6964000000000060448201526064015b60405180910390fd5b61021161020a61020386866104ac565b87906104bf565b87906104cb565b82116102855760405162461bcd60e51b815260206004820152602a60248201527f506f74656e7469616c207061796f757420697320696e76616c6964206f6e652060448201527f6c696e65206c6f6769630000000000000000000000000000000000000000000060648201526084016101ea565b610300565b858210156103005760405162461bcd60e51b815260206004820152602c60248201527f416d6f756e74206465706f7369746564206d757374206265206772656174657260448201527f207468616e20726577617264000000000000000000000000000000000000000060648201526084016101ea565b6001805461030d916104cb565b600181905550600060015490506000348d8d8d8d8d8d8d8d8d8c8c604051610334906104d7565b6001600160a01b039b8c1681529a90991660208b015260408a01979097526060890195909552608088019390935260a087019190915260c086015260e08501526101008401526001600160e01b031916610120830152610140820152610160016040518091039082f09050801580156103b1573d6000803e3d6000fd5b509050806005600084815260200190815260200160002060006101000a8154816001600160a01b0302191690836001600160a01b03160217905550806001600160a01b03168c6001600160a01b03168e6001600160a01b03167f5d41311f174981a9d477a6dd0adc044bb9e724f91a06eb4ec1054848977216df858f8f8f8f8f8f8f8f8f6040516104959a99989796959493929190998a5260208a019890985260408901969096526060880194909452608087019290925260a086015260c085015260e08401526101008301526001600160e01b0319166101208201526101400190565b60405180910390a450505050505050505050505050565b60006104b882846105d6565b9392505050565b60006104b882846105f8565b60006104b882846105be565b6120fd8061062e83390190565b80356001600160a01b03811681146104fb57600080fd5b919050565b60008060008060008060008060008060006101608c8e03121561052257600080fd5b61052b8c6104e4565b9a5061053960208d016104e4565b995060408c0135985060608c0135975060808c0135965060a08c0135955060c08c0135945060e08c013593506101008c013592506101208c013591506101408c01356001600160e01b03198116811461059157600080fd5b809150509295989b509295989b9093969950565b6000602082840312156105b757600080fd5b5035919050565b600082198211156105d1576105d1610617565b500190565b6000826105f357634e487b7160e01b600052601260045260246000fd5b500490565b600081600019048311821515161561061257610612610617565b500290565b634e487b7160e01b600052601160045260246000fdfe60806040819052600b805464ffffff000019169055620020fd38819003908190833981016040819052620000339162000112565b6001600081815581546001600160a01b03808f166001600160a01b0319928316811790945560028054918f169190921617905560058b905560068a9055600789905560048890556003879055600a8690556009859055600b805460e086901c650100000000000263ffffffff60281b199091161790556008839055908152600e6020526040902054620000c8904790620001bc565b6001546001600160a01b03166000908152600e602052604090205550620001e39950505050505050505050565b80516001600160a01b03811681146200010d57600080fd5b919050565b60008060008060008060008060008060006101608c8e0312156200013557600080fd5b620001408c620000f5565b9a506200015060208d01620000f5565b995060408c0151985060608c0151975060808c0151965060a08c0151955060c08c0151945060e08c015193506101008c015192506101208c015163ffffffff60e01b81168114620001a057600080fd5b809250506101408c015190509295989b509295989b9093969950565b60008219821115620001de57634e487b7160e01b600052601160045260246000fd5b500190565b611f0a80620001f36000396000f3fe6080604052600436106101e35760003560e01c80638dc45e1011610102578063df2d88ca11610095578063e74dc11c11610064578063e74dc11c14610574578063f318e55714610594578063f41662ed146105a7578063fac3fd59146104dc57600080fd5b8063df2d88ca146104dc578063e2d950fa14610529578063e36686321461053e578063e53abae91461055457600080fd5b8063aa5e2153116100d1578063aa5e215314610481578063ac35e16014610489578063b801ed85146104a8578063dc5b1331146104c957600080fd5b80638dc45e10146103e65780638ed5b0fc14610406578063a4b870c41461041c578063a87588e71461044957600080fd5b8063389b75331161017a5780636e597aee116101495780636e597aee1461038757806383d6dc0b1461039d578063842de750146103bd5780638d0449d6146103d357600080fd5b8063389b7533146102fd578063612abb101461031f57806367d30aa21461033557806368ad436f1461035557600080fd5b806329dcb0cf116101b657806329dcb0cf146102a55780632fe289b3146102bb5780633621905f146102d15780633869cbfa146102e757600080fd5b80630b97bc86146101e857806314f1586a14610211578063188ec356146102655780631d8d1f6614610278575b600080fd5b3480156101f457600080fd5b506101fe60055481565b6040519081526020015b60405180910390f35b34801561021d57600080fd5b50600b546102349065010000000000900460e01b81565b6040517fffffffff000000000000000000000000000000000000000000000000000000009091168152602001610208565b34801561027157600080fd5b50426101fe565b34801561028457600080fd5b506001546001600160a01b03166000908152600e60205260409020546101fe565b3480156102b157600080fd5b506101fe60065481565b3480156102c757600080fd5b506101fe600a5481565b3480156102dd57600080fd5b506101fe60035481565b3480156102f357600080fd5b506101fe60075481565b34801561030957600080fd5b5061031d610318366004611e10565b6105c1565b005b34801561032b57600080fd5b506101fe60095481565b34801561034157600080fd5b5061031d610350366004611e29565b610682565b34801561036157600080fd5b50600b5461037790640100000000900460ff1681565b6040519015158152602001610208565b34801561039357600080fd5b506101fe600c5481565b3480156103a957600080fd5b5061031d6103b8366004611da1565b610e33565b3480156103c957600080fd5b506101fe600d5481565b61031d6103e1366004611e10565b611060565b3480156103f257600080fd5b5061031d610401366004611d86565b61128b565b34801561041257600080fd5b506101fe60085481565b34801561042857600080fd5b506101fe610437366004611d5d565b600e6020526000908152604090205481565b34801561045557600080fd5b50600154610469906001600160a01b031681565b6040516001600160a01b039091168152602001610208565b61031d6113fd565b34801561049557600080fd5b50600b5461037790610100900460ff1681565b3480156104b457600080fd5b50600b54610377906301000000900460ff1681565b61031d6104d7366004611dd4565b6115e3565b3480156104e857600080fd5b5061031d6104f7366004611da1565b600b805463ffff00001916620100009315159390930263ff000000191692909217630100000091151591909102179055565b34801561053557600080fd5b5061031d611bb0565b34801561054a57600080fd5b506101fe60045481565b34801561056057600080fd5b50600b546103779062010000900460ff1681565b34801561058057600080fd5b50600254610469906001600160a01b031681565b3480156105a057600080fd5b50476101fe565b3480156105b357600080fd5b50600b546103779060ff1681565b806006541061063d5760405162461bcd60e51b815260206004820152603e60248201527f657874656e64446561646c696e6528293a206e657720646561646c696e65206d60448201527f757374206265206166746572206578697374696e6720646561646c696e65000060648201526084015b60405180910390fd5b60068190556008546040805183815260208101929092527f53363e7eeef177f60d15e790e42c0cc492e5bee81887ced1390b5c2553ad2a2a910160405180910390a150565b6001546001600160a01b031633146107025760405162461bcd60e51b815260206004820152603a60248201527f636865636b43616d706169676e4f626a6563746976655265616368656428293a60448201527f2043616c6c6572206d75737420626520696e666c75656e6365720000000000006064820152608401610634565b60018215151461077a5760405162461bcd60e51b815260206004820152603660248201527f636865636b43616d706169676e4f626a6563746976655265616368656428293a60448201527f20706f737420776173206e6f74206f627461696e6564000000000000000000006064820152608401610634565b4260065411156107f25760405162461bcd60e51b815260206004820152603d60248201527f636865636b43616d706169676e4f626a6563746976655265616368656428293a60448201527f20646561646c696e65206d7573742062652068617665207061737365640000006064820152608401610634565b6006548111156108905760405162461bcd60e51b815260206004820152604f60248201527f636865636b43616d706169676e4f626a6563746976655265616368656428293a60448201527f20696e76616c696420706f73743a20706f7374206d757374206265206265666f60648201527f72652074686520646561646c696e650000000000000000000000000000000000608482015260a401610634565b60055481101561092e5760405162461bcd60e51b815260206004820152604660248201527f636865636b43616d706169676e4f626a6563746976655265616368656428293a60448201527f20706f7374206d7573742062652061667465722063616d706169676e2073746160648201527f7274446174650000000000000000000000000000000000000000000000000000608482015260a401610634565b6040517f706f737400000000000000000000000000000000000000000000000000000000602082015260240160408051601f19818403018152908290528051602091820120600b5465010000000000900460e01b7fffffffff00000000000000000000000000000000000000000000000000000000169183019190915290602401604051602081830303815290604052805190602001201415610afc57600a54831015610a4d5760405162461bcd60e51b815260206004820152604160248201527f636865636b43616d706169676e4f626a6563746976655265616368656428293a60448201527f206a61636b706f7420746172676574206d7573742062652073617469736669656064820152601960fa1b608482015260a401610634565b600b805460ff191660019081179091556008546040517fe02d4b153cb00a6da43e813b4e3c7f603966e02eb2a6c5a5f6324cb0f7fd769292610a99929015158252602082015260400190565b60405180910390a1600654610ab09061a8c0611d11565b60068190556008546040517fdb02a8b2d1e15351fb613b65b230651757f425365aecc087b92e1710218357a192610aef92908252602082015260400190565b60405180910390a1505050565b600654610b0b9061a8c0611d11565b600655600954831015610bac5760405162461bcd60e51b815260206004820152605b60248201527f636865636b43616d706169676e4f626a6563746976655265616368656428293a60448201527f20706f7374206d757374206174206c656173742062652067726561746572207460648201527f68616e20696e6372656d656e74616c20746f2067657420706169640000000000608482015260a401610634565b600a548310610d8c57600a54831015610c375760405162461bcd60e51b815260206004820152604160248201527f636865636b43616d706169676e4f626a6563746976655265616368656428293a60448201527f206a61636b706f7420746172676574206d7573742062652073617469736669656064820152601960fa1b608482015260a401610634565b600b805460ff191660019081179091556008546040517fe02d4b153cb00a6da43e813b4e3c7f603966e02eb2a6c5a5f6324cb0f7fd769292610c83929015158252602082015260400190565b60405180910390a16000610ca4600954600a54611d1190919063ffffffff16565b9050808410610d4057600a54610cbb908590611d24565b600d81905560095411610d4057600954600d54610cd791611d30565b600c819055600b805461ff0019166101001790556008546040517f9b3f0e4756b97e4c61d863b0fd505500511987b87a434620e87f811f701b401992610d2592908252602082015260400190565b60405180910390a1600654610d3c9061a8c0611d11565b6006555b7fdb02a8b2d1e15351fb613b65b230651757f425365aecc087b92e1710218357a1600654600854604051610d7e929190918252602082015260400190565b60405180910390a150505050565b600954610d9a908490611d30565b600c819055600b805461ff0019166101001790556008546040517f9b3f0e4756b97e4c61d863b0fd505500511987b87a434620e87f811f701b401992610de892908252602082015260400190565b60405180910390a17fdb02a8b2d1e15351fb613b65b230651757f425365aecc087b92e1710218357a1600654600854604051610aef929190918252602082015260400190565b505050565b6002546001600160a01b03163314610e9e5760405162461bcd60e51b815260206004820152602860248201527f4f6e6c792074686520627573696e6573732063616e2063616c6c207468697320604482015267333ab731ba34b7b760c11b6064820152608401610634565b6001546001600160a01b03163314610f1e5760405162461bcd60e51b815260206004820152602a60248201527f4f6e6c792074686520696e666c75656e6365722063616e2063616c6c2074686960448201527f732066756e6374696f6e000000000000000000000000000000000000000000006064820152608401610634565b600b5460ff16151560011480610f415750600b5460ff6101009091041615156001145b610fb35760405162461bcd60e51b815260206004820152603b60248201527f72656d6f76654772616365506572696f6428293a206f6e6c79206170706c696360448201527f61626c65207768656e207061796f757420697320696e626f756e6400000000006064820152608401610634565b6001821515148015610fc757506001811515145b6110435760405162461bcd60e51b815260206004820152604160248201527f72656d6f76654772616365506572696f6428293a20626f74682073696465732060448201527f6d75737420616772656520746f2072656d6f766520677261636520706572696f6064820152601960fa1b608482015260a401610634565b61a8c0600660008282546110579190611ea7565b90915550505050565b4260065410158061108d5750600b5462010000900460ff16801561108d5750600b546301000000900460ff165b6111255760405162461bcd60e51b815260206004820152605260248201527f63616d706169676e456e64656428293a204569746865722063616d706169676e60448201527f206f6e676f696e672c206f7220626f746820706172746965732079657420746f60648201527f20636f6e6669726d2064657369726520746f0000000000000000000000000000608482015260a401610634565b600b5460ff16156111a257600b546111509060ff6201000082048116916301000000900416836115e3565b600254600854604080516001815260208101929092526001600160a01b03909216917fcfe51a56170170210c6b5def6488eabb132da271f908c143e485c0ae70edec6f910160405180910390a2611220565b600b54610100900460ff161561122057600b546111d29060ff6201000082048116916301000000900416836115e3565b600254600854604080516000815260208101929092526001600160a01b03909216917f8d2937ab1456e52d5e52590e71857fe5899a3f1998d2098e812935ca22c06217910160405180910390a25b6001546001600160a01b03166000908152600e60209081526040808320546008548251918252928101939093528201527fdbda569e7119cd172891e7c63899a4838e4e8670b1175345bf293cd3f31347489060600160405180910390a16002546001600160a01b0316ff5b6002546001600160a01b031633146112f65760405162461bcd60e51b815260206004820152602860248201527f4f6e6c792074686520627573696e6573732063616e2063616c6c207468697320604482015267333ab731ba34b7b760c11b6064820152608401610634565b426006541061136d5760405162461bcd60e51b815260206004820152603260248201527f70726f7465737443616d706169676e28293a207061796f75742068617320616c60448201527f726561647920676f6e65207468726f75676800000000000000000000000000006064820152608401610634565b6001811515146113e55760405162461bcd60e51b815260206004820152603660248201527f70726f7465737443616d706169676e28293a2c2070726f74657374206d75737460448201527f20626520616761696e73742076616c696420706f7374000000000000000000006064820152608401610634565b50600b805464ff000000001916640100000000179055565b6002546001600160a01b031633146114685760405162461bcd60e51b815260206004820152602860248201527f4f6e6c792074686520627573696e6573732063616e2063616c6c207468697320604482015267333ab731ba34b7b760c11b6064820152608401610634565b42600654116114df5760405162461bcd60e51b815260206004820152603260248201527f6465706f7369745061796d656e7428293a205468652063616d706169676e206460448201527f6561646c696e65206861732070617373656400000000000000000000000000006064820152608401610634565b600034116115555760405162461bcd60e51b815260206004820152603a60248201527f6465706f7369745061796d656e7428293a20596f75206d757374206465706f7360448201527f6974206d6f6e657920696e746f2074686520636f6e74726163740000000000006064820152608401610634565b600b805461ffff191690556001546001600160a01b03166000908152600e6020526040902054611586903490611e4e565b6001546001600160a01b03166000908152600e60209081526040918290209290925560085481513481529283015233917fb75c5efb8f695c77c10eab316b5f4b02cb281e500c8a4e5474d1c3e19d582002910160405180910390a2565b600b5460ff16806115fb5750600b54610100900460ff165b8061160b575082801561160b5750815b61167d5760405162461bcd60e51b815260206004820152603460248201527f706179496e666c75656e63657228293a20636f6e646974696f6e7320666f722060448201527f7061796d656e742077657265206e6f74206d65740000000000000000000000006064820152608401610634565b600b54640100000000900460ff16156116fe5760405162461bcd60e51b815260206004820152603a60248201527f706179496e666c75656e63657228293a2043616e6e6f7420636f6d706c65746560448201527f207061796f7574207768656e20756e6465722070726f746573740000000000006064820152608401610634565b4260065411156117865760405162461bcd60e51b815260206004820152604760248201527f706179496e666c75656e63657228293a20746869732073686f756c64206f6e6c60448201527f7920747269676765722061667465722063616d706169676e20706572696f642060648201526634b99037bb32b960c91b608482015260a401610634565b600b5460ff1615611879576004546001546001600160a01b03166000908152600e602052604090205410156117ba57600080fd5b6004546001546001600160a01b03166000908152600e6020526040812080549091906117e7908490611ea7565b90915550506001546004546040516001600160a01b039092169181156108fc0291906000818181858888f19350505050158015611828573d6000803e3d6000fd5b50600b805460ff191690556004546008546040517f314b8d1c1fcf6a0803dd4c073d3a198302a249e6e1e0a6ce20a289f6f61c80e89261187092908252602082015260400190565b60405180910390a15b600b54610100900460ff1615611aef576003546001546001600160a01b03166000908152600e602052604090205410156119415760405162461bcd60e51b815260206004820152604f60248201527f706179496e666c75656e63657228293a2074686520617474656d70746564207060448201527f61796f7574206973206d6f7265207468616e20697320646573706f697465642060648201527f696e207468652063616d706169676e0000000000000000000000000000000000608482015260a401610634565b6001600c5410611a2d576000611964600354600c54611d3c90919063ffffffff16565b6001546001600160a01b03166000908152600e6020526040812080549293508392909190611993908490611ea7565b90915550506001546040516001600160a01b039091169082156108fc029083906000818181858888f193505050501580156119d2573d6000803e3d6000fd5b506000600c819055600b805461ff00191690556008546040805184815260208101939093528201527f4e096a163f990a9051b37b380a1fdc57da1ed67943857ddeb496a302fea7a7c09060600160405180910390a150611aef565b6003546001546001600160a01b03166000908152600e602052604081208054909190611a5a908490611ea7565b90915550506001546003546040516001600160a01b039092169181156108fc0291906000818181858888f19350505050158015611a9b573d6000803e3d6000fd5b50600b805461ff0019169055600354600c5460085460408051938452602084019290925282820152517f4e096a163f990a9051b37b380a1fdc57da1ed67943857ddeb496a302fea7a7c09181900360600190a15b828015611af95750815b15610e2e576001546001600160a01b03166000908152600e60205260409020548110611b2457600080fd5b6001546040516001600160a01b039091169082156108fc029083906000818181858888f19350505050158015611b5e573d6000803e3d6000fd5b506001546008546040805184815260208101929092526001600160a01b03909216917f9267f0dfa25dfb1e1a3676fdbc79fd9c57356e61c7da6a6865a492a68934e33f910160405180910390a2505050565b6002546001600160a01b03163314611c1b5760405162461bcd60e51b815260206004820152602860248201527f4f6e6c792074686520627573696e6573732063616e2063616c6c207468697320604482015267333ab731ba34b7b760c11b6064820152608401610634565b600b54640100000000900460ff161515600114611ca05760405162461bcd60e51b815260206004820152603b60248201527f63616e63656c50726f7465737428293a2063616e6e6f742063616e63656c207060448201527f726f74657374206966206e6f7420756e6465722070726f7465737400000000006064820152608401610634565b4260065410611d015760405162461bcd60e51b815260206004820152602760248201527f63616e63656c50726f7465737428293a2070726f7465737420706572696f642060448201526634b99037bb32b960c91b6064820152608401610634565b600b805464ff0000000019169055565b6000611d1d8284611e4e565b9392505050565b6000611d1d8284611ea7565b6000611d1d8284611e66565b6000611d1d8284611e88565b80358015158114611d5857600080fd5b919050565b600060208284031215611d6f57600080fd5b81356001600160a01b0381168114611d1d57600080fd5b600060208284031215611d9857600080fd5b611d1d82611d48565b60008060408385031215611db457600080fd5b611dbd83611d48565b9150611dcb60208401611d48565b90509250929050565b600080600060608486031215611de957600080fd5b611df284611d48565b9250611e0060208501611d48565b9150604084013590509250925092565b600060208284031215611e2257600080fd5b5035919050565b600080600060608486031215611e3e57600080fd5b83359250611e0060208501611d48565b60008219821115611e6157611e61611ebe565b500190565b600082611e8357634e487b7160e01b600052601260045260246000fd5b500490565b6000816000190483118215151615611ea257611ea2611ebe565b500290565b600082821015611eb957611eb9611ebe565b500390565b634e487b7160e01b600052601160045260246000fdfea264697066735822122072be7a5925e5e92664311a27b643074727a6de5e5fa661e0379a9d7f6f04d66f64736f6c63430008070033a26469706673582212203ad94fe9a8f9b266d4cc7b4aa00709eb9c89245c5f8ed5972f69208262f76eee64736f6c63430008070033",
  "immutableReferences": {},
  "source": "pragma solidity ^0.8.0;\nimport './Famepay.sol';\nimport '@openzeppelin/contracts/utils/math/SafeMath.sol';\nimport \"@openzeppelin/contracts/security/ReentrancyGuard.sol\";\n\n// SPDX-License-Identifier: PRIVATE\n\ncontract FamepayFactory is ReentrancyGuard {\n    using SafeMath for uint256;\n    uint256 public campaignPointer;\n    uint256 incrementalPaymentsTillJackpotValue;\n    uint256 incrementalPaymentsTillJackpotAmount;\n    address private platform; //payable?<-\n    mapping(uint256 => address) public famepayCampaigns;\n    event NewFamepayCampaignCreated(\n        address indexed _influencer,\n        address indexed _business,\n        address indexed _campaignAddress,\n        uint256 _campaignId,\n        uint256 _startDate,\n        uint256 _deadline,\n        uint256 _simplePostDuration,\n        uint256 _jackpotPayment,\n        uint256 _incrementalPayment,\n        uint256 _jackpotTargetAmount,\n        uint256 _incrementalTargetAmount,\n        uint256 _potentialPayoutAmount,\n        bytes4 _objective\n    );\n\n    constructor() {\n        platform = msg.sender;\n    }\n    //require that simple post duration and incremental payment. One of these must be 0 or null <---\n    function newFamepayCampaign(\n        address payable _influencer,\n        address payable _business,\n        uint256 _startDate,\n        uint256 _deadline,\n        uint256 _simplePostDuration,\n        uint256 _jackpotPayment, //$1000 if we hit 1,000,000 views\n        uint256 _incrementalPayment, //$50 for every 50,000 views    //0 for simple post\n        uint256 _jackpotTargetAmount,\n        uint256 _incrementalTargetAmount, //1 for simple post\n        uint256 _potentialPayoutAmount, //total in contract $2000\n        bytes4  _objective\n    ) payable external {\n        if(keccak256(abi.encodePacked(_objective)) != keccak256(abi.encodePacked(\"post\"))) {  //review this if logic\n            //ex. 7 payments till jackpot\n            incrementalPaymentsTillJackpotAmount = _jackpotTargetAmount.div(_incrementalTargetAmount);\n            //ex. 7 payments is total $400\n            incrementalPaymentsTillJackpotValue = _incrementalPayment.mul(incrementalPaymentsTillJackpotAmount);\n            //payout must be bigger than totalIncremental reward + jackpot reward\n            require(_potentialPayoutAmount > _jackpotPayment.add(incrementalPaymentsTillJackpotValue), \"Potential payout is invalid\");\n            //all the logic on one line\n            require(_potentialPayoutAmount > _jackpotPayment.add(_incrementalPayment.mul(_jackpotTargetAmount.div(_incrementalTargetAmount))), \"Potential payout is invalid one line logic\"); //failing in tests\n        } else {\n            require(_potentialPayoutAmount >= _jackpotPayment, \"Amount deposited must be greater than reward\");\n        }\n        campaignPointer = campaignPointer.add(1);\n        uint256 campaignId = campaignPointer;\n        Famepay famepay = new Famepay{value: msg.value}(_influencer, _business, _startDate, _deadline, _simplePostDuration, _jackpotPayment, _incrementalPayment, _jackpotTargetAmount, _incrementalTargetAmount, _objective, campaignId);\n        famepayCampaigns[campaignId] = address(famepay);\n        emit NewFamepayCampaignCreated(_influencer, _business, address(famepay), campaignId, _startDate, _deadline, _simplePostDuration, _jackpotPayment, _incrementalPayment, _jackpotTargetAmount, _incrementalTargetAmount,  _potentialPayoutAmount,  _objective);\n    }\n\n    function getCampaign(uint256 _campaignId) view external returns (address) {\n         return famepayCampaigns[_campaignId];\n    }\n}\n",
  "sourcePath": "/Users/benweinberg/Desktop/Work/FamePay/FamePayContract/contracts/FamepayFactory.sol",
  "compiler": {
    "name": "solc",
    "version": "0.8.7+commit.e28d00a7.Emscripten.clang"
  },
  "schemaVersion": "3.4.1",
  "updatedAt": "2021-09-16T13:45:50.506Z",
  "networkType": "ethereum",
  "devdoc": {
    "kind": "dev",
    "methods": {},
    "version": 1
  },
  "userdoc": {
    "kind": "user",
    "methods": {},
    "version": 1
  }
}