{
  "contractName": "Famepay",
  "abi": [
    {
      "inputs": [
        {
          "internalType": "address payable",
          "name": "_influencer",
          "type": "address"
        },
        {
          "internalType": "address payable",
          "name": "_business",
          "type": "address"
        },
        {
          "internalType": "uint256",
          "name": "_startDate",
          "type": "uint256"
        },
        {
          "internalType": "uint256",
          "name": "_deadline",
          "type": "uint256"
        },
        {
          "internalType": "uint256",
          "name": "_simplePostDuration",
          "type": "uint256"
        },
        {
          "internalType": "uint256",
          "name": "_jackpotPayment",
          "type": "uint256"
        },
        {
          "internalType": "uint256",
          "name": "_incrementalPayment",
          "type": "uint256"
        },
        {
          "internalType": "uint256",
          "name": "_jackpotTargetAmount",
          "type": "uint256"
        },
        {
          "internalType": "uint256",
          "name": "_incrementalTargetAmount",
          "type": "uint256"
        },
        {
          "internalType": "bytes4",
          "name": "_objective",
          "type": "bytes4"
        },
        {
          "internalType": "uint256",
          "name": "_campaignId",
          "type": "uint256"
        }
      ],
      "stateMutability": "payable",
      "type": "constructor"
    },
    {
      "anonymous": false,
      "inputs": [
        {
          "indexed": true,
          "internalType": "address",
          "name": "_influencer",
          "type": "address"
        },
        {
          "indexed": false,
          "internalType": "uint256",
          "name": "_amount",
          "type": "uint256"
        },
        {
          "indexed": false,
          "internalType": "uint256",
          "name": "_campaignId",
          "type": "uint256"
        }
      ],
      "name": "AgreedAmountPayment",
      "type": "event"
    },
    {
      "anonymous": false,
      "inputs": [
        {
          "indexed": true,
          "internalType": "address",
          "name": "_business",
          "type": "address"
        },
        {
          "indexed": false,
          "internalType": "uint256",
          "name": "_amount",
          "type": "uint256"
        },
        {
          "indexed": false,
          "internalType": "uint256",
          "name": "_campaignId",
          "type": "uint256"
        }
      ],
      "name": "BusinessDeposited",
      "type": "event"
    },
    {
      "anonymous": false,
      "inputs": [
        {
          "indexed": false,
          "internalType": "uint256",
          "name": "_refundableAmount",
          "type": "uint256"
        },
        {
          "indexed": false,
          "internalType": "bool",
          "name": "_jackpotObjectiveReached",
          "type": "bool"
        },
        {
          "indexed": false,
          "internalType": "bool",
          "name": "_incrementalObjectiveReached",
          "type": "bool"
        },
        {
          "indexed": false,
          "internalType": "uint256",
          "name": "_campaignId",
          "type": "uint256"
        }
      ],
      "name": "CampaignEnding",
      "type": "event"
    },
    {
      "anonymous": false,
      "inputs": [
        {
          "indexed": true,
          "internalType": "address",
          "name": "_influencer",
          "type": "address"
        },
        {
          "indexed": false,
          "internalType": "bool",
          "name": "_incrementalObjectiveReached",
          "type": "bool"
        },
        {
          "indexed": false,
          "internalType": "uint256",
          "name": "_campaignId",
          "type": "uint256"
        }
      ],
      "name": "CampaignTerminationIncrementPayment",
      "type": "event"
    },
    {
      "anonymous": false,
      "inputs": [
        {
          "indexed": true,
          "internalType": "address",
          "name": "_influencer",
          "type": "address"
        },
        {
          "indexed": false,
          "internalType": "bool",
          "name": "_jackpotObjectiveReached",
          "type": "bool"
        },
        {
          "indexed": false,
          "internalType": "uint256",
          "name": "_campaignId",
          "type": "uint256"
        }
      ],
      "name": "CampaignTerminationJackpotPayment",
      "type": "event"
    },
    {
      "anonymous": false,
      "inputs": [
        {
          "indexed": false,
          "internalType": "bool",
          "name": "_businessConfirmed",
          "type": "bool"
        },
        {
          "indexed": false,
          "internalType": "bool",
          "name": "_influencerConfirmed",
          "type": "bool"
        },
        {
          "indexed": false,
          "internalType": "uint256",
          "name": "_confirmedPaymentAmount",
          "type": "uint256"
        },
        {
          "indexed": false,
          "internalType": "uint256",
          "name": "_campaignId",
          "type": "uint256"
        }
      ],
      "name": "ConfirmedPayment",
      "type": "event"
    },
    {
      "anonymous": false,
      "inputs": [
        {
          "indexed": false,
          "internalType": "bool",
          "name": "_businessConfirmed",
          "type": "bool"
        },
        {
          "indexed": false,
          "internalType": "bool",
          "name": "_influencerConfirmed",
          "type": "bool"
        },
        {
          "indexed": false,
          "internalType": "uint256",
          "name": "_campaignId",
          "type": "uint256"
        }
      ],
      "name": "ConfirmedRefund",
      "type": "event"
    },
    {
      "anonymous": false,
      "inputs": [
        {
          "indexed": false,
          "internalType": "uint256",
          "name": "_newDeadline",
          "type": "uint256"
        },
        {
          "indexed": false,
          "internalType": "uint256",
          "name": "_campaignId",
          "type": "uint256"
        }
      ],
      "name": "ExtendDeadline",
      "type": "event"
    },
    {
      "anonymous": false,
      "inputs": [
        {
          "indexed": false,
          "internalType": "uint256",
          "name": "_finalPayoutDeadline",
          "type": "uint256"
        },
        {
          "indexed": false,
          "internalType": "uint256",
          "name": "_campaignId",
          "type": "uint256"
        }
      ],
      "name": "GracePayoutPeriod",
      "type": "event"
    },
    {
      "anonymous": false,
      "inputs": [
        {
          "indexed": false,
          "internalType": "uint256",
          "name": "_incrementalTargetsReached",
          "type": "uint256"
        },
        {
          "indexed": false,
          "internalType": "uint256",
          "name": "_campaignId",
          "type": "uint256"
        }
      ],
      "name": "IncrementalTargetReached",
      "type": "event"
    },
    {
      "anonymous": false,
      "inputs": [
        {
          "indexed": false,
          "internalType": "uint256",
          "name": "_amount",
          "type": "uint256"
        },
        {
          "indexed": false,
          "internalType": "uint256",
          "name": "_campaignId",
          "type": "uint256"
        }
      ],
      "name": "JackpotInfluencerPayment",
      "type": "event"
    },
    {
      "anonymous": false,
      "inputs": [
        {
          "indexed": false,
          "internalType": "bool",
          "name": "_targetReached",
          "type": "bool"
        },
        {
          "indexed": false,
          "internalType": "uint256",
          "name": "_campaignId",
          "type": "uint256"
        }
      ],
      "name": "JackpotTargetReached",
      "type": "event"
    },
    {
      "anonymous": false,
      "inputs": [
        {
          "indexed": false,
          "internalType": "uint256",
          "name": "_amount",
          "type": "uint256"
        },
        {
          "indexed": false,
          "internalType": "uint256",
          "name": "_outstandingIncrementalPayments",
          "type": "uint256"
        },
        {
          "indexed": false,
          "internalType": "uint256",
          "name": "_campaignId",
          "type": "uint256"
        }
      ],
      "name": "PayInfluencerIncremental",
      "type": "event"
    },
    {
      "anonymous": false,
      "inputs": [
        {
          "indexed": false,
          "internalType": "uint256",
          "name": "_amount",
          "type": "uint256"
        },
        {
          "indexed": false,
          "internalType": "uint256",
          "name": "_outstandingIncrementalPayment",
          "type": "uint256"
        },
        {
          "indexed": false,
          "internalType": "uint256",
          "name": "_campaignId",
          "type": "uint256"
        }
      ],
      "name": "PayInfluencerIncrementalSingle",
      "type": "event"
    },
    {
      "inputs": [],
      "name": "business",
      "outputs": [
        {
          "internalType": "address payable",
          "name": "",
          "type": "address"
        }
      ],
      "stateMutability": "view",
      "type": "function"
    },
    {
      "inputs": [],
      "name": "businessConfirmedExtension",
      "outputs": [
        {
          "internalType": "bool",
          "name": "",
          "type": "bool"
        }
      ],
      "stateMutability": "view",
      "type": "function"
    },
    {
      "inputs": [],
      "name": "businessConfirmedPay",
      "outputs": [
        {
          "internalType": "bool",
          "name": "",
          "type": "bool"
        }
      ],
      "stateMutability": "view",
      "type": "function"
    },
    {
      "inputs": [],
      "name": "businessConfirmedRefund",
      "outputs": [
        {
          "internalType": "bool",
          "name": "",
          "type": "bool"
        }
      ],
      "stateMutability": "view",
      "type": "function"
    },
    {
      "inputs": [],
      "name": "campaignId",
      "outputs": [
        {
          "internalType": "uint256",
          "name": "",
          "type": "uint256"
        }
      ],
      "stateMutability": "view",
      "type": "function"
    },
    {
      "inputs": [],
      "name": "campaignIsUnderProtest",
      "outputs": [
        {
          "internalType": "bool",
          "name": "",
          "type": "bool"
        }
      ],
      "stateMutability": "view",
      "type": "function"
    },
    {
      "inputs": [],
      "name": "confirmedPaymentAmount",
      "outputs": [
        {
          "internalType": "uint256",
          "name": "",
          "type": "uint256"
        }
      ],
      "stateMutability": "view",
      "type": "function"
    },
    {
      "inputs": [],
      "name": "deadline",
      "outputs": [
        {
          "internalType": "uint256",
          "name": "",
          "type": "uint256"
        }
      ],
      "stateMutability": "view",
      "type": "function"
    },
    {
      "inputs": [
        {
          "internalType": "address",
          "name": "",
          "type": "address"
        }
      ],
      "name": "depositedFor",
      "outputs": [
        {
          "internalType": "uint256",
          "name": "",
          "type": "uint256"
        }
      ],
      "stateMutability": "view",
      "type": "function"
    },
    {
      "inputs": [],
      "name": "exceededObjectiveAmount",
      "outputs": [
        {
          "internalType": "uint256",
          "name": "",
          "type": "uint256"
        }
      ],
      "stateMutability": "view",
      "type": "function"
    },
    {
      "inputs": [],
      "name": "incrementalPayment",
      "outputs": [
        {
          "internalType": "uint256",
          "name": "",
          "type": "uint256"
        }
      ],
      "stateMutability": "view",
      "type": "function"
    },
    {
      "inputs": [],
      "name": "incrementalTargetAmount",
      "outputs": [
        {
          "internalType": "uint256",
          "name": "",
          "type": "uint256"
        }
      ],
      "stateMutability": "view",
      "type": "function"
    },
    {
      "inputs": [],
      "name": "incrementalTargetReached",
      "outputs": [
        {
          "internalType": "bool",
          "name": "",
          "type": "bool"
        }
      ],
      "stateMutability": "view",
      "type": "function"
    },
    {
      "inputs": [],
      "name": "influencer",
      "outputs": [
        {
          "internalType": "address payable",
          "name": "",
          "type": "address"
        }
      ],
      "stateMutability": "view",
      "type": "function"
    },
    {
      "inputs": [],
      "name": "influencerConfirmedExtension",
      "outputs": [
        {
          "internalType": "bool",
          "name": "",
          "type": "bool"
        }
      ],
      "stateMutability": "view",
      "type": "function"
    },
    {
      "inputs": [],
      "name": "influencerConfirmedPay",
      "outputs": [
        {
          "internalType": "bool",
          "name": "",
          "type": "bool"
        }
      ],
      "stateMutability": "view",
      "type": "function"
    },
    {
      "inputs": [],
      "name": "influencerConfirmedRefund",
      "outputs": [
        {
          "internalType": "bool",
          "name": "",
          "type": "bool"
        }
      ],
      "stateMutability": "view",
      "type": "function"
    },
    {
      "inputs": [],
      "name": "jackpotPayment",
      "outputs": [
        {
          "internalType": "uint256",
          "name": "",
          "type": "uint256"
        }
      ],
      "stateMutability": "view",
      "type": "function"
    },
    {
      "inputs": [],
      "name": "jackpotTargetAmount",
      "outputs": [
        {
          "internalType": "uint256",
          "name": "",
          "type": "uint256"
        }
      ],
      "stateMutability": "view",
      "type": "function"
    },
    {
      "inputs": [],
      "name": "jackpotTargetReached",
      "outputs": [
        {
          "internalType": "bool",
          "name": "",
          "type": "bool"
        }
      ],
      "stateMutability": "view",
      "type": "function"
    },
    {
      "inputs": [],
      "name": "objective",
      "outputs": [
        {
          "internalType": "bytes4",
          "name": "",
          "type": "bytes4"
        }
      ],
      "stateMutability": "view",
      "type": "function"
    },
    {
      "inputs": [],
      "name": "outstandingIncrementalPayments",
      "outputs": [
        {
          "internalType": "uint256",
          "name": "",
          "type": "uint256"
        }
      ],
      "stateMutability": "view",
      "type": "function"
    },
    {
      "inputs": [],
      "name": "simplePostDuration",
      "outputs": [
        {
          "internalType": "uint256",
          "name": "",
          "type": "uint256"
        }
      ],
      "stateMutability": "view",
      "type": "function"
    },
    {
      "inputs": [],
      "name": "startDate",
      "outputs": [
        {
          "internalType": "uint256",
          "name": "",
          "type": "uint256"
        }
      ],
      "stateMutability": "view",
      "type": "function"
    },
    {
      "inputs": [],
      "name": "getTimestamp",
      "outputs": [
        {
          "internalType": "uint256",
          "name": "",
          "type": "uint256"
        }
      ],
      "stateMutability": "view",
      "type": "function"
    },
    {
      "inputs": [],
      "name": "depositPayment",
      "outputs": [],
      "stateMutability": "payable",
      "type": "function"
    },
    {
      "inputs": [],
      "name": "depositedForInfluencerBalance",
      "outputs": [
        {
          "internalType": "uint256",
          "name": "",
          "type": "uint256"
        }
      ],
      "stateMutability": "view",
      "type": "function"
    },
    {
      "inputs": [],
      "name": "addressBalance",
      "outputs": [
        {
          "internalType": "uint256",
          "name": "",
          "type": "uint256"
        }
      ],
      "stateMutability": "view",
      "type": "function"
    },
    {
      "inputs": [
        {
          "internalType": "bool",
          "name": "_postPosted",
          "type": "bool"
        }
      ],
      "name": "protestCampaign",
      "outputs": [],
      "stateMutability": "nonpayable",
      "type": "function"
    },
    {
      "inputs": [],
      "name": "resolveProtest",
      "outputs": [],
      "stateMutability": "nonpayable",
      "type": "function"
    },
    {
      "inputs": [
        {
          "internalType": "bool",
          "name": "_businessConfirmed",
          "type": "bool"
        },
        {
          "internalType": "bool",
          "name": "_influencerConfirmed",
          "type": "bool"
        }
      ],
      "name": "removeGracePeriod",
      "outputs": [],
      "stateMutability": "nonpayable",
      "type": "function"
    },
    {
      "inputs": [
        {
          "internalType": "uint256",
          "name": "_postStat",
          "type": "uint256"
        },
        {
          "internalType": "bool",
          "name": "_postPosted",
          "type": "bool"
        },
        {
          "internalType": "uint256",
          "name": "_postTimestamp",
          "type": "uint256"
        }
      ],
      "name": "checkCampaignObjectiveReached",
      "outputs": [],
      "stateMutability": "nonpayable",
      "type": "function"
    },
    {
      "inputs": [
        {
          "internalType": "bool",
          "name": "_businessConfirmed",
          "type": "bool"
        },
        {
          "internalType": "bool",
          "name": "_influencerConfirmed",
          "type": "bool"
        }
      ],
      "name": "payInfluencer",
      "outputs": [],
      "stateMutability": "payable",
      "type": "function"
    },
    {
      "inputs": [
        {
          "internalType": "bool",
          "name": "_businessConfirmed",
          "type": "bool"
        },
        {
          "internalType": "bool",
          "name": "_influencerConfirmed",
          "type": "bool"
        }
      ],
      "name": "confirmRefund",
      "outputs": [],
      "stateMutability": "nonpayable",
      "type": "function"
    },
    {
      "inputs": [
        {
          "internalType": "bool",
          "name": "_businessConfirmed",
          "type": "bool"
        },
        {
          "internalType": "bool",
          "name": "_influencerConfirmed",
          "type": "bool"
        },
        {
          "internalType": "uint256",
          "name": "_confirmedPaymentAmount",
          "type": "uint256"
        }
      ],
      "name": "confirmPayment",
      "outputs": [],
      "stateMutability": "nonpayable",
      "type": "function"
    },
    {
      "inputs": [
        {
          "internalType": "bool",
          "name": "_businessConfirmed",
          "type": "bool"
        },
        {
          "internalType": "bool",
          "name": "_influencerConfirmed",
          "type": "bool"
        }
      ],
      "name": "confirmExtension",
      "outputs": [],
      "stateMutability": "nonpayable",
      "type": "function"
    },
    {
      "inputs": [
        {
          "internalType": "uint256",
          "name": "_newDeadline",
          "type": "uint256"
        }
      ],
      "name": "extendDeadline",
      "outputs": [],
      "stateMutability": "nonpayable",
      "type": "function"
    },
    {
      "inputs": [],
      "name": "campaignEnded",
      "outputs": [],
      "stateMutability": "nonpayable",
      "type": "function"
    }
  ],
  "bytecode": "0x60806040819052600b805463ffff000019169055600d805464ffffffffff19169055620027e93881900390819083398101604081905262000040916200011f565b6001600081815581546001600160a01b03808f166001600160a01b0319928316811790945560028054918f169190921617905560058b905560068a9055600789905560048890556003879055600a8690556009859055600d805460e086901c650100000000000263ffffffff60281b19909116179055600883905590815260106020526040902054620000d5904790620001c9565b6001546001600160a01b031660009081526010602052604090205550620001f09950505050505050505050565b80516001600160a01b03811681146200011a57600080fd5b919050565b60008060008060008060008060008060006101608c8e0312156200014257600080fd5b6200014d8c62000102565b9a506200015d60208d0162000102565b995060408c0151985060608c0151975060808c0151965060a08c0151955060c08c0151945060e08c015193506101008c015192506101208c015163ffffffff60e01b81168114620001ad57600080fd5b809250506101408c015190509295989b509295989b9093969950565b60008219821115620001eb57634e487b7160e01b600052601160045260246000fd5b500190565b6125e980620002006000396000f3fe6080604052600436106102855760003560e01c806383d6dc0b11610153578063aab470cf116100cb578063e503d56c1161007f578063f318e55711610064578063f318e557146106bb578063f41662ed146106ce578063fac3fd59146106e857600080fd5b8063e503d56c1461067a578063e74dc11c1461069b57600080fd5b8063b9001363116100b0578063b90013631461063c578063e2d950fa1461064f578063e36686321461066457600080fd5b8063aab470cf146105fd578063ac35e1601461061d57600080fd5b80638dc45e1011610122578063a4b870c411610107578063a4b870c414610590578063a87588e7146105bd578063aa5e2153146105f557600080fd5b80638dc45e101461055a5780638ed5b0fc1461057a57600080fd5b806383d6dc0b146104e5578063842de7501461050557806385e784e01461051b57806389c4bad71461053a57600080fd5b8063389b75331161020157806367d30aa2116101b55780636e597aee1161019a5780636e597aee1461048e578063723ac2a1146104a45780638244904a146104c457600080fd5b806367d30aa21461044c57806368ad436f1461046c57600080fd5b8063405088a7116101e6578063405088a714610400578063433b68c714610416578063612abb101461043657600080fd5b8063389b7533146103c95780633bc47fbe146103eb57600080fd5b80631d8d1f66116102585780632fe289b31161023d5780632fe289b3146103875780633621905f1461039d5780633869cbfa146103b357600080fd5b80631d8d1f661461034457806329dcb0cf1461037157600080fd5b80630b97bc861461028a57806314f1586a146102b357806316bbb1e214610307578063188ec35614610331575b600080fd5b34801561029657600080fd5b506102a060055481565b6040519081526020015b60405180910390f35b3480156102bf57600080fd5b50600d546102d69065010000000000900460e01b81565b6040517fffffffff0000000000000000000000000000000000000000000000000000000090911681526020016102aa565b34801561031357600080fd5b50600d546103219060ff1681565b60405190151581526020016102aa565b34801561033d57600080fd5b50426102a0565b34801561035057600080fd5b506001546001600160a01b03166000908152601060205260409020546102a0565b34801561037d57600080fd5b506102a060065481565b34801561039357600080fd5b506102a0600a5481565b3480156103a957600080fd5b506102a060035481565b3480156103bf57600080fd5b506102a060075481565b3480156103d557600080fd5b506103e96103e4366004612427565b610708565b005b3480156103f757600080fd5b506103e96108ea565b34801561040c57600080fd5b506102a0600c5481565b34801561042257600080fd5b50600b546103219062010000900460ff1681565b34801561044257600080fd5b506102a060095481565b34801561045857600080fd5b506103e9610467366004612455565b610ba1565b34801561047857600080fd5b50600d5461032190640100000000900460ff1681565b34801561049a57600080fd5b506102a0600e5481565b3480156104b057600080fd5b506103e96104bf36600461248a565b61134d565b3480156104d057600080fd5b50600d54610321906301000000900460ff1681565b3480156104f157600080fd5b506103e961050036600461248a565b61140d565b34801561051157600080fd5b506102a0600f5481565b34801561052757600080fd5b50600d5461032190610100900460ff1681565b34801561054657600080fd5b50600d546103219062010000900460ff1681565b34801561056657600080fd5b506103e96105753660046124bd565b6115dd565b34801561058657600080fd5b506102a060085481565b34801561059c57600080fd5b506102a06105ab3660046124d8565b60106020526000908152604090205481565b3480156105c957600080fd5b506001546105dd906001600160a01b031681565b6040516001600160a01b0390911681526020016102aa565b6103e961174f565b34801561060957600080fd5b506103e9610618366004612501565b611935565b34801561062957600080fd5b50600b5461032190610100900460ff1681565b6103e961064a36600461248a565b611a44565b34801561065b57600080fd5b506103e961218c565b34801561067057600080fd5b506102a060045481565b34801561068657600080fd5b50600b54610321906301000000900460ff1681565b3480156106a757600080fd5b506002546105dd906001600160a01b031681565b3480156106c757600080fd5b50476102a0565b3480156106da57600080fd5b50600b546103219060ff1681565b3480156106f457600080fd5b506103e961070336600461248a565b6122ed565b6002546001600160a01b031633148061072b57506001546001600160a01b031633145b61079b5760405162461bcd60e51b815260206004820152603660248201527f4f6e6c792074686520627573696e657373206f7220696e666c75656e6365722060448201527531b0b71031b0b636103a3434b990333ab731ba34b7b760511b60648201526084015b60405180910390fd5b80600654106108125760405162461bcd60e51b815260206004820152603e60248201527f657874656e64446561646c696e6528293a206e657720646561646c696e65206d60448201527f757374206265206166746572206578697374696e6720646561646c696e6500006064820152608401610792565b600d5462010000900460ff1680156108335750600d546301000000900460ff165b6108a55760405162461bcd60e51b815260206004820152603360248201527f657874656e64446561646c696e6528293a20626f7468207369646573206d757360448201527f7420636f6e6669726d20657874656e73696f6e000000000000000000000000006064820152608401610792565b60068190556008546040805183815260208101929092527f53363e7eeef177f60d15e790e42c0cc492e5bee81887ced1390b5c2553ad2a2a910160405180910390a150565b6002546001600160a01b031633148061090d57506001546001600160a01b031633145b6109785760405162461bcd60e51b815260206004820152603660248201527f4f6e6c792074686520627573696e657373206f7220696e666c75656e6365722060448201527531b0b71031b0b636103a3434b990333ab731ba34b7b760511b6064820152608401610792565b6006544210158061099d5750600d5460ff16801561099d5750600d54610100900460ff165b610a355760405162461bcd60e51b815260206004820152605260248201527f63616d706169676e456e64656428293a204569746865722063616d706169676e60448201527f206f6e676f696e672c206f7220626f746820706172746965732079657420746f60648201527f20636f6e6669726d2064657369726520746f0000000000000000000000000000608482015260a401610792565b600b5460ff1615610ab157600b54610a5f9060ff6201000082048116916301000000900416611a44565b600254600854604080516001815260208101929092526001600160a01b03909216917fcfe51a56170170210c6b5def6488eabb132da271f908c143e485c0ae70edec6f910160405180910390a2610b2e565b600b54610100900460ff1615610b2e57600b54610ae09060ff6201000082048116916301000000900416611a44565b600254600854604080516000815260208101929092526001600160a01b03909216917f8d2937ab1456e52d5e52590e71857fe5899a3f1998d2098e812935ca22c06217910160405180910390a25b6001546001600160a01b031660009081526010602090815260408083205460085482519182529281018490529081019290925260608201527f3a1f1aea29c8909f1c1e5aff163939f369fe1c87585220f7917377483a8b108f9060800160405180910390a16002546001600160a01b0316ff5b6001546001600160a01b03163314610c215760405162461bcd60e51b815260206004820152603a60248201527f636865636b43616d706169676e4f626a6563746976655265616368656428293a60448201527f2043616c6c6572206d75737420626520696e666c75656e6365720000000000006064820152608401610792565b600182151514610c995760405162461bcd60e51b815260206004820152603660248201527f636865636b43616d706169676e4f626a6563746976655265616368656428293a60448201527f20706f737420776173206e6f74206f627461696e6564000000000000000000006064820152608401610792565b426006541115610d115760405162461bcd60e51b815260206004820152603d60248201527f636865636b43616d706169676e4f626a6563746976655265616368656428293a60448201527f20646561646c696e65206d7573742062652068617665207061737365640000006064820152608401610792565b600654811115610daf5760405162461bcd60e51b815260206004820152604f60248201527f636865636b43616d706169676e4f626a6563746976655265616368656428293a60448201527f20696e76616c696420706f73743a20706f7374206d757374206265206265666f60648201527f72652074686520646561646c696e650000000000000000000000000000000000608482015260a401610792565b600554811015610e4d5760405162461bcd60e51b815260206004820152604660248201527f636865636b43616d706169676e4f626a6563746976655265616368656428293a60448201527f20706f7374206d7573742062652061667465722063616d706169676e2073746160648201527f7274446174650000000000000000000000000000000000000000000000000000608482015260a401610792565b6040517f706f737400000000000000000000000000000000000000000000000000000000602082015260240160408051601f19818403018152908290528051602091820120600d5465010000000000900460e01b7fffffffff0000000000000000000000000000000000000000000000000000000016918301919091529060240160405160208183030381529060405280519060200120141561101b57600a54831015610f6c5760405162461bcd60e51b815260206004820152604160248201527f636865636b43616d706169676e4f626a6563746976655265616368656428293a60448201527f206a61636b706f7420746172676574206d7573742062652073617469736669656064820152601960fa1b608482015260a401610792565b600b805460ff191660019081179091556008546040517fe02d4b153cb00a6da43e813b4e3c7f603966e02eb2a6c5a5f6324cb0f7fd769292610fb8929015158252602082015260400190565b60405180910390a1600654610fcf9061a8c06123f0565b60068190556008546040517fdb02a8b2d1e15351fb613b65b230651757f425365aecc087b92e1710218357a19261100e92908252602082015260400190565b60405180910390a1505050565b60065461102a9061a8c06123f0565b6006556009548310156110cb5760405162461bcd60e51b815260206004820152605b60248201527f636865636b43616d706169676e4f626a6563746976655265616368656428293a60448201527f20706f7374206d757374206174206c656173742062652067726561746572207460648201527f68616e20696e6372656d656e74616c20746f2067657420706169640000000000608482015260a401610792565b600a5483106112ab57600a548310156111565760405162461bcd60e51b815260206004820152604160248201527f636865636b43616d706169676e4f626a6563746976655265616368656428293a60448201527f206a61636b706f7420746172676574206d7573742062652073617469736669656064820152601960fa1b608482015260a401610792565b600b805460ff191660019081179091556008546040517fe02d4b153cb00a6da43e813b4e3c7f603966e02eb2a6c5a5f6324cb0f7fd7692926111a2929015158252602082015260400190565b60405180910390a160006111c3600954600a546123f090919063ffffffff16565b905080841061125f57600a546111da908590612403565b600f8190556009541161125f57600954600f546111f69161240f565b600e819055600b805461ff0019166101001790556008546040517f9b3f0e4756b97e4c61d863b0fd505500511987b87a434620e87f811f701b40199261124492908252602082015260400190565b60405180910390a160065461125b9061a8c06123f0565b6006555b7fdb02a8b2d1e15351fb613b65b230651757f425365aecc087b92e1710218357a160065460085460405161129d929190918252602082015260400190565b60405180910390a150505050565b6009546112b990849061240f565b600e819055600b805461ff0019166101001790556008546040517f9b3f0e4756b97e4c61d863b0fd505500511987b87a434620e87f811f701b40199261130792908252602082015260400190565b60405180910390a17fdb02a8b2d1e15351fb613b65b230651757f425365aecc087b92e1710218357a160065460085460405161100e929190918252602082015260400190565b6002546001600160a01b031633148061137057506001546001600160a01b031633145b6113db5760405162461bcd60e51b815260206004820152603660248201527f4f6e6c792074686520627573696e657373206f7220696e666c75656e6365722060448201527531b0b71031b0b636103a3434b990333ab731ba34b7b760511b6064820152608401610792565b600d805463ffff00001916620100009315159390930263ff000000191692909217630100000091151591909102179055565b6002546001600160a01b031633148061143057506001546001600160a01b031633145b61149b5760405162461bcd60e51b815260206004820152603660248201527f4f6e6c792074686520627573696e657373206f7220696e666c75656e6365722060448201527531b0b71031b0b636103a3434b990333ab731ba34b7b760511b6064820152608401610792565b600b5460ff161515600114806114be5750600b5460ff6101009091041615156001145b6115305760405162461bcd60e51b815260206004820152603b60248201527f72656d6f76654772616365506572696f6428293a206f6e6c79206170706c696360448201527f61626c65207768656e207061796f757420697320696e626f756e6400000000006064820152608401610792565b600182151514801561154457506001811515145b6115c05760405162461bcd60e51b815260206004820152604160248201527f72656d6f76654772616365506572696f6428293a20626f74682073696465732060448201527f6d75737420616772656520746f2072656d6f766520677261636520706572696f6064820152601960fa1b608482015260a401610792565b61a8c0600660008282546115d49190612543565b90915550505050565b6002546001600160a01b031633146116485760405162461bcd60e51b815260206004820152602860248201527f4f6e6c792074686520627573696e6573732063616e2063616c6c207468697320604482015267333ab731ba34b7b760c11b6064820152608401610792565b42600654106116bf5760405162461bcd60e51b815260206004820152603260248201527f70726f7465737443616d706169676e28293a207061796f75742068617320616c60448201527f726561647920676f6e65207468726f75676800000000000000000000000000006064820152608401610792565b6001811515146117375760405162461bcd60e51b815260206004820152603660248201527f70726f7465737443616d706169676e28293a2c2070726f74657374206d75737460448201527f20626520616761696e73742076616c696420706f7374000000000000000000006064820152608401610792565b50600d805464ff000000001916640100000000179055565b6002546001600160a01b031633146117ba5760405162461bcd60e51b815260206004820152602860248201527f4f6e6c792074686520627573696e6573732063616e2063616c6c207468697320604482015267333ab731ba34b7b760c11b6064820152608401610792565b42600654116118315760405162461bcd60e51b815260206004820152603260248201527f6465706f7369745061796d656e7428293a205468652063616d706169676e206460448201527f6561646c696e65206861732070617373656400000000000000000000000000006064820152608401610792565b600034116118a75760405162461bcd60e51b815260206004820152603a60248201527f6465706f7369745061796d656e7428293a20596f75206d757374206465706f7360448201527f6974206d6f6e657920696e746f2074686520636f6e74726163740000000000006064820152608401610792565b600b805461ffff191690556001546001600160a01b03166000908152601060205260409020546118d890349061255a565b6001546001600160a01b03166000908152601060209081526040918290209290925560085481513481529283015233917fb75c5efb8f695c77c10eab316b5f4b02cb281e500c8a4e5474d1c3e19d582002910160405180910390a2565b6002546001600160a01b031633148061195857506001546001600160a01b031633145b6119c35760405162461bcd60e51b815260206004820152603660248201527f4f6e6c792074686520627573696e657373206f7220696e666c75656e6365722060448201527531b0b71031b0b636103a3434b990333ab731ba34b7b760511b6064820152608401610792565b600b805483151563010000000263ff0000001986151562010000021663ffff00001990921691909117179055600c8190556008546040517f069e8114a68e3c1e4e5b3628a73d09da0b8912fac2ee9b3000a7609db5fd35d69161100e9186918691869190931515845291151560208401526040830152606082015260800190565b6001546001600160a01b03163314611ac45760405162461bcd60e51b815260206004820152602a60248201527f4f6e6c792074686520696e666c75656e6365722063616e2063616c6c2074686960448201527f732066756e6374696f6e000000000000000000000000000000000000000000006064820152608401610792565b600b5460ff1680611adc5750600b54610100900460ff165b80611aec5750818015611aec5750805b611b5e5760405162461bcd60e51b815260206004820152603460248201527f706179496e666c75656e63657228293a20636f6e646974696f6e7320666f722060448201527f7061796d656e742077657265206e6f74206d65740000000000000000000000006064820152608401610792565b600d54640100000000900460ff1615611bdf5760405162461bcd60e51b815260206004820152603a60248201527f706179496e666c75656e63657228293a2043616e6e6f7420636f6d706c65746560448201527f207061796f7574207768656e20756e6465722070726f746573740000000000006064820152608401610792565b426006541115611c675760405162461bcd60e51b815260206004820152604760248201527f706179496e666c75656e63657228293a20746869732073686f756c64206f6e6c60448201527f7920747269676765722061667465722063616d706169676e20706572696f642060648201526634b99037bb32b960c91b608482015260a401610792565b811580611c72575080155b15611ceb573415611ceb5760405162461bcd60e51b815260206004820152603160248201527f706179496e666c75656e63657228292c206e6f7420616c6c6f77656420746f2060448201527f666f726369626c792073656e64206574680000000000000000000000000000006064820152608401610792565b600b5460ff1615611dde576004546001546001600160a01b03166000908152601060205260409020541015611d1f57600080fd5b6004546001546001600160a01b031660009081526010602052604081208054909190611d4c908490612543565b90915550506001546004546040516001600160a01b039092169181156108fc0291906000818181858888f19350505050158015611d8d573d6000803e3d6000fd5b50600b805460ff191690556004546008546040517f314b8d1c1fcf6a0803dd4c073d3a198302a249e6e1e0a6ce20a289f6f61c80e892611dd592908252602082015260400190565b60405180910390a15b600b54610100900460ff1615612054576003546001546001600160a01b03166000908152601060205260409020541015611ea65760405162461bcd60e51b815260206004820152604f60248201527f706179496e666c75656e63657228293a2074686520617474656d70746564207060448201527f61796f7574206973206d6f7265207468616e20697320646573706f697465642060648201527f696e207468652063616d706169676e0000000000000000000000000000000000608482015260a401610792565b6001600e5410611f92576000611ec9600354600e5461241b90919063ffffffff16565b6001546001600160a01b0316600090815260106020526040812080549293508392909190611ef8908490612543565b90915550506001546040516001600160a01b039091169082156108fc029083906000818181858888f19350505050158015611f37573d6000803e3d6000fd5b506000600e819055600b805461ff00191690556008546040805184815260208101939093528201527f87b5dda082866a70c4b6b0385cf225fc12d16f7ce514f116e058442d58c159ae9060600160405180910390a150612054565b6003546001546001600160a01b031660009081526010602052604081208054909190611fbf908490612543565b90915550506001546003546040516001600160a01b039092169181156108fc0291906000818181858888f19350505050158015612000573d6000803e3d6000fd5b50600b805461ff0019169055600354600e5460085460408051938452602084019290925282820152517f7307a3d84e5bec561453196b4ecdf7841d6ce57ce51f495c86a42820b4d808d79181900360600190a15b81801561205e5750805b1561218857600c543410156121015760405162461bcd60e51b815260206004820152604260248201527f706179496e666c75656e63657228293a206f6e6c7920636f6e6669726d65642060448201527f7061796d656e7420616d6f756e74206f72206d6f72652063616e20626520736560648201527f6e74000000000000000000000000000000000000000000000000000000000000608482015260a401610792565b6001546040516001600160a01b03909116903480156108fc02916000818181858888f1935050505015801561213a573d6000803e3d6000fd5b506001546008546040805134815260208101929092526001600160a01b03909216917f9267f0dfa25dfb1e1a3676fdbc79fd9c57356e61c7da6a6865a492a68934e33f910160405180910390a25b5050565b6002546001600160a01b031633146121f75760405162461bcd60e51b815260206004820152602860248201527f4f6e6c792074686520627573696e6573732063616e2063616c6c207468697320604482015267333ab731ba34b7b760c11b6064820152608401610792565b600d54640100000000900460ff16151560011461227c5760405162461bcd60e51b815260206004820152603b60248201527f63616e63656c50726f7465737428293a2063616e6e6f742063616e63656c207060448201527f726f74657374206966206e6f7420756e6465722070726f7465737400000000006064820152608401610792565b42600654106122dd5760405162461bcd60e51b815260206004820152602760248201527f63616e63656c50726f7465737428293a2070726f7465737420706572696f642060448201526634b99037bb32b960c91b6064820152608401610792565b600d805464ff0000000019169055565b6002546001600160a01b031633148061231057506001546001600160a01b031633145b61237b5760405162461bcd60e51b815260206004820152603660248201527f4f6e6c792074686520627573696e657373206f7220696e666c75656e6365722060448201527531b0b71031b0b636103a3434b990333ab731ba34b7b760511b6064820152608401610792565b600d80548215156101000261ff00198515151661ffff19909216919091171790556008546040517f4687ee8477dde21ae3ce64b7dd08a0cfcf3b7ee36772fd9e70391e197bc060fd916123e4918591859192151583529015156020830152604082015260600190565b60405180910390a15050565b60006123fc828461255a565b9392505050565b60006123fc8284612543565b60006123fc8284612572565b60006123fc8284612594565b60006020828403121561243957600080fd5b5035919050565b8035801515811461245057600080fd5b919050565b60008060006060848603121561246a57600080fd5b8335925061247a60208501612440565b9150604084013590509250925092565b6000806040838503121561249d57600080fd5b6124a683612440565b91506124b460208401612440565b90509250929050565b6000602082840312156124cf57600080fd5b6123fc82612440565b6000602082840312156124ea57600080fd5b81356001600160a01b03811681146123fc57600080fd5b60008060006060848603121561251657600080fd5b61251f84612440565b925061247a60208501612440565b634e487b7160e01b600052601160045260246000fd5b6000828210156125555761255561252d565b500390565b6000821982111561256d5761256d61252d565b500190565b60008261258f57634e487b7160e01b600052601260045260246000fd5b500490565b60008160001904831182151516156125ae576125ae61252d565b50029056fea2646970667358221220384083e230ddbdee7e2252f0b7891f26581ad54289ec944b7c09224817d416af64736f6c634300080a0033",
  "immutableReferences": {},
  "source": "// extract logic into private functions and call those with public functions\n//eth alarm clock\n//x dai\n//chainlink\n// super fluid for incremental payments\n//\npragma solidity ^0.8.4;\n\nimport '@openzeppelin/contracts/utils/math/SafeMath.sol';\nimport '@openzeppelin/contracts/security/ReentrancyGuard.sol';\n\n// SPDX-License-Identifier: PRIVATE\n\ncontract Famepay is ReentrancyGuard {\n    /* LIBRARIES */\n    using SafeMath for uint256;\n\n    /* STORAGE */\n    address payable public influencer;\n    address payable public business;\n\n    uint256 public incrementalPayment;\n    uint256 public jackpotPayment;\n\n    uint256 public startDate;\n    uint256 public deadline;\n    uint256 public simplePostDuration;\n\n    uint256 public campaignId;\n\n    uint256 public incrementalTargetAmount;\n    uint256 public jackpotTargetAmount;\n\n    bool public jackpotTargetReached;\n    bool public incrementalTargetReached;\n\n    bool public businessConfirmedPay = false;\n    bool public influencerConfirmedPay = false;\n    uint256 public confirmedPaymentAmount;\n\n    bool public businessConfirmedRefund = false;\n    bool public influencerConfirmedRefund = false;\n\n    bool public businessConfirmedExtension = false;\n    bool public influencerConfirmedExtension = false;\n\n    bool public campaignIsUnderProtest = false;\n\n    bytes4 public objective;\n\n    uint256 public outstandingIncrementalPayments;\n    uint256 public exceededObjectiveAmount;\n\n    mapping(address => uint256) public depositedFor;\n\n    /**Busines actions */\n    event BusinessDeposited(address indexed _business, uint256 _amount, uint256 _campaignId);\n\n    /*Influencer actions */\n    event IncrementalTargetReached(uint256 _incrementalTargetsReached, uint256 _campaignId);\n    event JackpotTargetReached(bool _targetReached, uint256 _campaignId);\n\n    /* Grave Payout Period */\n    event GracePayoutPeriod(uint256 _finalPayoutDeadline, uint256 _campaignId);\n\n    /*Payment actions */\n    event PayInfluencerIncrementalSingle(uint256 _amount, uint256 _outstandingIncrementalPayment, uint256 _campaignId);\n    event PayInfluencerIncremental(uint256 _amount, uint256 _outstandingIncrementalPayments, uint256 _campaignId);\n    event JackpotInfluencerPayment(uint256 _amount, uint256 _campaignId);\n    event AgreedAmountPayment(address indexed _influencer, uint256 _amount, uint256 _campaignId);\n\n    /*Business/Influencer overrides */\n    event ConfirmedPayment(\n        bool _businessConfirmed,\n        bool _influencerConfirmed,\n        uint256 _confirmedPaymentAmount,\n        uint256 _campaignId\n    );\n    event ConfirmedRefund(bool _businessConfirmed, bool _influencerConfirmed, uint256 _campaignId);\n\n    /*Campaign ended actions */\n    event CampaignTerminationIncrementPayment(\n        address indexed _influencer,\n        bool _incrementalObjectiveReached,\n        uint256 _campaignId\n    );\n    event CampaignTerminationJackpotPayment(address indexed _influencer, bool _jackpotObjectiveReached, uint256 _campaignId);\n    event CampaignEnding(\n        uint256 _refundableAmount,\n        bool _jackpotObjectiveReached,\n        bool _incrementalObjectiveReached,\n        uint256 _campaignId\n    );\n\n    /* Deadline */\n    event ExtendDeadline(uint256 _newDeadline, uint256 _campaignId);\n\n    modifier onlyInfluencer() {\n        require(influencer == msg.sender, 'Only the influencer can call this function');\n        _;\n    }\n\n    modifier onlyBusiness() {\n        require(business == msg.sender, 'Only the business can call this function');\n        _;\n    }\n\n    modifier eitherBusinessOrInfluencer() {\n        require(business == msg.sender || influencer == msg.sender, 'Only the business or influencer can call this function');\n        _;\n    }\n\n    modifier onlyAdmin() {\n        // require(admin == msg.sender, \"Only the admin can call this function\");\n        _;\n    }\n\n    constructor(\n        address payable _influencer,\n        address payable _business,\n        uint256 _startDate,\n        uint256 _deadline,\n        uint256 _simplePostDuration,\n        uint256 _jackpotPayment,\n        uint256 _incrementalPayment,\n        uint256 _jackpotTargetAmount,\n        uint256 _incrementalTargetAmount,\n        bytes4 _objective,\n        uint256 _campaignId\n    ) payable {\n        influencer = _influencer;\n        business = _business;\n        startDate = _startDate;\n        deadline = _deadline;\n        simplePostDuration = _simplePostDuration;\n        jackpotPayment = _jackpotPayment;\n        incrementalPayment = _incrementalPayment;\n        jackpotTargetAmount = _jackpotTargetAmount;\n        incrementalTargetAmount = _incrementalTargetAmount;\n        objective = _objective;\n        campaignId = _campaignId;\n        depositedFor[influencer] = depositedFor[influencer] + address(this).balance;\n    }\n\n    function getTimestamp() public view returns (uint256) {\n        return block.timestamp;\n    }\n\n    /**\n     * @dev used for injecting more money for campaigns you want to extend\n     */\n    function depositPayment() external payable onlyBusiness {\n        require(deadline > block.timestamp, 'depositPayment(): The campaign deadline has passed');\n        require(msg.value > 0, 'depositPayment(): You must deposit money into the contract');\n        jackpotTargetReached = false;\n        incrementalTargetReached = false;\n        depositedFor[influencer] = depositedFor[influencer] + msg.value;\n        emit BusinessDeposited(msg.sender, msg.value, campaignId);\n    }\n\n    /**\n     * @dev check amount deposited for an influencer\n     */\n    function depositedForInfluencerBalance() external view returns (uint256) {\n        return depositedFor[influencer];\n    }\n\n    /**\n     * @dev check amount deposited in campaign\n     */\n    function addressBalance() external view returns (uint256) {\n        return address(this).balance;\n    }\n\n    /**\n     * @dev protest a contentious campaign\n     * @param _postPosted Protested post must be valid post\n     */\n    function protestCampaign(bool _postPosted) external onlyBusiness {\n        require(deadline < block.timestamp, 'protestCampaign(): payout has already gone through');\n        require(_postPosted == true, 'protestCampaign():, protest must be against valid post');\n        campaignIsUnderProtest = true;\n    }\n\n    /**\n     * @dev end campaign protest\n     */\n    function resolveProtest() external onlyAdmin onlyBusiness {\n        require(campaignIsUnderProtest == true, 'cancelProtest(): cannot cancel protest if not under protest');\n        require(deadline < block.timestamp, 'cancelProtest(): protest period is over');\n        campaignIsUnderProtest = false;\n    }\n\n    /**\n     * @dev remove 12 hour grace period to allow shorter payouts\n     */\n    function removeGracePeriod(bool _businessConfirmed, bool _influencerConfirmed) external eitherBusinessOrInfluencer {\n        require(\n            jackpotTargetReached == true || incrementalTargetReached == true,\n            'removeGracePeriod(): only applicable when payout is inbound'\n        );\n        require(\n            _businessConfirmed == true && _influencerConfirmed == true,\n            'removeGracePeriod(): both sides must agree to remove grace period'\n        );\n        deadline -= 43200;\n    }\n\n    /**\n     * @dev check if objective was achieved\n     * @param  _postStat Post stat for incremental payment\n     * @param  _postPosted check if post is posted and valid\n     */\n    //only influencer posts the url(s) throughout the campaign. At the end of the campaign sum of\n    //target metric is added and passed to this function to _postStat.\n\n    //influencer must tag the @business on social media which we'll use to validate there eth address\n    //pass the successfully valid tagged post to _postPosted\n\n    //business has a protest button which will flag a shady post which will be manually reviewed by team\n    //protested posts will delay payout by a day. 12 hour delay period after deadline for business to protest\n    //claim your reward button on the frontend so only influencer can call this function\n\n    //TODO investigate forwarding gas cost away from influencer\n    //TODO pay now feature: if business & influencer are both happy with present post they can both confirm to pay right now\n\n    function checkCampaignObjectiveReached(\n        uint256 _postStat,\n        bool _postPosted,\n        uint256 _postTimestamp\n    ) external {\n        require(msg.sender == influencer, 'checkCampaignObjectiveReached(): Caller must be influencer');\n        require(_postPosted == true, 'checkCampaignObjectiveReached(): post was not obtained');\n        require(deadline <= block.timestamp, 'checkCampaignObjectiveReached(): deadline must be have passed');\n        require(_postTimestamp <= deadline, 'checkCampaignObjectiveReached(): invalid post: post must be before the deadline');\n        require(_postTimestamp >= startDate, 'checkCampaignObjectiveReached(): post must be after campaign startDate');\n        //if it is a simplePost no incremental needed\n        if (keccak256(abi.encodePacked(objective)) == keccak256(abi.encodePacked('post'))) {\n            require(_postStat >= jackpotTargetAmount, 'checkCampaignObjectiveReached(): jackpot target must be satisfied');\n            jackpotTargetReached = true;\n            emit JackpotTargetReached(true, campaignId);\n            // Extend payment by 12 hours\n            deadline = deadline.add(43200);\n            emit GracePayoutPeriod(deadline, campaignId);\n            //not a simple post\n        } else {\n            deadline = deadline.add(43200);\n            require(\n                _postStat >= incrementalTargetAmount,\n                'checkCampaignObjectiveReached(): post must at least be greater than incremental to get paid'\n            );\n            //eligible for jackpot reward and incremental reward\n            if (_postStat >= jackpotTargetAmount) {\n                require(_postStat >= jackpotTargetAmount, 'checkCampaignObjectiveReached(): jackpot target must be satisfied');\n                jackpotTargetReached = true;\n                emit JackpotTargetReached(true, campaignId);\n                uint256 exceededAmountMin = jackpotTargetAmount.add(incrementalTargetAmount);\n                if (_postStat >= exceededAmountMin) {\n                    //amount which influencer exceeded jackpot objective\n                    exceededObjectiveAmount = _postStat.sub(jackpotTargetAmount);\n                    if (exceededObjectiveAmount >= incrementalTargetAmount) {\n                        outstandingIncrementalPayments = exceededObjectiveAmount.div(incrementalTargetAmount);\n                        incrementalTargetReached = true;\n                        //REVIEW the decimal problem\n                        emit IncrementalTargetReached(outstandingIncrementalPayments, campaignId);\n                        // Extend payment by 12 hours\n                        deadline = deadline.add(43200);\n                    }\n                }\n                emit GracePayoutPeriod(deadline, campaignId);\n                //only incremental reward\n            } else {\n                outstandingIncrementalPayments = _postStat.div(incrementalTargetAmount);\n                incrementalTargetReached = true;\n                //REVIEW the decimal problem\n                emit IncrementalTargetReached(outstandingIncrementalPayments, campaignId);\n                emit GracePayoutPeriod(deadline, campaignId);\n            }\n        }\n    }\n\n    /**\n     * @dev pay the influencer\n     * @param _businessConfirmed business has confirmed in case of overriding payment\n     * @param _influencerConfirmed influencer has confirmed in case of overriding payment\n     */\n    function payInfluencer(bool _businessConfirmed, bool _influencerConfirmed) public payable onlyInfluencer {\n        require(\n            jackpotTargetReached || incrementalTargetReached || (_businessConfirmed && _influencerConfirmed),\n            'payInfluencer(): conditions for payment were not met'\n        );\n        require(campaignIsUnderProtest == false, 'payInfluencer(): Cannot complete payout when under protest');\n        require(deadline <= block.timestamp, 'payInfluencer(): this should only trigger after campaign period is over');\n\n        //If attempted msg.value sent when regular address(balance) pay\n        if (!_businessConfirmed || !_influencerConfirmed) {\n            require(msg.value == 0, 'payInfluencer(), not allowed to forcibly send eth');\n        }\n\n        //jackpot payment\n        if (jackpotTargetReached) {\n            require(depositedFor[influencer] >= jackpotPayment);\n            depositedFor[influencer] -= jackpotPayment;\n            influencer.transfer(jackpotPayment);\n            jackpotTargetReached = false;\n            emit JackpotInfluencerPayment(jackpotPayment, campaignId);\n        }\n        //incremental payment\n        if (incrementalTargetReached) {\n            require(\n                depositedFor[influencer] >= incrementalPayment,\n                'payInfluencer(): the attempted payout is more than is despoited in the campaign'\n            );\n            // for multiple outstanding payments\n            if (outstandingIncrementalPayments >= 1) {\n                uint256 outstandingIncrementalPayment = outstandingIncrementalPayments.mul(incrementalPayment);\n                depositedFor[influencer] -= outstandingIncrementalPayment;\n                influencer.transfer(outstandingIncrementalPayment);\n                // delete outstandingIncrementalPayments;\n                outstandingIncrementalPayments = 0;\n                incrementalTargetReached = false;\n                emit PayInfluencerIncremental(outstandingIncrementalPayment, outstandingIncrementalPayments, campaignId);\n            } else {\n                depositedFor[influencer] -= incrementalPayment;\n                influencer.transfer(incrementalPayment);\n                incrementalTargetReached = false;\n                emit PayInfluencerIncrementalSingle(incrementalPayment, outstandingIncrementalPayments, campaignId);\n            }\n        }\n        //agreed upon sum\n        if (_businessConfirmed && _influencerConfirmed) {\n            require(msg.value >= confirmedPaymentAmount, 'payInfluencer(): only confirmed payment amount or more can be sent');\n            influencer.transfer(msg.value);\n            emit AgreedAmountPayment(influencer, msg.value, campaignId);\n        }\n    }\n\n    /**\n     * @dev confirm that both parties are in agreement for refund\n     * @param _businessConfirmed business confirmation\n     * @param _influencerConfirmed influencer confirmation\n     */\n    function confirmRefund(bool _businessConfirmed, bool _influencerConfirmed) external eitherBusinessOrInfluencer {\n        businessConfirmedRefund = _businessConfirmed;\n        influencerConfirmedRefund = _influencerConfirmed;\n        emit ConfirmedRefund(_businessConfirmed, _influencerConfirmed, campaignId);\n    }\n\n    /**\n     * @dev confirm both parties want to pay influencer\n     * @param _businessConfirmed business confirmed\n     * @param _influencerConfirmed influencer confirmed\n     * @param _confirmedPaymentAmount confirmed payment amount\n     */\n    function confirmPayment(\n        bool _businessConfirmed,\n        bool _influencerConfirmed,\n        uint256 _confirmedPaymentAmount\n    ) external eitherBusinessOrInfluencer {\n        businessConfirmedPay = _businessConfirmed;\n        influencerConfirmedPay = _influencerConfirmed;\n        confirmedPaymentAmount = _confirmedPaymentAmount;\n        emit ConfirmedPayment(_businessConfirmed, _influencerConfirmed, _confirmedPaymentAmount, campaignId);\n    }\n\n    /**\n     * @dev confirm both parties want to extend\n     * @param _businessConfirmed business confirmed\n     * @param _influencerConfirmed influencer confirmed\n     */\n    function confirmExtension(bool _businessConfirmed, bool _influencerConfirmed) external eitherBusinessOrInfluencer {\n        businessConfirmedExtension = _businessConfirmed;\n        influencerConfirmedExtension = _influencerConfirmed;\n    }\n\n    /**\n     * @dev extend the campaign deadline\n     * @param _newDeadline the new unix timestamp deadline\n     */\n    function extendDeadline(uint256 _newDeadline) external eitherBusinessOrInfluencer {\n        require(deadline < _newDeadline, 'extendDeadline(): new deadline must be after existing deadline');\n        require(\n            businessConfirmedExtension && influencerConfirmedExtension,\n            'extendDeadline(): both sides must confirm extension'\n        );\n        deadline = _newDeadline;\n        emit ExtendDeadline(_newDeadline, campaignId);\n    }\n\n    /**\n     * @dev complete campaign and potentially refund business\n     */\n    function campaignEnded() external eitherBusinessOrInfluencer {\n        require(\n            block.timestamp >= deadline || (businessConfirmedRefund && influencerConfirmedRefund),\n            'campaignEnded(): Either campaign ongoing, or both parties yet to confirm desire to'\n        ); //check multiple require statements\n        if (jackpotTargetReached) {\n            payInfluencer(businessConfirmedPay, influencerConfirmedPay);\n            emit CampaignTerminationJackpotPayment(business, true, campaignId);\n        } else if (incrementalTargetReached) {\n            payInfluencer(businessConfirmedPay, influencerConfirmedPay);\n            emit CampaignTerminationIncrementPayment(business, false, campaignId);\n        }\n        emit CampaignEnding(depositedFor[influencer], false, false, campaignId);\n        selfdestruct(business);\n    }\n\n    /*\n    function pause() external onlyAdmin {\n        super._pause();\n    }\n\n    function unpause() external onlyAdmin {\n        super._unpause();\n    }\n    */\n}\n",
  "sourcePath": "/Users/benweinberg/Desktop/Work/FamePay/FamePayContract/contracts/Famepay.sol",
  "compiler": {
    "name": "solc",
    "version": "0.8.10+commit.fc410830.Emscripten.clang"
  },
  "schemaVersion": "3.4.3",
  "updatedAt": "2021-12-08T00:46:07.786Z",
  "devdoc": {
    "kind": "dev",
    "methods": {
      "addressBalance()": {
        "details": "check amount deposited in campaign"
      },
      "campaignEnded()": {
        "details": "complete campaign and potentially refund business"
      },
      "checkCampaignObjectiveReached(uint256,bool,uint256)": {
        "details": "check if objective was achieved",
        "params": {
          "_postPosted": "check if post is posted and valid",
          "_postStat": "Post stat for incremental payment"
        }
      },
      "confirmExtension(bool,bool)": {
        "details": "confirm both parties want to extend",
        "params": {
          "_businessConfirmed": "business confirmed",
          "_influencerConfirmed": "influencer confirmed"
        }
      },
      "confirmPayment(bool,bool,uint256)": {
        "details": "confirm both parties want to pay influencer",
        "params": {
          "_businessConfirmed": "business confirmed",
          "_confirmedPaymentAmount": "confirmed payment amount",
          "_influencerConfirmed": "influencer confirmed"
        }
      },
      "confirmRefund(bool,bool)": {
        "details": "confirm that both parties are in agreement for refund",
        "params": {
          "_businessConfirmed": "business confirmation",
          "_influencerConfirmed": "influencer confirmation"
        }
      },
      "depositPayment()": {
        "details": "used for injecting more money for campaigns you want to extend"
      },
      "depositedForInfluencerBalance()": {
        "details": "check amount deposited for an influencer"
      },
      "extendDeadline(uint256)": {
        "details": "extend the campaign deadline",
        "params": {
          "_newDeadline": "the new unix timestamp deadline"
        }
      },
      "payInfluencer(bool,bool)": {
        "details": "pay the influencer",
        "params": {
          "_businessConfirmed": "business has confirmed in case of overriding payment",
          "_influencerConfirmed": "influencer has confirmed in case of overriding payment"
        }
      },
      "protestCampaign(bool)": {
        "details": "protest a contentious campaign",
        "params": {
          "_postPosted": "Protested post must be valid post"
        }
      },
      "removeGracePeriod(bool,bool)": {
        "details": "remove 12 hour grace period to allow shorter payouts"
      },
      "resolveProtest()": {
        "details": "end campaign protest"
      }
    },
    "version": 1
  },
  "userdoc": {
    "events": {
      "BusinessDeposited(address,uint256,uint256)": {
        "notice": "Busines actions "
      }
    },
    "kind": "user",
    "methods": {},
    "version": 1
  }
}